:020000040800F2
:10000000E06F0120510300086F4200081916000834
:100010006D420008090B0008F560000800000000B0
:10002000000000000000000000000000990200082D
:100030000D0F000800000000ED020008E15C000860
:100040006B0300086B0300086B0300086B030008D8
:100050006B0300086B0300086B0300086B030008C8
:100060006B0300086B0300086B0300086B030008B8
:100070006B0300086B0300086B0300086B030008A8
:100080006B0300086B0300086B0300086B03000898
:100090006B0300086B0300086B0300086B03000888
:1000A0006B0300086B0300086B0300086B03000878
:1000B0006B030008515D0008E15D00086B03000858
:1000C0006B0300086B0300086B0300086B03000858
:1000D0006B030008595F00086B0300086B030008FE
:1000E0006B0300086B0300086B0300086B03000838
:1000F0006B0300086B0300086B0300086B03000828
:100100006B030008294600086B0300086B03000816
:100110006B0300086B0300086B0300086B03000807
:100120006B0300086B0300086B0300086B030008F7
:100130006B0300086B0300086B0300086B030008E7
:100140006B0300086B0300086B0300086B030008D7
:100150006B0300086B0300086B0300086B030008C7
:100160006B0300086B0300086B0300086B030008B7
:100170006B0300086B0300086B0300086B030008A7
:100180006B0300086B03000800F002F800F06DF844
:100190000AA090E8000C82448344AAF10107DA45E2
:1001A00001D100F062F8AFF2090EBAE80F0013F0C7
:1001B000010F18BFFB1A43F0010318471CAD0300E1
:1001C0003CAD03000A444FF0000C10F8013B13F063
:1001D000070408BF10F8014B1D1108BF10F8015BA0
:1001E000641E05D010F8016B641E01F8016BF9D193
:1001F00013F0080F1EBF10F8014BAD1C0C1B09D1EA
:100200006D1E58BF01F801CBFAD505E014F8016B5B
:1002100001F8016B6D1EF9D59142D6D370470000ED
:100220000023002400250026103A28BF78C1FBD8FF
:10023000520728BF30C148BF0B607047642900F0E7
:100240002981752900F02681782900F05D816329D4
:1002500000F0B483732900F0B983002070471FB504
:100260000CF0C6F81FBD10B510BD00F01DFC114606
:10027000FFF7F5FF08F05EFB00F03BFC03B4FFF76F
:10028000F2FF03BC06F0CBF830BF72B6704762B61F
:10029000704780F3088870472A4B19680868B0E8EF
:1002A000F04F80F30988BFF36F8F4FF0000080F3A9
:1002B000118870470000000006480068006880F35D
:1002C000088862B661B6BFF34F8FBFF36F8F00DF50
:1002D00000BF00BF08ED00E0DFF80C00016841F44A
:1002E00070010160704700BF88ED00E0EFF3098006
:1002F000BFF36F8F134B1A681EF0100F08BF20ED6D
:10030000108A20E9F04F106008B44FF0500080F3DD
:100310001188BFF34F8FBFF36F8F0BF0D7F84FF0FB
:10032000000080F3118808BC19680868B0E8F04F35
:100330001EF0100F08BFB0EC108A80F30988BFF3DD
:100340006F8F704770020020EFF305807047000048
:100350000948804709480047FEE7FEE7FEE7FEE759
:10036000FEE7FEE7FEE7FEE7FEE7FEE70448054995
:10037000054A064B70470000F55C0008890100083B
:10038000E0690120E06F0120E06B0120E06B0120BB
:10039000704710B54C1084EA530404D54042C1F1B3
:1003A000000138BF491E1B4204D55242C3F100036D
:1003B00038BF5B1E00F010FA14F0804F04D04042AA
:1003C000C1F1000138BF491E14F0004F04D0524261
:1003D000C3F1000338BF5B1E10BD00000FB4044919
:1003E00010B503AA029800F0F5FA10BC5DF814FBF2
:1003F0005000002070B5044685690068C10601D52B
:10040000302600E02026C00707D070BDD4E90121C6
:1004100030469047206A401C20626D1EF6D570BDA4
:1004200070B5044685690078C00707D170BDD4E96E
:10043000012120209047206A401C20626D1EF6D5C5
:1004400070BD70B50C460546012A05D02878800697
:1004500000D5EA69002302E0012305E05B1C93421A
:1004600002D2E05C0028F9D1A869E618C01AA86198
:10047000286A184428622846FFF7BCFF04E0D5E943
:10048000012114F8010B9047B442F8D32846FFF736
:10049000C7FF70BD2DE9F04106460024106875299C
:1004A000314615A510D0AFF30080002802DA404293
:1004B00012A507E031688A0701D511A502E04907B6
:1004C00004D510A5012401E0AFF3008000210A2328
:1004D00006F1240707E0B0FBF3F203FB1200303013
:1004E00078541046491C0028F5D123462A46304648
:1004F000BDE8F04100F0E7B9000000002D00000069
:100500002B0000002000000070B504460D46214677
:100510001068AFF300802188090502D50F4A7A449C
:1005200002E00E4A7A440E32002104F1240305E071
:1005300000F00F060009965D5E54491C0028F7D1B3
:1005400020780023000704D5702D02D009B10223C2
:1005500011322046BDE8704000F0B5B998A60300FE
:100560002DE9F05F894604464FF0000ADFF874B1C8
:10057000FB44C0F820A02046E1688847002874D0DA
:10058000252806D0D4E901219047206A401C20622A
:10059000F1E700265F462046E168884720280546A7
:1005A00007DB312D05D2781910F8200C08B106436D
:1005B000F1E7B00701D526F00406C4F81CA0002717
:1005C000C4F818A02A2D09D0284605F021FF38B319
:1005D00004EB8708303DC8F8185019E059F8041B9F
:1005E000204604EB87029161E1688847012F0546A8
:1005F00018D1E069002820DA26F020061DE0D8F89E
:10060000180000EB800005EB40003038C8F81800F7
:100610002046E1688847054605F0FAFE0028EED13D
:10062000012F0AD02E2D08D12046E16888477F1C73
:100630000546022F46F02006C4DBA069002803DA35
:10064000404246F00106A061F00701D026F01006F6
:100650006C2D0BD0682D09D04C2D39D06A2D35D09A
:10066000742D35D07A2D33D016E038E0E1682F466E
:1006700020468847B842054609D16C2F26D04FF452
:100680008060E168064320468847054604E06C2FF9
:100690001AD04FF4807006430DB3A5F1410019281C
:1006A00002D8203546F400664A4629462046266090
:1006B0004E46FFF7C3FD80B101280BD0F61D26F092
:1006C000070000F1080956E74020E4E78020D8E75A
:1006D0000020D6E706F104094DE7284652E7206AD4
:1006E000BDE8F09F6EA60300032A40F2308010F0B0
:1006F000030C00F0158011F8013BBCF1020F6244BD
:1007000098BF11F801CB00F8013B38BF11F8013B4D
:10071000A2F1040298BF00F801CB38BF00F8013BFA
:1007200011F0030300F06881083AC0F0088051F826
:10073000043B083A51F804CBA0E80810F5E7121D75
:100740005CBF51F8043B40F8043BAFF30080D20794
:1007500024BF11F8013B11F801CB48BF11F8012B60
:1007600024BF00F8013B00F801CB48BF00F8012B83
:10077000704702F0FF0343EA032242EA024200F01C
:100780006FB94FF0000200B51346944696462039E3
:1007900022BFA0E80C50A0E80C50B1F12001BFF43A
:1007A000F7AF090728BFA0E80C5048BF0CC05DF8A0
:1007B00004EB890028BF40F8042B08BF704748BFEE
:1007C00020F8022B11F0804F18BF00F8012B704762
:1007D000704770477047704753EA020C00F0698019
:1007E0002DE9F04B4FF00006002B1FBFB3FA83F545
:1007F00003FA05F424FA05F65E4012BF1643B2FA76
:1008000082F502FA05F4C5F120051EBF22FA05FCA7
:1008100044EA0C04203556EA044C4FEA144418BF4D
:10082000641C4FF000084FF00009904271EB030C7C
:1008300039D3002919BFB1FA81F701FA07F6B0FAE6
:1008400080F700FA07F6C7F120071EBF20FA07FC61
:1008500046EA0C062037B6FBF4FCA7EB0507103F71
:1008600007F01F0BCBF120060CFA0BFB2CFA06F657
:1008700044BFB3460026202FA4BF5E464FF0000BB6
:100880005BEA060C08BF4FF0010B19EB0B09ABFB41
:10089000027C48EB0608C01B06FB02CC0BFB03CC1A
:1008A00071EB0C01C1E70B46024641464846BDE8E4
:1008B000F08B13B54FF000004FF00001AFF3008054
:1008C000BDE81C4070472DE9F0470D469946924619
:1008D000044600F124080168880604D5E06921F087
:1008E0001001216000E00120A84201DD471B00E06B
:1008F0000027A1697A1902EB0900081AA061207883
:10090000C00602D42046FFF775FD002608E0D4E9B2
:1009100001211AF806009047206A401C761C2062CC
:100920004E45F4DB2078C0060AD52046FFF762FD6D
:1009300006E0D4E9012130209047206A401C206263
:10094000381EA7F10107F4DC07E0D4E9012118F80B
:1009500005009047206A401C2062281EA5F1010571
:10096000F3DC2046FFF75CFD2078000602D502206C
:10097000BDE8F0870120FBE701694A1C02610878A5
:10098000704700B58FB0CDE90131002105910549CF
:100990007944CDE9031011466846FFF7E1FD0FB039
:1009A00000BD0000E5FFFFFF10B5436913B1AFF3D1
:1009B000008001E0FFF745FD012010BD127800F135
:1009C00024010A7000224A700122EDE711684FF0FD
:1009D000FF32E9E7074B70B50D467B44FFF7D1FFC7
:1009E0000446284600F05CF810B14FF0FF3070BDAF
:1009F000204670BDEB7C000010B5203AC0F00B80A3
:100A0000B1E81850203AA0E81850B1E81850A0E812
:100A10001850BFF4F5AF5FEA027C24BFB1E818506C
:100A2000A0E8185044BF18C918C0BDE810405FEADC
:100A3000827C24BF51F8043B40F8043B08BF704758
:100A4000D20728BF31F8023B48BF11F8012B28BF5D
:100A500020F8023B48BF00F8012B70474FF000021E
:100A60000429C0F0128010F0030C3FF48CAECCF1DE
:100A7000040CBCF1020F18BF00F8012BA8BF20F82E
:100A8000022BA1EB0C01FFF77EBE5FEAC17C24BF05
:100A900000F8012B00F8012B48BF00F8012B70472C
:100AA000007B00F080007047754600F029F8AE46E4
:100AB00005006946534620F00700854618B020B56A
:100AC000FFF754FCBDE820404FF000064FF0000750
:100AD0004FF000084FF0000B21F00701AC46ACE8E6
:100AE000C009ACE8C009ACE8C009ACE8C0098D4653
:100AF00070470446AFF300802046FFF7BFFB0000BD
:100B00000048704780690120FEE770B500254FF46A
:100B1000803405E0802003F075FD08B144B101E0A8
:100B2000641EF7D240F2FF5003F044FD284670BD2A
:100B3000032070BD10B514490446086810F0450F35
:100B4000FBD0042003F05EFD20B1042003F032FD51
:100B5000032010BD012003F055FD20B1012003F05A
:100B600029FD012010BD084824380068A04201D0AA
:100B7000102010BD40F2FF5003F01CFD0248203849
:100B8000006800F0080010BD342C014010B50024AE
:100B90004FF480310E4A09E0106810F0450F05D07F
:100BA00009B1400705D5032404200CE0491EF3D207
:100BB000F7E7012003F026FD18B10124204603F0D9
:100BC000F9FC40F2FF5003F0F5FC204610BD000098
:100BD000342C014010B50A49086810F0450FFBD0CD
:100BE000042003F00FFD20B1042003F0E3FC0320F8
:100BF00010BD40F2FF5003F0DDFC002010BD0000EE
:100C0000342C014070B50D461C4906460024086886
:100C100010F0450FFBD0042003F0F4FC20B10420B9
:100C200003F0C8FC032070BD012003F0EBFC20B1F1
:100C3000012003F0BFFC012070BD1048243800687B
:100C4000B04212D140F2FF5003F0B4FC0B48203800
:100C5000026812F4604F03D0900404D5132070BDD5
:100C6000100C288007E0500401D5102070BD10043E
:100C700001D50F2070BD204670BD0000342C01400E
:100C800010B500244FF480310B4809E0026812F0DF
:100C9000450F05D009B1500705D50324042006E00F
:100CA000491EF3D2F7E7500603D50024402003F095
:100CB00081FC204610BD0000342C0140034A002175
:100CC000116051605321312005F05CB820000020F4
:100CD00010B5094C0221204600F09AFC1021204654
:100CE00000F096FC2021204600F092FC2046BDE852
:100CF0001040012100F08CBC0008024010B5094CE6
:100D00000221204600F084FC1021204600F080FCE7
:100D10002021204600F07EFC0121204600F07AFCD4
:100D2000002010BD0008024070B50B4C05460221A2
:100D3000204604F047FF0028F9D02946204604F059
:100D40004AFF0121204604F03DFF0028F9D020464B
:100D500004F03FFFC0B270BD0038004000290168B8
:100D600002D041F0010101E021F001010160704772
:100D70002DE9F043016821F00101016000210160CB
:100D800041608160C1600161212141613C493C4A6F
:100D90003D251039904202D18D60BDE8F083384A7C
:100DA0004FF474661832904201D18E60F5E7344AF0
:100DB0004FF474173032904201D18F60EDE7304A22
:100DC0004FF0746C4832904202D1C1F808C0E4E799
:100DD0002B4B2C4A6033984201D1CA60DDE7284C86
:100DE000294B7834A04201D1CB60D6E7DFF8908060
:100DF000264C08F19008404501D1CC60CDE7DFF8E2
:100E000080804FF03D5908F1A808404502D1C1F853
:100E10000C90C2E71E49DFF878800839404501D1BF
:100E20000D60BAE71A4D1835A84201D10E60B4E73B
:100E3000174D3035A84201D10F60AEE7144D48354B
:100E4000A84202D1C1F800C0A7E7114D1049603592
:100E5000091FA84201D10A609FE70D4A78329042EB
:100E600001D10B6099E70A4A9032904201D10C609F
:100E700093E7074AA83290428FD1C1F800908CE7DF
:100E8000106002403D000020400F002000003D2087
:100E9000106402400029016802D041F0200101E005
:100EA00021F0200101607047014600200968C90750
:100EB00000D001207047000030B50368124ACC68AA
:100EC00013400A682243D1E905452C432243CC69EB
:100ED00022430C6A22434C6A22438C6A22434C6BA5
:100EE00022438C6B22431A430260426922F00703BB
:100EF000D1E90B2422431A4342610A6942604A68DD
:100F000082608968C16030BD3F801CF070472DE968
:100F1000F04132264FF49675242000F0D3F80027D4
:100F20000024FF2000F0E4F8641CA4B2B442F8D31B
:100F30007F1CBFB2AF42F3D3262000F0C3F80027D6
:100F40000024FF2000F0D4F8641CA4B2B442F8D30B
:100F50007F1CBFB2AF42F3D3BDE8F04100F015B93A
:100F60002DE9F047064632254FF49679242000F00B
:100F7000A9F80024002704FB05F8F11918F801006E
:100F800000F0B6F87F1CBFB2AF42F6D3641CA4B227
:100F90004C45EFD3262000F095F80024002704FBF1
:100FA00005F8F11918F8010000F0A2F87F1CBFB293
:100FB000AF42F6D3641CA4B24C45EFD3BDE8F04772
:100FC00000F0E3B810B500F061F800F02DF8122041
:100FD00000F078F800F028F8FF2000F073F82120E6
:100FE00000F070F8402000F083F8002000F080F856
:100FF0003C2000F067F8052000F07AF8112000F09E
:1010000061F8032000F074F8002140F22B1340F245
:101010008F12084600F097F80021084600F07EF88D
:10102000BDE81040AFF3008010B509A0FFF7D6F976
:101030000D4C02E00A200AF095F80421204600F049
:10104000E0FA0128F6D0BDE8104008A0FFF7C6B9C5
:1010500044656275673A20652D5061706572206243
:101060007573790D0A00000000080240446562753E
:10107000673A20652D506170657220627573792022
:1010800072656C656173650D0A00000010B50C4C4B
:101090000121204600F0BEFA64200AF063F8012125
:1010A000204600F0B5FA02200AF05CF80121204643
:1010B00000F0B0FABDE8104064200AF053B8000018
:1010C0000008024070B5094C05460221204600F098
:1010D0009FFA1021204600F09BFA2846FFF724FED5
:1010E0002046BDE87040102100F094BA000802408C
:1010F00070B5094C05460221204600F08BFA1021FC
:10110000204600F085FA2846FFF70EFE2046BDE88F
:101110007040102100F07EBA0008024070B505460C
:101120000C464E20FFF7CEFFC5F3C700FFF7E0FFE8
:101130004F20FFF7C7FFE0B2FFF7DAFF200ABDE854
:101140007040FFF7D5BF2DE9F04107461C46164613
:101150000D464420FFF7B6FFC7F3C700FFF7C8FFEF
:10116000C6F3C700FFF7C4FF4520FFF7ABFFE8B2A7
:10117000FFF7BEFF280AFFF7BBFFE0B2FFF7B8FF9B
:10118000200ABDE8F041FFF7B3BF10B52220FFF7FA
:1011900099FFF720FFF7ACFF2020FFF793FFBDE892
:1011A0001040FFF741BF00007CB50121042003F08F
:1011B0002BF93320009001208DF8040000248DF8D5
:1011C000064003208DF80500084D8DF8074069465C
:1011D000284600F0B5F9042000908DF804408DF801
:1011E00007406946284600F0ABF97CBD0008024084
:1011F00038B524A0FFF7F2F8FFF780FD4FF0FF3578
:1012000008B1284638BD25A0FFF7E8F8FFF7DAFE59
:10121000FFF77DFE4FF4FA7009F0A4FF43F6982122
:10122000002007F0DFFF040027D023A0FFF7D6F847
:10123000FF20009000234FF496724FF4C8712046AF
:1012400003F0BEF821A0FFF7C9F8204603F0D6F856
:10125000FF2003F049F8264803F09AF82046FFF7EC
:101260007FFE4FF4FA6009F07DFF2146002007F071
:10127000ADFFFFF72DFD002038BD1EA0FFF7AEF833
:10128000BFE700004550445F34494E325F56325F3D
:10129000746573742044656D6F0D0A00652D50618F
:1012A00070657220496E697420616E6420436C65BC
:1012B00061722E2E2E0D0A005061696E745F4E65AC
:1012C00077496D6167650D0A0000000073686F77EC
:1012D0002077696E646F7720424D502D2D2D2D2D76
:1012E0002D2D2D2D2D2D2D2D2D2D2D2D0D0A0000CB
:1012F000227103084661696C656420746F20617017
:10130000706C7920666F7220626C61636B206D6512
:101310006D6F72792E2E2E0D0A0000008000A0F154
:10132000C0400029016802D041F0010101E0024AF9
:101330001140016070470000FEFF0F0010B5D0E9BA
:1013400001121143D0E903231A43114342691143A7
:1013500082691143C2691143026A1143426A11430F
:10136000826A1143C26A1143026B11430268920000
:10137000A2F1C04211608168082907D10168890083
:10138000A1F1C0410A6842F040020A60416BD1E914
:10139000002342EA03128B688C891B0243EA044350
:1013A0001A430B8A42EA03520B7D896942EA0362BF
:1013B0000A4301688900A1F1C0414A60C16AB1F5E0
:1013C000804F08D000686FF070418000A0F1C040ED
:1013D000C0F8041110BD816BD1E9002342EA031269
:1013E0008B680C8A1B0243EA04531A430B7D8969FC
:1013F00042EA036200680A438000A0F1C040C0F8DE
:10140000042110BD2DE9FC5F00254A4C00954FF4E6
:10141000806801954027C4F81080C4E902750E4623
:101420004FF0080B1021C4E900B1A946204603F093
:101430002FF91020FFF77EFB002850D13E48BA4616
:101440004F460089000420603720C4E9010AC4E93E
:101450000398204603F01CF93720FFF76BFB0028A8
:101460003DD1411E04F11400C0E9001B3021816010
:101470000221C0E903170121416103F0ABF83320D9
:10148000C4F808A0C4E90070C4E90378204603F05A
:10149000FFF83320FFF74EFB040020D1274FDFF881
:1014A0009CA04FF4001BE9464C3F40F22A68386884
:1014B00010EA080F0BD1584603F0A4F80028F6D024
:1014C000DAF8001049F825106D1C022DEFD3082022
:1014D00003F098F828B1082003F06CF80420BDE868
:1014E000FC9F022003F08EF820B1022003F062F886
:1014F0000220F4E7202003F085F820B1202003F03B
:1015000059F80620EBE74FF40075284603F07AF807
:1015100020B1284603F04EF80720E0E740F2FF50E4
:1015200003F048F8009800BA7060019800BA306083
:101530002046D4E74013002038000020802C0140D2
:10154000F0B50023012403270D6804FA03F21540C7
:10155000954242D1D0F800C05E0007FA06F52CEAA9
:10156000050CC0F800C091F804C0D0F800E00CFAF7
:1015700006FC4CEA0E0CC0F800C091F804C0BCF1A7
:10158000010F02D0BCF1020F1FD1D0F808C02CEA25
:10159000050CC0F808C091F805C0D0F808E00CFAB6
:1015A00006FC4CEA0E0CC0F808C0D0F804C02CEAC7
:1015B000020CC0F804C0426891F806C00CFA03FCA3
:1015C0001FFA8CFC42EA0C024260C268AA43C26065
:1015D000CA79C568B2402A43C2605B1C102BB3D3E2
:1015E000F0BD4B07DB0E9A40C90810B500EB810037
:1015F000016A0F249C40A1430162016A1143016208
:1016000010BD0246002012690A4200D00120704736
:101610004183704701837047FEE7000038B50446F8
:101620001E480022009200891D49000408600D2018
:1016300048604020C1E9020200010861084603F049
:1016400027F818490868009010F0450FFAD00120DB
:1016500002F0D8FF20B1012002F0ACFF012038BD1C
:10166000042002F0CFFF20B1042002F0A3FF0320EA
:1016700038BD0C48243800680D2801D0102038BD32
:1016800040F2FF5002F096FF0648203800680090B4
:10169000C0F343202070002038BD00003800002037
:1016A00040130020342C01401CB50121112002F010
:1016B000ABFE1C20009000208DF8040003208DF864
:1016C000050001248DF8074069460648FFF738FFFA
:1016D00002208DF80700009469460348FFF730FFA9
:1016E0001CBD0000001002400000024070B50A4915
:1016F0000646002408884D8821464543204602F0CE
:10170000F3FC02F083FD4FF0D84002E0A0F88060C7
:10171000641CAC42FAD370BD040300202DE9F04FE5
:101720002B492C260A46887192884FF4305A4FF480
:10173000285B4FF4487541F6631E2B274FF02A0CA7
:101740004FF0F00845F210594FF4A0744FF4F073C5
:10175000B8B10C80A1F802804A4532D1A1F808A0A6
:10176000A1F80AB0380288810D804B80A2F5A6400E
:10177000103801D10B804C80BDE8F04F002002F002
:10178000F3BBA1F800804C804A4507D1A1F808A01E
:10179000A1F80AB04FF42C50888105E072450E8103
:1017A00005D14F81A1F80CC00B804D8002E0A1F85B
:1017B0000AC08F81A2F5A6401038DDD10C804B8085
:1017C000DAE70E81A1F80AC072458F81CCD0CDE74F
:1017D000040300202DE9F04FA1B0002401217A205C
:1017E0001F9402F011FE0121084602F019FE0125A6
:1017F0008DF804504FF400408DF80640022600900A
:101800008DF805608DF807506946FE48FFF798FE91
:101810008DF804604CF233708DF806400327DFF832
:10182000E88300908DF805708DF8075069464046B2
:10183000FFF786FE8DF804604FF680708DF8064045
:10184000DFF8C89300908DF805708DF80750694651
:101850004846FFF775FE8DF8046028038DF80640B2
:1018600000908DF805708DF807506946E848FFF73D
:1018700067FE8DF8046028038DF8064000908DF80F
:1018800005708DF807506946E248FFF759FE0C22B3
:1018900000214046FFF7A5FE0C2201214046FFF73C
:1018A000A0FE0C2204214046FFF79BFE0C220521DE
:1018B0004046FFF796FE0C2208214046FFF791FEB6
:1018C0000C2209214046FFF78CFE0C220A214046DB
:1018D000FFF787FE0C220E214046FFF782FE0C2206
:1018E0000F214046FFF77DFE0C2207214846FFF7F7
:1018F00078FE0C2208214846FFF773FE0C220921CE
:101900004846FFF76EFE0C220A214846FFF769FEA3
:101910000C220B214846FFF764FE0C221146484674
:10192000FFF75FFE0C220D214846FFF75AFE0C22FE
:101930000E214846FFF755FE0C220F214846FFF7BF
:1019400050FE0C221146B248FFF74BFE0C22114606
:10195000B048FFF746FE0F20CDE911043C20CDE949
:101960001304159409201694CDE917400820CDE9F9
:1019700019401B941C940620CDE902041D941E946A
:101980001020CDE9044006940002CDE90A400894F5
:1019900007948000CDE90C40099411A8CDE90E40D0
:1019A00018A8109002A8FFF7C9FC01210620FFF734
:1019B000B5FC322004F01EFFD32002F01BFC02F025
:1019C000A1FA954CA08002F09DFA2146888002F091
:1019D00099FA4FF6FF7101EA00202146888002F053
:1019E00091FA214645F21037898845F2105608438E
:1019F000214641F663188880A0F5134147F28975A6
:101A00004FF4704A4FF2010B413976D0042002F0B6
:101A1000F1FB02F077FAA08002F074FAA08002F0E5
:101A200071FA4FF6FF7202EA0020A08002F06AFA13
:101A3000A1880843A0F50541A08052397DD0A84275
:101A40005BD0D42002F0D6FB02F05CFAA08002F05A
:101A500059FAA08002F056FA02EA00209146A080CE
:101A600002F050FAA1880843A080B84245D0552121
:101A7000504602F0D5FBAA21584602F0D1FB522174
:101A80004FF2020002F0CCFB08214FF2030002F0FB
:101A9000C7FB01214FF2040002F0C2FB4FF44540A6
:101AA00002F0A8FB02F02EFA09EA0020A0804CF216
:101AB000015002F09FFB02F025FAA1880843A080A4
:101AC000052004F097FEA088B0F5004F45D0B04245
:101AD00013D0A12002F08EFB02F014FAA08002F0D5
:101AE00011FA09EA0020A08002F00CFAA18808434C
:101AF000A0F5AE41A08061392CD0A088A0F513419B
:101B0000413907D0A84205D0B84203D0B04201D035
:101B1000404528D14FF02040D0F81C1121F00F0192
:101B2000C0F81C11D0F81C1121F47061C0F81C1110
:101B3000D0F81C1141F0030100E009E0C0F81C11CD
:101B4000A188A942D0F81C1109D141F4407108E0E4
:101B5000A580DFE7A4F80480DCE7A680DAE741F49B
:101B60000071C0F81C11A1882CA0FEF737FCA088DA
:101B7000A0F5134141397DD0A8427CD1112002F05B
:101B800039FB782004F036FE362002F033FB0020CB
:101B900002F024FB3A2002F02DFB052002F01EFB90
:101BA000B22002F027FB0C2002F018FB0C2002F000
:101BB00015FB002002F012FB332002F00FFB332054
:101BC00002F00CFBB72002F015FB352002F006FBFB
:101BD000BB2002F00FFB322002F000FBC02002F01D
:101BE00009FB0C2002F0FAFAC22002F003FB0120EC
:101BF00002F0F4FAC32002F0FDFA102002F0EEFA2F
:101C0000C42013E000040240000C02400010024017
:101C1000001402400018024004030020204C4344FA
:101C20002049443A25780D0A0000000002F0E2FA4B
:101C3000202002F0D3FAC62002F0DCFA0F2002F0D6
:101C4000CDFAD02002F0D6FAA42002F0C7FAA120E3
:101C500002F0C4FAE02002F0CDFAD02002F0BEFA81
:101C6000002002F0BBFA022002F0B8FA072002F0CE
:101C7000B5FA01E06CE07DE10A2002F0AFFA28201D
:101C800002F0ACFA322002F0A9FA442002F0A6FADF
:101C9000422002F0A3FA062002F0A0FA0E2002F081
:101CA0009DFA122002F09AFA142002F097FA1720F7
:101CB00002F094FAE12002F09DFAD02002F08EFAB0
:101CC000002002F08BFA022002F088FA072002F0CE
:101CD00085FA0A2002F082FA282002F07FFA3120E9
:101CE00002F07CFA542002F079FA472002F076FAEA
:101CF0000E2002F073FA1C2002F070FA172002F096
:101D00006DFA1B2002F06AFA1E2002F067FA2A2000
:101D100002F070FA002002F061FA002002F05EFA90
:101D2000002002F05BFAEF2002F058FA2B2002F0BC
:101D300061FA002002F052FA002002F04FFA01206E
:101D400002F04CFA3F2002F049FA292002F00CB8C8
:101D5000CF2002F04FFA002002F040FAC12002F03A
:101D60003DFA302002F03AFAED2002F043FA642006
:101D700002F034FA032002F031FA122002F02EFAB7
:101D8000812002F02BFAE82002F034FA852002F0DC
:101D900025FA102002F022FA7A2002F01FFACB2056
:101DA00002F028FA392002F019FA2C2002F016FA73
:101DB000002002F013FA342002F010FA022002F0A0
:101DC0000DFAF72002F016FA202002F007FAEA20B6
:101DD00002F010FA002002F001FA002002F0FEF9F1
:101DE000C02002F007FA1B2002F0F8F9C12002F02F
:101DF00001FA012002F0F2F9C52002F0FBF93020CF
:101E000002F0ECF9302002F0E9F9C72002F0F2F913
:101E1000B72002F0E3F9362002F0ECF9482002F096
:101E2000DDF93A2002F0E6F9552002F0D7F9B120A9
:101E300002F0E0F9002002F0D1F91A2002F0CEF908
:101E4000B62002F0D7F90A2002F0C8F9A22002F069
:101E5000C5F9F22002F0CEF9002002F0BFF92620E9
:101E600002F0C8F9012002F0B9F9E02002F0C2F94D
:101E70000F2002F0B3F92A2002F0B0F9282002F076
:101E8000ADF9082002F0AAF90E2002F0A7F9082007
:101E900002F0A4F9542002F0A1F9A92002F09EF961
:101EA000432002F09BF90A2002F098F90F2002F07B
:101EB00095F9002002F092F9002002F08FF900203D
:101EC00002F08CF9002002F089F9E12002F092F989
:101ED000002002F083F9152002F080F9172002F0AB
:101EE0007DF9072002F07AF9112002F077F9062037
:101EF00002F074F92B2002F071F9562002F06EF90D
:101F00003C2002F06BF9052002F068F9102002F085
:101F100065F90F2002F062F93F2002F05FF93F20DF
:101F200002F05CF90F2002F059F92B2002F062F95F
:101F3000002002F053F9002002F050F9012002F0D5
:101F40004DF93F2002F04AF92A2002F053F900200F
:101F500002F044F9002002F041F9002002F03EF9BD
:101F6000EF2002F03BF9112002F044F9782004F050
:101F700041FCEAE6B8427CD1ED2002F03BF90120B9
:101F800002F02CF9FE2002F029F9EE2002F032F9DD
:101F9000DE2002F023F9212002F020F9F12002F0E6
:101FA00029F9012002F01AF9DF2002F023F91020AC
:101FB00002F014F9C42002F01DF98F2002F00EF98E
:101FC000C62002F017F9002002F008F9E22002F022
:101FD00005F9E22002F002F9E22002F0FFF8BF204A
:101FE00002F008F9AA2002F0F9F8B02002F002F994
:101FF0000D2002F0F3F8002002F0F0F80D2002F0BE
:10200000EDF8002002F0EAF8112002F0E7F80020D5
:1020100002F0E4F8192002F0E1F8002002F0DEF806
:10202000212002F0DBF8002002F0D8F82D2002F089
:10203000D5F8002002F0D2F83D2002F0CFF80020C1
:1020400002F0CCF85D2002F0C9F8002002F0C6F8DA
:102050005D2002F0C3F8002002F0C0F8B12002F0C9
:10206000C9F8802002F0BAF8002002F0B7F88B20FF
:1020700000E0FCE302F0B2F8002002F0AFF8962096
:1020800002F0ACF8002002F0A9F8B22002F0B2F899
:10209000002002F0A3F8002002F0A0F8022002F0D5
:1020A0009DF8002002F09AF8032002F097F8002033
:1020B00002F094F8B32002F09DF8002002F08EF8B0
:1020C000002002F08BF8002002F088F8002002F0D7
:1020D00085F8002002F082F8002002F07FF800204E
:1020E00002F07CF8002002F079F8002002F076F887
:1020F000002002F073F8002002F070F8002002F0D7
:102100006DF8002002F06AF8002002F067F8002065
:1021100002F064F8002002F061F8002002F05EF89E
:10212000002002F05BF8002002F058F8002002F0D6
:1021300055F8002002F052F8002002F04FF800207D
:1021400002F04CF8002002F049F8B42002F052F8F6
:102150008B2002F043F8002002F040F8962002F0B5
:102160003DF8002002F03AF8A12002F037F80020F4
:1021700002F034F8B52002F03DF8022002F02EF80B
:10218000002002F02BF8032002F028F8002002F0D3
:1021900025F8042002F022F8002002F01FF8B620F3
:1021A00002F028F8002002F019F8002002F016F8DA
:1021B000B72002F01FF8002002F010F8002002F013
:1021C0000DF83F2002F00AF8002002F007F85E2028
:1021D00002F004F8002002F001F8642001F0FEFF94
:1021E000002001F0FBFF8C2001F0F8FF002001F03F
:1021F000F5FFAC2001F0F2FF002001F0EFFFDC2042
:1022000001F0ECFF002001F0E9FF702001F0E6FF93
:10221000002001F0E3FF902001F0E0FF002001F03A
:10222000DDFFEB2001F0DAFF002001F0D7FFDC201A
:1022300001F0D4FF002001F0D1FFB82001F0DAFF57
:10224000002001F0CBFF002001F0C8FF002001F0CA
:10225000C5FF002001F0C2FF002001F0BFFF0020F9
:1022600001F0BCFF002001F0B9FF002001F0B6FF33
:10227000BA2001F0BFFF242001F0B0FF002001F0E0
:10228000ADFF002001F0AAFF002001F0A7FFC12050
:1022900001F0B0FF202001F0A1FF002001F09EFF1F
:1022A000542001F09BFF002001F098FFFF2001F077
:1022B00095FF002001F092FFC22001F09BFF0A2051
:1022C00001F08CFF002001F089FF042001F086FF5F
:1022D000002001F083FFC32001F08CFF3C2001F0BF
:1022E0007DFF002001F07AFF3A2001F077FF002007
:1022F00001F074FF392001F071FF002001F06EFF42
:10230000372001F06BFF002001F068FF3C2001F056
:1023100065FF002001F062FF362001F05FFF002022
:1023200001F05CFF322001F059FF002001F056FF60
:102330002F2001F053FF002001F050FF2C2001F06E
:102340004DFF002001F04AFF292001F047FF002047
:1023500001F044FF262001F041FF002001F03EFF84
:10236000242001F03BFF002001F038FF242001F081
:1023700035FF002001F032FF232001F02FFF002065
:1023800001F02CFF3C2001F029FF002001F026FF86
:10239000362001F023FF002001F020FF322001F061
:1023A0001DFF002001F01AFF2F2001F017FF002071
:1023B00001F014FF2C2001F011FF002001F00EFFAE
:1023C000292001F00BFF002001F008FF262001F07A
:1023D00005FF002001F002FF242001F0FFFE002095
:1023E00001F0FCFE242001F0F9FE002001F0F6FED1
:1023F000232001F0F3FE002001F0F0FEC42001F0E4
:10240000F9FE622001F0EAFE002001F0E7FE05205F
:1024100001F0E4FE002001F0E1FE842001F0DEFE88
:10242000002001F0DBFEF02001F0D8FE002001F0DA
:10243000D5FE182001F0D2FE002001F0CFFEA4202E
:1024400001F0CCFE002001F0C9FE182001F0C6FE0C
:10245000002001F0C3FE502001F0C0FE002001F07A
:10246000BDFE0C2001F0BAFE002001F0B7FE1720DF
:1024700001F0B4FE002001F0B1FE952001F0AEFEA7
:10248000002001F0ABFEF32001F0A8FE002001F0D7
:10249000A5FEE62001F0A2FE002001F09FFEC5206F
:1024A00001F0A8FE322001F099FE002001F096FE16
:1024B000442001F093FE002001F090FE652001F021
:1024C0008DFE002001F08AFE762001F087FE0020BC
:1024D00001F084FE882001F081FE002001F07EFEE4
:1024E000C62001F087FE202001F078FE002001F0D8
:1024F00075FE172001F072FE002001F06FFE012032
:1025000001F06CFE002001F069FEC72001F072FEB0
:10251000002001F063FE002001F060FE002001F0C9
:102520005DFE002001F05AFEC82001F063FE00208D
:1025300001F054FE002001F051FE002001F04EFE9B
:10254000002001F04BFEC92001F054FE002001F0F4
:1025500045FE002001F042FE002001F03FFE002079
:1025600001F03CFE002001F039FE002001F036FEB3
:10257000002001F033FE002001F030FE002001F0C9
:102580002DFE002001F02AFE002001F027FE002091
:1025900001F024FE002001F021FE002001F01EFECB
:1025A000002001F01BFE002001F018FEE02001F0E9
:1025B00021FE162001F012FE002001F00FFE1C206B
:1025C00001F00CFE002001F009FE212001F006FEC2
:1025D000002001F003FE362001F000FE002001F093
:1025E000FDFD462001F0FAFD002001F0F7FD52202C
:1025F00001F0F4FD002001F0F1FD642001F0EEFD9A
:10260000002001F0EBFD7A2001F0E8FD002001F050
:10261000E5FD8B2001F0E2FD002001F0DFFD9920B7
:1026200001F0DCFD002001F0D9FDA82001F0D6FD6D
:10263000002001F0D3FDB92001F0D0FD002001F011
:10264000CDFDC42001F0CAFD002001F0C7FDCA2065
:1026500001F0C4FD002001F0C1FDD22001F0BEFD5B
:10266000002001F0BBFDD92001F0B8FD002001F0F1
:10267000B5FDE02001F0B2FD002001F0AFFDF32038
:1026800001F0ACFD002001F0A9FDE12001F0B2FD58
:10269000162001F0A3FD002001F0A0FD1C2001F098
:1026A0009DFD002001F09AFD222001F097FD002001
:1026B00001F094FD362001F091FD002001F08EFD27
:1026C000452001F08BFD002001F088FD522001F033
:1026D00085FD002001F082FD642001F07FFD0020D7
:1026E00001F07CFD7A2001F079FD002001F076FDFB
:1026F0008B2001F073FD002001F070FD992001F0A6
:102700006DFD002001F06AFDA82001F067FD0020AA
:1027100001F064FDB92001F061FD002001F05EFDD3
:10272000C42001F05BFD002001F058FDCA2001F03B
:1027300055FD002001F052FDD22001F04FFD002098
:1027400001F04CFDD82001F049FD002001F046FDCC
:10275000E02001F043FD002001F040FDF32001F0F6
:102760003DFD002001F03AFDE22001F043FD05208F
:1027700001F034FD002001F031FD0B2001F02EFDB1
:10278000002001F02BFD1B2001F028FD002001F0AE
:1027900025FD342001F022FD002001F01FFD442022
:1027A00001F01CFD002001F019FD4F2001F016FD85
:1027B000002001F013FD612001F010FD002001F068
:1027C0000DFD792001F00AFD002001F007FD8820B1
:1027D00001F004FD002001F001FD972001F0FEFC56
:1027E000002001F0FBFCA62001F0F8FC002001F025
:1027F000F5FCB72001F0F2FC002001F0EFFCC22054
:1028000001F0ECFC002001F0E9FCC72001F0E6FC3F
:10281000002001F0E3FCD12001F0E0FC002001F0F9
:10282000DDFCD62001F0DAFC002001F0D7FCDD2031
:1028300001F0D4FC002001F0D1FCF32001F0CEFC2B
:10284000002001F0CBFCE32001F0D4FC052001F0D6
:10285000C5FC002001F0C2FC0A2001F0BFFC0020F2
:1028600001F0BCFC1C2001F0B9FC002000E0FDE2FE
:1028700001F0B4FC332001F0B1FC002001F0AEFC0B
:10288000442001F0ABFC002001F0A8FC502001F036
:10289000A5FC002001F0A2FC622001F09FFC0020BA
:1028A00001F09CFC782001F099FC002001F096FCDE
:1028B000882001F093FC002001F090FC972001F0AB
:1028C0008DFC002001F08AFCA62001F087FC00208E
:1028D00001F084FCB72001F081FC002001F07EFCB7
:1028E000C22001F07BFC002001F078FCC72001F041
:1028F00075FC002001F072FCD12001F06FFC00207B
:1029000001F06CFCD52001F069FC002001F066FCB0
:10291000DD2001F063FC002001F060FCF32001F0F9
:102920005DFC002001F05AFCE42001F063FC012072
:1029300001F054FC002001F051FC012001F04EFC9C
:10294000002001F04BFC022001F048FC002001F0C7
:1029500045FC2A2001F042FC002001F03FFC3C2015
:1029600001F03CFC002001F039FC4B2001F036FC6A
:10297000002001F033FC5D2001F030FC002001F06C
:102980002DFC742001F02AFC002001F027FC84209B
:1029900001F024FC002001F021FC932001F01EFC3A
:1029A000002001F01BFCA22001F018FC002001F027
:1029B00015FCB32001F012FC002001F00FFCBE203A
:1029C00001F00CFC002001F009FCC42001F006FC21
:1029D000002001F003FCCD2001F000FC002001F0FC
:1029E000FDFBD32001F0FAFB002001F0F7FBDD2016
:1029F00001F0F4FB002001F0F1FBF32001F0EEFB0D
:102A0000002001F0EBFBE52001F0F4FB002001F0D9
:102A1000E5FB002001F0E2FB002001F0DFFB0020DD
:102A200001F0DCFB022001F0D9FB002001F0D6FB15
:102A3000292001F0D3FB002001F0D0FB3C2001F065
:102A4000CDFB002001F0CAFB4B2001F0C7FB0020AA
:102A500001F0C4FB5D2001F0C1FB002001F0BEFBD2
:102A6000742001F0BBFB002001F0B8FB842001F0D2
:102A7000B5FB002001F0B2FB932001F0AFFB00207A
:102A800001F0ACFBA22001F0A9FB002001F0A6FBA5
:102A9000B32001F0A3FB002001F0A0FBBE2001F059
:102AA0009DFB002001F09AFBC42001F097FB002061
:102AB00001F094FBCD2001F091FB002001F08EFB92
:102AC000D32001F08BFB002001F088FBDC2001F01B
:102AD00085FB002001F082FBF32001F07FFB00204A
:102AE00001F07CFBE62001F085FB112001F076FB74
:102AF000002001F073FB342001F070FB002001F096
:102B00006DFB562001F06AFB002001F067FB762088
:102B100001F064FB002001F061FB772001F05EFB17
:102B2000002001F05BFB662001F058FB002001F063
:102B300055FB882001F052FB002001F04FFB99204B
:102B400001F04CFB002001F049FBBB2001F046FBEB
:102B5000002001F043FB992001F040FB002001F030
:102B60003DFB662001F03AFB002001F037FB5520C9
:102B700001F034FB002001F031FB552001F02EFB69
:102B8000002001F02BFB452001F028FB002001F084
:102B900025FB432001F022FB002001F01FFB442015
:102BA00001F01CFB002001F019FBE72001F022FBE3
:102BB000322001F013FB002001F010FB552001F042
:102BC0000DFB002001F00AFB762001F007FB00203E
:102BD00001F004FB662001F001FB002001F0FEFA89
:102BE000672001F0FBFA002001F0F8FA672001F0FD
:102BF000F5FA002001F0F2FA872001F0EFFA002048
:102C000001F0ECFA992001F0E9FA002001F0E6FA6F
:102C1000BB2001F0E3FA002001F0E0FA992001F076
:102C2000DDFA002001F0DAFA772001F0D7FA00206F
:102C300001F0D4FA442001F0D1FA002001F0CEFADC
:102C4000562001F0CBFA002001F0C8FA232001F051
:102C5000C5FA002001F0C2FA332001F0BFFA0020CB
:102C600001F0BCFA452001F0B9FA002001F0B6FAF3
:102C7000E82001F0BFFA002001F0B0FA002001F0D6
:102C8000ADFA992001F0AAFA002001F0A7FA8720F6
:102C900001F0A4FA002001F0A1FA882001F09EFAC8
:102CA000002001F09BFA772001F098FA002001F053
:102CB00095FA662001F092FA002001F08FFA882040
:102CC00001F08CFA002001F089FAAA2001F086FABE
:102CD000002001F083FABB2001F080FA002001F00F
:102CE0007DFA992001F07AFA002001F077FA662047
:102CF00001F074FA002001F071FA552001F06EFA2B
:102D0000002001F06BFA552001F068FA002001F074
:102D100065FA442001F062FA002001F05FFA4420D5
:102D200001F05CFA002001F059FA552001F056FA42
:102D3000002001F053FAE92001F05CFAAA2001F02A
:102D40004DFA002001F04AFA002001F047FA002075
:102D500001F044FA002001F04DFAAA2001F03EFAF9
:102D6000CF2001F047FA002001F038FA002001F0EE
:102D700035FA002001F032FA002001F02FFA00208D
:102D800001F02CFA002001F029FA002001F026FAC7
:102D9000002001F023FA002001F020FA002001F0C9
:102DA0001DFA002001F01AFA002001F017FA0020A5
:102DB00001F014FA002001F011FA002001F00EFADF
:102DC000002001F00BFA002001F008FAF02001F0D9
:102DD00011FA002001F002FA502001F0FFF9002062
:102DE00001F0FCF9002001F0F9F9002001F0F6F9FA
:102DF000F32001F0FFF9002001F0F0F9F92001F0D3
:102E0000F9F9062001F0EAF9102001F0E7F929208C
:102E100001F0E4F9002001F0E1F93A2001F0EAF9CB
:102E2000552001F0DBF9112001F0E4F9642003F0F2
:102E3000E1FC292001F0DEF9352001F0DBF900206A
:102E400001F0CCF9512001F0D5F9FF2001F0C6F9CD
:102E5000532001F0CFF92C2001F0C0F9552001F0EA
:102E6000C9F9822001F0BAF92C20FCE3B0427DD1EF
:102E700055215346504601F0D3F9AA215C465846E5
:102E800001F0CEF94FF202055221284601F0C8F9AF
:102E90006E1C0821304601F0C3F9AF1C01213846F1
:102EA00001F0BEF90D214FF4304001F0B9F90D21C8
:102EB0004BF2010001F0B4F90D214BF2020001F0D8
:102EC000AFF94FF436483421404601F0A9F93421D6
:102ED0004BF2016001F0A4F934214BF2026001F0E1
:102EE0009FF94FF431490D21484601F099F94BF211
:102EF000011A0D21504601F093F90D214BF20210F9
:102F000001F08EF94FF4374B3421584601F088F91F
:102F100034214BF2017001F083F934214BF202703D
:102F200001F07EF900214FF4324001F079F90021DF
:102F30004BF2012001F074F900214BF2022001F064
:102F40006FF924214FF4384001F06AF924214BF63F
:102F5000010001F065F924214BF6020001F060F94F
:102F600001214FF43F4001F05BF900E0FEE30F2147
:102F70004FF4334001F054F90F214BF2013001F0CE
:102F80004FF90F214BF2023001F04AF934214FF48E
:102F9000394001F045F934214BF6011001F040F9B8
:102FA00034214BF6021001F03BF908214FF4354073
:102FB00001F036F908214BF2015001F031F90821F6
:102FC0004BF2025001F02CF903214FF4424001F082
:102FD00027F924214FF43A4001F022F924214BF63D
:102FE000012001F01DF924214BF6022001F018F90F
:102FF00000214FF43C4001F013F978214BF60140D9
:1030000001F00EF900214BF6024001F009F9002110
:103010004FF43D4001F004F978214BF6015001F0E6
:10302000FFF800214BF6025001F0FAF800214FF4AE
:103030003E4001F0F5F864214BF6016001F0F0F834
:1030400000214FF4514001F0EBF833214DF2011013
:1030500001F0E6F800214DF2021001F0E1F8342110
:103060004DF2031001F0DCF800214DF2041001F0E4
:10307000D7F83A214DF2051001F0D2F800214DF2B7
:10308000061001F0CDF84A214DF2071001F0C8F802
:1030900000214DF2081001F0C3F85C214DF2091037
:1030A00001F0BEF800214DF20A1001F0B9F88121BB
:1030B0004DF20B1001F0B4F800214DF20C1001F0AC
:1030C000AFF8A6214DF20D1001F0AAF800214DF243
:1030D0000E1001F0A5F8E5214DF20F1001F0A0F857
:1030E00001214DF2101001F09BF813214DF2111047
:1030F00001F096F801214DF2121001F091F85421DF
:103100004DF2131001F08CF801214DF2141001F072
:1031100087F882214DF2151001F082F801214DF25D
:10312000161001F07DF8CA214DF2171001F078F861
:1031300002214DF2181001F073F800214DF2191020
:1031400001F06EF802214DF21A1001F069F8012128
:103150004DF21B1001F064F802214DF21C1001F039
:103160005FF834214DF21D1001F05AF802214DF2A2
:103170001E1001F055F867214DF21F1001F050F8B4
:1031800002214DF2201001F04BF884214DF2211064
:1031900001F046F802214DF2221001F041F8A4217D
:1031A0004DF2231001F03CF802214DF2241001F001
:1031B00037F8B7214DF2251001F032F802214DF217
:1031C000261001F02DF8CF214DF2271001F028F83C
:1031D00002214DF2281001F023F8DE214DF22910D2
:1031E00001F01EF802214DF22A1001F019F8F22127
:1031F0004DF22B1001F014F802214DF22C1001F0C9
:103200000FF8FE214DF22D1001F00AF803214DF2C6
:103210002E1001F005F810214DF22F1001F000F8EA
:1032200003214DF2301000F0FBFF33214DF231103D
:1032300000F0F6FF03214DF2321000F0F1FF6D2196
:103240004DF2331000F0ECFF00214FF4524000F03B
:10325000E7FF33214DF2012000F0E2FF00214DF2A3
:10326000022000F0DDFF34214DF2032000F0D8FFF2
:1032700000214DF2042000F0D3FF3A214DF2052049
:1032800000F0CEFF00214DF2062000F0C9FF4A21D8
:103290004DF2072000F0C4FF00214DF2082000F09D
:1032A000BFFF5C214DF2092000F0BAFF00214DF272
:1032B0000A2000F0B5FF81214DF20B2000F0B0FF95
:1032C00000214DF20C2000F0ABFFA6214DF20D20A5
:1032D00000F0A6FF00214DF20E2000F0A1FFE52135
:1032E0004DF20F2000F09CFF01214DF2102000F064
:1032F00097FF13214DF2112000F092FF01214DF2B2
:10330000122000F08DFF54214DF2132000F088FFB1
:1033100001214DF2142000F083FF82214DF215208F
:1033200000F07EFF01214DF2162000F079FFCA2146
:103330004DF2172000F074FF02214DF2182000F02A
:103340006FFF00214DF2192000F06AFF02214DF2BB
:103350001A2000F065FF01214DF21B2000F060FFF4
:1033600002214DF21C2000F05BFF34214DF21D20A4
:1033700000F056FF02214DF21E2000F051FF6721A0
:103380004DF21F2000F04CFF02214DF2202000F0F2
:1033900047FF84214DF2212000F042FF02214DF22F
:1033A000222000F03DFFA4214DF2232000F038FF41
:1033B00002214DF2242000F033FFB7214DF22520E9
:1033C00000F02EFF02214DF2262000F029FFCF2130
:1033D0004DF2272000F024FF02214DF2282000F0BA
:1033E0001FFFDE214DF2292000F01AFF02214DF2CD
:1033F0002A2000F015FFF2214DF22B2000F010FFE3
:1034000002214DF22C2000F00BFFFE214DF22D2069
:1034100000F006FF03214DF22E2000F001FF1021E5
:103420004DF22F2000F0FCFE03214DF2302000F081
:10343000F7FE33214DF2312000F0F2FE03214DF270
:10344000322000F0EDFE6D214DF2332000F0E8FE59
:1034500000214FF4534000F0E3FE33214DF20130E0
:1034600000F0DEFE00214DF2023000F0D9FE3421E2
:103470004DF2033000F0D4FE00214DF2043000F094
:10348000CFFE3A214DF2053000F0CAFE00214DF288
:10349000063000F0C5FE4A214DF2073000F0C0FEB4
:1034A00000214DF2083000F0BBFE5C214DF20930E6
:1034B00000F0B6FE00214DF20A3000F0B1FE81218D
:1034C0004DF20B3000F0ACFE00214DF20C3000F05C
:1034D000A7FEA6214DF20D3000F0A2FE00214DF214
:1034E0000E3000F09DFEE5214DF20F3000F098FE09
:1034F00001214DF2103000F093FE13214DF21130F6
:1035000000F08EFE01214DF2123000F089FE5421B0
:103510004DF2133000F084FE01214DF2143000F022
:103520007FFE82214DF2153000F07AFE01214DF22E
:10353000163000F075FECA214DF2173000F070FE13
:1035400002214DF2183000F06BFE00214DF21930CF
:1035500000F066FE02214DF21A3000F061FE0121FA
:103560004DF21B3000F05CFE02214DF21C3000F0E9
:1035700057FE34214DF21D3000F052FE02214DF273
:103580001E3000F04DFE67214DF21F3000F048FE66
:1035900002214DF2203000F043FE84214DF2213013
:1035A00000F03EFE02214DF2223000F039FEA4214F
:1035B0004DF2233000F034FE02214DF2243000F0B1
:1035C0002FFEB7214DF2253000F02AFE02214DF2E8
:1035D000263000F025FECF214DF2273000F020FEEE
:1035E00002214DF2283000F01BFEDE214DF2293081
:1035F00000F016FE02214DF22A3000F011FEF221F9
:103600004DF22B3000F00CFE02214DF22C3000F078
:1036100007FEFE214DF22D3000F002FE03214DF297
:103620002E3000F0FDFD10214DF22F3000F0F8FD9E
:1036300003214DF2303000F0F3FD33214DF23130F3
:1036400000F0EEFD03214DF2323000F0E9FD6D2176
:103650004DF2333000F0E4FD00214FF4544000F00F
:10366000DFFD332100E07FE34DF2014000F0D8FDA3
:1036700000214DF2024000F0D3FD34214DF2034011
:1036800000F0CEFD00214DF2044000F0C9FD3A21CA
:103690004DF2054000F0C4FD00214DF2064000F05F
:1036A000BFFD4A214DF2074000F0BAFD00214DF266
:1036B000084000F0B5FD5C214DF2094000F0B0FD7E
:1036C00000214DF20A4000F0ABFD81214DF20B408C
:1036D00000F0A6FD00214DF20C4000F0A1FDA62156
:1036E0004DF20D4000F09CFD00214DF20E4000F027
:1036F00097FDE5214DF20F4000F092FD01214DF2C2
:10370000104000F08DFD13214DF2114000F088FDB6
:1037100001214DF2124000F083FD54214DF213407F
:1037200000F07EFD01214DF2144000F079FD822170
:103730004DF2154000F074FD01214DF2164000F0ED
:103740006FFDCA214DF2174000F06AFD02214DF2D3
:10375000184000F065FD00214DF2194000F060FDB9
:1037600002214DF21A4000F05BFD00E0FFE2012172
:103770004DF21B4000F054FD02214DF21C4000F0C0
:103780004FFD34214DF21D4000F04AFD02214DF263
:103790001E4000F045FD67214DF21F4000F040FD46
:1037A00002214DF2204000F03BFD84214DF22140EA
:1037B00000F036FD02214DF2224000F031FDA4213F
:1037C0004DF2234000F02CFD02214DF2244000F088
:1037D00027FDB7214DF2254000F022FD02214DF2D8
:1037E000264000F01DFDCF214DF2274000F018FDCE
:1037F00002214DF2284000F013FDDE214DF2294058
:1038000000F00EFD02214DF22A4000F009FDF221E8
:103810004DF22B4000F004FD02214DF22C4000F04F
:10382000FFFCFE214DF22D4000F0FAFC03214DF289
:103830002E4000F0F5FC10214DF22F4000F0F0FC7E
:1038400003214DF2304000F0EBFC33214DF23140CA
:1038500000F0E6FC03214DF2324000F0E1FC6D2166
:103860004DF2334000F0DCFC00214FF4554000F0F5
:10387000D7FC33214DF2015000F0D2FC00214DF273
:10388000025000F0CDFC34214DF2035000F0C8FC92
:1038900000214DF2045000F0C3FC3A214DF20550D6
:1038A00000F0BEFC00214DF2065000F0B9FC4A21A8
:1038B0004DF2075000F0B4FC00214DF2085000F02A
:1038C000AFFC5C214DF2095000F0AAFC00214DF242
:1038D0000A5000F0A5FC81214DF20B5000F0A0FC35
:1038E00000214DF20C5000F09BFCA6214DF20D5032
:1038F00000F096FC00214DF20E5000F091FCE52105
:103900004DF20F5000F08CFC01214DF2105000F0F0
:1039100087FC13214DF2115000F082FC01214DF281
:10392000125000F07DFC54214DF2135000F078FC51
:1039300001214DF2145000F073FC82214DF215501C
:1039400000F06EFC01214DF2165000F069FCCA2116
:103950004DF2175000F064FC02214DF2185000F0B7
:103960005FFC00214DF2195000F05AFC02214DF28B
:103970001A5000F055FC01214DF21B5000F050FC94
:1039800002214DF21C5000F04BFC34214DF21D5031
:1039900000F046FC02214DF21E5000F041FC672170
:1039A0004DF21F5000F03CFC02214DF2205000F07F
:1039B00037FC84214DF2215000F032FC02214DF2FF
:1039C000225000F02DFCA4214DF2235000F028FCE1
:1039D00002214DF2245000F023FCB7214DF2255076
:1039E00000F01EFC02214DF2265000F019FCCF2100
:1039F0004DF2275000F014FC02214DF2285000F047
:103A00000FFCDE214DF2295000F00AFC02214DF29C
:103A10002A5000F005FCF2214DF22B5000F000FC82
:103A200002214DF22C5000F0FBFBFE214DF22D50F7
:103A300000F0F6FB03214DF22E5000F0F1FB1021B7
:103A40004DF22F5000F0ECFB03214DF2305000F00E
:103A5000E7FB33214DF2315000F0E2FB03214DF240
:103A6000325000F0DDFB6D214DF2335000F0D8FBF9
:103A700000214FF4564000F0D3FB33214DF201609A
:103A800000F0CEFB00214DF2026000F0C9FB3421B2
:103A90004DF2036000F0C4FB00214DF2046000F021
:103AA000BFFB3A214DF2056000F0BAFB00214DF258
:103AB000066000F0B5FB4A214DF2076000F0B0FB54
:103AC00000214DF2086000F0ABFB5C214DF2096073
:103AD00000F0A6FB00214DF20A6000F0A1FB81215D
:103AE0004DF20B6000F09CFB00214DF20C6000F0E9
:103AF00097FBA6214DF20D6000F092FB00214DF2E4
:103B00000E6000F08DFBE5214DF20F6000F088FBA8
:103B100001214DF2106000F083FB13214DF2116082
:103B200000F07EFB01214DF2126000F079FB542180
:103B30004DF2136000F074FB01214DF2146000F0AF
:103B40006FFB82214DF2156000F06AFB01214DF2FE
:103B5000166000F065FBCA214DF2176000F060FBB3
:103B600002214DF2186000F05BFB00214DF219605C
:103B700000F056FB02214DF21A6000F051FB0121CA
:103B80004DF21B6000F04CFB02214DF21C6000F076
:103B900047FB34214DF21D6000F042FB02214DF243
:103BA0001E6000F03DFB67214DF21F6000F038FB06
:103BB00002214DF2206000F033FB84214DF22160A0
:103BC00000F02EFB02214DF2226000F029FBA4211F
:103BD0004DF2236000F024FB02214DF2246000F03E
:103BE0001FFBB7214DF2256000F01AFB02214DF2B8
:103BF000266000F015FBCF214DF2276000F010FB8E
:103C000002214DF2286000F00BFBDE214DF229600D
:103C100000F006FB02214DF22A6000F001FBF221C8
:103C20004DF22B6000F0FCFA02214DF22C6000F006
:103C3000F7FAFE214DF22D6000F0F2FA03214DF269
:103C40002E6000F0EDFA10214DF22F6000F0E8FA3E
:103C500003214DF2306000F0E3FA33214DF2316080
:103C600000F0DEFA03214DF2326000F0D9FA6D2146
:103C70004DF2336000F0D4FA5521184600F0D0FA26
:103C8000AA21204600F0CCFA5221284600F0C8FABA
:103C90000821304600F0C4FA0021384600F0C0FA8E
:103CA000CC21484600F0BCFA0021504600F0B8FA9A
:103CB0000521404600F0B4FA7021584600F0B0FAF1
:103CC00070214BF2017000F0ABFA01214FF4384043
:103CD00000F0A6FA03214BF6010000F0A1FA03213F
:103CE0004BF6020000F09CFA03214BF6030000F0B3
:103CF00097FA02214FF43C4000F092FA00214BF673
:103D0000014000F08DFA00214BF6024000F088FAE5
:103D1000D0214FF4494000F083FA02214CF6011003
:103D200000F07EFA50214CF6021000F079FA502192
:103D30004CF6031000F074FA50214CF6041000F019
:103D40006FFA00214FF4545000F06AFA55214FF4F5
:103D5000685000F065FA4FF4885000F04BFA782074
:103D600002F064FD4FF4245000F044FAB9E04045FD
:103D7000FCD1E22000F03EFA1D2000F02FFA0220D4
:103D800000F02CFA042000F029FA642002F04EFD25
:103D9000E02000F02FFA012000F020FA0A2002F0C3
:103DA00029FDE02000F026FA032000F017FA0C208D
:103DB00002F020FD012000F01DFA0A2002F01AFD99
:103DC000E62000F017FA2F2000F008FAFF2000F09C
:103DD00005FAFF2000F002FAB02000F00BFA2020D4
:103DE00000F0FCF9002000F0F9F9032000F0F6F9EA
:103DF00040F21F3000F0F2F9012000F0EFF940F23C
:103E0000DF1000F0EBF9002000F0E8F9B42000F03A
:103E1000F1F9042000F0E2F940F21F4000F0DEF971
:103E2000002000F0DBF92E2000F0D8F9002000F08F
:103E3000D5F9002000F0D2F9002000F0CFF90020E1
:103E400000F0CCF9B62000F0D5F9022000F0C6F958
:103E50004FF4037000F0C2F9002000F0BFF9172002
:103E600000F0BCF9152000F0B9F9002000F0B6F917
:103E7000002000F0B3F9F02000F0BCF9032000F0BE
:103E8000ADF9292000F0B6F9D02000F0B3F90020F8
:103E900000F0A4F9BE2000F0ADF9052000F09EF975
:103EA000FE2000F09BF9012000F098F9002000F0BE
:103EB00095F9002000F092F9002000F08FF9B82069
:103EC00000F098F9032000F089F9012000F086F94C
:103ED000BA2000F08FF9012000F080F9642000F092
:103EE0001BF80020FDF71AFC05490120C1F8BC02AF
:103EF0004FF6FF70FDF7FAFB21B0BDE8F08F000030
:103F00000080404208B54FF0D840B0F88000ADF8CE
:103F10000000BDF8000008BD10B50246BE2000F04C
:103F200069F9052000F05AF9104608F050F99FEDA4
:103F30000C1B53EC112B08F05DF908F01BF980B253
:103F400000F04CF9012000F049F9FF2000F046F99B
:103F5000002000F043F9BDE81040002000F03EB919
:103F6000666666666666044070B55E4C0023214650
:103F7000A279898841F66316012A01D01AB10CE0B2
:103F8000B14202D109E0B14207D1082805D2DFE8E9
:103F900000F0161812140C19100E082812D2DFE8BF
:103FA00000F0110406080A0C0E1080230AE04023DA
:103FB00008E0C02306E0202304E0602302E0A02301
:103FC00000E0E02345F21055A94202D14FF45850C9
:103FD00000E03620A1F51342413A03D0A1F5EE42AC
:103FE000893A01D143F00803194600F019F9A18874
:103FF000B1420AD098062088628802D5904202D346
:1040000003E0904201D9228060806089A94240D1BA
:1040100000F0F0F8002000F0E1F86089401C80B268
:1040200000F0E8F8002000F0D9F86089801C80B228
:1040300000F0E0F82088401EC0F30F2000F0CEF81A
:104040006089C01C80B200F0D5F82078401EC0B254
:1040500000F0C4F8A08900F0CDF8002000F0BEF810
:10406000A089401C80B200F0C5F8002000F0B6F82E
:10407000A089801C80B200F0BDF86088401EC0F3AB
:104080000F2000F0ABF8A089C01C80B200F0B2F89D
:1040900021E000F0AFF8002000F0A0F8002000F0D0
:1040A0009DF82088401EC0F30F2000F097F820787C
:1040B000401EC0B200F092F8A08900F09BF80020EA
:1040C00000F08CF8002000F089F86088401EC0F3F2
:1040D0000F2000F083F8A078BDE87040401EC0B209
:1040E00000F07CB804030020F0B53B4A0D460446BE
:1040F000060A918810462F0A4089A1F5C853633BF0
:1041000016D0A1F5AA43103B4CD000F073F830460E
:1041100000F064F8E0B200F061F8908900F06AF80D
:10412000384600F05BF8E8B2BDE8F04000F056B861
:10413000917931B300F05EF8304600F04FF8E0B20C
:1041400000F04CF81088401EC0F30F2000F046F835
:104150001078401E5FFA80F000F040F8908900F07F
:1041600049F8384600F03AF8E8B200F037F85088DD
:10417000401EC0F30F2000F031F89078401EC0B20E
:10418000D2E71188091B491E8CB200F033F80020D9
:1041900000F024F8002000F021F8200A00F01EF8BA
:1041A000E0B2D9E700F026F8304600F017F8508961
:1041B000401C80B200F01EF8E0B200F00FF89089C9
:1041C00000F018F8384600F009F89089401C80B2D9
:1041D00000F010F8A7E700000403002001B5BDF8C7
:1041E0000000ADF80000BDF800004FF0D841A1F884
:1041F000800008BD01B5BDF80000ADF80000BDF8B5
:1042000000004FF0D841A1F87E0008BD03484FF0F0
:10421000D8410089A1F87E00704700000403002007
:104220004FF0D84222F87E0F518070477CB50121B3
:10423000202000F0E9F801208DF8040000218DF81D
:10424000061003218DF80510074D4FF4C0648DF85A
:104250000700009469462846FDF772F92146284672
:10426000FDF7D8F97CBD000000140240FEE770475E
:1042700030B50F22C47801780123FCB1144C2468B6
:1042800001F1E02104F4E064C4F5E064C4F3072420
:10429000C4F10405E2404478AC40857815402543DC
:1042A0002A0181F80024007800F01F018B404009AA
:1042B000800000F1E020C0F8003130BD01F01F00A7
:1042C00083404809800000F1E020C0F8803130BD13
:1042D0000CED00E002490843024908607047000005
:1042E0000000FA050CED00E030B52849CA8A022A20
:1042F0000AD0042A1DD0062A01D0072A18D140EA84
:1043000000100022C3B23CE00022C3B20DE0002046
:1043100006E000BF02FB04040D68401C80B22B5570
:104320004C8A8442F6D8521C92B2888A9042EED8C7
:1043300030BD830143EA0013002243EA80030343B4
:10434000DBB20CE0002005E002FB04040D68401C19
:1043500080B22B554C8A8442F6D8521C92B2888A7D
:104360009042EFD830BD002006E000BF02FB0404FD
:104370000D68401C80B22B554C8A8442F6D8521CE2
:1043800092B2888A9042EED830BD00006869012060
:1043900070B50022094B0DE0002106E002FB041479
:1043A0001E68055D491C355589B25C8A8C42F5D87A
:1043B000521C92B2998A9142EED870BD6869012070
:1043C00070B50D4C049E0025206021816281A6817C
:1043D0000220E0824E074FEAD10000D0401C6082EC
:1043E000A282E381258223B1B42B02D0A280E18096
:1043F00070BDA180E28070BD68690120014908603C
:104400007047000068690120044A0029116801D042
:10441000014300E0814311607047000030380240E2
:10442000044A0029116801D0014300E08143116072
:104430007047000038380240044A0029116801D052
:10444000014300E0814311607047000040380240A2
:10445000044A0029116801D0014300E08143116042
:104460007047000020380240044A0029116801D03A
:10447000014300E08143116070470000443802406E
:10448000044A0029116801D0014300E08143116012
:10449000704700002438024070B5204A1168204C53
:1044A00011F00C0104D06610042903D0082903D0B0
:1044B00004601BE0066019E01849091F0B68C3F38C
:1044C00080550B6803F03F0315B1B6FBF3F301E031
:1044D000B4FBF3F30C680968C4F388146343C1F3B5
:1044E0000141491C4900B3FBF1F1016011680F2340
:1044F00003EA11110B4B5C5C0168E14041601468F8
:10450000072505EA94241C5D21FA04F484601268EE
:1045100005EA52329A5CD140C16070BD0838024051
:104520000024F4003C0200202DE9FC410025009508
:104530002E46019500B102261B480068800102D575
:104540000E20BDE8FC81194C6946208980B2FCF739
:1045500059FF0028F5D10198400322D52089144C39
:1045600000044FF0400820603720C4E901084FF4F0
:104570008067C4E90357204600F08AF83720FCF72B
:10458000D9FA0028DDD10620C4F80880C4E900600B
:10459000C4E90357204600F07BF80620FCF7CAFA6E
:1045A000CFE72520CDE70000142C01403800002083
:1045B000401300200149086070470000382C01407A
:1045C000034A116821F0FF010143116070470000A8
:1045D000042C014010B50A4A01681160121D41689F
:1045E0001160121D116821F0F703D0E90214214374
:1045F000D0E90440044321431943116010BD000079
:10460000242C0140034A0146002012680A4200D0CF
:1046100001207047342C01400248006800F003007C
:1046200070470000002C014000F094BB30B5094BEE
:104630001A6847F6FF618A43017D8468C568214393
:1046400044682C432143046800692143014311431A
:10465000196030BD042C01400B4900200860091D81
:104660000860091D0860091D0860074924310860B9
:10467000091D0860091D0860034A044938321160A9
:10468000111D086070470000002C0140FF07C000AA
:1046900010B5084A01681160121D1168CB0AD0E9F3
:1046A00001142143D0E903400443DB0221431943B1
:1046B000116010BD082C01400149086070470000DE
:1046C000002C014070B51B4C90B0154606462046A4
:1046D000FCF7EAFB0028FAD12046FCF749FB4FF033
:1046E000006000900021CDE903511348CDE9010697
:1046F0000015CDE90510800007908000CDE9080184
:104700004FF440300A9004200B9003200C904FF49B
:1047100000000D9080100E9069462046FCF7CCFBFF
:1047200020212046FCF7B6FB01212046FCF716FBB2
:1047300010B070BD58640240802C014010B5104983
:10474000044600200978032917D019B1012901D0A6
:10475000022911D1B4F5805F0FD0E0B2FFF7E4FE7B
:10476000002809D107490A6822F4C0520A600A6881
:1047700022430A600A680A6010BD272010BD0000AD
:1047800038000020042C01402DE9F0478049DFF873
:1047900004A24FF001090E7880F856600989A0F84C
:1047A0005410DAF8001053460A0E94090470C2F34C
:1047B0008304447002F0030282700A0CC2700A0A79
:1047C00002714171DAF80450290E0A01C5F307415C
:1047D00042EA111201F00F08C280C5F3072180F8E8
:1047E0000880CA094272C1F380128272C1F340127A
:1047F000C272C1F300120273002242739F683C0E22
:10480000C7F30743C7F3072C36B1012E04D0032E9C
:1048100002D0022E30D03EE08907090DEDB241EA08
:10482000850141EA9415C4F3C2010561017504F0E4
:104830000701417559098175C3F38201C175990753
:104840004B0F614643EAD1140476A41C09FA04F321
:10485000DE176D1CA5FB034C02FB03C305FB0635ED
:1048600009FA08F3A4FB036C036505FB03C304FB0F
:104870000233C0E912630EE0A906890A41EA042462
:104880001C430461641C630BE404C0E912434FF44D
:10489000007361460365C1F38013437689064B0EAE
:1048A000F9B243EAD11300F81A3F01F07F014170D9
:1048B000DAF80C30190ECC098470C1F34114C470BD
:1048C000C1F38204047189070C0FC3F3074144EA62
:1048D00091144471C1F340148471C27101F001015B
:1048E0000172C3F30721CC094472C1F380148472AE
:1048F000C1F34014C472C1F300140473C1F3810402
:10490000447301F003018173C3F34601214BC1736A
:10491000103380F8109019684C460D0E85740D0CFC
:10492000C1F3072646EA052585820D0659680E0E55
:1049300045EA0645C1F3074645EA0625C1F30726C1
:104940003543C0F8165000F81A1F99680D0E4570CF
:104950000D0CC1F307262D0645EA0645C9B245EA06
:104960000125D96845EA1165C1F307434560057A19
:1049700045EA13150572C1F307251B0745EA1353D2
:104980004381C1F34601017344731046BDE8F087CB
:10499000380000206C1300202DE9FE430024012183
:1049A0003F48FFF731FD0121CE023046FFF75CFDA5
:1049B00001213046FFF764FD4FF4F85000900220CB
:1049C0008DF804008DF805000025DFF8D8908DF8EB
:1049D000065001278DF8077069464846FCF7B0FD80
:1049E0000420DFF8C480009069464046FCF7A8FD2B
:1049F0000C2208214846FCF7F4FD0C220921484608
:104A0000FCF7EFFD0C220A214846FCF7EAFD0C22D8
:104A10000B214846FCF7E5FD0C2211464846FCF701
:104A2000E0FD0C2202214046FCF7DBFD0021304670
:104A3000FFF726FDFFF710FE31208DF808008DF8F6
:104A400009508DF80A508DF80B7002A8FFF710FC82
:104A500000F0BEF8154D80B900F02CF868B9284672
:104A6000FFF792FE48B9B5F85400000400F060FC6E
:104A700018B93046FFF762FE18B10D4909780329CD
:104A80000BD195F8560008B1012800D10224204628
:104A9000FFF796FD002000F061FCBDE8FE830000FA
:104AA0000C00400000080240000C0240901300205F
:104AB000380000202DE9F84F0120ADF80000FFF785
:104AC000ABFDB0B33F4E3078042878D03E4C002583
:104AD0000220E4E80250C0204FF4806784E8A1007F
:104AE0003948083CFFF7D4FDFCF750F8002822D1E4
:104AF000DFF8D8A0DAF8001033480AF1040B3C3094
:104B00000160DBF8001041600BF10401096881606D
:104B10002E490C310968C16030784FF003084FF01E
:104B2000400950B1012808D0062806D0022804D038
:104B300010E0FFE72520BDE8F88F84E82003C4E9F2
:104B400003572148FFF7A4FD69460320FCF75AF8F4
:104B50000028F0D1307803280DD1BDF80000000402
:104B600084E80103C4E903571748FFF791FDFCF7F8
:104B70000DF80028DFD13078042820D0BDF80000DF
:104B8000B060000401C4092001C4C02084E8A10071
:104B90000D48FFF77DFDFBF7F9FF0028CBD1DAF8D0
:104BA000001009482C300160DBF800104160074913
:104BB00008310968816005490C310968C16000202D
:104BC000B9E700003800002040130020142C0140F9
:104BD0002DE9F05F00275A4876213E4601750760AF
:104BE00047608760C760B9463D460761FFF71EFD15
:104BF0000320FFF761FD5348016841F480710160B3
:104C00004F4C4FF4806818344D4825606560A560AE
:104C1000C4E903581830FFF73BFDFBF776FF28B1D6
:104C20007F1CFFB24A2FEFD3BDE8F09F4FF4D57041
:104C3000206008204027C4E901074148C4E903581F
:104C40001830FFF725FDFCF71BF8DFF8FCA020B9B2
:104C500001208AF800004FF080494FF0370BC4E97B
:104C6000005BC4F810803648C4E902751830FFF7BD
:104C70000FFD3720FBF75EFF70B3A9460125DFF873
:104C8000CCB039E03720C4F80880C4E900502C4883
:104C9000C4E9035B5F461830FFF7FAFC3720FBF7E7
:104CA00049FF0028C0D12A4949EA01002060292093
:104CB000C4E901082248C4E903571830FFF7E8FCAB
:104CC000FBF788FF0028AFD11E491031096806F1B3
:104CD0000106CA0F03D006E0C346B846D2E74FF636
:104CE000FF729642CED34FF6FF72964222D211F057
:104CF000804F99D0022220E0211DC4F800B0C4F8F2
:104D000010800F4881E8A0021830FFF7C1FCFBF7C4
:104D100061FF002888D10B491031096806F10106AE
:104D2000C90F03D14FF6FF718E42E5D34FF6FF71E5
:104D30008E4201D31B2077E703228AF8002073E715
:104D400028130020042C0140380000200080FF8040
:104D5000000010802DE9F0414FF48070FFF752FC05
:104D6000354C364D4CF23A3610B3A8780021012864
:104D70000ED0E9703048001F016841F48071016075
:104D80002068B043206001202871E878BDE8F081F8
:104D90002B480C22C0E900124022C0E90221110177
:104DA0000161FFF775FC0C20FBF7C4FEE870E1E73A
:104DB0000220FFF727FC40B10220FFF7FBFB206831
:104DC000B04320600220E870E0E70820FFF71AFCFB
:104DD00040B10820FFF7EEFB2068B04320600420BC
:104DE000E870D3E72020FFF70DFC40B12020FFF74B
:104DF000E1FB2068B04320600620E870C6E7102081
:104E0000FFF700FC40B11020FFF7D4FB2068B0434F
:104E100020600520E870B9E74FF400773846FFF7C7
:104E2000F1FB0028B2D03846FFF7C4FB2068B0433E
:104E300020600720E870A9E73C2C014038000020E2
:104E4000401300202DE9F84F17460A9C06004FF04A
:104E5000FF3568D0DFF8E0A10020CAF80000DFF8D5
:104E6000DC914FF4007B99F80010022903D1570A16
:104E70005C4647EAC3578046014671484FF0FF320F
:104E80008160C0E900210122C160C0E90412FFF77E
:104E9000A1FB694818380068800102D50E20BDE8E2
:104EA000F88F601EB0F5006F3DD204423BD1204622
:104EB00001F00AFB0090624810211438C0E900415B
:104EC0004021C0E9021809010161FFF7E1FB102050
:104ED000FBF730FE0028E2D1009801015848C0E9F4
:104EE00001414FF0FF310160012141610221C0E920
:104EF0000318FFF76FFB524811211438C0E9007105
:104F00004021C0E9021809010161FFF7C1FB11202E
:104F1000FBF710FE0700C2D199F80110484621B1F5
:104F200001295CD081E02620B9E7FBF7AEF9DFF874
:104F30000891414C09F15409DFF808A1083440F206
:104F40002A6812E04FF40040FFF75CFB50B10020EC
:104F500049460A6846F82020401C0828F9D35546DF
:104F6000203602E0002D64D06D1E206810EA080F84
:104F7000E8D00820FFF746FB18B10820FFF71AFB1E
:104F800057E00220FFF73EFB20B10220FFF712FBA3
:104F9000022084E72020FFF735FB20B12020FFF717
:104FA00009FB06207BE75C465846FFF72BFB38B130
:104FB0002046FFF7FFFA072071E7206801C602E0EC
:104FC0004C464FF400152846FFF71CFB0028F4D18F
:104FD000FBF75DF940F2FF50FFF7ECFA25E04146A0
:104FE000C846C1708170017113481030016840F2E9
:104FF0002A3211430160DAF8001041F00801CAF8C2
:105000000010002221463046FFF75CFB0E49404667
:1050100000E06D1E0A68120103D402790AB9C27851
:105020002AB135B1C17801B1C778384637E7002DCC
:10503000EFD1042033E700002C2C01403800002081
:1050400054130020FFFF7F00006402402DE9FC475D
:105050000027CC0D4D028146810790464FF4007029
:1050600018D00026824612E07002421944EBE07329
:10507000CDF800A01248FFF7E5FE0746524610495A
:105080004846FBF731FB761C09F50079F6B2464538
:10509000EAD30AE0B8F1010F0AD0CDE900082A46A8
:1050A0002346484600F00EF807463846BDE8FC8720
:1050B00000902A4623464846FFF7C4FEF4E7000066
:1050C000E81300202DE9FF5F82B09448DDE9105815
:1050D0000299C1609249002617464FF0FF340E60D6
:1050E0000078022803D10502570A47EAC357DFF8C0
:1050F00034B201215846CBF80860CBF81410C0E94F
:105100000046CBF80C60A246CBF81060FFF762FABD
:10511000834818380068800103D50E2006B0BDE82A
:10512000F09F681EB0F5006F20D205421ED12846C0
:1051300001F0CAF900907B4810211438B146C0E94B
:1051400000514021C0E9021609010161FFF7A0FAF0
:105150001020FBF7EFFC0600E0D14046B8F1010F4C
:1051600032D900FB05F8B8F1007F01D32620D5E73E
:1051700000984D46010158464FF0010B40F804AB32
:10518000E0E80281022180E822086648FFF722FA5F
:10519000DFF890A11221AAF1140A5046C0E900716B
:1051A0004021CAE902150901CAF81010FFF770FA88
:1051B0001220FBF7BFFC0600B0D1584D40F22A3751
:1051C000687810B101287DD0A5E0FBF75EF8DFF824
:1051D00050B1DFF84C810BF1540B08F1080815E0D1
:1051E0004FF40040FFF70EFA68B1E96800205A4614
:1051F000136841F82030401C0828F9D3E8684A4C6D
:105200002030E86002E0002C7BD0641ED8F800005B
:105210003842E5D00820FFF7F5F918B10820FFF76C
:10522000C9F96EE00220FFF7EDF920B10220FFF787
:10523000C1F9022072E72020FFF7E4F920B1202015
:10524000FFF7B8F9062069E74FF400742046FFF72E
:10525000D9F948B12046FFF7ADF907205EE721688C
:10526000E86802C0E86002E05C464FF40017384688
:10527000FFF7C8F90028F2D14FF48070FFF7C2F9A8
:10528000C0B1287818B1012801D0022812D15046A7
:105290000C22C0E900924022CAE9022921481101EA
:1052A0001438CAF81010FFF7F3F90C20FBF742FC92
:1052B0000600BFD1FAF7EBFF40F2FF50FFF77AF993
:1052C00029E0FFE785F8039085F802B085F804909F
:1052D000134810300168394301601148016841F0FA
:1052E00008010160414600220298FFF7EBF90F48E0
:1052F00000E0641E0168090102D4002CF9D100E02D
:105300000CB904200AE7287910B9E8780028FAD007
:10531000E87800B1EE78304600E700003800002061
:105320002C2C014054130020FFFF7F00006402403A
:10533000094910B5086007204860402088600020B7
:10534000C8604FF4806008610846FFF7A1F9BDE826
:1053500010400720FBF7EEBB40130020002101287E
:1053600003D010B1262108467047014A5070FAE771
:10537000380000202DE9FE4F4FF000050C9C9046B0
:10538000994606008DF800502F46029456D0AD483D
:105390000560AD48691E8560C0E900150121C56042
:1053A000C0E90451FFF716F9A648183800688001D3
:1053B00002D50E20BDE8FE8FDFF890B29BF800000A
:1053C00002283DD0601EB0F5006F37D2601E044247
:1053D00034D1204601F078F8DFF86C920190A9F101
:1053E000140948461021C0E900414FF0400AC9E9BC
:1053F00002A58901C9F81010FFF74AF91020FBF740
:1054000099FB0028D6D19148AB4600890104484653
:1054100002C00D2180E8020C4FF480614846C9F8B3
:105420001010FFF735F90D20FBF784FB0028C1D1E0
:105430008449183908684FF0FF3521E02620B9E784
:105440004FEA58204FF4007440EAC958BEE77F483D
:105450006D1E00890104484602C00D2180E8020C3F
:1054600079484FF480611438C9F81010FFF710F92B
:105470000D20FBF75FFB00289CD1724818380068AC
:10548000C00502D4002DE2D134E095B3484618217E
:10549000C0E900816C48C9E902AB4FF480615D4608
:1054A0001438C9F81010FFF7F3F81820FBF742FB87
:1054B0000028C4D1DFF894A14FF0FF3929468AF8BB
:1054C00002500198A84602015F484D46C0F800907E
:1054D000C0E901420122C160C0E90412FFF77AF875
:1054E0009AF8010040F2FF5B30B15746012866D0C0
:1054F00099E0FFE729205DE7FAF7C7FEDFF844915E
:10550000504C09F15409083440F21A6827E000BFF2
:105510004FF48040FFF776F8F8B10298C01B2028BE
:105520000ED281074FEA900000D0401C00214A466D
:1055300003E008CE1360491C3F1D8142F9D309E006
:105540000020494656F820200A60401C0828F9D35C
:10555000203620376FF0404501E07DB36D1E216895
:1055600011EA080FD4D00820FFF74CF818B1082032
:10557000FFF720F855E00220FFF744F820B10220A1
:10558000FFF718F8022015E71020FFF73BF820B1CD
:105590001020FFF70FF805200CE74FF400742046A9
:1055A000FFF730F820B12046FFF704F8072001E7A5
:1055B000FAF76DFE5846FEF7FDFF34E031E087F85C
:1055C000038087F8028087F804801E481030016845
:1055D00040F21A3211430160402221463046FFF763
:1055E00071F81848016841F008010160184800E0AE
:1055F0006D1E0168090102D4002DF9D102E00DB140
:10560000484603E0FFF7C8F90BE0401E397909B9B5
:10561000F97821B128B1F87828B1F878CAE60028DD
:10562000F3D10420C6E65846FEF7C4FF6846FBF7F0
:10563000F5FF0028A7D19DF800100729F6D006290C
:10564000F4D0B7E62C2C0140541300203800002081
:10565000006402402DE9FC478046CC0D4D02174600
:1056600000205FEA88724FF4007118D00026894646
:1056700011E04A4641461248FBF736F870024219DB
:1056800044EBE073CDF800900D48FFF773FE761CF5
:1056900008F50078F6B2BE42EBD3BDE8FC87012FD7
:1056A00007D0CDE900172A462346404600F00AF805
:1056B000F3E72A46234640460091FFF75BFEECE7FE
:1056C000E81300202DE9FE4F0600DDE90C454FF000
:1056D000000105FB04F0914698468DF800100F4636
:1056E000029040D0B6488B460160B6484A1E8160A1
:1056F000C0E900210122C160C0E90412FEF76AFF7F
:10570000AF4818380068800102D50E20BDE8FE8F32
:10571000AD480078022828D0601EB0F5006F22D274
:10572000601E04421FD1204600F0CEFEDFF894A296
:105730000190AAF1140A50461021C0E9004140210D
:10574000CAE9021B0901CAF81010FEF7A1FF1020D8
:10575000FBF7F0F90028D9D1012D66D905FB04F833
:10576000B8F1007F08D32620D0E74FEA59204FF444
:10577000007440EAC859D3E79348007818B101286B
:1057800001D0022828D1904800890104CAF80010ED
:105790003721CAF804104021CAE9021B89480C01CC
:1057A0001438CAF81040FEF773FF3720FBF7C2F930
:1057B0000028ABD150461721C0E900514021CAE969
:1057C000021B8048CAF810401438FEF761FF17200A
:1057D000FBF7B0F9002899D150461921C0E9009192
:1057E0004021CAE9021B774809015C461438CAF80F
:1057F0001010FEF74DFF1920FBF79CF9002885D10A
:1058000001984FF0FF3501016E484FF0010BA146A2
:105810000560C0E90181C460C0E9044BFEF7DAFE0F
:10582000694C607810B101287DD0B8E0FAF72DFD01
:10583000DFF88CB140F21A380BF1080B2AE000BFF8
:105840004FF48040FEF7DEFE08B30298C01B20280C
:105850000FD281074FEA900100D0491C584A00201E
:10586000543203E008CE1360401C3F1D8842F9D338
:105870000AE053490020543156F820200A60401CA9
:105880000828F9D3203620376FF0404502E0002D7C
:105890000CD06D1EDBF8000010EA080FD0D00820F5
:1058A000FEF7B0FE18B10820FEF784FE75E0022076
:1058B000FEF7A8FE20B10220FEF77CFE022025E7BD
:1058C0001020FEF79FFE20B11020FEF773FE05208A
:1058D0001CE74FF400752846FEF794FE20B12846D9
:1058E000FEF768FE072011E74FF48070FEF78AFE8E
:1058F000C0B1207818B1012801D0022812D1504639
:105900000C22C0E900924022CAE902292D48110167
:105910001438CAF81010FEF7BBFE0C20FBF70AF98A
:105920000028CCD100E006E0FAF7B1FC40F2FF50CD
:10593000FEF740FE33E084F8039084F802B084F868
:1059400004901F481030016840F21A321143016080
:10595000414640223046FEF7B5FE1948016841F045
:105960000801016029462846184A00E0401E1368D5
:105970001B0102D40028F9D100E018B9FFF70CF898
:105980000BE0491E207908B9E07820B129B1E07810
:1059900028B1E078BAE60029F3D10420B6E640F257
:1059A000FF50FEF707FE6846FBF738FE002886D159
:1059B0009DF800100729F6D00629F4D0A6E60000CD
:1059C0002C2C0140541300203800002000640240B9
:1059D0002DE9F043012187B00846FEF715FD4FF48D
:1059E000805901214846FEF73FFD02268DF81860D8
:1059F00000248DF81A4003208DF81900DFF88C8000
:105A00003825012705958DF81B7005A94046FBF741
:105A100097FD052203214046FBF7E3FD0522042103
:105A20004046FBF7DEFD052211464046FBF7D9FD57
:105A300001214846FEF724FD00214846FEF720FDDF
:105A4000ADF800404FF48270ADF80200ADF8087078
:105A50003002ADF80C50ADF80440ADF80A00ADF8D6
:105A60000E4007200A4CADF81000ADF806606946FC
:105A7000204600F0B2F80121204600F099F8FF20FE
:105A800000F008F807B0BDE8F08300000004024011
:105A90000030014070B50B4C05460221204600F055
:105AA00091F80028F9D02946204600F094F8012109
:105AB000204600F087F80028F9D0204600F089F849
:105AC000C0B270BD0030014001460548028822F096
:105AD0003802028002880A430280012100F068B87F
