:020000040800F2
:10000000F06F01205103000837400008211200085A
:1000100035400008090B00080D5F000800000000D3
:10002000000000000000000000000000990200082D
:10003000810E000800000000ED020008F75A0008D9
:100040006B0300086B0300086B0300086B030008D8
:100050006B0300086B0300086B0300086B030008C8
:100060006B0300086B0300086B0300086B030008B8
:100070006B0300086B0300086B0300086B030008A8
:100080006B0300086B0300086B0300086B03000898
:100090006B0300086B0300086B0300086B03000888
:1000A0006B0300086B0300086B0300086B03000878
:1000B0006B030008695B0008F95B00086B0300082C
:1000C0006B0300086B0300086B0300086B03000858
:1000D0006B030008715D00086B0300086B030008E8
:1000E0006B0300086B0300086B0300086B03000838
:1000F0006B0300086B0300086B0300086B03000828
:100100006B030008D14200086B0300086B03000872
:100110006B0300086B0300086B0300086B03000807
:100120006B0300086B0300086B0300086B030008F7
:100130006B0300086B0300086B0300086B030008E7
:100140006B0300086B0300086B0300086B030008D7
:100150006B0300086B0300086B0300086B030008C7
:100160006B0300086B0300086B0300086B030008B7
:100170006B0300086B0300086B0300086B030008A7
:100180006B0300086B03000800F002F800F06DF844
:100190000AA090E8000C82448344AAF10107DA45E2
:1001A00001D100F062F8AFF2090EBAE80F0013F0C7
:1001B000010F18BFFB1A43F001031847F48803002E
:1001C000148903000A444FF0000C10F8013B13F0AF
:1001D000070408BF10F8014B1D1108BF10F8015BA0
:1001E000641E05D010F8016B641E01F8016BF9D193
:1001F00013F0080F1EBF10F8014BAD1C0C1B09D1EA
:100200006D1E58BF01F801CBFAD505E014F8016B5B
:1002100001F8016B6D1EF9D59142D6D370470000ED
:100220000023002400250026103A28BF78C1FBD8FF
:10023000520728BF30C148BF0B607047642900F0E7
:100240002981752900F02681782900F05D816329D4
:1002500000F0B483732900F0B983002070471FB504
:100260000CF01EF81FBD10B510BD00F01DFC1146AE
:10027000FFF7F5FF08F09EFA00F03BFC03B4FFF730
:10028000F2FF03BC05F0EBFF30BF72B6704762B6F9
:10029000704780F3088870472A4B19680868B0E8EF
:1002A000F04F80F30988BFF36F8F4FF0000080F3A9
:1002B000118870470000000006480068006880F35D
:1002C000088862B661B6BFF34F8FBFF36F8F00DF50
:1002D00000BF00BF08ED00E0DFF80C00016841F44A
:1002E00070010160704700BF88ED00E0EFF3098006
:1002F000BFF36F8F134B1A681EF0100F08BF20ED6D
:10030000108A20E9F04F106008B44FF0500080F3DD
:100310001188BFF34F8FBFF36F8F0BF02DF84FF0A5
:10032000000080F3118808BC19680868B0E8F04F35
:100330001EF0100F08BFB0EC108A80F30988BFF3DD
:100340006F8F704770020020EFF305807047000048
:100350000948804709480047FEE7FEE7FEE7FEE759
:10036000FEE7FEE7FEE7FEE7FEE7FEE70448054995
:10037000054A064B704700000D5B00088901000824
:10038000F0690120F06F0120F06B0120F06B01207B
:10039000704710B54C1084EA530404D54042C1F1B3
:1003A000000138BF491E1B4204D55242C3F100036D
:1003B00038BF5B1E00F010FA14F0804F04D04042AA
:1003C000C1F1000138BF491E14F0004F04D0524261
:1003D000C3F1000338BF5B1E10BD00000FB4044919
:1003E00010B503AA029800F0F5FA10BC5DF814FBF2
:1003F0005000002070B5044685690068C10601D52B
:10040000302600E02026C00707D070BDD4E90121C6
:1004100030469047206A401C20626D1EF6D570BDA4
:1004200070B5044685690078C00707D170BDD4E96E
:10043000012120209047206A401C20626D1EF6D5C5
:1004400070BD70B50C460546012A05D02878800697
:1004500000D5EA69002302E0012305E05B1C93421A
:1004600002D2E05C0028F9D1A869E618C01AA86198
:10047000286A184428622846FFF7BCFF04E0D5E943
:10048000012114F8010B9047B442F8D32846FFF736
:10049000C7FF70BD2DE9F04106460024106875299C
:1004A000314615A510D0AFF30080002802DA404293
:1004B00012A507E031688A0701D511A502E04907B6
:1004C00004D510A5012401E0AFF3008000210A2328
:1004D00006F1240707E0B0FBF3F203FB1200303013
:1004E00078541046491C0028F5D123462A46304648
:1004F000BDE8F04100F0E7B9000000002D00000069
:100500002B0000002000000070B504460D46214677
:100510001068AFF300802188090502D50F4A7A449C
:1005200002E00E4A7A440E32002104F1240305E071
:1005300000F00F060009965D5E54491C0028F7D1B3
:1005400020780023000704D5702D02D009B10223C2
:1005500011322046BDE8704000F0B5B9708203004A
:100560002DE9F05F894604464FF0000ADFF874B1C8
:10057000FB44C0F820A02046E1688847002874D0DA
:10058000252806D0D4E901219047206A401C20622A
:10059000F1E700265F462046E168884720280546A7
:1005A00007DB312D05D2781910F8200C08B106436D
:1005B000F1E7B00701D526F00406C4F81CA0002717
:1005C000C4F818A02A2D09D0284605F041FE38B3FA
:1005D00004EB8708303DC8F8185019E059F8041B9F
:1005E000204604EB87029161E1688847012F0546A8
:1005F00018D1E069002820DA26F020061DE0D8F89E
:10060000180000EB800005EB40003038C8F81800F7
:100610002046E1688847054605F01AFE0028EED11D
:10062000012F0AD02E2D08D12046E16888477F1C73
:100630000546022F46F02006C4DBA069002803DA35
:10064000404246F00106A061F00701D026F01006F6
:100650006C2D0BD0682D09D04C2D39D06A2D35D09A
:10066000742D35D07A2D33D016E038E0E1682F466E
:1006700020468847B842054609D16C2F26D04FF452
:100680008060E168064320468847054604E06C2FF9
:100690001AD04FF4807006430DB3A5F1410019281C
:1006A00002D8203546F400664A4629462046266090
:1006B0004E46FFF7C3FD80B101280BD0F61D26F092
:1006C000070000F1080956E74020E4E78020D8E75A
:1006D0000020D6E706F104094DE7284652E7206AD4
:1006E000BDE8F09F46820300032A40F2308010F0FC
:1006F000030C00F0158011F8013BBCF1020F6244BD
:1007000098BF11F801CB00F8013B38BF11F8013B4D
:10071000A2F1040298BF00F801CB38BF00F8013BFA
:1007200011F0030300F06881083AC0F0088051F826
:10073000043B083A51F804CBA0E80810F5E7121D75
:100740005CBF51F8043B40F8043BAFF30080D20794
:1007500024BF11F8013B11F801CB48BF11F8012B60
:1007600024BF00F8013B00F801CB48BF00F8012B83
:10077000704702F0FF0343EA032242EA024200F01C
:100780006FB94FF0000200B51346944696462039E3
:1007900022BFA0E80C50A0E80C50B1F12001BFF43A
:1007A000F7AF090728BFA0E80C5048BF0CC05DF8A0
:1007B00004EB890028BF40F8042B08BF704748BFEE
:1007C00020F8022B11F0804F18BF00F8012B704762
:1007D000704770477047704753EA020C00F0698019
:1007E0002DE9F04B4FF00006002B1FBFB3FA83F545
:1007F00003FA05F424FA05F65E4012BF1643B2FA76
:1008000082F502FA05F4C5F120051EBF22FA05FCA7
:1008100044EA0C04203556EA044C4FEA144418BF4D
:10082000641C4FF000084FF00009904271EB030C7C
:1008300039D3002919BFB1FA81F701FA07F6B0FAE6
:1008400080F700FA07F6C7F120071EBF20FA07FC61
:1008500046EA0C062037B6FBF4FCA7EB0507103F71
:1008600007F01F0BCBF120060CFA0BFB2CFA06F657
:1008700044BFB3460026202FA4BF5E464FF0000BB6
:100880005BEA060C08BF4FF0010B19EB0B09ABFB41
:10089000027C48EB0608C01B06FB02CC0BFB03CC1A
:1008A00071EB0C01C1E70B46024641464846BDE8E4
:1008B000F08B13B54FF000004FF00001AFF3008054
:1008C000BDE81C4070472DE9F0470D469946924619
:1008D000044600F124080168880604D5E06921F087
:1008E0001001216000E00120A84201DD471B00E06B
:1008F0000027A1697A1902EB0900081AA061207883
:10090000C00602D42046FFF775FD002608E0D4E9B2
:1009100001211AF806009047206A401C761C2062CC
:100920004E45F4DB2078C0060AD52046FFF762FD6D
:1009300006E0D4E9012130209047206A401C206263
:10094000381EA7F10107F4DC07E0D4E9012118F80B
:1009500005009047206A401C2062281EA5F1010571
:10096000F3DC2046FFF75CFD2078000602D502206C
:10097000BDE8F0870120FBE701694A1C02610878A5
:10098000704700B58FB0CDE90131002105910549CF
:100990007944CDE9031011466846FFF7E1FD0FB039
:1009A00000BD0000E5FFFFFF10B5436913B1AFF3D1
:1009B000008001E0FFF745FD012010BD127800F135
:1009C00024010A7000224A700122EDE711684FF0FD
:1009D000FF32E9E7074B70B50D467B44FFF7D1FFC7
:1009E0000446284600F05CF810B14FF0FF3070BDAF
:1009F000204670BD6B7B000010B5203AC0F00B8024
:100A0000B1E81850203AA0E81850B1E81850A0E812
:100A10001850BFF4F5AF5FEA027C24BFB1E818506C
:100A2000A0E8185044BF18C918C0BDE810405FEADC
:100A3000827C24BF51F8043B40F8043B08BF704758
:100A4000D20728BF31F8023B48BF11F8012B28BF5D
:100A500020F8023B48BF00F8012B70474FF000021E
:100A60000429C0F0128010F0030C3FF48CAECCF1DE
:100A7000040CBCF1020F18BF00F8012BA8BF20F82E
:100A8000022BA1EB0C01FFF77EBE5FEAC17C24BF05
:100A900000F8012B00F8012B48BF00F8012B70472C
:100AA000007B00F080007047754600F029F8AE46E4
:100AB00005006946534620F00700854618B020B56A
:100AC000FFF754FCBDE820404FF000064FF0000750
:100AD0004FF000084FF0000B21F00701AC46ACE8E6
:100AE000C009ACE8C009ACE8C009ACE8C0098D4653
:100AF00070470446AFF300802046FFF7BFFB0000BD
:100B0000004870478C690120FEE770B500254FF45E
:100B1000803405E0802003F0C9FB08B144B101E056
:100B2000641EF7D240F2FF5003F098FB284670BDD8
:100B3000032070BD10B504461348016811F0450F3D
:100B4000FBD0042003F0B2FB20B1042003F086FBAD
:100B5000032010BD012003F0A9FB20B1012003F008
:100B60007DFB012010BD084824380068A04201D058
:100B7000102010BD40F2FF5003F070FB02482038F7
:100B8000006800F0080010BD342C014010B50024AE
:100B90004FF480310E4809E0026812F0450F05D08D
:100BA00009B1500705D5032404200CE0491EF3D2F7
:100BB000F7E7012003F07AFB18B10124204603F087
:100BC0004DFB40F2FF5003F049FB204610BD0000F2
:100BD000342C014010B50A49086810F0450FFBD0CD
:100BE000042003F063FB20B1042003F037FB032053
:100BF00010BD40F2FF5003F031FB002010BD00009B
:100C0000342C014070B506461C480D46002402688D
:100C100012F0450FFBD0042003F048FB20B1042064
:100C200003F01CFB032070BD012003F03FFB20B14B
:100C3000012003F013FB012070BD10482438006828
:100C4000B04212D140F2FF5003F008FB0B482038AD
:100C5000026812F4604F03D0900404D5132070BDD5
:100C6000100C288007E0500401D5102070BD10043E
:100C700001D50F2070BD204670BD0000342C01400E
:100C800010B500244FF480320B4809E0016811F0E0
:100C9000450F05D00AB1480705D50324042006E016
:100CA000521EF3D2F7E7480603D50024402003F094
:100CB000D5FA204610BD0000342C01400348002224
:100CC000026042605321312004F068BF2000002000
:100CD0000029016802D041F0010101E021F0010189
:100CE000016070472DE9F043016821F001010160C6
:100CF0000021016041608160C16001612121416189
:100D00003C493C4A3D251039904202D18D60BDE8F6
:100D1000F083384A4FF474661832904201D18E60E5
:100D2000F5E7344A4FF474173032904201D18F60A6
:100D3000EDE7304A4FF0746C4832904202D1C1F86E
:100D400008C0E4E72B4B2C4A6033984201D1CA60BB
:100D5000DDE7284C294B7834A04201D1CB60D6E79F
:100D6000DFF89080264C08F19008404501D1CC6016
:100D7000CDE7DFF880804FF03D5908F1A8084045E5
:100D800002D1C1F80C90C2E71E49DFF8788008391B
:100D9000404501D10D60BAE71A4D1835A84201D17E
:100DA0000E60B4E7174D3035A84201D10F60AEE7B1
:100DB000144D4835A84202D1C1F800C0A7E7114D33
:100DC00010496035091FA84201D10A609FE70D4A0A
:100DD0007832904201D10B6099E70A4A90329042F2
:100DE00001D10C6093E7074AA83290428FD1C1F835
:100DF00000908CE7106002403D000020400F002072
:100E000000003D20106402400029016802D041F03A
:100E1000200101E021F0200101607047014600201F
:100E20000968C90700D001207047000030B5036889
:100E3000124ACC6813400A682243D1E905452C4385
:100E40002243CC6922430C6A22434C6A22438C6AB7
:100E500022434C6B22438C6B22431A43026042694B
:100E600022F00703D1E90B2422431A4342610A69A5
:100E700042604A6882608968C16030BD3F801CF072
:100E8000704700007CB50121042003F011F93320E4
:100E9000009001208DF8040000248DF80640032006
:100EA0008DF80500084D8DF807406946284600F08A
:100EB00023F9042000908DF804408DF8074069461E
:100EC000284600F019F97CBD000802408000A0F11E
:100ED000C0400029016802D041F0010101E0024A4E
:100EE0001140016070470000FEFF0F0010B5D0E90F
:100EF00001121143D0E903231A43114342691143FC
:100F000082691143C2691143026A1143426A114363
:100F1000826A1143C26A1143026B11430268920054
:100F2000A2F1C04211608168082907D101688900D7
:100F3000A1F1C0410A6842F040020A60416BD1E968
:100F4000002342EA03128B688C891B0243EA0443A4
:100F50001A430B8A42EA03520B7D896942EA036213
:100F60000A4301688900A1F1C0414A60C16AB1F534
:100F7000804F08D000686FF070418000A0F1C04041
:100F8000C0F8041110BD816BD1E9002342EA0312BD
:100F90008B680C8A1B0243EA04531A430B7D896950
:100FA00042EA036200680A438000A0F1C040C0F832
:100FB000042110BD2DE9FC5F00244C4F00944FF438
:100FC000806801944025C7F81080C7E902540E4696
:100FD0004FF0080B1021C7E900B1A146384603F0D5
:100FE000ABF91020FFF7A6FD002853D14048AA46D0
:100FF0004D460089000438603720C7E9010AC7E977
:101000000398384603F098F93720FFF793FD00283E
:1010100040D1411E07F11400C0E9001B302181605E
:101020000221C0E903150121416103F027F93320B2
:10103000C7F808A0C7E90050C7E90358384603F0CD
:101040007BF93320FFF776FD050023D1DFF8A4906C
:10105000DFF8A0804FF4001B6F46A9F14C0940F265
:101060002A6AD9F8000010EA0A0F0BD1584603F09B
:101070001DF90028F5D0D8F8000047F82400641CBA
:10108000022CEED3082003F011F928B1082003F058
:10109000E5F80420BDE8FC9F022003F007F920B129
:1010A000022003F0DBF80220F4E7202003F0FEF832
:1010B00020B1202003F0D2F80620EBE74FF40074B3
:1010C000204603F0F3F820B1204603F0C7F80720CC
:1010D000E0E740F2FF5003F0C1F8009800BA7060FA
:1010E000019800BA30602846D4E700004013002081
:1010F00038000020802C0140F0B5002201274FF07D
:10110000030C0B6807FA02F52B40AB422CD10668A2
:1011100053000CFA03F4A64306600E79D0F800E001
:101120009E4046EA0E0606600E79012E01D0022E80
:1011300012D18668A64386604E79D0F808E09E40BA
:1011400046EA0E0686604668AE43466045688E797C
:101150009640B6B235434560C568A543C560CC79B5
:101160009C40C3681C43C460521C102AC9D3F0BD04
:101170004B07DB0E9A40C90810B500EB8100016AED
:101180000F249C40A1430162016A1143016210BD1A
:101190000183704730B40C4601461546500700D015
:1011A000012000EBD50010FB05F0C2B208784B78A7
:1011B000812809D3402B07D3FF2B05D0FF2803D06C
:1011C0007F2B0CD2403B0BE00023184603E05B1C56
:1011D00004F8010BDBB29342F9D330BC7047413BBA
:1011E0008138D9B2C0B2C0EB401303EB801001EBE1
:1011F0004000504309490C2D0AD0102D0BD0182D5A
:10120000EBD1D1F819100144204630BC04F014BFD2
:10121000D1F80910F7E7D1F81110F4E76869012057
:10122000FEE700001CB50446002120480091019112
:10123000008902041E4802600D2242604022C0E97B
:1012400002211101016103F077F81A490868019041
:10125000024601E00A68019212F0450FFAD001201F
:1012600003F024F820B1012002F0F8FF01201CBD9A
:10127000042003F01BF820B1042002F0EFFF03204C
:101280001CBD0C48243800680D2801D010201CBD5E
:1012900040F2FF5002F0E2FF06482038006800905C
:1012A000C0F34320207000201CBD00003800002047
:1012B00040130020342C01401CB50121112002F004
:1012C000F7FE1C20009000208DF8040003208DF80C
:1012D000050001248DF8074069460648FFF70CFF1A
:1012E00002208DF80700009469460348FFF704FFC9
:1012F0001CBD0000001002400000024070B50A4909
:101300000646002408884D8821464543204602F0C1
:101310006BFD02F05FFE4FF0D84002E0A0F8806065
:10132000641CAC42FAD370BD040300202DE9F04FD9
:101330002B4B2C27194698712B2589884FF4305A4E
:101340004FF4285B4FF4487441F6631E2A264FF091
:10135000F00845F210594FF4A07C4FF4F072C8B178
:10136000A3F800C0A3F80280494533D1A3F808A030
:10137000A3F80AB0280298811C805A80A1F5A640E3
:10138000103802D11A80A3F802C0BDE8F04F002047
:1013900002F05ABCA3F80080A3F802C0494507D167
:1013A000A3F808A0A3F80AB04FF42C50988104E0E9
:1013B00071451F8104D15D819E811A805C8001E0AE
:1013C0005E819D81A1F5A6401038DED1A3F800C052
:1013D0005A80DAE71F815E8171459D81CCD0CDE7CF
:1013E000040300202DE9F041314D90460C460246A1
:1013F000060AA9882846270A4089A1F5AA43103B76
:101400000FD0A1F5C853633B24D002F0D7FD30467E
:1014100002F0C8FDD0B202F0C5FDA88902F0CEFDF1
:1014200036E002F0CBFD304602F0BCFD6889401C7E
:1014300080B202F0C3FDD0B202F0B4FDA88902F080
:10144000BDFD384602F0AEFDA889401C80B202F016
:10145000B5FD20E0A97919B92988891A491E8AB2EF
:1014600002F0ACFD160A304602F09CFDD0B202F04C
:1014700099FD304602F096FDD0B202F093FDA889A6
:1014800002F09CFD384602F08DFDE0B202F08AFDCC
:10149000384602F087FDE0B202F084FD4FF0D840FC
:1014A000298920F87E1FA0F80280BDE8F0810000A5
:1014B000040300202DE9F04FA1B0002401217A207F
:1014C0001F9402F0F5FD0121084602F0FDFD012503
:1014D0008DF804504FF400408DF80640022600902D
:1014E0008DF805608DF807506946FE48FFF704FE49
:1014F0008DF804604CF233708DF806400327DFF856
:10150000E88300908DF805708DF8075069464046D5
:10151000FFF7F2FD8DF804604FF680708DF80640FD
:10152000DFF8C89300908DF805708DF80750694674
:101530004846FFF7E1FD8DF8046028038DF806406A
:1015400000908DF805708DF807506946E848FFF760
:10155000D3FD8DF8046028038DF8064000908DF8C7
:1015600005708DF807506946E248FFF7C5FD0C226B
:1015700000214046FFF7FCFD0C2201214046FFF709
:10158000F7FD0C2204214046FFF7F2FD0C22052155
:101590004046FFF7EDFD0C2208214046FFF7E8FD2D
:1015A0000C2209214046FFF7E3FD0C220A214046A8
:1015B000FFF7DEFD0C220E214046FFF7D9FD0C227D
:1015C0000F214046FFF7D4FD0C2207214846FFF7C4
:1015D000CFFD0C2208214846FFF7CAFD0C22092145
:1015E0004846FFF7C5FD0C220A214846FFF7C0FD1B
:1015F0000C220B214846FFF7BBFD0C221146484642
:10160000FFF7B6FD0C220D214846FFF7B1FD0C2275
:101610000E214846FFF7ACFD0C220F214846FFF78C
:10162000A7FD0C221146B248FFF7A2FD0C2211467D
:10163000B048FFF79DFD0F20CDE911043C20CDE916
:101640001304159409201694CDE917400820CDE91C
:1016500019401B941C940620CDE902041D941E948D
:101660001020CDE9044006940002CDE90A40089418
:1016700007948000CDE90C40099411A8CDE90E40F3
:1016800018A8109002A8FFF731FC01210620FFF7EF
:101690001DFC322004F0B8FFD32002F08FFC02F0D2
:1016A000A1FA954CA08002F09DFA2146888002F0B4
:1016B00099FA4FF6FF7101EA00202146888002F076
:1016C00091FA214645F21037898845F210560843B1
:1016D000214641F663188880A0F5134147F28975C9
:1016E0004FF4704A4FF2010B413976D0042002F0DA
:1016F00065FC02F077FAA08002F074FAA08002F094
:1017000071FA4FF6FF7202EA0020A08002F06AFA36
:10171000A1880843A0F50541A08052397DD0A84298
:101720005BD0D42002F04AFC02F05CFAA08002F008
:1017300059FAA08002F056FA02EA00209146A080F1
:1017400002F050FAA1880843A080B84245D0552144
:10175000504602F049FCAA21584602F045FC5221AD
:101760004FF2020002F040FC08214FF2030002F0A9
:101770003BFC01214FF2040002F036FC4FF44540DF
:1017800002F01CFC02F02EFA09EA0020A0804CF2C4
:10179000015002F013FC02F025FAA1880843A08052
:1017A000052004F031FFA088B0F5004F45D0B042CD
:1017B00013D0A12002F002FC02F014FAA08002F083
:1017C00011FA09EA0020A08002F00CFAA18808436F
:1017D000A0F5AE41A08061392CD0A088A0F51341BE
:1017E000413907D0A84205D0B84203D0B04201D059
:1017F000404528D14FF02040D0F81C1121F00F01B6
:10180000C0F81C11D0F81C1121F47061C0F81C1133
:10181000D0F81C1141F0030100E009E0C0F81C11F0
:10182000A188A942D0F81C1109D141F4407108E007
:10183000A580DFE7A4F80480DCE7A680DAE741F4BE
:101840000071C0F81C11A1882CA0FEF7C7FDA0886C
:10185000A0F5134141397DD0A8427CD1112002F07E
:10186000ADFB782004F0D0FE362002F0A7FB00206C
:1018700002F098FB3A2002F0A1FB052002F092FB57
:10188000B22002F09BFB0C2002F08CFB0C2002F03B
:1018900089FB002002F086FB332002F083FB33201B
:1018A00002F080FBB72002F089FB352002F07AFBC2
:1018B000BB2002F083FB322002F074FBC02002F058
:1018C0007DFB0C2002F06EFBC22002F077FB0120B2
:1018D00002F068FBC32002F071FB102002F062FBF3
:1018E000C42013E000040240000C0240001002403B
:1018F000001402400018024004030020204C43441E
:101900002049443A25780D0A0000000002F056FBF9
:10191000202002F047FBC62002F050FB0F2002F00F
:1019200041FBD02002F04AFBA42002F03BFBA120A7
:1019300002F038FBE02002F041FBD02002F032FB45
:10194000002002F02FFB022002F02CFB072002F007
:1019500029FB01E06CE07DE10A2002F023FB282056
:1019600002F020FB322002F01DFB442002F01AFBA3
:10197000422002F017FB062002F014FB0E2002F0BA
:1019800011FB122002F00EFB142002F00BFB1720BB
:1019900002F008FBE12002F011FBD02002F002FB74
:1019A000002002F0FFFA022002F0FCFA072002F009
:1019B000F9FA0A2002F0F6FA282002F0F3FA3120B0
:1019C00002F0F0FA542002F0EDFA472002F0EAFAB1
:1019D0000E2002F0E7FA1C2002F0E4FA172002F0D1
:1019E000E1FA1B2002F0DEFA1E2002F0DBFA2A20C8
:1019F00002F0E4FA002002F0D5FA002002F0D2FA58
:101A0000002002F0CFFAEF2002F0CCFA2B2002F0F7
:101A1000D5FA002002F0C6FA002002F0C3FA012035
:101A200002F0C0FA3F2002F0BDFA292002F00CB803
:101A3000CF2002F0C3FA002002F0B4FAC12002F075
:101A4000B1FA302002F0AEFAED2002F0B7FA6420CD
:101A500002F0A8FA032002F0A5FA122002F0A2FA7E
:101A6000812002F09FFAE82002F0A8FA852002F017
:101A700099FA102002F096FA7A2002F093FACB201D
:101A800002F09CFA392002F08DFA2C2002F08AFA3A
:101A9000002002F087FA342002F084FA022002F0DB
:101AA00081FAF72002F08AFA202002F07BFAEA207D
:101AB00002F084FA002002F075FA002002F072FAB7
:101AC000C02002F07BFA1B2002F06CFAC12002F069
:101AD00075FA012002F066FAC52002F06FFA302094
:101AE00002F060FA302002F05DFAC72002F066FAD8
:101AF000B72002F057FA362002F060FA482002F0D0
:101B000051FA3A2002F05AFA552002F04BFAB1206D
:101B100002F054FA002002F045FA1A2002F042FACC
:101B2000B62002F04BFA0A2002F03CFAA22002F0A2
:101B300039FAF22002F042FA002002F033FA2620AD
:101B400002F03CFA012002F02DFAE02002F036FA11
:101B50000F2002F027FA2A2002F024FA282002F0AF
:101B600021FA082002F01EFA0E2002F01BFA0820CB
:101B700002F018FA542002F015FAA92002F012FA25
:101B8000432002F00FFA0A2002F00CFA0F2002F0B4
:101B900009FA002002F006FA002002F003FA002001
:101BA00002F000FA002002F0FDF9E12002F006FA4E
:101BB000002002F0F7F9152002F0F4F9172002F0E6
:101BC000F1F9072002F0EEF9112002F0EBF90620FE
:101BD00002F0E8F92B2002F0E5F9562002F0E2F9D4
:101BE0003C2002F0DFF9052002F0DCF9102002F0C1
:101BF000D9F90F2002F0D6F93F2002F0D3F93F20A7
:101C000002F0D0F90F2002F0CDF92B2002F0D6F926
:101C1000002002F0C7F9002002F0C4F9012002F010
:101C2000C1F93F2002F0BEF92A2002F0C7F90020D6
:101C300002F0B8F9002002F0B5F9002002F0B2F984
:101C4000EF2002F0AFF9112002F0B8F9782004F08B
:101C5000DBFCEAE6B8427CD1ED2002F0AFF90120CE
:101C600002F0A0F9FE2002F09DF9EE2002F0A6F9A4
:101C7000DE2002F097F9212002F094F9F12002F021
:101C80009DF9012002F08EF9DF2002F097F9102073
:101C900002F088F9C42002F091F98F2002F082F955
:101CA000C62002F08BF9002002F07CF9E22002F05D
:101CB00079F9E22002F076F9E22002F073F9BF2010
:101CC00002F07CF9AA2002F06DF9B02002F076F95A
:101CD0000D2002F067F9002002F064F90D2002F0F7
:101CE00061F9002002F05EF9112002F05BF900209A
:101CF00002F058F9192002F055F9002002F052F9CB
:101D0000212002F04FF9002002F04CF92D2002F0C2
:101D100049F9002002F046F93D2002F043F9002085
:101D200002F040F95D2002F03DF9002002F03AF99E
:101D30005D2002F037F9002002F034F9B12002F002
:101D40003DF9802002F02EF9002002F02BF98B20C3
:101D500000E0FCE302F026F9002002F023F99620CF
:101D600002F020F9002002F01DF9B22002F026F95D
:101D7000002002F017F9002002F014F9022002F00E
:101D800011F9002002F00EF9032002F00BF90020F7
:101D900002F008F9B32002F011F9002002F002F974
:101DA000002002F0FFF8002002F0FCF8002002F012
:101DB000F9F8002002F0F6F8002002F0F3F8002015
:101DC00002F0F0F8002002F0EDF8002002F0EAF84E
:101DD000002002F0E7F8002002F0E4F8002002F012
:101DE000E1F8002002F0DEF8002002F0DBF800202D
:101DF00002F0D8F8002002F0D5F8002002F0D2F866
:101E0000002002F0CFF8002002F0CCF8002002F011
:101E1000C9F8002002F0C6F8002002F0C3F8002044
:101E200002F0C0F8002002F0BDF8B42002F0C6F8BD
:101E30008B2002F0B7F8002002F0B4F8962002F0F0
:101E4000B1F8002002F0AEF8A12002F0ABF80020BB
:101E500002F0A8F8B52002F0B1F8022002F0A2F8D2
:101E6000002002F09FF8032002F09CF8002002F00E
:101E700099F8042002F096F8002002F093F8B620BA
:101E800002F09CF8002002F08DF8002002F08AF8A1
:101E9000B72002F093F8002002F084F8002002F04E
:101EA00081F83F2002F07EF8002002F07BF85E20EF
:101EB00002F078F8002002F075F8642002F072F861
:101EC000002002F06FF88C2002F06CF8002002F085
:101ED00069F8AC2002F066F8002002F063F8DC201C
:101EE00002F060F8002002F05DF8702002F05AF86D
:101EF000002002F057F8902002F054F8002002F081
:101F000051F8EB2002F04EF8002002F04BF8DC20F4
:101F100002F048F8002002F045F8B82002F04EF830
:101F2000002002F03FF8002002F03CF8002002F010
:101F300039F8002002F036F8002002F033F80020D3
:101F400002F030F8002002F02DF8002002F02AF80C
:101F5000BA2002F033F8242002F024F8002002F026
:101F600021F8002002F01EF8002002F01BF8C1202A
:101F700002F024F8202002F015F8002002F012F8F8
:101F8000542002F00FF8002002F00CF8FF2002F0BD
:101F900009F8002002F006F8C22002F00FF80A202B
:101FA00002F000F8002001F0FDFF042001F0FAFF2C
:101FB000002001F0F7FFC32002F000F83C2001F000
:101FC000F1FF002001F0EEFF3A2001F0EBFF0020CE
:101FD00001F0E8FF392001F0E5FF002001F0E2FF09
:101FE000372001F0DFFF002001F0DCFF3C2001F092
:101FF000D9FF002001F0D6FF362001F0D3FF0020EA
:1020000001F0D0FF322001F0CDFF002001F0CAFF27
:102010002F2001F0C7FF002001F0C4FF2C2001F0A9
:10202000C1FF002001F0BEFF292001F0BBFF00200E
:1020300001F0B8FF262001F0B5FF002001F0B2FF4B
:10204000242001F0AFFF002001F0ACFF242001F0BC
:10205000A9FF002001F0A6FF232001F0A3FF00202C
:1020600001F0A0FF3C2001F09DFF002001F09AFF4D
:10207000362001F097FF002001F094FF322001F09C
:1020800091FF002001F08EFF2F2001F08BFF002038
:1020900001F088FF2C2001F085FF002001F082FF75
:1020A000292001F07FFF002001F07CFF262001F0B5
:1020B00079FF002001F076FF242001F073FF00205B
:1020C00001F070FF242001F06DFF002001F06AFF95
:1020D000232001F067FF002001F064FFC42001F01D
:1020E0006DFF622001F05EFF002001F05BFF052024
:1020F00001F058FF002001F055FF842001F052FF4D
:10210000002001F04FFFF02001F04CFF002001F013
:1021100049FF182001F046FF002001F043FFA420F2
:1021200001F040FF002001F03DFF182001F03AFFD0
:10213000002001F037FF502001F034FF002001F0B3
:1021400031FF0C2001F02EFF002001F02BFF1720A3
:1021500001F028FF002001F025FF952001F022FF6B
:10216000002001F01FFFF32001F01CFF002001F010
:1021700019FFE62001F016FF002001F013FFC52033
:1021800001F01CFF322001F00DFF002001F00AFFDA
:10219000442001F007FF002001F004FF652001F05A
:1021A00001FF002001F0FEFE762001F0FBFE002082
:1021B00001F0F8FE882001F0F5FE002001F0F2FEAB
:1021C000C62001F0FBFE202001F0ECFE002001F013
:1021D000E9FE172001F0E6FE002001F0E3FE0120F9
:1021E00001F0E0FE002001F0DDFEC72001F0E6FE78
:1021F000002001F0D7FE002001F0D4FE002001F005
:10220000D1FE002001F0CEFEC82001F0D7FE002054
:1022100001F0C8FE002001F0C5FE002001F0C2FE62
:10222000002001F0BFFEC92001F0C8FE002001F02F
:10223000B9FE002001F0B6FE002001F0B3FE002040
:1022400001F0B0FE002001F0ADFE002001F0AAFE7A
:10225000002001F0A7FE002001F0A4FE002001F004
:10226000A1FE002001F09EFE002001F09BFE002058
:1022700001F098FE002001F095FE002001F092FE92
:10228000002001F08FFE002001F08CFEE02001F024
:1022900095FE162001F086FE002001F083FE1C2032
:1022A00001F080FE002001F07DFE212001F07AFE89
:1022B000002001F077FE362001F074FE002001F0CE
:1022C00071FE462001F06EFE002001F06BFE5220F0
:1022D00001F068FE002001F065FE642001F062FE5E
:1022E000002001F05FFE7A2001F05CFE002001F08A
:1022F00059FE8B2001F056FE002001F053FE99207C
:1023000001F050FE002001F04DFEA82001F04AFE31
:10231000002001F047FEB92001F044FE002001F04A
:1023200041FEC42001F03EFE002001F03BFECA2029
:1023300001F038FE002001F035FED22001F032FE1F
:10234000002001F02FFED92001F02CFE002001F02A
:1023500029FEE02001F026FE002001F023FEF320FC
:1023600001F020FE002001F01DFEE12001F026FE1C
:10237000162001F017FE002001F014FE1C2001F0D1
:1023800011FE002001F00EFE222001F00BFE0020C5
:1023900001F008FE362001F005FE002001F002FEEB
:1023A000452001F0FFFD002001F0FCFD522001F06E
:1023B000F9FD002001F0F6FD642001F0F3FD00209E
:1023C00001F0F0FD7A2001F0EDFD002001F0EAFDC2
:1023D0008B2001F0E7FD002001F0E4FD992001F0E1
:1023E000E1FD002001F0DEFDA82001F0DBFD002072
:1023F00001F0D8FDB92001F0D5FD002001F0D2FD9B
:10240000C42001F0CFFD002001F0CCFDCA2001F076
:10241000C9FD002001F0C6FDD22001F0C3FD00205F
:1024200001F0C0FDD82001F0BDFD002001F0BAFD93
:10243000E02001F0B7FD002001F0B4FDF32001F031
:10244000B1FD002001F0AEFDE22001F0B7FD052056
:1024500001F0A8FD002001F0A5FD0B2001F0A2FD78
:10246000002001F09FFD1B2001F09CFD002001F0E9
:1024700099FD342001F096FD002001F093FD4420E9
:1024800001F090FD002001F08DFD4F2001F08AFD4C
:10249000002001F087FD612001F084FD002001F0A3
:1024A00081FD792001F07EFD002001F07BFD882078
:1024B00001F078FD002001F075FD972001F072FD1C
:1024C000002001F06FFDA62001F06CFD002001F05E
:1024D00069FDB72001F066FD002001F063FDC22018
:1024E00001F060FD002001F05DFDC72001F05AFD04
:1024F000002001F057FDD12001F054FD002001F033
:1025000051FDD62001F04EFD002001F04BFDDD20F5
:1025100001F048FD002001F045FDF32001F042FDEF
:10252000002001F03FFDE32001F048FD052001F00F
:1025300039FD002001F036FD0A2001F033FD0020B6
:1025400001F030FD1C2001F02DFD002000E0FDE237
:1025500001F028FD332001F025FD002001F022FDCF
:10256000442001F01FFD002001F01CFD502001F06F
:1025700019FD002001F016FD622001F013FD00207E
:1025800001F010FD782001F00DFD002001F00AFDA2
:10259000882001F007FD002001F004FD972001F0E4
:1025A00001FD002001F0FEFCA62001F0FBFC002054
:1025B00001F0F8FCB72001F0F5FC002001F0F2FC7E
:1025C000C22001F0EFFC002001F0ECFCC72001F07C
:1025D000E9FC002001F0E6FCD12001F0E3FC002042
:1025E00001F0E0FCD52001F0DDFC002001F0DAFC78
:1025F000DD2001F0D7FC002001F0D4FCF32001F035
:10260000D1FC002001F0CEFCE42001F0D7FC012039
:1026100001F0C8FC002001F0C5FC012001F0C2FC63
:10262000002001F0BFFC022001F0BCFC002001F002
:10263000B9FC2A2001F0B6FC002001F0B3FC3C20DC
:1026400001F0B0FC002001F0ADFC4B2001F0AAFC31
:10265000002001F0A7FC5D2001F0A4FC002001F0A7
:10266000A1FC742001F09EFC002001F09BFC842062
:1026700001F098FC002001F095FC932001F092FC01
:10268000002001F08FFCA22001F08CFC002001F062
:1026900089FCB32001F086FC002001F083FCBE2001
:1026A00001F080FC002001F07DFCC42001F07AFCE8
:1026B000002001F077FCCD2001F074FC002001F037
:1026C00071FCD32001F06EFC002001F06BFCDD20DA
:1026D00001F068FC002001F065FCF32001F062FCD1
:1026E000002001F05FFCE52001F068FC002001F013
:1026F00059FC002001F056FC002001F053FC0020A2
:1027000001F050FC022001F04DFC002001F04AFCD9
:10271000292001F047FC002001F044FC3C2001F09E
:1027200041FC002001F03EFC4B2001F03BFC00206E
:1027300001F038FC5D2001F035FC002001F032FC96
:10274000742001F02FFC002001F02CFC842001F00B
:1027500029FC002001F026FC932001F023FC00203E
:1027600001F020FCA22001F01DFC002001F01AFC69
:10277000B32001F017FC002001F014FCBE2001F092
:1027800011FC002001F00EFCC42001F00BFC002025
:1027900001F008FCCD2001F005FC002001F002FC56
:1027A000D32001F0FFFB002001F0FCFBDC2001F056
:1027B000F9FB002001F0F6FBF32001F0F3FB002011
:1027C00001F0F0FBE62001F0F9FB112001F0EAFB3B
:1027D000002001F0E7FB342001F0E4FB002001F0D1
:1027E000E1FB562001F0DEFB002001F0DBFB762050
:1027F00001F0D8FB002001F0D5FB772001F0D2FBDF
:10280000002001F0CFFB662001F0CCFB002001F09E
:10281000C9FB882001F0C6FB002001F0C3FB992012
:1028200001F0C0FB002001F0BDFBBB2001F0BAFBB2
:10283000002001F0B7FB992001F0B4FB002001F06B
:10284000B1FB662001F0AEFB002001F0ABFB552090
:1028500001F0A8FB002001F0A5FB552001F0A2FB30
:10286000002001F09FFB452001F09CFB002001F0BF
:1028700099FB432001F096FB002001F093FB4420DC
:1028800001F090FB002001F08DFBE72001F096FBAA
:10289000322001F087FB002001F084FB552001F07D
:1028A00081FB002001F07EFB762001F07BFB002005
:1028B00001F078FB662001F075FB002001F072FB4F
:1028C000672001F06FFB002001F06CFB672001F036
:1028D00069FB002001F066FB872001F063FB00200C
:1028E00001F060FB992001F05DFB002001F05AFB34
:1028F000BB2001F057FB002001F054FB992001F0B0
:1029000051FB002001F04EFB772001F04BFB002033
:1029100001F048FB442001F045FB002001F042FBA0
:10292000562001F03FFB002001F03CFB232001F08A
:1029300039FB002001F036FB332001F033FB00208F
:1029400001F030FB452001F02DFB002001F02AFBB7
:10295000E82001F033FB002001F024FB002001F00F
:1029600021FB992001F01EFB002001F01BFB8720BA
:1029700001F018FB002001F015FB882001F012FB8C
:10298000002001F00FFB772001F00CFB002001F08C
:1029900009FB662001F006FB002001F003FB882004
:1029A00001F000FB002001F0FDFAAA2001F0FAFA84
:1029B000002001F0F7FABB2001F0F4FA002001F04A
:1029C000F1FA992001F0EEFA002001F0EBFA66200E
:1029D00001F0E8FA002001F0E5FA552001F0E2FAF2
:1029E000002001F0DFFA552001F0DCFA002001F0B0
:1029F000D9FA442001F0D6FA002001F0D3FA44209D
:102A000001F0D0FA002001F0CDFA552001F0CAFA09
:102A1000002001F0C7FAE92001F0D0FAAA2001F065
:102A2000C1FA002001F0BEFA002001F0BBFA00203C
:102A300001F0B8FA002001F0C1FAAA2001F0B2FAC0
:102A4000CF2001F0BBFA002001F0ACFA002001F029
:102A5000A9FA002001F0A6FA002001F0A3FA002054
:102A600001F0A0FA002001F09DFA002001F09AFA8E
:102A7000002001F097FA002001F094FA002001F004
:102A800091FA002001F08EFA002001F08BFA00206C
:102A900001F088FA002001F085FA002001F082FAA6
:102AA000002001F07FFA002001F07CFAF02001F014
:102AB00085FA002001F076FA502001F073FA002028
:102AC00001F070FA002001F06DFA002001F06AFABE
:102AD000F32001F073FA002001F064FAF92001F00C
:102AE0006DFA062001F05EFA102001F05BFA292051
:102AF00001F058FA002001F055FA3A2001F05EFA90
:102B0000552001F04FFA112001F058FA642003F02B
:102B10007BFD292001F052FA352001F04FFA002008
:102B200001F040FA512001F049FAFF2001F03AFA91
:102B3000532001F043FA2C2001F034FA552001F023
:102B40003DFA822001F02EFA2C20FCE3B0427DD128
:102B500055215346504601F047FAAA215C46584693
:102B600001F042FA4FF202055221284601F03CFAE8
:102B70006E1C0821304601F037FAAF1C012138469F
:102B800001F032FA0D214FF4304001F02DFA0D2101
:102B90004BF2010001F028FA0D214BF2020001F086
:102BA00023FA4FF436483421404601F01DFA34210F
:102BB0004BF2016001F018FA34214BF2026001F08F
:102BC00013FA4FF431490D21484601F00DFA4BF24A
:102BD000011A0D21504601F007FA0D214BF20210A7
:102BE00001F002FA4FF4374B3421584601F0FCF95A
:102BF00034214BF2017001F0F7F934214BF20270ED
:102C000001F0F2F900214FF4324001F0EDF900211A
:102C10004BF2012001F0E8F900214BF2022001F013
:102C2000E3F924214FF4384001F0DEF924214BF67A
:102C3000010001F0D9F924214BF6020001F0D4F98A
:102C400001214FF43F4001F0CFF900E0FEE30F21F6
:102C50004FF4334001F0C8F90F214BF2013001F07D
:102C6000C3F90F214BF2023001F0BEF934214FF4C9
:102C7000394001F0B9F934214BF6011001F0B4F9F3
:102C800034214BF6021001F0AFF908214FF4354022
:102C900001F0AAF908214BF2015001F0A5F9082131
:102CA0004BF2025001F0A0F903214FF4424001F031
:102CB0009BF924214FF43A4001F096F924214BF678
:102CC000012001F091F924214BF6022001F08CF94A
:102CD00000214FF43C4001F087F978214BF6014088
:102CE00001F082F900214BF6024001F07DF900214C
:102CF0004FF43D4001F078F978214BF6015001F096
:102D000073F900214BF6025001F06EF900214FF4E7
:102D10003E4001F069F964214BF6016001F064F96D
:102D200000214FF4514001F05FF933214DF20110C1
:102D300001F05AF900214DF2021001F055F9342149
:102D40004DF2031001F050F900214DF2041001F092
:102D50004BF93A214DF2051001F046F900214DF2F0
:102D6000061001F041F94A214DF2071001F03CF93B
:102D700000214DF2081001F037F95C214DF20910E5
:102D800001F032F900214DF20A1001F02DF98121F4
:102D90004DF20B1001F028F900214DF20C1001F05A
:102DA00023F9A6214DF20D1001F01EF900214DF27C
:102DB0000E1001F019F9E5214DF20F1001F014F990
:102DC00001214DF2101001F00FF913214DF21110F5
:102DD00001F00AF901214DF2121001F005F9542118
:102DE0004DF2131001F000F901214DF2141001F021
:102DF000FBF882214DF2151001F0F6F801214DF299
:102E0000161001F0F1F8CA214DF2171001F0ECF89C
:102E100002214DF2181001F0E7F800214DF21910CF
:102E200001F0E2F802214DF21A1001F0DDF8012163
:102E30004DF21B1001F0D8F802214DF21C1001F0E8
:102E4000D3F834214DF21D1001F0CEF802214DF2DD
:102E50001E1001F0C9F867214DF21F1001F0C4F8EF
:102E600002214DF2201001F0BFF884214DF2211013
:102E700001F0BAF802214DF2221001F0B5F8A421B8
:102E80004DF2231001F0B0F802214DF2241001F0B0
:102E9000ABF8B7214DF2251001F0A6F802214DF252
:102EA000261001F0A1F8CF214DF2271001F09CF877
:102EB00002214DF2281001F097F8DE214DF2291081
:102EC00001F092F802214DF22A1001F08DF8F22162
:102ED0004DF22B1001F088F802214DF22C1001F078
:102EE00083F8FE214DF22D1001F07EF803214DF202
:102EF0002E1001F079F810214DF22F1001F074F826
:102F000003214DF2301001F06FF833214DF23110F2
:102F100001F06AF803214DF2321001F065F86D21DD
:102F20004DF2331001F060F800214FF4524001F0EF
:102F30005BF833214DF2012001F056F800214DF2EB
:102F4000022001F051F834214DF2032001F04CF839
:102F500000214DF2042001F047F83A214DF20520FE
:102F600001F042F800214DF2062001F03DF84A211F
:102F70004DF2072001F038F800214DF2082001F051
:102F800033F85C214DF2092001F02EF800214DF2BA
:102F90000A2001F029F881214DF20B2001F024F8DC
:102FA00000214DF20C2001F01FF8A6214DF20D205A
:102FB00001F01AF800214DF20E2001F015F8E5217C
:102FC0004DF20F2001F010F801214DF2102001F018
:102FD0000BF813214DF2112001F006F801214DF2FA
:102FE000122001F001F854214DF2132000F0FCFFF3
:102FF00001214DF2142000F0F7FF82214DF215203F
:1030000000F0F2FF01214DF2162000F0EDFFCA2181
:103010004DF2172000F0E8FF02214DF2182000F0D9
:10302000E3FF00214DF2192000F0DEFF02214DF2F6
:103030001A2000F0D9FF01214DF21B2000F0D4FF2F
:1030400002214DF21C2000F0CFFF34214DF21D2053
:1030500000F0CAFF02214DF21E2000F0C5FF6721DB
:103060004DF21F2000F0C0FF02214DF2202000F0A1
:10307000BBFF84214DF2212000F0B6FF02214DF26A
:10308000222000F0B1FFA4214DF2232000F0ACFF7C
:1030900002214DF2242000F0A7FFB7214DF2252098
:1030A00000F0A2FF02214DF2262000F09DFFCF216B
:1030B0004DF2272000F098FF02214DF2282000F069
:1030C00093FFDE214DF2292000F08EFF02214DF208
:1030D0002A2000F089FFF2214DF22B2000F084FF1E
:1030E00002214DF22C2000F07FFFFE214DF22D2019
:1030F00000F07AFF03214DF22E2000F075FF102121
:103100004DF22F2000F070FF03214DF2302000F02F
:103110006BFF33214DF2312000F066FF03214DF2A9
:10312000322000F061FF6D214DF2332000F05CFF92
:1031300000214FF4534000F057FF33214DF201308E
:1031400000F052FF00214DF2023000F04DFF34211B
:103150004DF2033000F048FF00214DF2043000F042
:1031600043FF3A214DF2053000F03EFF00214DF2C1
:10317000063000F039FF4A214DF2073000F034FFED
:1031800000214DF2083000F02FFF5C214DF2093094
:1031900000F02AFF00214DF20A3000F025FF8121C6
:1031A0004DF20B3000F020FF00214DF20C3000F00A
:1031B0001BFFA6214DF20D3000F016FF00214DF24D
:1031C0000E3000F011FFE5214DF20F3000F00CFF42
:1031D00001214DF2103000F007FF13214DF21130A4
:1031E00000F002FF01214DF2123000F0FDFE5421EB
:1031F0004DF2133000F0F8FE01214DF2143000F0D2
:10320000F3FE82214DF2153000F0EEFE01214DF269
:10321000163000F0E9FECA214DF2173000F0E4FE4E
:1032200002214DF2183000F0DFFE00214DF219307E
:1032300000F0DAFE02214DF21A3000F0D5FE012135
:103240004DF21B3000F0D0FE02214DF21C3000F098
:10325000CBFE34214DF21D3000F0C6FE02214DF2AE
:103260001E3000F0C1FE67214DF21F3000F0BCFEA1
:1032700002214DF2203000F0B7FE84214DF22130C2
:1032800000F0B2FE02214DF2223000F0ADFEA4218A
:103290004DF2233000F0A8FE02214DF2243000F060
:1032A000A3FEB7214DF2253000F09EFE02214DF223
:1032B000263000F099FECF214DF2273000F094FE29
:1032C00002214DF2283000F08FFEDE214DF2293030
:1032D00000F08AFE02214DF22A3000F085FEF22134
:1032E0004DF22B3000F080FE02214DF22C3000F028
:1032F0007BFEFE214DF22D3000F076FE03214DF2D3
:103300002E3000F071FE10214DF22F3000F06CFED7
:1033100003214DF2303000F067FE33214DF23130A1
:1033200000F062FE03214DF2323000F05DFE6D21AF
:103330004DF2333000F058FE00214FF4544000F0BD
:1033400053FE332100E07FE34DF2014000F04CFEDC
:1033500000214DF2024000F047FE34214DF20340BF
:1033600000F042FE00214DF2044000F03DFE3A2103
:103370004DF2054000F038FE00214DF2064000F00D
:1033800033FE4A214DF2074000F02EFE00214DF29F
:10339000084000F029FE5C214DF2094000F024FEB7
:1033A00000214DF20A4000F01FFE81214DF20B403A
:1033B00000F01AFE00214DF20C4000F015FEA6218F
:1033C0004DF20D4000F010FE00214DF20E4000F0D5
:1033D0000BFEE5214DF20F4000F006FE01214DF2FB
:1033E000104000F001FE13214DF2114000F0FCFDF1
:1033F00001214DF2124000F0F7FD54214DF213402F
:1034000000F0F2FD01214DF2144000F0EDFD8221AB
:103410004DF2154000F0E8FD01214DF2164000F09C
:10342000E3FDCA214DF2174000F0DEFD02214DF20E
:10343000184000F0D9FD00214DF2194000F0D4FDF4
:1034400002214DF21A4000F0CFFD00E0FFE2012121
:103450004DF21B4000F0C8FD02214DF21C4000F06F
:10346000C3FD34214DF21D4000F0BEFD02214DF29E
:103470001E4000F0B9FD67214DF21F4000F0B4FD81
:1034800002214DF2204000F0AFFD84214DF2214099
:1034900000F0AAFD02214DF2224000F0A5FDA4217A
:1034A0004DF2234000F0A0FD02214DF2244000F037
:1034B0009BFDB7214DF2254000F096FD02214DF213
:1034C000264000F091FDCF214DF2274000F08CFD09
:1034D00002214DF2284000F087FDDE214DF2294007
:1034E00000F082FD02214DF22A4000F07DFDF22124
:1034F0004DF22B4000F078FD02214DF22C4000F0FF
:1035000073FDFE214DF22D4000F06EFD03214DF2C2
:103510002E4000F069FD10214DF22F4000F064FDB7
:1035200003214DF2304000F05FFD33214DF2314078
:1035300000F05AFD03214DF2324000F055FD6D219F
:103540004DF2334000F050FD00214FF4554000F0A3
:103550004BFD33214DF2015000F046FD00214DF2AC
:10356000025000F041FD34214DF2035000F03CFDCB
:1035700000214DF2045000F037FD3A214DF2055084
:1035800000F032FD00214DF2065000F02DFD4A21E1
:103590004DF2075000F028FD00214DF2085000F0D8
:1035A00023FD5C214DF2095000F01EFD00214DF27B
:1035B0000A5000F019FD81214DF20B5000F014FD6E
:1035C00000214DF20C5000F00FFDA6214DF20D50E0
:1035D00000F00AFD00214DF20E5000F005FDE5213E
:1035E0004DF20F5000F000FD01214DF2105000F09F
:1035F000FBFC13214DF2115000F0F6FC01214DF2BD
:10360000125000F0F1FC54214DF2135000F0ECFC8C
:1036100001214DF2145000F0E7FC82214DF21550CB
:1036200000F0E2FC01214DF2165000F0DDFCCA2151
:103630004DF2175000F0D8FC02214DF2185000F066
:10364000D3FC00214DF2195000F0CEFC02214DF2C6
:103650001A5000F0C9FC01214DF21B5000F0C4FCCF
:1036600002214DF21C5000F0BFFC34214DF21D50E0
:1036700000F0BAFC02214DF21E5000F0B5FC6721AB
:103680004DF21F5000F0B0FC02214DF2205000F02E
:10369000ABFC84214DF2215000F0A6FC02214DF23A
:1036A000225000F0A1FCA4214DF2235000F09CFC1C
:1036B00002214DF2245000F097FCB7214DF2255025
:1036C00000F092FC02214DF2265000F08DFCCF213B
:1036D0004DF2275000F088FC02214DF2285000F0F6
:1036E00083FCDE214DF2295000F07EFC02214DF2D8
:1036F0002A5000F079FCF2214DF22B5000F074FCBE
:1037000002214DF22C5000F06FFCFE214DF22D50A5
:1037100000F06AFC03214DF22E5000F065FC1021F0
:103720004DF22F5000F060FC03214DF2305000F0BC
:103730005BFC33214DF2315000F056FC03214DF279
:10374000325000F051FC6D214DF2335000F04CFC32
:1037500000214FF4564000F047FC33214DF2016048
:1037600000F042FC00214DF2026000F03DFC3421EB
:103770004DF2036000F038FC00214DF2046000F0CF
:1037800033FC3A214DF2056000F02EFC00214DF291
:10379000066000F029FC4A214DF2076000F024FC8D
:1037A00000214DF2086000F01FFC5C214DF2096021
:1037B00000F01AFC00214DF20A6000F015FC812196
:1037C0004DF20B6000F010FC00214DF20C6000F097
:1037D0000BFCA6214DF20D6000F006FC00214DF21D
:1037E0000E6000F001FCE5214DF20F6000F0FCFBE3
:1037F00001214DF2106000F0F7FB13214DF2116032
:1038000000F0F2FB01214DF2126000F0EDFB5421BB
:103810004DF2136000F0E8FB01214DF2146000F05E
:10382000E3FB82214DF2156000F0DEFB01214DF239
:10383000166000F0D9FBCA214DF2176000F0D4FBEE
:1038400002214DF2186000F0CFFB00214DF219600B
:1038500000F0CAFB02214DF21A6000F0C5FB012105
:103860004DF21B6000F0C0FB02214DF21C6000F025
:10387000BBFB34214DF21D6000F0B6FB02214DF27E
:103880001E6000F0B1FB67214DF21F6000F0ACFB41
:1038900002214DF2206000F0A7FB84214DF221604F
:1038A00000F0A2FB02214DF2226000F09DFBA4215A
:1038B0004DF2236000F098FB02214DF2246000F0ED
:1038C00093FBB7214DF2256000F08EFB02214DF2F3
:1038D000266000F089FBCF214DF2276000F084FBC9
:1038E00002214DF2286000F07FFBDE214DF22960BD
:1038F00000F07AFB02214DF22A6000F075FBF22104
:103900004DF22B6000F070FB02214DF22C6000F0B4
:103910006BFBFE214DF22D6000F066FB03214DF2A2
:103920002E6000F061FB10214DF22F6000F05CFB77
:1039300003214DF2306000F057FB33214DF231602E
:1039400000F052FB03214DF2326000F04DFB6D217F
:103950004DF2336000F048FB5521184600F044FB5F
:10396000AA21204600F040FB5221284600F03CFBF3
:103970000821304600F038FB0021384600F034FBC7
:10398000CC21484600F030FB0021504600F02CFBD3
:103990000521404600F028FB7021584600F024FB2A
:1039A00070214BF2017000F01FFB01214FF43840F1
:1039B00000F01AFB03214BF6010000F015FB032178
:1039C0004BF6020000F010FB03214BF6030000F061
:1039D0000BFB02214FF43C4000F006FB00214BF6AC
:1039E000014000F001FB00214BF6024000F0FCFA20
:1039F000D0214FF4494000F0F7FA02214CF60110B3
:103A000000F0F2FA50214CF6021000F0EDFA5021CD
:103A10004CF6031000F0E8FA50214CF6041000F0C8
:103A2000E3FA00214FF4545000F0DEFA55214FF430
:103A3000685000F0D9FA4FF4885000F0BFFA7820AF
:103A400002F0FEFD4FF4245000F0B8FAB9E0404512
:103A5000FCD1E22000F0B2FA1D2000F0A3FA02200F
:103A600000F0A0FA042000F09DFA642002F0E8FDC6
:103A7000E02000F0A3FA012000F094FA0A2002F0FE
:103A8000C3FDE02000F09AFA032000F08BFA0C202E
:103A900002F0BAFD012000F091FA0A2002F0B4FD14
:103AA000E62000F08BFA2F2000F07CFAFF2000F0D7
:103AB00079FAFF2000F076FAB02000F07FFA20209B
:103AC00000F070FA002000F06DFA032000F06AFAAE
:103AD00040F21F3000F066FA012000F063FA40F275
:103AE000DF1000F05FFA002000F05CFAB42000F074
:103AF00065FA042000F056FA40F21F4000F052FA36
:103B0000002000F04FFA2E2000F04CFA002000F0C8
:103B100049FA002000F046FA002000F043FA0020A5
:103B200000F040FAB62000F049FA022000F03AFA1C
:103B30004FF4037000F036FA002000F033FA17203B
:103B400000F030FA152000F02DFA002000F02AFADB
:103B5000002000F027FAF02000F030FA032000F0F7
:103B600021FA292000F02AFAD02000F027FA0020BC
:103B700000F018FABE2000F021FA052000F012FA39
:103B8000FE2000F00FFA012000F00CFA002000F0F7
:103B900009FA002000F006FA002000F003FAB8202D
:103BA00000F00CFA032000F0FDF9012000F0FAF912
:103BB000BA2000F003FA012000F0F4F9642000F0CC
:103BC0001BF80020FDF7B2FB05490120C1F8BC023B
:103BD0004FF6FF70FDF792FB21B0BDE8F08F0000BB
:103BE0000080404208B54FF0D840B0F88000ADF8F2
:103BF0000000BDF8000008BD10B50246BE2000F070
:103C0000DDF9052000F0CEF9104608F038FA9FEDF6
:103C10000C1B53EC112B08F045FA08F003FA80B2A4
:103C200000F0C0F9012000F0BDF9FF2000F0BAF962
:103C3000002000F0B7F9BDE81040002000F0B2B954
:103C4000666666666666044070B5664C002321466B
:103C5000A279898841F66315012A01D01AB11BE0C7
:103C6000A94202D118E0A94216D1082814D2DFE8EF
:103C700000F00406080A0C0E101206200CE00720C3
:103C80000AE0042008E0052006E0012004E000200E
:103C900002E0032000E00220082812D2DFE800F052
:103CA000110406080A0C0E1080230AE0402308E0E5
:103CB000C02306E0202304E0602302E0A02300E00C
:103CC000E02345F21056B14202D14FF4585000E0C3
:103CD0003620A1F51342413A03D0A1F5EE42893ACC
:103CE00001D143F00803194600F07EF9A288AA42E8
:103CF0000AD098062088618802D5884202D303E062
:103D0000884201D9218060806089B24240D100F0B0
:103D100055F9002000F046F96089401C80B200F09F
:103D20004DF9002000F03EF96089801C80B200F05F
:103D300045F92088401EC0F30F2000F033F9608958
:103D4000C01C80B200F03AF92078401EC0B200F0EA
:103D500029F9A08900F032F9002000F023F9A089A8
:103D6000401C80B200F02AF9002000F01BF9A08965
:103D7000801C80B200F022F96088401EC0F30F2042
:103D800000F010F9A089C01C80B200F017F921E002
:103D900000F014F9002000F005F9002000F002F90D
:103DA0002088401EC0F30F2000F0FCF82078401E51
:103DB000C0B200F0F7F8A08900F000F9002000F090
:103DC000F1F8002000F0EEF86088401EC0F30F20EC
:103DD00000F0E8F8A078BDE87040401EC0B200F0E6
:103DE000E1B8000004030020F0B53A4D0C4602464D
:103DF000060AA9882846270A4089A1F5C853633BCB
:103E000016D0A1F5AA43103B4BD000F0D7F83046AE
:103E100000F0C8F8D0B200F0C5F8A88900F0CEF8DC
:103E2000384600F0BFF8E0B2BDE8F04000F0BAB8A4
:103E3000A97929B300F0C2F8304600F0B3F8D0B247
:103E400000F0B0F82888401EC0F30F2000F0AAF858
:103E50002878401EC0B200F0A5F8A88900F0AEF89E
:103E6000384600F09FF8E0B200F09CF86888401EE9
:103E7000C0F30F2000F096F8A878401EC0B2D3E738
:103E80002988891A491E8AB200F098F8002000F0AB
:103E900089F8002000F086F8100A00F083F8D0B20C
:103EA000D9E700F08BF8304600F07CF86889401CB8
:103EB00080B200F083F8D0B200F074F8A88900F066
:103EC0007DF8384600F06EF8A889401C80B200F0FA
:103ED00075F8A8E7040300202DE9F84F82461F4635
:103EE0000C468B46580700D0012000EBD70079081C
:103EF00010FB01F0203AC0B202F0FF09002600904A
:103F000041E00C2F10D0102F12D0182F3ED1204995
:103F100009EBC90001EB80004FF00008855D280621
:103F20000AD51C4802880BE009EB49001A49F1E761
:103F30001A4901EB0910EFE70A9828B91548428899
:103F400021465046FDF74EFA6806050E1448641CDB
:103F5000A4B24088A04219D9A4EB0B00B84209D101
:103F60000AF101001FFA80FA0D485C4601885145AC
:103F70000CD906E008F1010000F0FF08B8F1080FC5
:103F8000CDD3761CF6B200988642BAD3BDE8F88F3E
:103F90000ECD000828000020AAC200081EC7000895
:103FA0000403002001B5BDF80000ADF80000BDF825
:103FB00000004FF0D841A1F8800008BD01B5BDF860
:103FC0000000ADF80000BDF800004FF0D841A1F8A6
:103FD0007E0008BD03484FF0D8410089A1F87E005B
:103FE00070470000040300204FF0D84222F87E0FF3
:103FF000518070477CB50121202000F059F8012044
:104000008DF8040000228DF8062003218DF805109C
:10401000074D4FF4C0648DF80700009469462846A8
:10402000FDF76AF821462846FDF7B2F87CBD00008E
:1040300000140240FEE7704730B50F23C2780178C4
:104040000125FAB1144A126801F1E02102F4E0629C
:10405000C2F5E062C2F30722C2F10404D340427801
:10406000A24084781C401443220181F80024007887
:1040700000F01F018D404009800000F1E020C0F8F1
:10408000005130BD01F01F0085404809800000F15B
:10409000E020C0F8805130BD0CED00E0024908433B
:1040A00002490860704700000000FA050CED00E0CE
:1040B000044A0029116801D0014300E081431160E6
:1040C0007047000030380240044A0029116801D0CE
:1040D000014300E08143116070470000383802401E
:1040E000044A0029116801D0014300E081431160B6
:1040F0007047000040380240044A0029116801D08E
:10410000014300E081431160704700002038024005
:10411000044A0029116801D0014300E08143116085
:104120007047000044380240044A0029116801D059
:10413000014300E0814311607047000024380240D1
:1041400070B5204B1968204C11F00C0104D066109A
:10415000042903D0082903D004601BE0066019E09D
:10416000184A121F1168C1F38055116801F03F0110
:1041700015B1B6FBF1F101E0B4FBF1F1146812687E
:10418000C4F388146143C2F30142521C5200B1FBD4
:10419000F2F1016019680F2202EA11110B4A545C16
:1041A0000168E14041601C68072505EA9424145D1C
:1041B00021FA04F484601B6805EA5333D25CD140D1
:1041C000C16070BD083802400024F4003C020020A9
:1041D0002DE9FC41002600963546019600B10225E6
:1041E0001B480068800102D50E20BDE8FC81194CF7
:1041F0006946208980B2FCF7DDFE0028F5D10198E0
:10420000400322D52089144C00044FF04008206060
:104210003720C4E901084FF480672046C4E90367EA
:1042200000F08AF83720FCF785FC0028DDD1062055
:10423000C4F80880C4E90050C4E90367204600F0D0
:104240007BF80620FCF776FCCFE72520CDE70000C1
:10425000142C014038000020401300200149086060
:1042600070470000382C0140034A116821F0FF011B
:104270000143116070470000042C014010B50A4A48
:1042800001681160121D41681160131D1968D0E9A1
:1042900002242243D0E90440044321F0F7012243E1
:1042A0000A431A6010BD0000242C0140034A014655
:1042B000002012680A4200D001207047342C0140CF
:1042C0000248006800F0030070470000002C014025
:1042D00000F0A8BB30B5094B1A6847F6FF618A4366
:1042E000017D8468C568214344682C4321430468E8
:1042F0000069214301431143196030BD042C014082
:104300000B4900200860091D0860091D0860091D8F
:104310000860074924310860091D0860091D08600C
:10432000034A044938321160111D086070470000CB
:10433000002C0140FF07C00010B5084A0168116059
:10434000131D1968D0E901242243D0E90340044336
:104350006FF30A0122430A431A6010BD082C014082
:104360000149086070470000002C014070B51B4EE9
:1043700090B0154604463046FCF750FD0028FAD1AF
:104380003046FCF7AFFC4FF000600090144801A9E4
:1043900081E8310000204FF480610490CDE90501EF
:1043A000890007918900CDE908104FF440300A9048
:1043B00004200B9003200C9048020D9080100E906A
:1043C00069463046FCF732FD20213046FCF71CFDE3
:1043D00001213046FCF77CFC10B070BD58640240EF
:1043E000802C014010B510490446002009780329AB
:1043F00017D019B1012901D0022911D1B4F5805F7C
:104400000FD0E0B2FFF7E4FE002809D107490A689F
:1044100022F4C0520A600A6822430A600A680A60ED
:1044200010BD272010BD000038000020042C0140E2
:104430002DE9F0478249DFF80CA24FF0000C0B7811
:1044400080F856300989A0F85410DAF800104FF0BF
:1044500001090A0E95090570C2F38305457002F043
:10446000030282700A0CC2700A0A02714171DAF802
:104470000420110E0C01C2F3074144EA111401F0AB
:104480000F08C480C2F3072180F80880CC09447269
:10449000C1F380148472C1F34014C472C1F30014D8
:1044A0000473544680F80DC0A468260EC4F3074573
:1044B000C4F3072733B1012B04D0032B02D0022B06
:1044C00030D03EE08907090DD2B241EA820141EACB
:1044D0009612C6F3C2010261017506F0070141752B
:1044E00069098175C5F38201C175A9074B0F39466A
:1044F00043EAD1150576AD1C09FA05F3DE17521C07
:10450000A2FB03570CFB037302FB063309FA08F204
:10451000A5FB0267026503FB027205FB0C22C0E9E2
:1045200012620EE09106890A41EA06222A430261DC
:10453000521C530BD204C0E912234FF400723946C7
:104540000265C1F38012427689064A0EE1B242EA60
:10455000D11200F81A2F01F07F014170DAF80C2017
:10456000110ECB098370C1F34113C370C1F38203F1
:10457000037189070B0FC2F3074143EA911343719B
:10458000C1F34013837180F807C001F0010101728B
:10459000C2F30721CB094372C1F380138372C1F3C5
:1045A0004013C372C1F300130373C1F38103437358
:1045B00001F003018173C2F34601224AC173103234
:1045C00080F8109011684B460C0E84740C0CC1F3EB
:1045D000072545EA042484820C0651680D0E44EA3E
:1045E0000544C1F3074544EA0524C1F307252C43DC
:1045F000C0F8164000F81A1F91680C0E44700C0C9D
:10460000C1F30725240644EA0544C9B244EA01245B
:10461000D16844EA1164C1F307424460047A44EA71
:1046200012140472C1F30724120744EA12524281A1
:10463000C1F34601017343736046BDE8F087000093
:10464000380000206C1300202DE9FE4300250121D5
:104650003F48FFF72DFD0121CE023046FFF758FD00
:1046600001213046FFF760FD4FF4F8500090022022
:104670008DF804008DF805000024DFF8D8908DF83F
:10468000064001278DF8077069464846FCF734FD5F
:104690000420DFF8C480009069464046FCF72CFDFA
:1046A0000C2208214846FCF763FD0C2209214846EC
:1046B000FCF75EFD0C220A214846FCF759FD0C224E
:1046C0000B214846FCF754FD0C2211464846FCF7E6
:1046D0004FFD0C2202214046FCF74AFD00213046E6
:1046E000FFF722FDFFF70CFE31208DF808008DF852
:1046F00009408DF80A408DF80B7002A8FFF79CFC6A
:1047000000F0BEF8154C80B900F02CF868B92046CE
:10471000FFF78EFE48B9B4F85400000400F072FCB4
:1047200018B93046FFF75EFE18B10D490978032924
:104730000BD194F8560008B1012800D10225284673
:10474000FFF792FD002000F073FCBDE8FE8300003F
:104750000C00400000080240000C024090130020B2
:10476000380000202DE9F84F0120ADF80000FFF7D8
:10477000A7FDB0B33F4F3878042878D03E4C0025D1
:104780000220E4E80250C0204FF4806684E8610013
:104790003948083CFFF7D0FDFCF7F8F9002822D192
:1047A000DFF8D8A0DAF8001033480AF1040B3C30E7
:1047B0000160DBF8001041600BF1040109688160C1
:1047C0002E490C310968C16038784FF003084FF06A
:1047D000400950B1012808D0062806D0022804D08C
:1047E00010E0FFE72520BDE8F88F84E82003C4E946
:1047F00003562148FFF7A0FD69460320FCF702FAA3
:104800000028F0D1387803280DD1BDF8000000044D
:1048100084E80103C4E903561748FFF78DFDFCF750
:10482000B5F90028DFD13878042820D0BDF8000081
:10483000B860000401C4092001C4C02084E86100FC
:104840000D48FFF779FDFCF7A1F90028CBD1DAF884
:10485000001009482C300160DBF800104160074966
:1048600008310968816005490C310968C160002080
:10487000B9E700003800002040130020142C01404C
:104880002DE9F05F0027624876213E4601750760FA
:1048900047608760C7603C463D46B946B8460761F9
:1048A000FFF718FD0320FFF75BFD5A48016841F44C
:1048B00080710160DFF858A14FF4806B0AF1180A8B
:1048C0005348CAF80080CAF80480CAF80880CAE9C8
:1048D000038B1830FFF730FDFCF717F928B17F1C68
:1048E000FFB24A2FECD3BDE8F09F4FF4D570CAF861
:1048F000000008205746CAF804004020C7E9020813
:104900000001CAF8100042481830FFF715FDFCF707
:10491000B7F920B9404901204FF080490870BA46E4
:10492000384641463722402780E88600C0F80C8090
:1049300037483901C3461830CAF81010FFF7FCFC9D
:104940003720FCF7F7F84FF6FF78A0B35646DFF8AC
:10495000C490BA464FF4806B012709F11009C5B322
:104960004DE055463720C5E900B04FF48068CAF8DD
:1049700010802748C5E9027B5E461830FFF7DCFC53
:104980003720FCF7D7F80028ADD1244949EA0100C7
:1049900028602920C5E90107C5E903681C481830CB
:1049A000FFF7CAFCFCF716F900289CD11949103111
:1049B0000E68F50F641C1DB94FF6FF718C42D0D301
:1049C0004FF6FF718C421CD216F0804F8BD0022222
:1049D0001AE012E0124886E881040020C6E9030BC1
:1049E0000B481830FFF7A8FCFCF7F4F80028CBD1EF
:1049F000D9F80010CD0F641CB1E74445EAD3444513
:104A000001D31B206FE7032203490A706BE7000004
:104A100028130020042C01403800002000001080E2
:104A20000080FF802DE9F0414FF48070FFF73EFCDD
:104A3000354C364D4CF23A3610B3A8780021012897
:104A40000ED0E9703048001F016841F480710160A8
:104A50002068B043206001202871E878BDE8F0812B
:104A60002B480C22C0E900124022C0E902211101AA
:104A70000161FFF761FC0C20FCF75CF8E870E1E7EE
:104A80000220FFF713FC40B10220FFF7E7FB20688C
:104A9000B04320600220E870E0E70820FFF706FC42
:104AA00040B10820FFF7DAFB2068B0432060042003
:104AB000E870D3E72020FFF7F9FB40B12020FFF793
:104AC000CDFB2068B04320600620E870C6E71020C8
:104AD000FFF7ECFB40B11020FFF7C0FB2068B043AC
:104AE00020600520E870B9E74FF400773846FFF7FB
:104AF000DDFB0028B2D03846FFF7B0FB2068B0439A
:104B000020600720E870A9E73C2C01403800002015
:104B1000401300202DE9F84F17460A9E05004FF07C
:104B2000FF3467D0DFF8E0A10020CAF80000DFF80A
:104B3000DC9199F80010022903D10E02570A47EAC6
:104B4000C357014672480122A0468160C0E9004176
:104B5000C160C0E90412FFF791FB6B481838006888
:104B6000800102D50E20BDE8F88F701EB0F5006FF1
:104B700040D206423ED1304601F0C6FB0090644868
:104B8000102114384FF4806BC0E90061402181602E
:104B90000021C0E9031BFFF7CFFB1020FBF7CAFF82
:104BA0000028E0D1009801015948C0F80080C0E910
:104BB00001610121416102214FF00008C0E90318A1
:104BC000FFF75CFB524811211438E0E802714021E4
:104BD00080E802094E481438FFF7AEFB1120FBF7BE
:104BE000A9FF0700BFD199F80100494620B101286B
:104BF0005DD082E02620B6E7FBF747FB424EDFF8A8
:104C0000089154364FF4004BDFF8088109F1080988
:104C100040F22A6A10E05846FFF748FB48B10020EE
:104C2000316845F82010401C0828F9D34446203547
:104C300002E0002C65D0641ED9F8000010EA0A0FCB
:104C4000E9D00820FFF732FB18B10820FFF706FB78
:104C500057E00220FFF72AFB20B10220FFF7FEFAFF
:104C6000022080E72020FFF721FB20B12020FFF762
:104C7000F5FA062077E74FF400742046FFF716FB9D
:104C800038B12046FFF7EAFA07206CE7306801C523
:104C900001E04FF400142046FFF708FB0028F5D18F
:104CA000FBF7F5FA40F2FF50FFF7D8FA25E040464F
:104CB000C846C8708870087113491031086840F2FE
:104CC0002A3210430860DAF8001041F00801CAF8EF
:104CD0000010002231462846FFF748FB0E494046A7
:104CE00000E0641E0A68120103D402790AB9C2788E
:104CF0002AB134B1C17801B1C778384633E7002C06
:104D0000EFD104202FE700002C2C014038000020B8
:104D100054130020FFFF7F00006402402DE9FC4790
:104D20000027CD0D4E028046810791464FF400705A
:104D300018D00024824612E06002821945EBE0732D
:104D4000CDF800A01248FFF7E5FE0746524610498D
:104D50004046FBF7C9FC641C08F50078E4B24C45FA
:104D6000EAD30AE0B9F1010F0AD0CDE900093246D1
:104D70002B46404600F00EF807463846BDE8FC8753
:104D8000009032462B464046FFF7C4FEF4E7000091
:104D9000E81300202DE9FF5F82B0DFF854B2DDE9AF
:104DA00010680299CBF80C109249002517464FF075
:104DB000FF340D609BF80000022803D10602570A59
:104DC00047EAC357DFF830A201215046CAF808501D
:104DD000CAF81410C0E90045CAF80C50A146CAF838
:104DE0001050FFF74BFA834818380068800103D54C
:104DF0000E2006B0BDE8F09F701EB0F5006F21D206
:104E000006421FD1304601F07FFA00907A48102107
:104E10001438C0E90061402181600021C1604FF475
:104E200080610161FFF788FA1020FBF783FE05001F
:104E3000DFD14046B8F1010F36D900FB06F8B8F1D2
:104E4000007F01D32620D4E70098CAF80090010122
:104E500050464FF00009C0E901810121CAF8141041
:104E60000221CAE903194D466348FFF707FADFF844
:104E700088A11221AAF1140A5046C0E9007140210C
:104E8000CAE902150901CAF81010FFF755FA1220F5
:104E9000FBF750FE0500ACD15E469BF8010040F2E6
:104EA0002A3B10B1012877D0A0E0FBF7EEF9514F73
:104EB000D846543713E04FF40040FFF7F7F958B1E4
:104EC000F16800203A6841F82020401C0828F9D3F6
:104ED00020314A4CF16002E0002C7DD0641E454830
:104EE0000830006810EA080FE5D00820FFF7DEF967
:104EF00018B10820FFF7B2F96EE00220FFF7D6F9EB
:104F000020B10220FFF7AAF9022072E72020FFF764
:104F1000CDF920B12020FFF7A1F9062069E74FF471
:104F200000742046FFF7C2F948B12046FFF796F912
:104F300007205EE73968F06802C0F06001E04FF4D6
:104F400000142046FFF7B2F90028F3D14FF4807027
:104F5000FFF7ACF9C0B1307818B1012801D00228B0
:104F600012D150460C22C0E900924022CAE902291F
:104F7000214811011438CAF81010FFF7DDF90C2090
:104F8000FBF7D8FD0500C0D1FBF781F940F2FF50D7
:104F9000FFF764F92AE0FFE786F803900121B1707A
:104FA00086F8049013481030016841EA0B01016053
:104FB0001048016841F00801016041460022029852
:104FC000FFF7D4F90E4800E0641E0168090102D41D
:104FD000002CF9D100E00CB904200AE7307910B9AF
:104FE000F0780028FAD0F07800B1F578284600E78C
:104FF000380000202C2C014054130020FFFF7F00BC
:1050000000640240094910B508600720486040204C
:1050100088600020C8604FF4806008610846FFF790
:105020008BF9BDE810400720FBF784BD401300203A
:105030000021012803D010B1262108467047014AFB
:105040005070FAE7380000202DE9FC5F4FF00005B2
:105050000C9F90469B4604008DF800502E46B946A2
:1050600061D0AC480560AC48691E8560C0E9001598
:105070000121C560C0E90451FFF700F9A5481838BF
:105080000068800102D50E20BDE8FC9FDFF88CA2ED
:105090009AF80000022804D107024FEA582040EA9B
:1050A000CB58781EB0F5006F3DD207423BD1384651
:1050B00001F02AF9DFF860B20190ABF1140B584609
:1050C0001021C0E900714021CBE902150901CBF89C
:1050D0001010FFF731F91020FBF72CFD0028D3D179
:1050E0008E48DA4600890104CBF800100D2158469D
:1050F000CBF804104021C0E9021587480901AB46EE
:105100001438CAF81010FFF717F90D20FBF712FD3D
:105110000028B9D17F4918390868DA464FF0FF35C1
:10512000DFF8F8B119E02620AEE7BBF808006D1EE5
:1051300001047948143801600D2141604021C0E923
:10514000021A09010161FFF7F7F80D20FBF7F2FCE5
:10515000002899D16F4818380068C00502D4002D86
:10516000E3D12EE06DB36C48182114385546C0E9E0
:1051700000814021C0E9021A09010161FFF7DCF852
:105180001820FBF7D7FC0028CED18BF802500198ED
:10519000DA46020160484FF0FF3B2946C0F800B0F4
:1051A000C0E901720122C160C0E90412A8465D464F
:1051B000FFF764F89AF8010028B15646012864D038
:1051C00097E0292060E7FBF760F8524FDFF8448151
:1051D000543708F1080840F21A6A24E04FF480407E
:1051E000FFF764F8E8B1A9EB060020280DD281078B
:1051F0004FEA900100D0491C002003E004CC3A6043
:10520000401C361D8842F9D308E0002054F82010D5
:105210003960401C0828F9D3203420366FF040450F
:1052200001E08DB36D1ED8F8000010EA0A0FD5D04A
:105230000820FFF73BF818B10820FFF70FF856E0F9
:105240000220FFF733F820B10220FFF707F8022011
:105250001AE71020FFF72AF820B11020FEF7FEFF12
:10526000052011E74FF400742046FFF71FF820B126
:105270002046FEF7F3FF072006E7FBF708F840F2A9
:10528000FF50FEF7EBFF34E031E086F8038086F84C
:10529000028086F804801F481030016840F21A32FC
:1052A00011430160402239462046FFF75FF8194854
:1052B000016841F008010160194800E06D1E0168B5
:1052C000090102D4002DF9D102E00DB1584603E0E6
:1052D000FFF7BAF90BE0401E317909B9F17821B135
:1052E00028B1F07828B1F078CEE60028F3D1042078
:1052F000CAE640F2FF50FEF7B1FF6846FBF792FFA7
:105300000028A5D19DF800100729F6D00629F4D071
:10531000BAE600002C2C0140541300203800002075
:10532000006402402DE9FC470746CD0D4E02904631
:105330000020BA074FF4007118D00024894611E00C
:105340004A4639461248FBF7CFF96002821945EB0D
:10535000E073CDF800900E48FFF776FE641CE4B2CF
:1053600007F500774445EBD3BDE8FC87B8F1010FA2
:1053700007D0CDE9001832462B46384600F00AF82F
:10538000F2E732462B4638460091FFF75DFEEBE729
:10539000E81300202DE9FC5F4FF00001DDE90C6708
:1053A00091469B4604008DF800100D4607FB06FA57
:1053B00047D0B4480160B4484A1E8160C0E900216A
:1053C0000122C160C0E90412FEF758FFAD48183849
:1053D0000068800102D50E20BDE8FC9FAB48007834
:1053E000022804D106024FEA592040EACB59701E28
:1053F000B0F5006F25D2064223D1304600F084FF7D
:10540000DFF884B20190ABF1140B58461021C0E9CB
:1054100000614021CBF808100021CBF80C104FF4AC
:105420008061CBF81010FEF787FF1020FBF782FB9E
:105430000028D1D1012F65D907FB06F8B8F1007F0C
:1054400001D32620C8E79148007818B1012801D07F
:1054500002282DD18D484026008901045846CBF8FA
:1054600000103721C0E901160021CBF80C10864846
:1054700031011438CBF81010FEF75EFF3720FBF730
:1054800059FB0028A8D158461721CBF80070C0E975
:1054900001160021CBF80C107B4831011438CBF8F1
:1054A0001010FEF749FF1720FBF744FB002893D1AB
:1054B000754819211438C0E9009140214FF00009C6
:1054C000C0E9021909010161FEF736FF1920FBF757
:1054D00031FB002880D101984FF0FF3601016A4866
:1054E00001270660C0E90181C0F80C90C0E904976B
:1054F000FEF7C4FEDFF894B19BF8010018B15D46D9
:1055000001287DD0AEE0FAF7C0FE5E4F40F21A38B7
:10551000543725E04FF48040FEF7C8FEE8B1AAEB0F
:10552000050020280DD281074FEA900100D0491CC8
:10553000002003E004CC3A60401C2D1D8842F9D3C2
:1055400008E0002054F820103960401C0828F9D3E6
:10555000203420356FF0404602E0002E0DD0761E3C
:1055600048480830006810EA080FD3D00820FEF73A
:105570009DFE18B10820FEF771FE71E00220FEF7D3
:1055800095FE20B10220FEF769FE022024E71020DC
:10559000FEF78CFE20B11020FEF760FE05201BE711
:1055A0004FF400742046FEF781FE20B12046FEF73E
:1055B00055FE072010E74FF48070FEF777FEB8B174
:1055C0009BF8000018B1012801D0022810D12E4804
:1055D0000C221438C0E900924022C0E902291101CE
:1055E0000161FEF7A9FE0C20FBF7A4FA0028CDD13B
:1055F000FAF74DFE40F2FF50FEF730FE32E0FFE7D3
:1056000085F80390AF7085F804901E48103001684B
:1056100040F21A3211430160414640222046FEF713
:10562000A5FE1848016841F008010160304618499C
:1056300000E0401E0A68120102D40028F9D100E0FF
:1056400018B9FFF701F80BE0761E287908B9E87859
:1056500020B12EB1E87828B1E878BDE6002EF3D16C
:105660000420B9E640F2FF50FEF7F8FD6846FBF76C
:10567000D9FD00288AD19DF800100729F6D0062907
:10568000F4D0A9E62C2C014054130020380000204F
:10569000006402402DE9F043012187B00846FEF77F
:1056A00007FD4FF4805901214846FEF731FD0227DE
:1056B0008DF8187000248DF81A4003208DF8190019
:1056C000DFF88C803826012505968DF81B5005A93A
:1056D0004046FBF711FD052203214046FBF748FD3C
:1056E000052204214046FBF743FD052211464046B2
:1056F000FBF73EFD01214846FEF716FD0021484616
:10570000FEF712FDADF800404FF48270ADF80200D4
:10571000ADF808506802ADF80C60ADF80440ADF883
:105720000A00ADF80E4007200A4CADF81000ADF8A5
:1057300006706946204600F0B2F80121204600F0CC
:1057400099F8FF2000F008F807B0BDE8F0830000EA
:10575000000402400030014070B50B4C05460221A8
:10576000204600F091F80028F9D02946204600F0A4
:1057700094F80121204600F087F80028F9D020464F
:1057800000F089F8C0B270BD003001400146054804
:10579000028822F03802028002880A430280012136
:1057A00000F068B8003001402DE9F04701210220E7
:1057B000FEF77EFC01210420FEF77AFC4FF4804ABC
:1057C00001215046FEF78CFC254C08200227206062
:1057D00027710025A5710326DFF8889066714FF0C8
:1057E000010884F8078021464846FBF785FC7802CB
:1057F00020602771A571667184F8078021461A4CD4
:105800002046FBF779FC052203214846FBF7B0FC54
:1058100005220A212046FBF7ABFC01215046FEF78A
:105820006BFC00215046FEF767FC10484FF4827174
:10583000058041808580C5806115058141812021D9
:105840008181C5810A210182094C0146204600F070
:1058500026F82046BDE8F047012100F00BB8000013
:105860002C00002000080240000402401203002027
:10587000003800400029018802D041F0400101E0D9
:1058800021F04001018070470246002012890A423F
:1058900000D001207047808970478181704730B502
:1058A00002884C8802F441530A88CD8822438C88B0
:1058B0002C4322430C8922434C8922438C89224366
:1058C000CC8922431A430280828B22F400628283B5
:1058D000098A018230BD00000CB5002227490092E0
:1058E0000192086840F4803008604FF4A0430868D3
:1058F00000F4003001900098401C0090019810B90D
:1059000000989842F3D10868800334D501200190B3
:105910001A484030026842F080520260184802681B
:1059200042F4404202601548083002680260026892
:1059300042F400420260026842F4A0520260031F77
:10594000104A1A600A6842F080720A600A6892017E
:10595000FCD50D4940F205720A60016821F003018F
:105960000160016841F0020101600168C1F3810139
:105970000229FAD10CBD01920CBD00000038024092
:105980000070004008544007003C02402DE9F04FF1
:105990001F46824693B013460C468946780701D0CD
:1059A000012100E0002101EBD70010FB07F0C1B29C
:1059B00012910C2F03D0102F01D0182F31D13A465D
:1059C00069461846FBF7E6FB002026E01DF8086054
:1059D000DFF854B00025300602D5BBF8002003E004
:1059E0001C9828B91148028821465046FBF7FAFC5A
:1059F0007006641C060EA4B2A4EB0900B84205D1DF
:105A00000AF101004C461FFA80FA03E06D1CEDB26A
:105A1000082DE0D308F10100C0B2129980468842F7
:105A2000D4D313B0BDE8F08F280000202A00002056
:105A30002DE9FF4F81B00446DDE90E7580469B4697
:105A40000E468A46002081461DE0B9F1000F20D0A5
:105A500003994FF0000908EB0100401BA04202DA55
:105A6000701986B244460AEB0B00401BB0420DDBB6
:105A7000109800902B463A4631462046FFF786FFA5
:105A8000601984B2BF1C3A78002ADED105B0BDE8A7
:105A9000F08F802A01D90120D5E7039908EB010096
:105AA000A0EB5500A04202DA701986B244460AEB18
:105AB0000B00401BB042E9DB0D2A0BD01098009080
:105AC0002B4631462046FEF707FA04EB550084B218
:105AD0007F1CD8E7701986B244467F1CF5E74FF06B
