:020000040800F2
:10000000C015012049020008B30F0008790E00084E
:10001000B10F0008B50900085116000800000000E3
:100020000000000000000000000000005B0200086B
:10003000950C0008000000005F0200083114000861
:1000400063020008630200086302000863020008FC
:1000500063020008630200086302000863020008EC
:1000600063020008630200086302000863020008DC
:1000700063020008630200086302000863020008CC
:1000800063020008630200086302000863020008BC
:1000900063020008630200086302000863020008AC
:1000A000630200086302000863020008630200089C
:1000B000630200086302000863020008630200088C
:1000C000630200086302000863020008630200087C
:1000D000630200089114000863020008630200082C
:1000E000630200086302000863020008630200085C
:1000F000630200086302000863020008630200084C
:10010000630200086302000863020008630200083B
:10011000630200086302000863020008630200082B
:10012000630200086302000863020008630200081B
:10013000630200086302000863020008630200080B
:1001400063020008630200086302000863020008FB
:10015000D9090008630200081D0A000863020008AC
:1001600063020008630200086302000863020008DB
:1001700063020008630200086302000863020008CB
:10018000630200086302000800F002F800F04DF876
:100190000AA090E8000C82448344AAF10107DA45E2
:1001A00001D100F042F8AFF2090EBAE80F0013F0E7
:1001B000010F18BFFB1A43F001031847EC190000A8
:1001C0000C1A0000103A24BF78C878C1FAD8520738
:1001D00024BF30C830C144BF04680C6070470000C1
:1001E0000023002400250026103A28BF78C1FBD840
:1001F000520728BF30C148BF0B607047642900F028
:100200008580782900F0BC80002070471FB501F080
:100210009FFC00F081FA04000020002101F082FC24
:10022000401C60601FBD10B510BD00F050FA1146B3
:10023000FFF7ECFF01F09AFA00F080FA03B4FFF741
:10024000F2FF03BC01F06AFA0948804709480047F9
:10025000FEE7FEE7FEE7FEE7FEE7FEE7FEE7FEE776
:10026000FEE7FEE704480549054A064B70470000D3
:100270003514000889010008C00F0120C0150120B5
:10028000C0110120C0110120704700000FB40449C3
:1002900010B503AA029800F031F910BC5DF814FB08
:1002A0001C0000202DE9F0410E460446002020628B
:1002B0002046E168884730B3252805D0D4E90121DC
:1002C0009047206A401CF2E7E168204600278847F3
:1002D000050018D0A5F14100192802D820354FF4A7
:1002E00000673246294620462760FFF787FF40B166
:1002F000012804D0F61D26F007060836D8E7361D7B
:10030000D6E72846DAE7206ABDE8F0812DE9F0411A
:100310000646002410687529314615A510D0AFF3A4
:100320000080002802DA404212A507E031688A07FF
:1003300001D511A502E0490704D510A5012401E06B
:10034000AFF3008000210A2306F1240707E0B0FB89
:10035000F3F203FB1200303078541046491C002899
:10036000F5D123462A463046BDE8F04100F06CB88E
:10037000000000002D0000002B0000002000000005
:1003800070B504460D4621461068AFF30080218801
:10039000090502D50F4A7A4402E00E4A7A440E3229
:1003A000002104F1240305E000F00F060009965D2A
:1003B0005E54491C0028F7D120780023000704D59B
:1003C000702D02D009B1022311322046BDE87040E1
:1003D00000F03AB8E617000070B5064600F030F8B5
:1003E0000468054630460A22002100F099F82C6086
:1003F00070BD4FF000020429C0F0128010F0030C11
:1004000000F0C880CCF1040CBCF1020F18BF00F85A
:10041000012BA8BF20F8022BA1EB0C0100F0BAB809
:100420005FEAC17C24BF00F8012B00F8012B48BF14
:1004300000F8012B70477047704770477047000005
:1004400000487047600F01202DE9F0470D4699469E
:100450009246044600F124080168880604D5E06944
:1004600021F01001216000E00120A84201DD471BBE
:1004700000E00027A1697A1902EB0900081AA061BF
:100480002078C00602D42046AFF30080002608E0A2
:10049000D4E901211AF806009047206A401C761C16
:1004A00020624E45F4DB2078C0060AD52046AFF323
:1004B000008006E0D4E9012130209047206A401CEA
:1004C0002062381EA7F10107F4DC07E0D4E901211E
:1004D00018F805009047206A401C2062281EA5F1EC
:1004E0000105F3DC2046AFF300802078000602D53A
:1004F0000220BDE8F0870120FBE70000074B70B544
:100500000D467B4400F07DF80446284600F0DBF8F9
:1005100010B14FF0FF3070BD204670BD5312000087
:100520002DE9F04791460F4680460446002614F810
:10053000015B2DB100F058F80068405DC007F6D1AE
:100540002B2D02D02D2D18D0641E4A463946204648
:1005500000F06AF827B13968A14201D1C7F80080DC
:100560004FF0020471050BD54042002803DDFFF770
:1005700067FF0460A007BDE8F08746F48066E4E703
:100580000028F8DAFFF75CFF04606FF00040F2E744
:100590004FF0000200B5134694469646203922BF1C
:1005A000A0E80C50A0E80C50B1F12001BFF4F7AF67
:1005B000090728BFA0E80C5048BF0CC05DF804EB49
:1005C000890028BF40F8042B08BF704748BF20F8B7
:1005D000022B11F0804F18BF00F8012B704700006C
:1005E00000487047600F012010B500F095F8001D1D
:1005F00010BD00BF3115000001694A1C0261087876
:10060000704700B58FB0CDE9013100210591054952
:100610007944CDE9031011466846FFF743FE0FB059
:1006200000BD0000E5FFFFFF2DE9F05F82461546A3
:100630008B4600270AF10104B9460078302801D022
:100640009DB113E014F8010B0127782803D0582836
:1006500001D045B10AE00DB1102D07D1002714F8E3
:10066000010B102502E0082500E00A250026B0460F
:100670000EE005FB080005FB06F101271FFA80F8D4
:1006800001EB1046B6F5803F00D3B94614F8010BD4
:10069000294600F045F80028EBDABBF1000F05D041
:1006A0000FB1641E00E05446CBF80040B9F1000FD2
:1006B00006D0FFF7C5FE02210160C81EBDE8F09F0D
:1006C00048EA0640FAE7007B00F080007047754674
:1006D000FFF786FFAE4605006946534620F0070047
:1006E000854618B020B5FFF7BDFDBDE820404FF0AE
:1006F00000064FF000074FF000084FF0000B21F00C
:100700000701AC46ACE8C009ACE8C009ACE8C009D8
:10071000ACE8C0098D46704700487047800F012043
:100720003A2800D2303820F02002412A01D3A2F129
:100730003700884201D34FF0FF3070470446AFF3D3
:1007400000802046FFF77AFD4FF0013C50F8042B63
:1007500051F8043B9A4221D1A2EB0C03934313EAD4
:10076000CC1317D150F8042B51F8043B9A4215D101
:10077000A2EB0C03934313EACC130BD150F8042BD8
:1007800051F8043B9A4209D1A2EB0C03934313EABC
:10079000CC13DBD04FF00000704700BFD01A01BA75
:1007A000B1FA81F101F0180122FA01F0CB40C1F158
:1007B0002001DBB2C0B2C01A2CFA01F3D11A914366
:1007C00011EAC311E6D170472DE9F05F0126DFF889
:1007D000C8B000F0DBFA31A0FFF758FDDFF8D09089
:1007E000344FDFF8D480354D4FF0000A04213448EF
:1007F00000F039FB90B199F8001048460029F5D077
:10080000514680F800A02F48048868680219B2F1A8
:10081000016F0AD32CA0FFF739FDFEE700F090FA34
:10082000BDE8F05F30A0FFF731BD2A783AB12970FA
:1008300030A0FFF72BFD33A0FFF728FDD6E7C6B1A8
:1008400098F80000444607EB8020FFF7C5FD0146FD
:1008500032A0FFF71BFD207807EB8020FFF7BCFDDF
:100860000146584600F00AFD2FA0FFF70FFD0026B5
:10087000BCE798F80010224607EB812100F062FDEA
:10088000D5E901122DA0FFF701FD686820446860DA
:10089000A8682044A860A9E7008000084572617339
:1008A000696E6720466C6173682E2E2E0D0A00005B
:1008B0001400002054040020160000200000002036
:1008C000001002401A0000204572726F723A2045F3
:1008D0007863656564696E6720466C617368207330
:1008E000697A65210D0A0000466C61736820456EC7
:1008F000640D0A00466C6173682053746172740D54
:100900000A000000496E707574205573657241705D
:10091000702053697A653A0D0A00000073697A65A0
:100920003A2025640D0A000045726173696E6720E4
:10093000466C617368204F4B0D0A00005772697452
:1009400065207375636365737366756C20617420CD
:10095000307825582C20746F74616C2073697A6527
:100960003A2025642062797465730D0A0000000046
:10097000094C0821204600F076FA08B9FFF724FF59
:100980001021204600F06FFA0028F2D103A0FFF7F3
:100990007DFC00F087FAECE70010024055736572A9
:1009A000417070205374617274696E67202E2E2E10
:1009B0000D0A0000FEE7000005480168054A914263
:1009C00003D1002101600120704700207047000022
:1009D000F0FF0120EFBEADDE70B50D4D0D4C294688
:1009E000204600F0EBF8012803D12946204600F00C
:1009F0002FF8094D2046294600F0E0F8012805D1DE
:100A000029462046BDE8704000F022B870BD0000C5
:100A100000880020886402400044002070B5094C22
:100A2000094D2146284600F0C9F8012808D1074998
:100A30000020487021462846BDE8704000F008B804
:100A400070BD000000800028B86402401200002041
:100A5000074A904201D2074801E005481038064A8B
:100A60008B0001EA020101D5C160704781607047C7
:100A700010640240006002407D0F7D0F0029016874
:100A800002D041F0010101E021F001010160704755
:100A90002DE9F043016821F00101016000210160AE
:100AA00041608160C1600161212141613C493C4A52
:100AB0003D251039904202D18D60BDE8F083384A5F
:100AC0004FF474661832904201D18E60F5E7344AD3
:100AD0004FF474173032904201D18F60EDE7304A05
:100AE0004FF0746C4832904202D1C1F808C0E4E77C
:100AF0002B4B2C4A6033984201D1CA60DDE7284C69
:100B0000294B7834A04201D1CB60D6E7DFF8908042
:100B1000264C08F19008404501D1CC60CDE7DFF8C4
:100B200080804FF03D5908F1A808404502D1C1F836
:100B30000C90C2E71E49DFF878800839404501D1A2
:100B40000D60BAE71A4D1835A84201D10E60B4E71E
:100B5000174D3035A84201D10F60AEE7144D48352E
:100B6000A84202D1C1F800C0A7E7114D1049603575
:100B7000091FA84201D10A609FE70D4A78329042CE
:100B800001D10B6099E70A4A9032904201D10C6082
:100B900093E7074AA83290428FD1C1F800908CE7C2
:100BA000106002403D000020400F002000003D206A
:100BB00010640240406880B27047000030B5104AAF
:100BC0000024904201D20F4A01E00D4A103A0E4B28
:100BD000194205D01E2303EAD12503682B4002E009
:100BE000406900F08003880001D5506800E010687B
:100BF000064A1040084201D003B10124204630BD0E
:100C000010640240006002403C0F3C0F7D0F7D0FDE
:100C10000B0607D5436912B143F0800301E023F0CE
:100C200080034361802908D0002A026801F01E0178
:100C300001D00A4300E08A430260704730B5036880
:100C4000124ACC6813400A682243D1E905452C4377
:100C50002243CC6922430C6A22434C6A22438C6AA9
:100C600022434C6B22438C6B22431A43026042693D
:100C700022F00703D1E90B2422431A4342610A6997
:100C800042604A6882608968C16030BD3F801CF064
:100C9000416070477047000070B50646002529B1D5
:100CA000012927D0022928D04FF4407500F080F8A0
:100CB00009281ED1124C206820F440702060206862
:100CC00028432060206820F0F8002060206846F06B
:100CD000020108432060206840F48030206000F06A
:100CE00067F8216821F002012160216821F0F801F4
:100CF000216070BD4FF48075D8E74FF40075D5E7DB
:100D0000103C02400D4909200A68D20301D5012098
:100D100070470A68D20601D5062070470A68D205D6
:100D200001D5022070470A6812F0EF0F01D00720AA
:100D3000704709688907FBD5082070470C3C0240C2
:100D40000248016841F0004101607047103C0240D8
:100D500070B50D46064600F02BF8092813D10A4C51
:100D6000206820F440702060206840F4007020600B
:100D7000206840F001002060356000F019F821681B
:100D800021F00101216070BD103C0240054800685F
:100D9000002805DA034804490C3801600349016062
:100DA00070470000103C024023016745AB89EFCD3E
:100DB00008B509208DF80000FFF7A4FF8DF80000AA
:100DC0009DF800000128F7D09DF8000008BDF0B59F
:100DD000002201274FF0030C0B6807FA02F52B40A5
:100DE000AB422CD1066853000CFA03F4A64306600C
:100DF0000E79D0F800E09E4046EA0E0606600E79B5
:100E0000012E01D0022E12D18668A64386604E794B
:100E1000D0F808E09E4046EA0E0686604668AE437B
:100E2000466045688E799640B6B235434560C568E0
:100E3000A543C560CC799C40C3681C43C460521C68
:100E4000102AC9D3F0BD4B07DB0E9A40C90810B574
:100E500000EB8100016A0F249C40A1430162016AFA
:100E60001143016210BD0246002012690A4200D0FF
:100E70000120704701837047FEE7000008480168C1
:100E80004068A1F10051B1F5003F05D8044949423D
:100E90000844B0F5782F01D3002070470120704737
:100EA0000080000810B51E4C23681E481840B0F1A1
:100EB000005F34D172B600204FF0E0210861486134
:100EC000886119490860091D0860174910310860D8
:100ED000091D0860144930390A6842F001020A60AD
:100EE0000A689207FCD5104A283A1060086820F07A
:100EF0008070086008688001FCD40020421E8100D8
:100F000001F1E021C1F88021C1F88022401C0828AD
:100F1000F5D383F30888606862B68047FEE710BDAA
:100F2000008000080000FE2F303802401CB501216F
:100F3000112000F07BF81C20009000208DF80400A8
:100F400003208DF8050001248DF807406946064806
:100F5000FFF73DFF02208DF8070000946946034823
:100F6000FFF735FF1CBD00000010024000000240EA
:100F70007CB50121202000F059F801208DF80400F3
:100F800000228DF8062003218DF80510074D4FF43F
:100F9000C0648DF80700009469462846FFF717FFE4
:100FA00021462846FFF766FF7CBD00000014024082
:100FB000FEE7704730B50F23C27801780125FAB1FA
:100FC000144A126801F1E02102F4E062C2F5E06225
:100FD000C2F30722C2F10404D3404278A2408478CD
:100FE0001C401443220181F80024007800F01F0106
:100FF0008D404009800000F1E020C0F8005130BD74
:1010000001F01F0085404809800000F1E020C0F891
:10101000805130BD0CED00E00249084302490860F0
:10102000704700000000FA050CED00E0044A0029BA
:10103000116801D0014300E0814311607047000056
:1010400030380240044A0029116801D0014300E011
:10105000814311607047000044380240044A00296F
:10106000116801D0014300E0814311607047000026
:101070002438024070B5204B1968204C11F00C0147
:1010800004D06610042903D0082903D004601BE0B3
:10109000066019E0184A121F1168C1F380551168E3
:1010A00001F03F0115B1B6FBF1F101E0B4FBF1F144
:1010B00014681268C4F388146143C2F30142521CDD
:1010C0005200B1FBF2F1016019680F2202EA11111E
:1010D0000B4A545C0168E14041601C68072505EA41
:1010E0009424145D21FA04F484601B6805EA5333E8
:1010F000D25CD140C16070BD083802400024F400C9
:10110000200000202DE9F043012187B00846FFF7B9
:101110008DFF4FF4805901214846FFF793FF0227C6
:101120008DF8187000248DF81A4003208DF81900EE
:10113000DFF88C803826012505968DF81B5005A90F
:101140004046FFF744FE052203214046FFF77BFEA1
:10115000052204214046FFF776FE0522114640464F
:10116000FFF771FE01214846FFF778FF002148464E
:10117000FFF774FFADF800404FF48270ADF8020045
:10118000ADF808506802ADF80C60ADF80440ADF859
:101190000A00ADF80E4007200A4CADF81000ADF87B
:1011A00006706946204600F04CF80121204600F008
:1011B00033F8FF2000F008F807B0BDE8F083000026
:1011C000000402400030014070B50B4C054602217E
:1011D000204600F02BF80028F9D02946204600F0E0
:1011E0002EF80121204600F021F80028F9D02046F1
:1011F00000F023F8C0B270BD003001400146054840
:10120000028822F03802028002880A43028001210B
:1012100000F002B8003001400029018802D041F0FE
:10122000400101E021F040010180704702460020AA
:1012300012890A4200D0012070478089704781815D
:10124000704730B502884C8802F441530A88CD8833
:1012500022438C882C4322430C8922434C8922430D
:101260008C892243CC8922431A430280828B22F448
:1012700000628283098A018230BD000070B5044695
:1012800046183BE01F48844201D2102503E01E4867
:10129000844203D2182504F5804427E01B48844289
:1012A00003D2202504F5803420E01948844201D27D
:1012B000282519E01748844201D2302514E0164849
:1012C000844201D238250FE01448844201D24025DF
:1012D0000AE01348844201D2482505E011488442BF
:1012E00001D2502500E0582504F5003429460EA00F
:1012F000FEF7CCFF02212846FFF7CEFCB442C1D353
:10130000002070BD00C000080000010800000208B5
:1013100000000408000006080000080800000A0891
:1013200000000C0800000E0845726173696E6720AA
:10133000466C61736820536563746F723A20255858
:101340000D0A00002DE9F04115460E46074600241F
:1013500004E031593819FFF7FBFC241DAC42F8D3E7
:10136000BDE8F0810CB5002227490092019208687F
:1013700040F4803008604FF4A043086800F4003067
:1013800001900098401C0090019810B90098984274
:10139000F3D10868800334D5012001901A48403009
:1013A000026842F0805202601848026842F44042EB
:1013B00002601548083002680260026842F4004288
:1013C0000260026842F4A0520260031F104A1A60D1
:1013D0000A6842F080720A600A689201FCD50D49E1
:1013E00040F205720A60016821F0030101600168A2
:1013F00041F0020101600168C1F381010229FAD1C3
:101400000CBD01920CBD000000380240007000408D
:1014100008544007003C02404FF0E02104280869CE
:1014200003D020F004000861704740F00400FAE7A0
:1014300070470000124810B5016841F47001016066
:101440001048016841F0010101600E4A0021083294
:10145000116002680C4B1A400260031D0B4A1A60AF
:10146000026822F48022026006480C300160FFF717
:1014700079FF03494FF000608039086010BD00001B
:1014800088ED00E000380240FFFFF6FE1030002437
:1014900038B51B4C40F22441204600F04BF801289F
:1014A0002DD12088A088174D009000212846FFF7F5
:1014B000E5FA2846FFF77EFB134CC0F580602081DB
:1014C0002089104A114B0C32111548B120898842ED
:1014D00006D8E0782071E078C0F10100E07001E00A
:1014E00000202081E07803EB802010602846FFF781
:1014F000CFFB01212846FFF7C1FA0120A07038BDBB
:1015000000100140886402401200002054040020B2
:101510000029818902D041F4005101E021F40051F9
:1015200081817047002A828A01D00A4300E08A4301
:101530008282704770B501F01F0501260024C1F3B7
:10154000421306FA05F2012B0FD0022B0FD0838A2B
:101550004FEA11210088134206FA01F600EA06005C
:1015600001D000B10124204670BD8389F0E7038AD1
:10157000EEE710B5C1F3421301F01F040121A140B1
:10158000012B07D0022B07D01430002A026805D0A7
:101590000A4304E00C30F8E71030F6E78A430260B3
:1015A00010BD00007FB50446008A0D46C98820F4AE
:1015B000405001432182A08941F20C618843A988EF
:1015C0002A8911436A8902431143A181A08A20F428
:1015D0004071A8890843A0826846FFF74BFD1A486E
:1015E000844202D01948844201D1039800E0029855
:1015F000A189090400EBC00101EB0010296801D5A5
:10160000490000E08900B0FBF1F06422B0FBF2F188
:1016100009010B096FF018056B4300EB8300A389E8
:101620001D044FF0320306D503EBC000B0FBF2F00F
:1016300000F0070005E003EB0010B0FBF2F000F053
:101640000F00084320817FBD0010014000140140BD
:10165000FEE700007CB501210220FFF7E7FC012135
:101660004020FFF7E3FC4FF48040012400908DF808
:10167000044000208DF8060003208DF805008DF849
:10168000074069461048FFF7A2FB80200F4D0090ED
:1016900069462846FFF79BFB80212846FFF7EAFBB7
:1016A0000B48C0F8B842FFF72DFD00F015F80949C6
:1016B0000880A0F5A441173903D00020FFF79EFD54
:1016C0007CBD0820FAE70000000402400018024038
:1016D000008040420C00002070B50F4D0024C5F87A
:1016E000B842902005F52E75FFF76EFD0020FFF73C
:1016F0006BFD0020FFF768FD0020FFF765FDFF2070
:10170000FFF762FD44EA0024FF20FFF75DFD204360
:101710000121296070BD0000008040427047000038
:1017200010B504460420FFF777FE0A484FF47A719B
:10173000047014FB01F1012242804FF0E0200269A5
:1017400042F0020202614161016941F0010101615F
:1017500010BD00000E00002003490A885206FCD587
:10176000C2B28A8070470000001001404FF4407000
:10177000FFF752FCA820FFF7D3FF4FF4612000F0E1
:1017800005F9FFF7F5FBFFF7D1FBFFF763FF00203B
:1017900000F0BCF801211348FFF765FB012804D0D5
:1017A000FFF70AF918B110A018E01CA016E0FFF727
:1017B00065FB40B124A0FEF769FD2BA0FEF766FD96
:1017C000FFF770FB02E0FFF759FB00B1FEE735A021
:1017D000FEF75CFD41A0FEF759FD46A0FEF756FD61
:1017E000FFF7C6F8000002400D0A202020426F6F6C
:1017F0007420666C61672064657465637465642E2B
:101800002053746179696E6720696E20426F6F742E
:101810006C6F616465722E0D0A0000000D0A42753E
:1018200074746F6E20707265737365642E205374C8
:101830006179696E6720696E20426F6F746C6F61A9
:101840006465722E0D0A00000D0A456E74657220E3
:101850004B65795F555020746F20426F6F744C6FE9
:10186000616465720D0A000056616C6964207573CD
:1018700065722070726F6772616D20666F756E643D
:101880002E204A756D70696E6720746F20757365C0
:1018900072206170706C69636174696F6E2E2E2E98
:1018A0000D0A00000D0A4E6F2076616C6964207588
:1018B0007365722070726F6772616D20666F756EEE
:1018C000642E2053746179696E6720696E20426FBF
:1018D0006F746C6F616465722E0D0A0055736572CA
:1018E000206170706C69636174696F6E20457272FB
:1018F0000D0A0000426F6F746C6F61646572205353
:1019000074617274696E670D0A00000070B5044658
:101910000B480C4E002150F8240006EB84054200D1
:10192000686900F02DF806480021183050F824208E
:10193000A86800F025F80120311981F8200070BD59
:101940005C1B00083000002010B50B4B0B4C002234
:1019500053F82030114604EB800005E0446934F868
:10196000114004B1521C491C8B42F7D864204243F9
:10197000B2FBF3F0C0B210BD5C1B000830000020C9
:1019800001E000F8011B521EFBD270472DE9F04721
:1019900080464FF4806696B031465D48FEF729FDDB
:1019A00031465C48FEF725FD01210846FFF73EFB66
:1019B00001211020FFF746FB574F07220921384627
:1019C000FFF741FA07220A213846FFF73CFA4FF4A5
:1019D000C060149002208DF854008DF8550000244A
:1019E0008DF8564001258DF8575014A93846FFF759
:1019F000EEF9ADF848400C20DFF82091ADF84440F6
:101A0000ADF84A00CDF84080ADF84640ADF84C4006
:101A100010A94846FFF7C6FD25208DF83C0006209A
:101A20008DF83D008DF83E408DF83F500FA8FFF730
:101A3000C1FA01218805FFF7F9FADFF8E4A0504662
:101A4000FFF726F8324802A9EF0681E85100CDE9F8
:101A500005462802CDE908404002CDE90A0409F113
:101A60000408CDE90078079469465046FFF7E6F888
:101A70002B4E30363046FFF70BF826480097CDE95D
:101A8000018040200994CDE9030569463046FFF7FF
:101A9000D5F844208DF83C0007278DF83D708DF86F
:101AA0003E408DF83F500FA8FFF784FA46208DF88E
:101AB0003C008DF83D708DF83E408DF83F500FA8EA
:101AC000FFF778FA01215046FEF7D8FF01224021A6
:101AD0004846FFF727FD012280214846FFF722FDF7
:101AE00001214846FFF714FD012240F224414846F7
:101AF000FFF73FFD012218215046FFF789F8012228
:101B000010213046FFF784F816B0BDE8F0870000DA
:101B100054000020540C002000000240001001403E
:101B20008864024010B500290AD00878002807D040
:101B300005487844FEF708FE002801D0002010BDBB
:101B40000248784410BD0000960000008E0000009E
:101B50004FF04070E1EE100A70470000800700006F
:101B60000078000080070000200000002000000036
:101B70002000000000F0000000000F0000F0000056
:101B800030313233343536373839414243444546B3
:101B900040305800303132333435363738396162AD
:101BA0006364656640307800D81C0008000000209F
:101BB00054000000C40100082C1D0008540000203F
:101BC0006C150100E0010008100100004300000056
:101BD000F8FFFFFF0040404040404040404041414E
:101BE00041414140404040404040404040404040F2
:101BF000404040404005020202020202020202028C
:101C00000202020202202020202020202020200288
:101C10000202020202029090909090901010101018
:101C200010101010101010101010101010101010B4
:101C30000202020202028888888888880808080848
:101C40000808080808080808080808080808080814
:101C5000020202024000000000000000000000003C
:101C60000000000000000000000000000000000074
:101C70000000000000000000000000000000000064
:101C80000000000000000000000000000000000054
:101C90000000000000000000000000000000000044
:101CA0000000000000000000000000000000000034
:101CB0000000000000000000000000000000000024
:101CC0000000000000000000000000000000000014
:101CD000000000000000000001000000008000087B
:101CE0000000000017EF00000000000000000000EE
:101CF00000000000000000000000000001020304DA
:101D000001020304060708090D1900084919000813
:101D1000601000200000006800000010600001203A
:0C1D200000000F6800F000100000000040
:040000050800018965
:00000001FF
