:020000040800F2
:10000000C015012055020008971400085D13000870
:1000100095140008990E0008ED1B00080000000070
:10002000000000000000000000000000670200085F
:1000300079110008000000006B020008CD190008CB
:100040006F0200086F0200086F0200086F020008CC
:100050006F0200086F0200086F0200086F020008BC
:100060006F0200086F0200086F0200086F020008AC
:100070006F0200086F0200086F0200086F0200089C
:100080006F0200086F0200086F0200086F0200088C
:100090006F0200086F0200086F0200086F0200087C
:1000A0006F0200086F0200086F0200086F0200086C
:1000B0006F0200086F0200086F0200086F0200085C
:1000C0006F0200086F0200086F0200086F0200084C
:1000D0006F0200082D1A00086F0200086F02000866
:1000E0006F0200086F0200086F0200086F0200082C
:1000F0006F0200086F0200086F0200086F0200081C
:100100006F0200086F0200086F0200086F0200080B
:100110006F0200086F0200086F0200086F020008FB
:100120006F0200086F0200086F0200086F020008EB
:100130006F0200086F0200086F0200086F020008DB
:100140006F0200086F0200086F0200086F020008CB
:10015000BD0E00086F020008010F00086F020008C2
:100160006F0200086F0200086F0200086F020008AB
:100170006F0200086F0200086F0200086F0200089B
:100180006F0200086F02000800F002F800F053F858
:100190000AA090E8000C82448344AAF10107DA45E2
:1001A00001D100F048F8AFF2090EBAE80F0013F0E1
:1001B000010F18BFFB1A43F001031847D4200000B9
:1001C000F4200000103A24BF78C878C1FAD852074A
:1001D00024BF30C830C144BF04680C6070470000C1
:1001E0000023002400250026103A28BF78C1FBD840
:1001F000520728BF30C148BF0B607047642900F028
:100200008180752900F07E80782900F0B5807329FF
:1002100000F0DA82002070471FB502F00DF800F000
:1002200067FD04000020002101F0F0FF401C606029
:100230001FBD10B510BD00F023FD1146FFF7ECFF08
:1002400001F062FD00F04AFD03B4FFF7F2FF03BCCA
:1002500001F032FD0948804709480047FEE7FEE704
:10026000FEE7FEE7FEE7FEE7FEE7FEE7FEE7FEE766
:1002700004480549054A064B70470000D11900089B
:1002800089010008C00F0120C0150120C011012004
:10029000C0110120704700000FB4044910B503AA33
:1002A000029800F095FA10BC5DF814FB10000020D5
:1002B00070B50C460546012A05D02878800600D581
:1002C000EA69002302E0012305E05B1C934202D2AD
:1002D000E05C0028F9D1A869E618C01AA861286A6C
:1002E000184428622846AFF3008004E0D5E90121D4
:1002F00014F8010B9047B442F8D32846AFF30080BE
:1003000070BD00002DE9F0410646002410687529F3
:10031000314615A510D0AFF30080002802DA404224
:1003200012A507E031688A0701D511A502E0490747
:1003300004D510A5012401E0AFF3008000210A23B9
:1003400006F1240707E0B0FBF3F203FB12003030A4
:1003500078541046491C0028F5D123462A463046D9
:10036000BDE8F04100F0C5B9000000002D0000001C
:100370002B0000002000000070B504460D46214609
:100380001068AFF300802188090502D50F4A7A442E
:1003900002E00E4A7A440E32002104F1240305E003
:1003A00000F00F060009965D5E54491C0028F7D145
:1003B00020780023000704D5702D02D009B1022354
:1003C00011322046BDE8704000F093B9D61E0000FF
:1003D0002DE9F0410F460546002028622846E968CD
:1003E000884770B3252805D0D5E901219047286AB0
:1003F000401CF2E7E9682846002688476C28044636
:100400000AD0682C08D04C2C35D06A2C31D0742CF2
:1004100031D07A2C2FD016E0E96806462846884766
:10042000B042044608D16C2E23D04FF48066284693
:10043000E9688847044606E06C2E03D04FF48076C6
:1004400001E01EE04026E4B1A4F14100192802D8E1
:10045000203446F400663A46214628462E60FFF7CF
:10046000CDFE60B1012808D0FF1D27F0070708372F
:10047000B4E78026DBE70026D9E73F1DAEE720463C
:10048000B2E7286ABDE8F0810FB400B58DB010A9BD
:10049000099000910B904FF0FF300A9000200C90D3
:1004A000064878440690064878446A4607900F99B3
:1004B00009A800F0B3F90DB05DF814FB9703000034
:1004C000AF0300002DE9FF5F1D464FF0FF3B914653
:1004D0004FF000085F46D5E90146A96901987F1CE5
:1004E0008847296A824688470028F6D1BAF1FF3F3B
:1004F0000CD0002E24F4C06419DD600614D5BAF1C6
:100500002B0F09D0BAF12D0F0ED103E0584604B0DD
:10051000BDE8F09F44F48064A96901987F1C884776
:10052000761E8246002E02DDBAF1300F03D0B9F1FB
:10053000000F26D032E0A969761E01987F1C44F492
:1005400000748847002E824605DDBAF1780F06D088
:10055000BAF1580F03D0B9F1000F10D01EE0B9F175
:10056000000F02D0B9F1100F18D1A969761E0198B9
:100570007F1C24F4007488478246102002E0082083
:1005800000E00A20814609E0A96908FB0908761EF7
:1005900001987F1C44F4007488478246002E05DDD4
:1005A0004946504600F026F90028EDDAE96901983D
:1005B0008847A00502D46FF00100A8E7E00725D125
:1005C000600613D5600502D5C8F1000000E0404682
:1005D00029680A1D2A600968220501D5087015E0FE
:1005E000220701D5088011E008600FE02868011D8E
:1005F00029600068210502D580F8008006E0210707
:1006000002D5A0F8008001E0C0F8008038467EE7FF
:1006100040EA010370B59B072ED14FF00136042A42
:100620002AD308C810C99D1B9D43121F15EAC61581
:1006300017D0D8B2E1B2401A50EA056110D198B291
:10064000A1B2401A50EA05410AD123F07F4024F0BC
:100650007F41401A50EA052102D1180EA0EB146028
:1006600070BDA342DBD018BA21BA884201D901205B
:1006700070BD4FF0FF3070BD0AB9002070BD10F89A
:10068000013B11F8014B63B1A3420AD1521E08D0BD
:1006900010F8013B11F8014B1BB1A34201D1521ECE
:1006A000EDD1181B70BD4FF000020429C0F012807C
:1006B00010F0030C00F0E480CCF1040CBCF1020F4C
:1006C00018BF00F8012BA8BF20F8022BA1EB0C01EA
:1006D00000F0D6B85FEAC17C24BF00F8012B00F817
:1006E000012B48BF00F8012B7047704770477047D7
:1006F00070472DE9F0470D4699469246044600F1B1
:1007000024080168880604D5E06921F01001216001
:1007100000E00120A84201DD471B00E00027A1699D
:100720007A1902EB0900081AA0612078C00602D4E9
:100730002046AFF30080002608E0D4E901211AF832
:1007400006009047206A401C761C20624E45F4DB70
:100750002078C0060AD52046AFF3008006E0D4E931
:10076000012130209047206A401C2062381EA7F1EA
:100770000107F4DC07E0D4E9012118F805009047EF
:10078000206A401C2062281EA5F10105F3DC2046EA
:10079000AFF300802078000602D50220BDE8F08784
:1007A0000120FBE710B5436913B1AFF3008001E00E
:1007B000FFF77EFD012010BD127800F124010A70C0
:1007C00000224A700122EDE711684FF0FF32E9E79D
:1007D000074B70B50D467B4400F085F8044628466B
:1007E00000F04AFA10B14FF0FF3070BD204670BDE6
:1007F0001B1500003A2800D2303820F02002412A90
:1008000001D3A2F13700884201D34FF0FF30704787
:10081000026811441378016018467047D160054999
:1008200079445161044979441162002111611146F2
:1008300000F06CB8EDFFFFFFA1000000426842B17C
:10084000016811F8013B23B1521EC0E9001218469D
:1008500070470121C160881E704742685AB1C36861
:10086000016843B983688B4205D0491E521CC0E918
:100870000012002070474FF0FF3070474FF0000229
:1008800000B5134694469646203922BFA0E80C5086
:10089000A0E80C50B1F12001BFF4F7AF090728BF61
:1008A000A0E80C5048BF0CC05DF804EB890028BFDD
:1008B00040F8042B08BF704748BF20F8022B11F006
:1008C000804F18BF00F8012B704710B5044600F0A8
:1008D000FDF90068005D00F0010010BD01694A1CCF
:1008E00002610878704700B58FB0CDE90131002171
:1008F000059105497944CDE9031011466846FFF793
:1009000067FD0FB000BD0000E5FFFFFF2DE9F34FCD
:100910004FF0000A0C4656468DB001200C9001F1B4
:100920000C000B9062690B980121904705002DD0B7
:10093000252D2CD0216A8847C0B162690B9801210E
:100940009047216A88470028F7D16269411E0B98B9
:10095000904700E0761CA1690D988847216A884776
:100960000028F7D1E1690D988847DBE7A1690D9868
:100970008847A842074601D1761CD3E7E1690D9864
:1009800088477F1C02D1BAF1000F6FD068E162691D
:100990000B9800273D46394690472A2804D16269C2
:1009A0000B98012190470125DFF8C88262690B98F6
:1009B00001219047A0F130010A290AD24745E5DC20
:1009C00007EB870100EB4107303FDFD445F010050E
:1009D000ECE7E90601D46FF000476C280AD04C28F8
:1009E00014D0682815D06A280DD074281CD07A2815
:1009F0001AD01DE062690B98012190476C2802D043
:100A000045F0040514E045F002050DE045F0200531
:100A10000AE062690B9801219047682802D045F0EE
:100A2000080505E045F4006562690B9801219047CF
:100A3000C4E9015765283DD019DC582877D00CDC73
:100A4000452837D004DC252826D041289ED131E026
:100A500046282FD0472899D12CE05B287DD06128EB
:100A600028D0632879D0642823D157E0F3E06F2899
:100A700045D008DC66281DD067281BD0692821D006
:100A80006E2816D127E0702842D0732865D07528CB
:100A900044D078280DD14AE0A1690D9888472528CF
:100AA00005463FF469AFE1690D9888476D1C3FF436
:100AB0006AAFD5E00D9923466A466FF00100AFF3A7
:100AC0000080C2E045F0400023464FF00002606025
:100AD000A80733D43BE02068011D21600068290588
:100AE00001D506701EE7290701D506801AE7A90778
:100AF00003D5F117C0E9006114E7066012E745F07D
:100B0000400023464FF008026060A80716D41EE09C
:100B100040F60E0125EA0100606016E045F0400055
:100B200023464FF00A026060A80707D40FE045F0A3
:100B300040006060A80708D5234610220D996FF089
:100B40000100AFF3008080E007E0102223460D99FA
:100B50006FF00100FFF7B6FC77E04FF00009632863
:100B60004F46C8464B46CB4602D05B2806D038E0FD
:100B7000E80601D40120A060012732E06269D4F8C0
:100B80000CB00B98012190475E2807D14FF0010966
:100B900049466269D4F80CB00B989047216939B97D
:100BA00000210B4603AA42F82130491C0829FADB30
:100BB000D8B3216949B308F1010862690B98012192
:100BC00090475D28F4D1B9F1000F09D0002003A9A6
:100BD00051F82020D24341F82020401C0828F7DBA0
:100BE00003AB2069002820794FEA40701ED05B4695
:100BF0002246CDF80080CDE901970D9900286FF0CD
:100C0000010020DAAFF300801FE0C11700EBD162D2
:100C100003A9531122F01F0201EB8301821A0B6812
:100C20000120904003430B60C7E719E00D9922466D
:100C300000286FF00100009702DAAFF3008004E0B3
:100C4000AFF3008001E0AFF3008000280ADA401C17
:100C500006D10C9820B14FF0FF300FB0BDE8F08FF7
:100C60005046FAE7E90701D10AF1010A06440020DB
:100C70000C9057E6CCCCCC0C007B00F08000704789
:100C8000754600F031F8AE4605006946534620F03F
:100C90000700854618B020B5FFF7EAFABDE8204006
:100CA0004FF000064FF000074FF000084FF0000B28
:100CB00021F00701AC46ACE8C009ACE8C009ACE8DB
:100CC000C009ACE8C0098D467047000010B500F0BF
:100CD0000FF8001D10BD00BF351500000446AFF32E
:100CE00000802046FFF7B0FA00487047600F0120EF
:100CF00000487047800F01204FF0013C50F8042B52
:100D000051F8043B9A4221D1A2EB0C03934313EA1E
:100D1000CC1317D150F8042B51F8043B9A4215D14B
:100D2000A2EB0C03934313EACC130BD150F8042B22
:100D300051F8043B9A4209D1A2EB0C03934313EA06
:100D4000CC13DBD04FF00000704700BFD01A01BABF
:100D5000B1FA81F101F0180122FA01F0CB40C1F1A2
:100D60002001DBB2C0B2C01A2CFA01F3D11A9143B0
:100D700011EAC311E6D170471B4E1C4F1C4C0025D5
:100D8000207805282DD2DFE800F0030F1821250078
:100D900030780028FCD0357017491648097800EBE8
:100DA000812001F0CBF8EBE73846616800F0D8FC11
:100DB00012A0FFF771FA16A009E021A0FFF76CFA64
:100DC0003846616800F046FD2070D9E720A0FFF7A3
:100DD00063FA04E025A0FFF75FFA00F0D5FA25706A
:100DE000CEE729A0F3E700000800002000800008FB
:100DF00014000020540400200A0000204572617392
:100E0000696E6720466C617368204F4B0D0A0000C5
:100E100046696C652073697A652061636B6E6F77D4
:100E20006C65646765642E2057616974696E67201C
:100E3000666F7220646174612E2E2E0A000000001D
:100E40005570646174652053797374656D0D0A0083
:100E5000557067726164652070726F63657373208B
:100E600066696E69736865642E0A00005265626F78
:100E70006F7420546F20557365724170706C696394
:100E80006174696F6E210A00556E6B6E6F776E200C
:100E900073746174652E0A00FEE70000054801685E
:100EA000054A914203D100210160012070470020D2
:100EB00070470000F0FF0120EFBEADDE70B50D4DB4
:100EC0000D4C2946204600F0EBF8012803D12946B5
:100ED000204600F02FF8094D2046294600F0E0F8A2
:100EE000012805D129462046BDE8704000F022B80F
:100EF00070BD00000088002088640240004400208B
:100F000070B5094C094D2146284600F0C9F8012862
:100F100008D107490020487021462846BDE87040A6
:100F200000F008B870BD000000800028B8640240DE
:100F300006000020074A904201D2074801E0054818
:100F40001038064A8B0001EA020101D5C1607047E2
:100F50008160704710640240006002407D0F7D0F89
:100F60000029016802D041F0010101E021F00101F6
:100F7000016070472DE9F043016821F00101016033
:100F80000021016041608160C160016121214161F6
:100F90003C493C4A3D251039904202D18D60BDE864
:100FA000F083384A4FF474661832904201D18E6053
:100FB000F5E7344A4FF474173032904201D18F6014
:100FC000EDE7304A4FF0746C4832904202D1C1F8DC
:100FD00008C0E4E72B4B2C4A6033984201D1CA6029
:100FE000DDE7284C294B7834A04201D1CB60D6E70D
:100FF000DFF89080264C08F19008404501D1CC6084
:10100000CDE7DFF880804FF03D5908F1A808404552
:1010100002D1C1F80C90C2E71E49DFF87880083988
:10102000404501D10D60BAE71A4D1835A84201D1EB
:101030000E60B4E7174D3035A84201D10F60AEE71E
:10104000144D4835A84202D1C1F800C0A7E7114DA0
:1010500010496035091FA84201D10A609FE70D4A77
:101060007832904201D10B6099E70A4A903290425F
:1010700001D10C6093E7074AA83290428FD1C1F8A2
:1010800000908CE7106002403D000020400F0020DF
:1010900000003D2010640240406880B270470000AC
:1010A00030B5104A0024904201D20F4A01E00D4AA7
:1010B000103A0E4B194205D01E2303EAD1250368CE
:1010C0002B4002E0406900F08003880001D55068A1
:1010D00000E01068064A1040084201D003B1012424
:1010E000204630BD10640240006002403C0F3C0FBF
:1010F0007D0F7D0F0B0607D5436912B143F08003C6
:1011000001E023F080034361802908D0002A0268AF
:1011100001F01E0101D00A4300E08A4302607047DB
:1011200030B50368124ACC6813400A682243D1E9FB
:1011300005452C432243CC6922430C6A22434C6A66
:1011400022438C6A22434C6B22438C6B22431A430A
:101150000260426922F00703D1E90B2422431A43BB
:1011600042610A6942604A6882608968C16030BD34
:101170003F801CF0416070477047000070B5064624
:10118000002529B1012927D0022928D04FF4407524
:1011900000F080F809281ED1124C206820F440701D
:1011A0002060206828432060206820F0F80020603C
:1011B000206846F0020108432060206840F4803037
:1011C000206000F067F8216821F0020121602168A9
:1011D00021F0F801216070BD4FF48075D8E74FF41D
:1011E0000075D5E7103C02400D4909200A68D2037A
:1011F00001D5012070470A68D20601D50620704744
:101200000A68D20501D5022070470A6812F0EF0F74
:1012100001D00720704709688907FBD5082070476F
:101220000C3C02400248016841F0004101607047F7
:10123000103C024070B50D46064600F02BF8092818
:1012400013D10A4C206820F440702060206840F4DC
:1012500000702060206840F001002060356000F0E0
:1012600019F8216821F00101216070BD103C024095
:1012700005480068002805DA034804490C38016075
:101280000349016070470000103C0240230167459C
:10129000AB89EFCD08B509208DF80000FFF7A4FF5A
:1012A0008DF800009DF800000128F7D09DF800009F
:1012B00008BDF0B5002201274FF0030C0B6807FAB8
:1012C00002F52B40AB422CD1066853000CFA03F414
:1012D000A64306600E79D0F800E09E4046EA0E066E
:1012E00006600E79012E01D0022E12D18668A64327
:1012F00086604E79D0F808E09E4046EA0E06866089
:101300004668AE43466045688E799640B6B235432E
:101310004560C568A543C560CC799C40C3681C4343
:10132000C460521C102AC9D3F0BD4B07DB0E9A4093
:10133000C90810B500EB8100016A0F249C40A1434D
:101340000162016A1143016210BD02460020126968
:101350000A4200D00120704701837047FEE7000079
:10136000084801684068A1F10051B1F5003F05D877
:10137000044949420844B0F5782F01D30020704752
:10138000012070470080000810B51E4C23681E48DD
:101390001840B0F1005F34D172B600204FF0E02168
:1013A00008614861886119490860091D086017498A
:1013B00010310860091D0860144930390A6842F08C
:1013C00001020A600A689207FCD5104A283A1060A8
:1013D000086820F08070086008688001FCD4002054
:1013E000421E810001F1E021C1F88021C1F8802274
:1013F000401C0828F5D383F30888606862B68047EC
:10140000FEE710BD008000080000FE2F30380240CB
:101410001CB50121112000F07BF81C200090002059
:101420008DF8040003208DF8050001248DF8074095
:1014300069460648FFF73DFF02208DF8070000943B
:1014400069460348FFF735FF1CBD0000001002404D
:10145000000002407CB50121202000F059F8012055
:101460008DF8040000228DF8062003218DF8051068
:10147000074D4FF4C0648DF8070000946946284674
:10148000FFF717FF21462846FFF766FF7CBD0000E7
:1014900000140240FEE7704730B50F23C278017890
:1014A0000125FAB1144A126801F1E02102F4E06268
:1014B000C2F5E062C2F30722C2F10404D3404278CD
:1014C000A24084781C401443220181F80024007853
:1014D00000F01F018D404009800000F1E020C0F8BD
:1014E000005130BD01F01F0085404809800000F127
:1014F000E020C0F8805130BD0CED00E00249084307
:1015000002490860704700000000FA050CED00E099
:10151000044A0029116801D0014300E081431160B1
:101520007047000030380240044A0029116801D099
:10153000014300E0814311607047000044380240DD
:10154000044A0029116801D0014300E08143116081
:10155000704700002438024070B5204B1968204CB9
:1015600011F00C0104D06610042903D0082903D01F
:1015700004601BE0066019E0184A121F1168C1F3ED
:101580008055116801F03F0115B1B6FBF1F101E0A2
:10159000B4FBF1F114681268C4F388146143C2F318
:1015A0000142521C5200B1FBF2F1016019680F2296
:1015B00002EA11110B4A545C0168E14041601C6869
:1015C000072505EA9424145D21FA04F484601B685D
:1015D00005EA5333D25CD140C16070BD0838024087
:1015E0000024F400200000202DE9F043012187B001
:1015F0000846FFF78DFF4FF4805901214846FFF759
:1016000093FF02278DF8187000248DF81A400320EC
:101610008DF81900DFF88C803826012505968DF8A5
:101620001B5005A94046FFF744FE05220321404612
:10163000FFF77BFE052204214046FFF776FE0522D8
:1016400011464046FFF771FE01214846FFF778FF3B
:1016500000214846FFF774FFADF800404FF4827058
:10166000ADF80200ADF808506802ADF80C60ADF8B6
:101670000440ADF80A00ADF80E4007200A4CADF862
:101680001000ADF806706946204600F04CF80121C4
:10169000204600F033F8FF2000F008F807B0BDE85E
:1016A000F0830000000402400030014070B50B4C94
:1016B00005460221204600F02BF80028F9D02946E3
:1016C000204600F02EF80121204600F021F80028E5
:1016D000F9D0204600F023F8C0B270BD00300140C0
:1016E00001460548028822F03802028002880A4337
:1016F0000280012100F002B8003001400029018879
:1017000002D041F0400101E021F04001018070472A
:101710000246002012890A4200D0012070478089C9
:1017200070478181704730B502884C8802F441537C
:101730000A88CD8822438C882C4322430C8922437B
:101740004C8922438C892243CC8922431A4302804C
:10175000828B22F400628283098A018230BD0000FC
:1017600070B50D460446FFF783FD66193BE021483E
:10177000844201D2102503E01F48844203D2182579
:1017800004F5804427E01D48844203D2202504F557
:10179000803420E01A48844201D2282519E01948F3
:1017A000844201D2302514E01748844201D2382502
:1017B0000FE01648844201D240250AE014488442D2
:1017C00001D2482505E01348844201D2502500E0AB
:1017D000582504F5003429460FA0FEF75DFD0221CF
:1017E0002846FFF7CBFCB442C1D3FFF71BFD002016
:1017F00070BD000000C000080000010800000208E1
:1018000000000408000006080000080800000A089C
:1018100000000C0800000E0845726173696E6720B5
:10182000466C61736820536563746F723A20255863
:101830000D0A00002DE9F04115460E46074600242A
:1018400004E031593819FFF7F5FC241DAC42F8D3F8
:10185000BDE8F0812DE9F0470C460746FFF708FD8B
:10186000134EDFF85090DFF850A0144D4FF00008F1
:10187000B4B130780028FCD09AF800102A8809EB1F
:1018800081213846FFF7D6FF224639460CA0FEF7E5
:1018900003FD28880744288886F80080241AE7E793
:1018A000FFF7C0FC13A0FEF7F7FC0020BDE8F087AF
:1018B00008000020540400200A0000200E00002030
:1018C0005772697465207375636365737366756CAD
:1018D00020617420307825582C2052657369647516
:1018E000616C2073697A653A202564206279746599
:1018F000730D0A00577269746520456E640D0A0005
:101900000CB50022274900920192086840F480300B
:1019100008604FF4A043086800F40030019000987C
:10192000401C0090019810B900989842F3D10868C3
:10193000800334D5012001901A484030026842F0FB
:10194000805202601848026842F440420260154822
:10195000083002680260026842F4004202600268D5
:1019600042F4A0520260031F104A1A600A6842F053
:1019700080720A600A689201FCD50D4940F2057236
:101980000A60016821F003010160016841F0020171
:1019900001600168C1F381010229FAD10CBD0192F5
:1019A0000CBD0000003802400070004008544007A1
:1019B000003C02404FF0E0210428086903D020F0E9
:1019C00004000861704740F00400FAE77047000027
:1019D000124810B5016841F47001016010480168B7
:1019E00041F0010101600E4A0021083211600268D5
:1019F0000C4B1A400260031D0B4A1A60026822F465
:101A00008022026006480C300160FFF779FF03492D
:101A10004FF000608039086010BD000088ED00E0E4
:101A200000380240FFFFF6FE1030002438B51B4C92
:101A300040F22441204600F04BF801282DD12088A7
:101A4000A088174D009000212846FFF789FA284604
:101A5000FFF722FB134CC0F5806020812089104ADB
:101A6000114B0C32111548B12089884206D8E07814
:101A70002071E078C0F10100E07001E000202081D9
:101A8000E07803EB802010602846FFF773FB01210C
:101A90002846FFF765FA0120A07038BD001001400C
:101AA0008864024006000020540400200029818937
:101AB00002D041F4005101E021F4005181817047CE
:101AC000002A828A01D00A4300E08A43828270475A
:101AD00070B501F01F0501260024C1F3421306FA78
:101AE00005F2012B0FD0022B0FD0838A4FEA112170
:101AF0000088134206FA01F600EA060001D000B1A0
:101B00000124204670BD8389F0E7038AEEE710B513
:101B1000C1F3421301F01F040121A140012B07D0A2
:101B2000022B07D01430002A026805D00A4304E0D3
:101B30000C30F8E71030F6E78A43026010BD000071
:101B40007FB50446008A0D46C98820F44050014301
:101B50002182A08941F20C618843A9882A89114316
:101B60006A8902431143A181A08A20F44071A889A7
:101B70000843A0826846FFF7EFFC1A48844202D06F
:101B80001948844201D1039800E00298A189090410
:101B900000EBC00101EB0010296801D5490000E00D
:101BA0008900B0FBF1F06422B0FBF2F109010B09EE
:101BB0006FF018056B4300EB8300A3891D044FF001
:101BC000320306D503EBC000B0FBF2F000F00700D3
:101BD00005E003EB0010B0FBF2F000F00F0008434B
:101BE00020817FBD0010014000140140FEE700008D
:101BF0007CB501210220FFF78BFC01214020FFF77B
:101C000087FC4FF48040012400908DF804400020B0
:101C10008DF8060003208DF805008DF80740694611
:101C20001048FFF746FB80200F4D0090694628467C
:101C3000FFF73FFB80212846FFF78EFB0B48C0F8DB
:101C4000B842FFF7D1FC00F015F809490880A0F56B
:101C5000A441173903D00020FFF742FD7CBD0820C6
:101C6000FAE70000000402400018024000804042F1
:101C70000000002070B50F4D0024C5F8B842902038
:101C800005F52E75FFF712FD0020FFF70FFD002070
:101C9000FFF70CFD0020FFF709FDFF20FFF706FD11
:101CA00044EA0024FF20FFF701FD204301212960C1
:101CB00070BD0000008040427047000010B504462F
:101CC0000420FFF777FE0A484FF47A71047014FB82
:101CD00001F1012242804FF0E020026942F002024D
:101CE00002614161016941F00101016110BD000023
:101CF0000200002003490A885206FCD5C2B28A803D
:101D000070470000001001404FF44070FFF7F6FBF1
:101D1000A820FFF7D3FF4FF4612000F0ABF9FFF7E5
:101D200099FBFFF775FBFFF763FF002000F0C6F893
:101D300001211848FFF709FB012808D0FFF7AEF88A
:101D400058B115A0FEF7A8FAFFF716F8FCE71FA098
:101D5000FEF7A2FAFFF710F8FCE7FFF701FB40B12E
:101D600025A0FEF799FA2CA0FEF796FAFFF70CFBD8
:101D700002E0FFF7F5FA00B1FEE736A0FEF78CFAB5
:101D800042A0FEF789FA47A0FEF786FAFEF7F4FFB5
:101D9000FCE70000000002400D0A202020426F6F87
:101DA0007420666C61672064657465637465642E75
:101DB0002053746179696E6720696E20426F6F7479
:101DC0006C6F616465722E0D0A0000000D0A427589
:101DD00074746F6E20707265737365642E20537413
:101DE0006179696E6720696E20426F6F746C6F61F4
:101DF0006465722E0D0A00000D0A456E746572202E
:101E00004B65795F555020746F20426F6F744C6F33
:101E1000616465720D0A000056616C696420757317
:101E200065722070726F6772616D20666F756E6487
:101E30002E204A756D70696E6720746F207573650A
:101E400072206170706C69636174696F6E2E2E2EE2
:101E50000D0A00000D0A4E6F2076616C69642075D2
:101E60007365722070726F6772616D20666F756E38
:101E7000642E2053746179696E6720696E20426F09
:101E80006F746C6F616465722E0D0A005573657214
:101E9000206170706C69636174696F6E2045727245
:101EA0000D0A0000426F6F746C6F6164657220539D
:101EB00074617274696E670D0A00000070B50446A3
:101EC0000B480C4E002150F8240006EB840542001C
:101ED000686900F02DF806480021183050F82420D9
:101EE000A86800F025F80120311981F8200070BDA4
:101EF000442200083000002010B50B4B0B4C002290
:101F000053F82030114604EB800005E0446934F8B2
:101F1000114004B1521C491C8B42F7D86420424343
:101F2000B2FBF3F0C0B210BD442200083000002024
:101F300001E000F8011B521EFBD2704770B5064647
:101F40000F221DA1FEF764FB1F4C0025D0B10E220D
:101F50001EA13046FEF75CFB002822D00F221FA1F5
:101F60003046FEF755FB00281DD00F221FA130463A
:101F7000FEF74EFB00281CD0314621A0FEF78CF95D
:101F8000257070BD104A24A1121D06F10F00FEF746
:101F90007BFA28A06168FEF77FF901202070A56018
:101FA00070BD022003E02AA0FEF776F9032020701E
:101FB00070BD0420FBE7000041542B55706C6F612D
:101FC0006453746172743D001400002041542B5519
:101FD000706C6F6164446174653D000041542B5521
:101FE000706C6F6164456E643D20310041542B522A
:101FF00065626F6F74546F55736572417070000045
:10200000556E6B6E6F776E20636F6D6D616E643AA7
:102010002025730A000000002046696C6520736962
:102020007A653A207B2273697A65223A256C757D40
:102030000000000052656365697665642066696C1E
:10204000652073697A653A20256C750A00000000E6
:102050005570677261646520636F6D706C6574653F
:1020600064207375636365737366756C6C79210A9C
:10207000000000002DE9F04780464FF4806696B0DE
:1020800031465D48FEF70FFB31465C48FEF70BFB1F
:1020900001210846FFF73CFA01211020FFF744FA1E
:1020A000574F072209213846FFF73FF907220A2137
:1020B0003846FFF73AF94FF4C060149002208DF8CB
:1020C00054008DF8550000248DF8564001258DF8F8
:1020D000575014A93846FFF7ECF8ADF848400C20EB
:1020E000DFF82091ADF84440ADF84A00CDF84080CB
:1020F000ADF84640ADF84C4010A94846FFF720FD2A
:1021000025208DF83C0006208DF83D008DF83E40DE
:102110008DF83F500FA8FFF7BFF901218805FFF7A1
:10212000F7F9DFF8E4A05046FEF724FF324802A991
:10213000EF0681E85100CDE905462802CDE90840C7
:102140004002CDE90A0409F10408CDE900780794BA
:1021500069465046FEF7E4FF2B4E30363046FEF718
:1021600009FF26480097CDE9018040200994CDE978
:10217000030569463046FEF7D3FF44208DF83C0046
:1021800007278DF83D708DF83E408DF83F500FA821
:10219000FFF782F946208DF83C008DF83D708DF8F0
:1021A0003E408DF83F500FA8FFF776F901215046C9
:1021B000FEF7D6FE012240214846FFF781FC0122AE
:1021C00080214846FFF77CFC01214846FFF76EFC62
:1021D000012240F224414846FFF799FC01221821D0
:1021E0005046FEF787FF012210213046FEF782FF9E
:1021F00016B0BDE8F087000054000020540C002009
:1022000000000240001001408864024010B500291F
:102210000AD00878002807D005487844FEF76CFDFE
:10222000002801D0002010BD0248784410BD0000F5
:10223000960000008E0000004FF04070E1EE100AA2
:102240007047000080070000007800008007000051
:1022500020000000200000002000000000F000002E
:1022600000000F0000F000003031323334353637D3
:1022700038394142434445464030580030313233CA
:1022800034353637383961626364656640307800CA
:10229000C02300080000002054000000C401000812
:1022A00014240008540000206C150100E00100080F
:1022B0001001000043000000F8FFFFFF0040404015
:1022C0004040404040404141414141404040404009
:1022D00040404040404040404040404040050202B5
:1022E0000202020202020202020202020220202074
:1022F00020202020202020020202020202029090D0
:1023000090909090101010101010101010101010CD
:102310001010101010101010020202020202888821
:10232000888888880808080808080808080808082D
:102330000808080808080808020202024000000015
:10234000000000000000000000000000000000008D
:10235000000000000000000000000000000000007D
:10236000000000000000000000000000000000006D
:10237000000000000000000000000000000000005D
:10238000000000000000000000000000000000004D
:10239000000000000000000000000000000000003D
:1023A000000000000000000000000000000000002D
:1023B000000000000000000000000000000000001D
:1023C00017EF000000000000000000000000000007
:1023D00000000000000000000000000000000000FD
:1023E00000000000010203040102030406070809BB
:1023F000BD1E0008F91E00086010002000000068E3
:10240000000000106000012000000F6800F00010C4
:0424100000000000C8
:040000050800018965
:00000001FF
