:020000040800F2
:10000000F06F012051030008231400085512000866
:1000100099130008090B00087D3700080000000054
:10002000000000000000000000000000990200082D
:10003000AD0F000800000000ED0200088932000842
:100040006B0300086B0300086B0300088D190008A0
:100050006B0300086B0300086B0300086B030008C8
:100060006B0300086B0300086B0300086B030008B8
:100070006B0300086B0300086B0300086B030008A8
:100080006B0300086B0300086B0300086B03000898
:100090006B0300086B0300086B0300086B03000888
:1000A0006B0300086B0300086B0300086B03000878
:1000B0006B030008F9320008893300086B0300085D
:1000C0006B0300086B0300086B0300086B03000858
:1000D0006B030008013500086B0300086B03000880
:1000E0006B0300086B0300086B0300086B03000838
:1000F0006B0300086B0300086B0300086B03000828
:100100006B030008B51B00086B0300086B030008B5
:100110006B0300086B0300086B0300086B03000807
:100120006B0300086B0300086B0300086B030008F7
:100130006B0300086B0300086B0300086B030008E7
:100140006B0300086B0300086B0300086B030008D7
:10015000D10C00086B030008150D00086B030008A4
:100160006B0300086B0300086B0300086B030008B7
:100170006B0300086B0300086B0300086B030008A7
:100180006B0300086B03000800F002F800F06DF844
:100190000AA090E8000C82448344AAF10107DA45E2
:1001A00001D100F062F8AFF2090EBAE80F0013F0C7
:1001B000010F18BFFB1A43F001031847404A030020
:1001C000604A03000A444FF0000C10F8013B13F0A2
:1001D000070408BF10F8014B1D1108BF10F8015BA0
:1001E000641E05D010F8016B641E01F8016BF9D193
:1001F00013F0080F1EBF10F8014BAD1C0C1B09D1EA
:100200006D1E58BF01F801CBFAD505E014F8016B5B
:1002100001F8016B6D1EF9D59142D6D370470000ED
:100220000023002400250026103A28BF78C1FBD8FF
:10023000520728BF30C148BF0B607047642900F0E7
:100240002981752900F02681782900F05D816329D4
:1002500000F00884732900F00D84002070471FB55A
:1002600009F0A4FC1FBD10B510BD00F01DFC114627
:10027000FFF7F5FF05F0CCFE00F03BFC03B4FFF701
:10028000F2FF03BC03F019FC30BF72B6704762B6D0
:10029000704780F3088870472A4B19680868B0E8EF
:1002A000F04F80F30988BFF36F8F4FF0000080F3A9
:1002B000118870470000000006480068006880F35D
:1002C000088862B661B6BFF34F8FBFF36F8F00DF50
:1002D00000BF00BF08ED00E0DFF80C00016841F44A
:1002E00070010160704700BF88ED00E0EFF3098006
:1002F000BFF36F8F134B1A681EF0100F08BF20ED6D
:10030000108A20E9F04F106008B44FF0500080F3DD
:100310001188BFF34F8FBFF36F8F08F08DFD4FF043
:10032000000080F3118808BC19680868B0E8F04F35
:100330001EF0100F08BFB0EC108A80F30988BFF3DD
:100340006F8F704784020020EFF305807047000034
:100350000948804709480047FEE7FEE7FEE7FEE759
:10036000FEE7FEE7FEE7FEE7FEE7FEE70448054995
:10037000054A064B704700009D32000889010008BD
:10038000F0690120F06F0120F06B0120F06B01207B
:10039000704710B54C1084EA530404D54042C1F1B3
:1003A000000138BF491E1B4204D55242C3F100036D
:1003B00038BF5B1E00F064FA14F0804F04D0404256
:1003C000C1F1000138BF491E14F0004F04D0524261
:1003D000C3F1000338BF5B1E10BD00000FB4044919
:1003E00010B503AA029800F049FB10BC5DF814FB9D
:1003F0006400002070B5044685690068C10601D517
:10040000302600E02026C00707D070BDD4E90121C6
:1004100030469047206A401C20626D1EF6D570BDA4
:1004200070B5044685690078C00707D170BDD4E96E
:10043000012120209047206A401C20626D1EF6D5C5
:1004400070BD70B50C460546012A05D02878800697
:1004500000D5EA69002302E0012305E05B1C93421A
:1004600002D2E05C0028F9D1A869E618C01AA86198
:10047000286A184428622846FFF7BCFF04E0D5E943
:10048000012114F8010B9047B442F8D32846FFF736
:10049000C7FF70BD2DE9F04106460024106875299C
:1004A000314615A510D0AFF30080002802DA404293
:1004B00012A507E031688A0701D511A502E04907B6
:1004C00004D510A5012401E0AFF3008000210A2328
:1004D00006F1240707E0B0FBF3F203FB1200303013
:1004E00078541046491C0028F5D123462A46304648
:1004F000BDE8F04100F03BBA000000002D00000014
:100500002B0000002000000070B504460D46214677
:100510001068AFF300802188090502D50F4A7A449C
:1005200002E00E4A7A440E32002104F1240305E071
:1005300000F00F060009965D5E54491C0028F7D1B3
:1005400020780023000704D5702D02D009B10223C2
:1005500011322046BDE8704000F009BABC430300E8
:100560002DE9F05F894604464FF0000ADFF874B1C8
:10057000FB44C0F820A02046E1688847002874D0DA
:10058000252806D0D4E901219047206A401C20622A
:10059000F1E700265F462046E168884720280546A7
:1005A00007DB312D05D2781910F8200C08B106436D
:1005B000F1E7B00701D526F00406C4F81CA0002717
:1005C000C4F818A02A2D09D0284603F06FFA38B3D2
:1005D00004EB8708303DC8F8185019E059F8041B9F
:1005E000204604EB87029161E1688847012F0546A8
:1005F00018D1E069002820DA26F020061DE0D8F89E
:10060000180000EB800005EB40003038C8F81800F7
:100610002046E1688847054603F048FA0028EED1F5
:10062000012F0AD02E2D08D12046E16888477F1C73
:100630000546022F46F02006C4DBA069002803DA35
:10064000404246F00106A061F00701D026F01006F6
:100650006C2D0BD0682D09D04C2D39D06A2D35D09A
:10066000742D35D07A2D33D016E038E0E1682F466E
:1006700020468847B842054609D16C2F26D04FF452
:100680008060E168064320468847054604E06C2FF9
:100690001AD04FF4807006430DB3A5F1410019281C
:1006A00002D8203546F400664A4629462046266090
:1006B0004E46FFF7C3FD80B101280BD0F61D26F092
:1006C000070000F1080956E74020E4E78020D8E75A
:1006D0000020D6E706F104094DE7284652E7206AD4
:1006E000BDE8F09F92430300032A40F2308010F0EF
:1006F000030C00F0158011F8013BBCF1020F6244BD
:1007000098BF11F801CB00F8013B38BF11F8013B4D
:10071000A2F1040298BF00F801CB38BF00F8013BFA
:1007200011F0030300F02580083AC0F0088051F86A
:10073000043B083A51F804CBA0E80810F5E7121D75
:100740005CBF51F8043B40F8043BAFF30080D20794
:1007500024BF11F8013B11F801CB48BF11F8012B60
:1007600024BF00F8013B00F801CB48BF00F8012B83
:10077000704710B5203AC0F00B80B1E81850203A0D
:10078000A0E81850B1E81850A0E81850BFF4F5AF31
:100790005FEA027C24BFB1E81850A0E8185044BFBB
:1007A00018C918C0BDE810405FEA827C24BF51F828
:1007B000043B40F8043B08BF7047D20728BF31F81C
:1007C000023B48BF11F8012B28BF20F8023B48BF6D
:1007D00000F8012B704702F0FF0343EA032242EACC
:1007E000024200F002B84FF000020429C0F012806B
:1007F00010F0030C00F01B80CCF1040CBCF1020FD4
:1008000018BF00F8012BA8BF20F8022BA1EB0C01A8
:1008100000F00DB85FEAC17C24BF00F8012B00F89E
:10082000012B48BF00F8012B70474FF0000200B5C4
:10083000134694469646203922BFA0E80C50A0E803
:100840000C50B1F12001BFF4F7AF090728BFA0E8B1
:100850000C5048BF0CC05DF804EB890028BF40F87D
:10086000042B08BF704748BF20F8022B11F0804FBF
:1008700018BF00F8012B70477047704770477047EA
:1008800053EA020C00F069802DE9F04B4FF00006AE
:10089000002B1FBFB3FA83F503FA05F424FA05F61B
:1008A0005E4012BF1643B2FA82F502FA05F4C5F1B2
:1008B00020051EBF22FA05FC44EA0C04203556EA46
:1008C000044C4FEA144418BF641C4FF000084FF06A
:1008D0000009904271EB030C39D3002919BFB1FA1A
:1008E00081F701FA07F6B0FA80F700FA07F6C7F1C8
:1008F00020071EBF20FA07FC46EA0C062037B6FB8D
:10090000F4FCA7EB0507103F07F01F0BCBF1200607
:100910000CFA0BFB2CFA06F644BFB3460026202F38
:10092000A4BF5E464FF0000B5BEA060C08BF4FF019
:10093000010B19EB0B09ABFB027C48EB0608C01B53
:1009400006FB02CC0BFB03CC71EB0C01C1E70B46A1
:10095000024641464846BDE8F08B13B54FF0000013
:100960004FF00001AFF30080BDE81C4070472DE957
:10097000F0470D4699469246044600F12408016866
:10098000880604D5E06921F01001216000E0012013
:10099000A84201DD471B00E00027A1697A1902EB9C
:1009A0000900081AA0612078C00602D42046FFF78B
:1009B00021FD002608E0D4E901211AF8060090473D
:1009C000206A401C761C20624E45F4DB2078C0066D
:1009D0000AD52046FFF70EFD06E0D4E901213020BC
:1009E0009047206A401C2062381EA7F10107F4DC02
:1009F00007E0D4E9012118F805009047206A401C5F
:100A00002062281EA5F10105F3DC2046FFF708FD52
:100A10002078000602D50220BDE8F0870120FBE720
:100A200001694A1C02610878704700B58FB0CDE9B2
:100A300001310021059105497944CDE903101146A2
:100A40006846FFF78DFD0FB000BD0000E5FFFFFF1A
:100A500010B5436913B1AFF3008001E0FFF7F1FC7B
:100A6000012010BD127800F124010A7000224A70A2
:100A70000122EDE711684FF0FF32E9E7074B70B54F
:100A80000D467B44FFF7D1FF0446284600F008F8E6
:100A900010B14FF0FF3070BD204670BD1F530000F5
:100AA000007B00F080007047754600F029F8AE46E4
:100AB00005006946534620F00700854618B020B56A
:100AC000FFF754FCBDE820404FF000064FF0000750
:100AD0004FF000084FF0000B21F00701AC46ACE8E6
:100AE000C009ACE8C009ACE8C009ACE8C0098D4653
:100AF00070470446AFF300802046FFF7BFFB0000BD
:100B0000004870478C690120FEE770B500254FF45E
:100B1000803405E0802001F03BF808B144B101E0E9
:100B2000641EF7D240F2FF5001F00AF8284670BD6B
:100B3000032070BD10B504461348016811F0450F3D
:100B4000FBD0042001F024F820B1042000F0F8FFCD
:100B5000032010BD012001F01BF820B1012000F09E
:100B6000EFFF012010BD084824380068A04201D0E2
:100B7000102010BD40F2FF5000F0E2FF0248203884
:100B8000006800F0080010BD342C014010B50024AE
:100B90004FF480310E4809E0026812F0450F05D08D
:100BA00009B1500705D5032404200CE0491EF3D2F7
:100BB000F7E7012000F0ECFF18B10124204600F017
:100BC000BFFF40F2FF5000F0BBFF204610BD000009
:100BD000342C014010B50A49086810F0450FFBD0CD
:100BE000042000F0D5FF20B1042000F0A9FF03206D
:100BF00010BD40F2FF5000F0A3FF002010BD000028
:100C0000342C014070B506461C480D46002402688D
:100C100012F0450FFBD0042000F0BAFF20B10420F1
:100C200000F08EFF032070BD012000F0B1FF20B165
:100C3000012000F085FF012070BD104824380068B5
:100C4000B04212D140F2FF5000F07AFF0B4820383A
:100C5000026812F4604F03D0900404D5132070BDD5
:100C6000100C288007E0500401D5102070BD10043E
:100C700001D50F2070BD204670BD0000342C01400E
:100C800010B500244FF480320B4809E0016811F0E0
:100C9000450F05D00AB1480705D50324042006E016
:100CA000521EF3D2F7E7480603D50024402000F097
:100CB00047FF204610BD0000342C014003480022AD
:100CC000026042605321312002F030BB300000202E
:100CD00070B50D4D0D4C2946204600F0FBF801285B
:100CE00003D12946204600F02FF8094D2046294619
:100CF00000F0F0F8012805D129462046BDE87040F3
:100D000000F022B870BD0000008800208864024016
:100D10000044002070B5094C094D2146284600F0DA
:100D2000D9F8012808D107490020487021462846F3
:100D3000BDE8704000F008B870BD000000800028D9
:100D4000B86402405A000020074A904201D2074886
:100D500001E005481038064A8B0001EA020101D57E
:100D6000C1607047816070471064024000600240BB
:100D70007D0F7D0F0029016802D041F0010101E0E3
:100D800021F00101016070472DE9F043016821F075
:100D9000010101600021016041608160C160016169
:100DA000212141613C493C4A3D251039904202D104
:100DB0008D60BDE8F083384A4FF474661832904273
:100DC00001D18E60F5E7344A4FF474173032904207
:100DD00001D18F60EDE7304A4FF0746C4832904299
:100DE00002D1C1F808C0E4E72B4B2C4A603398428B
:100DF00001D1CA60DDE7284C294B7834A04201D1EB
:100E0000CB60D6E7DFF89080264C08F1900840458B
:100E100001D1CC60CDE7DFF880804FF03D5908F17B
:100E2000A808404502D1C1F80C90C2E71E49DFF87E
:100E300078800839404501D10D60BAE71A4D183560
:100E4000A84201D10E60B4E7174D3035A84201D158
:100E50000F60AEE7144D4835A84202D1C1F800C07A
:100E6000A7E7114D10496035091FA84201D10A605A
:100E70009FE70D4A7832904201D10B6099E70A4A08
:100E80009032904201D10C6093E7074AA832904219
:100E90008FD1C1F800908CE7106002403D00002027
:100EA000400F002000003D2010640240002901682E
:100EB00002D041F0200101E021F0200101607047E3
:100EC000014600200968C90700D00120704740682A
:100ED00080B2704730B5104A0024904201D20F4AC8
:100EE00001E00D4A103A0E4B194205D01E2303EAC9
:100EF000D12503682B4002E0406900F080038800A0
:100F000001D5506800E01068064A1040084201D040
:100F100003B10124204630BD10640240006002404D
:100F20003C0F3C0F7D0F7D0F0B0607D5436912B1B7
:100F300043F0800301E023F080034361802908D05F
:100F4000002A026801F01E0101D00A4300E08A4332
:100F50000260704730B50368124ACC6813400A68D3
:100F60002243D1E905452C432243CC6922430C6A34
:100F700022434C6A22438C6A22434C6B22438C6B83
:100F800022431A430260426922F00703D1E90B248D
:100F900022431A4342610A6942604A688260896852
:100FA000C16030BD3F801CF0416070477047000059
:100FB0007CB50121042000F077FA33200090012055
:100FC0008DF8040000248DF8064003208DF80500FC
:100FD000084D8DF807406946284600F0EDF80420DA
:100FE00000908DF804408DF807406946284600F0CF
:100FF000E3F87CBD0008024001490860704700002A
:10100000143C014030B51A4A8379016853B3136820
:101010008B431360111D0B680468A3430B600179B7
:1010200011440B68046823430B60114B08331968A3
:101030000468A14319601C1D21680568A94321604B
:101040004179102905D011440A68006802430A60FA
:1010500030BD1968026811431960216800680143B6
:10106000216030BD0079104402688A43026030BDBF
:10107000003C01402DE9FC5F00244C4F00944FF4EC
:10108000806801944025C7F81080C7E902540E46D5
:101090004FF0080B1021C7E900B1A146384600F017
:1010A000BDFD1020FFF746FD002853D14048AA4659
:1010B0004D460089000438603720C7E9010AC7E9B6
:1010C0000398384600F0AAFD3720FFF733FD0028CB
:1010D00040D1411E07F11400C0E9001B302181609E
:1010E0000221C0E903150121416100F039FD3320DF
:1010F000C7F808A0C7E90050C7E90358384600F010
:101100008DFD3320FFF716FD050023D1DFF8A490F5
:10111000DFF8A0804FF4001B6F46A9F14C0940F2A4
:101120002A6AD9F8000010EA0A0F0BD1584600F0DD
:101130002FFD0028F5D0D8F8000047F82400641CE3
:10114000022CEED3082000F023FD28B1082000F087
:10115000F7FC0420BDE8FC9F022000F019FD20B13F
:10116000022000F0EDFC0220F4E7202000F010FD4A
:1011700020B1202000F0E4FC0620EBE74FF40074DF
:10118000204600F005FD20B1204600F0D9FC0720E4
:10119000E0E740F2FF5000F0D3FC009800BA706026
:1011A000019800BA30602846D4E7000048030020C8
:1011B00044000020802C0140F0B5002201274FF0B0
:1011C000030C0B6807FA02F52B40AB422CD10668E2
:1011D00053000CFA03F4A64306600E79D0F800E041
:1011E0009E4046EA0E0606600E79012E01D0022EC0
:1011F00012D18668A64386604E79D0F808E09E40FA
:1012000046EA0E0686604668AE43466045688E79BB
:101210009640B6B235434560C568A543C560CC79F4
:101220009C40C3681C43C460521C102AC9D3F0BD43
:101230004B07DB0E9A40C90810B500EB8100016A2C
:101240000F249C40A1430162016A1143016210BD59
:1012500001837047FEE700001CB5044600212048CA
:1012600000910191008902041E4802600D22426033
:101270004022C0E902211101016100F0CFFC1A49AE
:1012800008680190024601E00A68019212F0450FD9
:10129000FAD0012000F07CFC20B1012000F050FCCD
:1012A00001201CBD042000F073FC20B1042000F0DC
:1012B00047FC03201CBD0C48243800680D2801D0D1
:1012C00010201CBD40F2FF5000F03AFC06482038C8
:1012D00000680090C0F34320207000201CBD000077
:1012E0004400002048030020342C01401CB501219B
:1012F000112000F0D9F81C20009000208DF8040087
:1013000003208DF8050001248DF807406946064842
:10131000FFF752FF02208DF807000094694603484A
:10132000FFF74AFF1CBD0000001002400000024011
:10133000084C4FF47A75D4F8A402C043C4F8A40250
:10134000D4F8A802C043C4F8A802284607F056FB08
:10135000F1E70000008042427CB50121202000F02E
:10136000A3F801208DF8040000228DF80620032147
:101370008DF80510074D4FF4C0648DF807000094F8
:1013800069462846FFF718FF21462846FFF760FF09
:101390007CBD000000140240FEE73EB5012141F68D
:1013A000FF74080700F08CF8012000F077F80020A7
:1013B00000F0E4F945F25005A8422ED0012000F0DB
:1013C00011F904E0641CA4B20A2002F04BFD412094
:1013D00000F0EEF80028F5D00CB34FF4807000F068
:1013E00015F9012000F00CF97F200190FF200290F8
:1013F00000200090684600F099F90023382215215A
:10140000132000F07DFA032310220B21182000F096
:1014100069FA2946002000F043FB00203EBD012070
:101420003EBD704730B50F23C27801780125FAB16F
:10143000144A126801F1E02102F4E062C2F5E062B0
:10144000C2F30722C2F10404D3404278A240847858
:101450001C401443220181F80024007800F01F0191
:101460008D404009800000F1E020C0F8005130BDFF
:1014700001F01F0085404809800000F1E020C0F81D
:10148000805130BD0CED00E002490843024908607C
:10149000704700000000FA050CED00E00149086209
:1014A0007047000000000E42044A0029116801D074
:1014B000014300E081431160704700003038024072
:1014C000044A0029116801D0014300E08143116002
:1014D0007047000040380240044A0029116801D0DA
:1014E000014300E081431160704700002038024052
:1014F000044A0029116801D0014300E081431160D2
:101500007047000044380240044A0029116801D0A5
:10151000014300E08143116070470000243802401D
:1015200070B5204B1968204C11F00C0104D06610E6
:10153000042903D0082903D004601BE0066019E0E9
:10154000184A121F1168C1F38055116801F03F015C
:1015500015B1B6FBF1F101E0B4FBF1F114681268CA
:10156000C4F388146143C2F30142521C5200B1FB20
:10157000F2F1016019680F2202EA11110B4A545C62
:101580000168E14041601C68072505EA9424145D68
:1015900021FA04F484601B6805EA5333D25CD1401D
:1015A000C16070BD083802400024F40050020020E1
:1015B00002460020510901290BD002290CD008490C
:1015C000096802F01F02012393400B4200D0012062
:1015D000704703497439F3E70149091FF0E7000038
:1015E00074380240054900220A700A70012802D0AE
:1015F000042801D1052008707047000070380240AF
:1016000001490860704700003C0E4742C0F30121C9
:10161000032907D1074B1968074A21F4F811024042
:101620000A431A60034968310A68C0F30B00024399
:101630000A60704708380240FFFCFF0F010901EB08
:10164000810100F00F0000EB4100C0B270470021A3
:1016500003E0491C0A38C9B2C0B20A28F9D2090706
:1016600040EA116070470000C0F30F1040F08000A6
:10167000C1430348026802F08002114301607047D1
:101680000C28004008B50D4900200090086840066D
:1016900012D44FF0FF3008608B130868009A00F0F6
:1016A0004000521C00929A4201D00028F5D00868F0
:1016B000400601D4002008BD012008BD0C280040D0
:1016C0000248016821F08001016070470C28004049
:1016D0000449024600200968034B1940114200D01A
:1016E000012070470C2800407F3F010030B50E4DAF
:1016F000CA222A6053222A600B4C0B4B1C3C1C3321
:10170000002920F00402216800F0040004D01143F5
:1017100021601968014303E0914321601968814306
:101720001960FF20286030BD2428004070B5124D9C
:1017300004460026CA20286053202860FFF7A2FF35
:10174000A8B10D481C38016821F040010160016812
:101750002268114301600848A168143801600168DB
:10176000A28841EA02410160FFF7AAFF0126FF209B
:101770002860304670BD00002428004008B50349A9
:1017800001EB80000090006808BD00005028004078
:1017900070B50C460026010060780FD0FFF74EFFB1
:1017A000A078FFF74BFFA078E17840EA0145607828
:1017B0002178000240EA4130054315E0C10603D517
:1017C00020F010000A306070E078FFF740FF050459
:1017D0006078FFF73CFF45EA0025A078FFF737FF68
:1017E0000543207845EA40350D4CCA20206053203F
:1017F0002060FFF747FF78B10A48054008482038C5
:101800000560FFF75DFF06481C380068800602D4BB
:1018100000F0E0F800B10126FF202060304670BDE6
:10182000242800403FFFFF002DE9F0410C46002630
:10183000234F01002078396832464FEA416104D0D5
:10184000002930DAFFF7FAFE2EE0002900DBE27013
:10185000FFF7FDFE05046078FFF7F9FE45EA002575
:10186000A078FFF7F4FE0543E07845EA0045144C04
:10187000CA201C34206053202060FFF703FF68B1AA
:10188000104805400E4808380560FFF719FF386812
:10189000800602D400F09EF800B10126FF202060EF
:1018A0003046BDE8F081E270A078217840EA014539
:1018B0006078E178000240EA01400543D7E7000084
:1018C000082800407F7F7F000549CA220A60532212
:1018D0000A60034A103A1060FF2008607047000059
:1018E0002428004008B58DF802208DF801108DF8ED
:1018F00000308DF8030069460020FFF749FF08BD5E
:1019000008B58DF800008DF801108DF802208DF8D3
:10191000033069460020FFF787FF08BD3EB5044647
:101920000D46002000F090F8204600F079F8284697
:10193000FFF7CAFF4FF480452846FFF795FE2C02BB
:101940002046FFF759FB01212846FFF7CFFE012073
:1019500000F07AF800258DF80450082000948DF8E6
:10196000050001248DF806406846FFF74BFB032075
:101970008DF808000A208DF809008DF80A508DF8BE
:101980000B4002A8FFF74EFD3EBD000008B5002049
:1019900000904FF48060FFF79BFE012811D1800377
:1019A000FFF762FE09486946006807F0CFFD00981E
:1019B00038B107494FF080500860BFF34F8FBFF335
:1019C0006F8F4FF48000FFF717FB08BD0400002065
:1019D00004ED00E018B50020104B0090CA201860FC
:1019E000532018600D491839086820F0A0000860DD
:1019F0004FF400340868009A00F02000521C009256
:101A0000A24201D00028F5D00868800601D5012047
:101A100000E00020FF21196018BD000024280040CC
:101A2000084ACA2111605321116006491C390B680C
:101A300023F007030B600B6803430B60FF2010606B
:101A4000704700002428004018B50021134B009176
:101A5000CA2119605321196010491C3900280868EF
:101A600003D040F48060086014E020F480600860D7
:101A70000A4918398C130868009A00F00400521CB7
:101A80000092A24201D00028F5D00868400701D496
:101A9000002000E00120FF21196018BD242800402B
:101AA00008B5034A02EB80000090016008BD000009
:101AB000502800402DE9FC4100260096354601964D
:101AC00000B102251B480068800102D50E20BDE848
:101AD000FC81194C6946208980B2FFF7CBFA0028B7
:101AE000F5D10198400322D52089144C00044FF011
:101AF000400820603720C4E901084FF48067204681
:101B0000C4E9036700F08AF83720FFF713F80028CC
:101B1000DDD10620C4F80880C4E90050C4E9036799
:101B2000204600F07BF80620FFF704F8CFE72520D9
:101B3000CDE70000142C01404400002048030020A1
:101B40000149086070470000382C0140034A1168C1
:101B500021F0FF010143116070470000042C014097
:101B600010B50A4A01681160121D41681160131D09
:101B70001968D0E902242243D0E90440044321F04B
:101B8000F70122430A431A6010BD0000242C0140D3
:101B9000034A0146002012680A4200D00120704723
:101BA000342C01400248006800F003007047000038
:101BB000002C014000F0A8BB30B5094B1A6847F66D
:101BC000FF618A43017D8468C568214344682C43D2
:101BD000214304680069214301431143196030BD6A
:101BE000042C01400B4900200860091D0860091DF4
:101BF0000860091D0860074924310860091D086054
:101C0000091D0860034A044938321160111D08603B
:101C100070470000002C0140FF07C00010B5084AC3
:101C200001681160131D1968D0E901242243D0E92D
:101C3000034004436FF30A0122430A431A6010BDB4
:101C4000082C01400149086070470000002C014049
:101C500070B51B4E90B0154604463046FFF730F97C
:101C60000028FAD13046FFF78FF84FF0006000905F
:101C7000144801A981E8310000204FF480610490EC
:101C8000CDE90501890007918900CDE908104FF4DD
:101C900040300A9004200B9003200C9048020D90D5
:101CA00080100E9069463046FFF754F920213046E7
:101CB000FFF7FCF801213046FFF75CF810B070BD6B
:101CC00058640240802C014010B5104904460020A1
:101CD0000978032917D019B1012901D0022911D19E
:101CE000B4F5805F0FD0E0B2FFF7E4FE002809D121
:101CF00007490A6822F4C0520A600A6822430A604F
:101D00000A680A6010BD272010BD000044000020B2
:101D1000042C01402DE9F0478249DFF80CA24FF076
:101D2000000C0B7880F856300989A0F85410DAF8C6
:101D300000104FF001090A0E95090570C2F38305E2
:101D4000457002F0030282700A0CC2700A0A027126
:101D50004171DAF80420110E0C01C2F3074144EA84
:101D6000111401F00F08C480C2F3072180F8088025
:101D7000CC094472C1F380148472C1F34014C4725C
:101D8000C1F300140473544680F80DC0A468260EF5
:101D9000C4F30745C4F3072733B1012B04D0032B49
:101DA00002D0022B30D03EE08907090DD2B241EAC1
:101DB000820141EA9612C6F3C2010261017506F082
:101DC0000701417569098175C5F38201C175A907CC
:101DD0004B0F394643EAD1150576AD1C09FA05F3D8
:101DE000DE17521CA2FB03570CFB037302FB0633E6
:101DF00009FA08F2A5FB0267026503FB027205FB04
:101E00000C22C0E912620EE09106890A41EA06221C
:101E10002A430261521C530BD204C0E912234FF42F
:101E2000007239460265C1F38012427689064A0E75
:101E3000E1B242EAD11200F81A2F01F07F0141709D
:101E4000DAF80C20110ECB098370C1F34113C37073
:101E5000C1F38203037189070B0FC2F3074143EA01
:101E600091134371C1F34013837180F807C001F0EF
:101E700001010172C2F30721CB094372C1F3801340
:101E80008372C1F34013C372C1F300130373C1F330
:101E90008103437301F003018173C2F34601224AB7
:101EA000C173103280F8109011684B460C0E847488
:101EB0000C0CC1F3072545EA042484820C06516802
:101EC0000D0E44EA0544C1F3074544EA0524C1F375
:101ED00007252C43C0F8164000F81A1F91680C0E15
:101EE00044700C0CC1F30725240644EA0544C9B22A
:101EF00044EA0124D16844EA1164C1F30742446012
:101F0000047A44EA12140472C1F30724120744EA63
:101F100012524281C1F34601017343736046BDE82A
:101F2000F087000044000020740300202DE9FE43E8
:101F3000002501213F48FFF7B7FA0121CE023046C4
:101F4000FFF7D6FA01213046FFF7DEFA4FF4F850DA
:101F5000009002208DF804008DF805000024DFF8C1
:101F6000D8908DF8064001278DF8077069464846DD
:101F7000FFF722F90420DFF8C4800090694640464C
:101F8000FFF71AF90C2208214846FFF751F90C22F5
:101F900009214846FFF74CF90C220A214846FFF771
:101FA00047F90C220B214846FFF742F90C22114653
:101FB0004846FFF73DF90C2202214046FFF738F969
:101FC00000213046FFF7A0FAFFF70CFE31208DF814
:101FD00008008DF809408DF80A408DF80B7002A8B2
:101FE000FFF720FA00F0BEF8154C80B900F02CF88D
:101FF00068B92046FFF78EFE48B9B4F854000004D3
:1020000000F072FC18B93046FFF75EFE18B10D49BA
:10201000097803290BD194F8560008B1012800D1A2
:1020200002252846FFF792FD002000F073FCBDE872
:10203000FE8300000C00400000080240000C02403B
:1020400098030020440000202DE9F84F0120ADF84E
:102050000000FFF7A7FDB0B33F4F3878042878D0D1
:102060003E4C00250220E4E80250C0204FF4806678
:1020700084E861003948083CFFF7D0FDFEF786FD93
:10208000002822D1DFF8D8A0DAF8001033480AF18E
:10209000040B3C300160DBF8001041600BF10401DF
:1020A000096881602E490C310968C16038784FF0A9
:1020B00003084FF0400950B1012808D0062806D087
:1020C000022804D010E0FFE72520BDE8F88F84E85F
:1020D0002003C4E903562148FFF7A0FD6946032009
:1020E000FEF790FD0028F0D1387803280DD1BDF817
:1020F0000000000484E80103C4E903561748FFF711
:102100008DFDFEF743FD0028DFD13878042820D06C
:10211000BDF80000B860000401C4092001C4C0205B
:1021200084E861000D48FFF779FDFEF72FFD0028D8
:10213000CBD1DAF8001009482C300160DBF8001030
:102140004160074908310968816005490C31096817
:10215000C1600020B9E700004400002048030020CF
:10216000142C01402DE9F05F0027624876213E469D
:102170000175076047608760C7603C463D46B946C9
:10218000B8460761FFF718FD0320FFF75BFD5A48CB
:10219000016841F480710160DFF858A14FF4806B51
:1021A0000AF1180A5348CAF80080CAF80480CAF82D
:1021B0000880CAE9038B1830FFF730FDFEF7A5FC55
:1021C00028B17F1CFFB24A2FECD3BDE8F09F4FF43B
:1021D000D570CAF8000008205746CAF8040040200D
:1021E000C7E902080001CAF8100042481830FFF79A
:1021F00015FDFEF745FD20B9404901204FF080490B
:102200000870BA46384641463722402780E88600A3
:10221000C0F80C8037483901C3461830CAF810108E
:10222000FFF7FCFC3720FEF785FC4FF6FF78A0B3E4
:102230005646DFF8C490BA464FF4806B012709F187
:102240001009C5B34DE055463720C5E900B04FF43D
:102250008068CAF810802748C5E9027B5E461830BE
:10226000FFF7DCFC3720FEF765FC0028ADD12449E0
:1022700049EA010028602920C5E90107C5E903688A
:102280001C481830FFF7CAFCFEF7A4FC00289CD1BC
:10229000194910310E68F50F641C1DB94FF6FF7116
:1022A0008C42D0D34FF6FF718C421CD216F0804F77
:1022B0008BD002221AE012E0124886E88104002046
:1022C000C6E9030B0B481830FFF7A8FCFEF782FCA9
:1022D0000028CBD1D9F80010CD0F641CB1E74445DC
:1022E000EAD3444501D31B206FE7032203490A7058
:1022F0006BE7000030030020042C01404400002064
:10230000000010800080FF802DE9F0414FF48070C4
:10231000FFF73EFC354C364D4CF23A3610B3A878F8
:10232000002101280ED0E9703048001F016841F4F7
:10233000807101602068B043206001202871E87836
:10234000BDE8F0812B480C22C0E900124022C0E910
:10235000022111010161FFF761FC0C20FEF7EAFB8D
:10236000E870E1E70220FFF713FC40B10220FFF71D
:10237000E7FB2068B04320600220E870E0E7082017
:10238000FFF706FC40B10820FFF7DAFB2068B043F6
:1023900020600420E870D3E72020FFF7F9FB40B16C
:1023A0002020FFF7CDFB2068B04320600620E870B6
:1023B000C6E71020FFF7ECFB40B11020FFF7C0FB91
:1023C0002068B04320600520E870B9E74FF400773B
:1023D0003846FFF7DDFB0028B2D03846FFF7B0FBE8
:1023E0002068B04320600720E870A9E73C2C01403A
:1023F00044000020480300202DE9F84F17460A9EAC
:1024000005004FF0FF3467D0DFF8E0A10020CAF8E4
:102410000000DFF8DC9199F80010022903D10E02C8
:10242000570A47EAC357014672480122A046816015
:10243000C0E90041C160C0E90412FFF791FB6B489D
:1024400018380068800102D50E20BDE8F88F701E94
:10245000B0F5006F40D206423ED1304601F082FB1B
:1024600000906448102114384FF4806BC0E900617B
:10247000402181600021C0E9031BFFF7CFFB102042
:10248000FEF758FB0028E0D1009801015948C0F838
:102490000080C0E901610121416102214FF0000883
:1024A000C0E90318FFF75CFB524811211438E0E83B
:1024B0000271402180E802094E481438FFF7AEFB54
:1024C0001120FEF737FB0700BFD199F801004946FC
:1024D00020B101285DD082E02620B6E7FDF7D5FEC9
:1024E000424EDFF8089154364FF4004BDFF8088174
:1024F00009F1080940F22A6A10E05846FFF748FB44
:1025000048B10020316845F82010401C0828F9D354
:102510004446203502E0002C65D0641ED9F8000046
:1025200010EA0A0FE9D00820FFF732FB18B10820A3
:10253000FFF706FB57E00220FFF72AFB20B102203D
:10254000FFF7FEFA022080E72020FFF721FB20B1F1
:102550002020FFF7F5FA062077E74FF400742046B5
:10256000FFF716FB38B12046FFF7EAFA07206CE7C1
:10257000306801C501E04FF400142046FFF708FB66
:102580000028F5D1FDF783FE40F2FF50FFF7D8FA9F
:1025900025E04046C846C87088700871134910315C
:1025A000086840F22A3210430860DAF8001041F05F
:1025B0000801CAF80010002231462846FFF748FB00
:1025C0000E49404600E0641E0A68120103D40279F5
:1025D0000AB9C2782AB134B1C17801B1C778384696
:1025E00033E7002CEFD104202FE700002C2C014012
:1025F000440000205C030020FFFF7F0000640240D5
:102600002DE9FC470027CD0D4E02804681079146FB
:102610004FF4007018D00024824612E06002821944
:1026200045EBE073CDF800A01248FFF7E5FE074642
:10263000524610494046FEF757F8641C08F50078EA
:10264000E4B24C45EAD30AE0B9F1010F0AD0CDE972
:10265000000932462B46404600F00EF80746384641
:10266000BDE8FC87009032462B464046FFF7C4FE8B
:10267000F4E70000F00300202DE9FF5F82B0DFF8EF
:1026800054B2DDE910680299CBF80C10924900258C
:1026900017464FF0FF340D609BF80000022803D16D
:1026A0000602570A47EAC357DFF830A20121504615
:1026B000CAF80850CAF81410C0E90045CAF80C500E
:1026C000A146CAF81050FFF74BFA83481838006843
:1026D000800103D50E2006B0BDE8F09F701EB0F556
:1026E000006F21D206421FD1304601F03BFA009024
:1026F0007A4810211438C0E900614021816000212E
:10270000C1604FF480610161FFF788FA1020FEF785
:1027100011FA0500DFD14046B8F1010F36D900FBB0
:1027200006F8B8F1007F01D32620D4E70098CAF854
:102730000090010150464FF00009C0E901810121DC
:10274000CAF814100221CAE903194D466348FFF77D
:1027500007FADFF888A11221AAF1140A5046C0E94D
:1027600000714021CAE902150901CAF81010FFF7EB
:1027700055FA1220FEF7DEF90500ACD15E469BF853
:10278000010040F22A3B10B1012877D0A0E0FDF70C
:102790007CFD514FD846543713E04FF40040FFF70B
:1027A000F7F958B1F16800203A6841F82020401C40
:1027B0000828F9D320314A4CF16002E0002C7DD08A
:1027C000641E45480830006810EA080FE5D008206C
:1027D000FFF7DEF918B10820FFF7B2F96EE002202A
:1027E000FFF7D6F920B10220FFF7AAF9022072E71D
:1027F0002020FFF7CDF920B12020FFF7A1F9062016
:1028000069E74FF400742046FFF7C2F948B120464B
:10281000FFF796F907205EE73968F06802C0F060BC
:1028200001E04FF400142046FFF7B2F90028F3D17D
:102830004FF48070FFF7ACF9C0B1307818B10128BF
:1028400001D0022812D150460C22C0E90092402249
:10285000CAE90229214811011438CAF81010FFF7FB
:10286000DDF90C20FEF766F90500C0D1FDF70FFD7C
:1028700040F2FF50FFF764F92AE0FFE786F8039083
:102880000121B17086F8049013481030016841EAC4
:102890000B0101601048016841F0080101604146E8
:1028A00000220298FFF7D4F90E4800E0641E016888
:1028B000090102D4002CF9D100E00CB904200AE788
:1028C000307910B9F0780028FAD0F07800B1F578B6
:1028D000284600E7440000202C2C01405C03002027
:1028E000FFFF7F0000640240094910B5086007201F
:1028F0004860402088600020C8604FF48060086114
:102900000846FFF78BF9BDE810400720FEF712B923
:10291000480300200021012803D010B126210846D9
:102920007047014A5070FAE7440000202DE9FC5F2F
:102930004FF000050C9F90469B4604008DF8005018
:102940002E46B94661D0AC480560AC48691E85602A
:10295000C0E900150121C560C0E90451FFF700F985
:10296000A54818380068800102D50E20BDE8FC9FFC
:10297000DFF88CA29AF80000022804D107024FEA7F
:10298000582040EACB58781EB0F5006F3DD2074280
:102990003BD1384601F0E6F8DFF860B20190ABF1C8
:1029A000140B58461021C0E900714021CBE90215F3
:1029B0000901CBF81010FFF731F91020FEF7BAF833
:1029C0000028D3D18E48DA4600890104CBF80010E4
:1029D0000D215846CBF804104021C0E90215874864
:1029E0000901AB461438CAF81010FFF717F90D208B
:1029F000FEF7A0F80028B9D17F4918390868DA46EF
:102A00004FF0FF35DFF8F8B119E02620AEE7BBF84C
:102A100008006D1E01047948143801600D214160E1
:102A20004021C0E9021A09010161FFF7F7F80D2002
:102A3000FEF780F8002899D16F4818380068C00563
:102A400002D4002DE3D12EE06DB36C481821143868
:102A50005546C0E900814021C0E9021A090101611F
:102A6000FFF7DCF81820FEF765F80028CED18BF8C8
:102A700002500198DA46020160484FF0FF3B2946B8
:102A8000C0F800B0C0E901720122C160C0E90412BF
:102A9000A8465D46FFF764F89AF8010028B156464B
:102AA000012864D097E0292060E7FDF7EEFB524F44
:102AB000DFF84481543708F1080840F21A6A24E02C
:102AC0004FF48040FFF764F8E8B1A9EB0600202836
:102AD0000DD281074FEA900100D0491C002003E08D
:102AE00004CC3A60401C361D8842F9D308E000202F
:102AF00054F820103960401C0828F9D320342036BF
:102B00006FF0404501E08DB36D1ED8F8000010EA6B
:102B10000A0FD5D00820FFF73BF818B10820FFF7BF
:102B20000FF856E00220FFF733F820B10220FFF73C
:102B300007F802201AE71020FFF72AF820B110202A
:102B4000FEF7FEFF052011E74FF400742046FFF763
:102B50001FF820B12046FEF7F3FF072006E7FDF738
:102B600096FB40F2FF50FEF7EBFF34E031E086F8D1
:102B7000038086F8028086F804801F4810300168C0
:102B800040F21A3211430160402239462046FFF7D5
:102B90005FF81948016841F008010160194800E038
:102BA0006D1E0168090102D4002DF9D102E00DB1BA
:102BB000584603E0FFF7BAF90BE0401E317909B936
:102BC000F17821B128B1F07828B1F078CEE600286C
:102BD000F3D10420CAE640F2FF50FEF7B1FF684689
:102BE000FEF73AFB0028A5D19DF800100729F6D082
:102BF0000629F4D0BAE600002C2C01405C0300202A
:102C000044000020006402402DE9FC470746CD0D3A
:102C10004E0290460020BA074FF4007118D00024ED
:102C2000894611E04A4639461248FDF75DFD6002CB
:102C3000821945EBE073CDF800900E48FFF776FE61
:102C4000641CE4B207F500774445EBD3BDE8FC878C
:102C5000B8F1010F07D0CDE9001832462B463846AF
:102C600000F00AF8F2E732462B4638460091FFF7AB
:102C70005DFEEBE7F00300202DE9FC5F4FF0000163
:102C8000DDE90C6791469B4604008DF800100D4667
:102C900007FB06FA47D0B4480160B4484A1E816079
:102CA000C0E900210122C160C0E90412FEF758FF0B
:102CB000AD4818380068800102D50E20BDE8FC9FA1
:102CC000AB480078022804D106024FEA592040EAB6
:102CD000CB59701EB0F5006F25D2064223D1304685
:102CE00000F040FFDFF884B20190ABF1140B5846BE
:102CF0001021C0E900614021CBF808100021CBF879
:102D00000C104FF48061CBF81010FEF787FF1020F5
:102D1000FDF710FF0028D1D1012F65D907FB06F878
:102D2000B8F1007F01D32620C8E79148007818B198
:102D3000012801D002282DD18D48402600890104A8
:102D40005846CBF800103721C0E901160021CBF816
:102D50000C10864831011438CBF81010FEF75EFFD6
:102D60003720FDF7E7FE0028A8D158461721CBF8F9
:102D70000070C0E901160021CBF80C107B4831012E
:102D80001438CBF81010FEF749FF1720FDF7D2FEDC
:102D9000002893D1754819211438C0E900914021C9
:102DA0004FF00009C0E9021909010161FEF736FF81
:102DB0001920FDF7BFFE002880D101984FF0FF36A3
:102DC00001016A4801270660C0E90181C0F80C9042
:102DD000C0E90497FEF7C4FEDFF894B19BF8010048
:102DE00018B15D4601287DD0AEE0FDF74EFA5E4F8A
:102DF00040F21A38543725E04FF48040FEF7C8FE01
:102E0000E8B1AAEB050020280DD281074FEA900116
:102E100000D0491C002003E004CC3A60401C2D1D6A
:102E20008842F9D308E0002054F820103960401C93
:102E30000828F9D3203420356FF0404602E0002EF8
:102E40000DD0761E48480830006810EA080FD3D02D
:102E50000820FEF79DFE18B10820FEF771FE71E014
:102E60000220FEF795FE20B10220FEF769FE022047
:102E700024E71020FEF78CFE20B11020FEF760FE44
:102E800005201BE74FF400742046FEF781FE20B1B9
:102E90002046FEF755FE072010E74FF48070FEF73E
:102EA00077FEB8B19BF8000018B1012801D00228C4
:102EB00010D12E480C221438C0E900924022C0E9FB
:102EC000022911010161FEF7A9FE0C20FDF732FE77
:102ED0000028CDD1FDF7DBF940F2FF50FEF730FEC0
:102EE00032E0FFE785F80390AF7085F804901E4844
:102EF0001030016840F21A3211430160414640220D
:102F00002046FEF7A5FE1848016841F0080101605F
:102F10003046184900E0401E0A68120102D4002819
:102F2000F9D100E018B9FFF701F80BE0761E287917
:102F300008B9E87820B12EB1E87828B1E878BDE684
:102F4000002EF3D10420B9E640F2FF50FEF7F8FD61
:102F50006846FEF781F900288AD19DF800100729FC
:102F6000F6D00629F4D0A9E62C2C01405C03002001
:102F700044000020006402402DE9F043012187B0A5
:102F80000846FEF791FA4FF4805901214846FEF7B2
:102F9000AFFA02278DF8187000248DF81A4003202C
:102FA0008DF81900DFF88C803826012505968DF8FC
:102FB0001B5005A94046FEF7FFF8052203214046B5
:102FC000FEF736F9052204214046FEF731F90522C5
:102FD00011464046FEF72CF901214846FEF794FAC7
:102FE00000214846FEF790FAADF800404FF4827099
:102FF000ADF80200ADF808506802ADF80C60ADF80D
:103000000440ADF80A00ADF80E4007200A4CADF8B8
:103010001000ADF806706946204600F0B2F80121B4
:10302000204600F099F8FF2000F008F807B0BDE84E
:10303000F0830000000402400030014070B50B4CEA
:1030400005460221204600F091F80028F9D02946D3
:10305000204600F094F80121204600F087F800286F
:10306000F9D0204600F089F8C0B270BD00300140B0
:1030700001460548028822F03802028002880A438D
:103080000280012100F068B8003001402DE9F047CE
:1030900001210220FEF708FA01210420FEF704FABC
:1030A0004FF4804A01215046FEF70AFA254C0820C9
:1030B0000227206027710025A5710326DFF888907C
:1030C00066714FF0010884F8078021464846FEF7F4
:1030D00073F8780220602771A571667184F8078003
:1030E00021461A4C2046FEF767F805220321484680
:1030F000FEF79EF805220A212046FEF799F80121E5
:103100005046FEF7E9F900215046FEF7E5F9104870
:103110004FF48271058041808580C58061150581ED
:10312000418118218181C5810A210182094C014612
:10313000204600F026F82046BDE8F047012100F0C7
:103140000BB80000380000200008024000040240D4
:1031500018030020003800400029018802D041F007
:10316000400101E021F0400101807047024600204B
:1031700012890A4200D001207047808970478181FE
:10318000704730B502884C8802F441530A88CD88D4
:1031900022438C882C4322430C8922434C892243AE
:1031A0008C892243CC8922431A430280828B22F4E9
:1031B00000628283098A018230BD00000CB50022C2
:1031C000274900920192086840F4803008604FF46B
:1031D000A043086800F4003001900098401C009063
:1031E000019810B900989842F3D10868800334D54B
:1031F000012001901A484030026842F0805202607B
:103200001848026842F440420260154808300268DB
:103210000260026842F400420260026842F4A05276
:103220000260031F104A1A600A6842F080720A6046
:103230000A689201FCD50D4940F205720A600168E6
:1032400021F003010160016841F0020101600168A1
:10325000C1F381010229FAD10CBD01920CBD00001D
:10326000003802400070004008544007003C024013
:103270004FF0E0210428086903D020F00400086121
:10328000704740F00400FAE710B506F033FA012861
:1032900003D0BDE8104005F0BDBE10BD124810B50A
:1032A000016841F4700101601048016841F00101BA
:1032B00001600E4A00210832116002680C4B1A406E
:1032C0000260031D0B4A1A60026822F48022026029
:1032D00006480C300160FFF771FF03494FF00060B2
:1032E0008039086010BD000088ED00E00038024021
:1032F000FFFFF6FE1030002410B50A4C01212046D5
:1033000000F079F8012807D107490A684868521C7B
:1033100040F100000A6048602046BDE810400121ED
:1033200000F053B800040040300000207FB50D4687
:10333000044601210220FEF7C3F80194ADF80050C5
:103340000024104DADF80240ADF80840694628460B
:1033500000F06AF801221146284600F058F80121D1
:10336000284600F035F81D208DF80C0001208DF85E
:103370000D008DF80E408DF80F0003A8FEF752F8EF
:103380007FBD00000004004010B50C4C0121204618
:1033900000F031F801280AD1094801698847002165
:1033A000204600F03EF86421204600F038F8204620
:1033B000BDE81040012100F008B8000000080040FE
:1033C0005C010020C94301827047C94301827047F4
:1033D0000029018802D041F0010101E021F0010142
:1033E00001807047406A704702460020128A0A42F4
:1033F00000D00120704702460020138A92890B42B8
:1034000002EA010202D0002A00D001207047002AFF
:10341000828901D00A4300E08A4382817047C162F9
:10342000704741627047000030B50288164C174D56
:10343000A0420DD0A8420BD0B0F1804F08D0144B61
:10344000984205D0134B984202D0134B984203D1B7
:1034500022F070034A881A43104B984206D0104B52
:10346000984203D022F440730A891A4302804A68C2
:10347000C2620A880285A04201D0A84201D1897A9D
:1034800001860121818230BD00000140000401401D
:103490000004004000080040000C00400010004004
:1034A000001400407FB50D46044601210420FEF7BC
:1034B00007F800210194ADF80050104CADF802104F
:1034C000ADF8081069462046FFF7AEFF012211460D
:1034D0002046FFF79CFF01212046FFF779FF1E20C1
:1034E0008DF80C0003208DF80D008DF80E000120E2
:1034F0008DF80F0003A8FDF795FF7FBD0008004081
:103500007CB5234C40F22441204600F0A9F8012864
:103510003CD12088A0881F4C019000212046FDF757
:1035200029FC2046FDF7D3FC1B4AC0F58060D08003
:10353000D6881848194B0C30011500254EB1D68895
:103540008E4206D89678D6709678C6F101069670A7
:1035500000E0D580927803EB822202602046FDF7DE
:1035600023FD01212046FDF705FC0D480095694625
:10357000006805F0E5FA0098002807D009494FF0E7
:1035800080500860BFF34F8FBFF36F8F7CBD00008A
:1035900000100140886402405A000020F009002019
:1035A0001000002004ED00E0DFF884B01C4CDFF8D0
:1035B0007490DFF874A0DFF874801D4D1D4E1E4F0F
:1035C0000BF10C0B4FF0FF31012004F0FDF83878BF
:1035D00010B100203870F5E720880028F2D020884C
:1035E000B0F5806FEED89AF80010228809EB81219F
:1035F0000E48FDF779F800212846FDF7BBFBCBF814
:10360000008021880A48001D016001212846FDF73D
:10361000B1FB30780028FCD101203070D2E70000E7
:1036200060000020F00900205D000020F011002063
:10363000B86402405B00002000000020002981895E
:1036400002D041F4005101E021F400518181704722
:10365000002A828A01D00A4300E08A4382827047AE
:1036600070B501F01F0501260024C1F3421306FACC
:1036700005F2012B0FD0022B0FD0838A4FEA1121C4
:103680000088134206FA01F600EA060001D000B1F4
:103690000124204670BD8389F0E7038AEEE710B568
:1036A000C1F3421301F01F040121A140012B07D0F7
:1036B000022B07D01430002A026805D00A4304E028
:1036C0000C30F8E71030F6E78A43026010BD0000C6
:1036D0007FB50446008A0D46C98820F44050014356
:1036E0002182A08941F20C618843A9882A8911436B
:1036F0006A8902431143A181A08A20F44071A889FC
:103700000843A0826846FDF70BFF1A48844202D0A6
:103710001948844201D1039800E00298A189090464
:1037200000EBC00101EB0010296801D5490000E061
:103730008900B0FBF1F06422B0FBF2F109010B0942
:103740006FF018056B4300EB8300A3891D044FF055
:10375000320306D503EBC000B0FBF2F000F0070027
:1037600005E003EB0010B0FBF2F000F00F0008439F
:1037700020817FBD0010014000140140FEE70000E1
:1037800010B500F037F900F0DBF8074C0020C4F862
:10379000B802C72004F52E74FFF750FC012020600A
:1037A000BDE8104000F0CCB80080404270B504463F
:1037B000014611A0FCF712FE240300F01BF900F0F3
:1037C000BFF80F4D0020C5F8B802202005F52E7572
:1037D000FFF734FCC4F30740FFF730FCC4F30720C5
:1037E000FFF72CFCE0B2FFF729FC01202860BDE8C0
:1037F000704000F0A5B8000066653A25780D0A0013
:10380000008040427CB501210220FDF74DFE0121E0
:103810004020FDF749FE4FF48040012400908DF8D0
:10382000044000208DF8060003208DF805008DF877
:10383000074069461048FDF7BFFC80200F4D0090FF
:1038400069462846FDF7B8FC80212846FDF700FDB3
:103850000B48C0F8B842FFF78FFB00F03DF809496C
:103860000880A0F5A441173903D00020FFF700FC21
:103870007CBD0820FAE70000000402400018024066
:1038800000804042400000202DE9F041114F0646E3
:10389000002015460C46C7F8B8020320FFF7CEFB00
:1038A000C4F30740FFF7CAFBC4F30720FFF7C6FBCA
:1038B000E0B2FFF7C3FB002405E0FF20FFF7BEFBEB
:1038C0003055641CA4B2AC42F7D30120C7F8B8024B
:1038D000BDE8F0810080404270B50F4D0024C5F86E
:1038E000B842902005F52E75FFF7A8FB0020FFF7E2
:1038F000A5FB0020FFF7A2FB0020FFF79FFBFF20A6
:10390000FFF79CFB44EA0024FF20FFF797FB2043CE
:103910000121296070BD00000080404210B5074CB5
:103920000020C4F8B802052004F52E74FFF786FBCA
:10393000FF20FFF783FB0121216010BD0080404282
:1039400010B5FFF7EBFFC007FBD110BD2DE9F05F0D
:103950008A46814615464FF48051002002F0B4FF9C
:10396000CAF30B06C6F5805407464FEA1A38A5423B
:1039700000D82C464FEA08318B464FF48052384627
:10398000FFF782FF002005E03118795CFF2903D1A1
:10399000401C80B2A042F7D3A04220D24046FFF79D
:1039A00005FF002005E019F800108219401CB954E9
:1039B00080B2A042F7D359464FF48052384600F007
:1039C00029F8A5420FD0281BA144A244002685B2A5
:1039D0004FF4805408F10108A542CBD8C9E722462C
:1039E00051464846EBE73946BDE8F05F002002F05B
:1039F0005FBF000010B5064C0020C4F8B8020620D6
:103A000004F52E74FFF71AFB0120206010BD0000A2
:103A1000008040422DE9F0410746C8B2C0F58074ED
:103A20000E461546A24200D814464FF4807822462E
:103A30003146384600F00EF8A54208D0281B27442E
:103A4000264485B24446A542F1D82C46EFE7BDE8AE
:103A5000F08100002DE9F04115460C460646FFF7BF
:103A6000C9FF114F0020C7F8B8020220FFF7E6FA9D
:103A7000C4F30740FFF7E2FAC4F30720FFF7DEFACA
:103A8000E0B2FFF7DBFA002404E0305DFFF7D6FA7E
:103A9000641CA4B2AC42F8D30120C7F8B802BDE858
:103AA000F041FFF74DBF00000080404230380A2847
:103AB00001D20120704700207047704710B50446BE
:103AC00000202071401EE062204602F031FE08B165
:103AD000032010BDB4F82E02A0F52A41553901D0BB
:103AE000022010BD94F86600B4F8671040EA012186
:103AF0000848B0EB012F08D094F88210B4F8832066
:103B000041EA0221B0EB012F01D1002010BD0120BC
:103B100010BD00000046415400E0401C02780AB18C
:103B20008A42FAD1D0B27047426A0068490A807866
:103B3000B1FBF0F0121D02CA19B1884203D3401A3A
:103B4000F8E7002070471168084470474269891EF1
:103B5000921E8A4201D800207047826A807801FB59
:103B600000207047002102E04008491CC9B201282A
:103B7000FAD1084670472DE9F0410F00064606D0FD
:103B800002F060F9022809D20120BDE8F081F56851
:103B900015B17069A84207D8012505E0411CF4D091
:103BA00071698142F1D83D462C467069641CA0427F
:103BB00002D80224022D0AD32146304602F042F9EF
:103BC00038B1411CE1D00128DFD0AC42EDD100205A
:103BD000DBE76FF070422146304603F0BDFA30B9A2
:103BE00057B122463946304603F0B6FA20B10128D3
:103BF0000DD001242046C8E7F4603069411CF9D09B
:103C0000401E3061707940F001007071F2E74FF0B2
:103C1000FF34EFE72DE9F35F88460E6800E0761C7D
:103C200030782F28FBD05C28F9D000980024254656
:103C3000D0F81CB0705D6D1C202825D32F2823D010
:103C40005C2821D0FF2C3FD2A0F181017D290BD827
:103C5000715D6D1CA1F140023F2A02D3403A7F2AD8
:103C600032D201EB002080B2012101F0E9FE070011
:103C70002AD0802F04D2014667A0FFF74DFF18BB62
:103C80002BF81470641CD5E77219C8F8002020289E
:103C900001D2042516E0002514E00BEB440030F8B7
:103CA000020C20280DD02E280BD06CB100212BF84F
:103CB000141000980B222021806902F00BFA0027D3
:103CC00006E0641E002CE8D10620BDE8FC9F7F1CA6
:103CD0003BF817002028FAD02E28F8D01FB145F065
:103CE000030500E0641E2CB10BEB440030F8020C1D
:103CF0002E28F7D14FF00008C1464FF0080A3BF8D4
:103D000017607F1C06B3202E03D02E2E04D1A742AD
:103D100002D045F00305F2E7D04501D2A74219D100
:103D2000BAF10B0F0ED0A74201D045F003050BD816
:103D30004FEA896027464FF008084FF00B0A4FEA18
:103D40001069DCE745F00305009880690178E529F2
:103D50003DD03EE0802E08D3304601F09FFE00218A
:103D600001F06EFE064645F00205FF2E0FD9AAF1BE
:103D70000100804503D345F00305D046BFE7009816
:103D8000310A826902F8081008F1010818E026B12A
:103D9000314624A0FFF7C0FE18B15F2645F00305A9
:103DA0000EE0A6F14100192802D849F0020907E007
:103DB000A6F16100192803D8203E49F00109B6B2E6
:103DC0000098816901F8086008F1010897E705216A
:103DD0000170BAF1080F03D14FEA89604FEA106908
:103DE000C9F38100032803D06FEA0901890701D1D3
:103DF00045F00205A90709D409F00301012901D101
:103E000045F01005012801D145F0080500988069AA
:103E1000C572002059E70000222A3A3C3E3F7C7FD1
:103E2000000000002B2C3B3D5B5D000010B50446FC
:103E30000420FFF71DFA0A484FF47A71047014FB4E
:103E400001F1012242804FF0E020026942F00202BB
:103E500002614161016941F00101016110BD000091
:103E60005400002070B5044605F044FC01280CD035
:103E7000094D6888844203D3B4FBF0F004F0BEFD22
:103E80006888B4FBF0F100FB11444FF47A70604392
:103E9000BDE8704000F002B85400002070B54FF04B
:103EA000E02500216C69094AAB6912785043AA6980
:103EB0009A42FCD002D2A3EB020302E0A4EB02067A
:103EC0003344194413468142F1D370BD540000209D
:103ED00070B50E460546002100F087FA88B9002427
:103EE0002969286802F024FC58B969690978E5292C
:103EF0000BD051B100240121284600F0A1F8002880
:103F0000EED0042800D1072070BD641CB442F2D169
:103F100070BD00002DE9F05F0446002100F065FA55
:103F200000287AD1FF254FF6FF70AB462084216927
:103F3000206802F0FDFB07007CD16669307848B14B
:103F4000F17AE52801F03F0169D00A0704D50F296D
:103F500065D105E004276DE00F2901D08DB34DE058
:103F6000E16979B3420606D596F80DB020F040001D
:103F7000E28805462284A84236D1727B5A4533D165
:103F800030788A4620F04000401EB14600EB8001A8
:103F900001EBC0064FF000080127284810F8081070
:103FA00001EB0900008877B101F078FD0746FF2E8C
:103FB0001AD23AF81600761C01F070FDB84213D1FF
:103FC00005E016E02FE0A0F57F41FF390CD108F1A4
:103FD0000108B8F10D0FE0D399F80000400606D5AE
:103FE0002FB13AF8160010B1FF25EDB21BE06D1E9F
:103FF000FBE7304603F08EFA58451BD0A069C17A22
:10400000C9070CD10B210022491E07D316F8012B3A
:1040100010F8013BD21AF7D001E00CE052B14FF694
:10402000FF70FF2520840021204600F009F80700DA
:104030003FF47DAF3846BDE8F09F0000DC9B0008F0
:104040002DE9F041C78804467F1C38040E46000C59
:104050002CD0206950B339075AD1401C2061E16847
:10406000206829B18278521E12EA171F04D04FE04F
:104070000089B8421AD94BE001F0E4FE0546012858
:1040800019D9681C30D020684169A9423AD86EB16C
:10409000E168FFF770FD05000BD0012D0BD0681C07
:1040A00022D0206803F09BFAF0B906E00420BDE8B6
:1040B000F0810720FBE70220F9E720684FF4007247
:1040C0000021303002F006F829462068FFF73EFD57
:1040D000216800264FF00108C8620CE080F80480D7
:1040E000206803F07CFA08B10120E0E72068C16A8B
:1040F000491C761CC16220688178B142EED8C16A41
:10410000891BC162E56029462068FFF71FFD206119
:10411000E78007F00F013022206802EB41110844CC
:1041200060610020C3E700002DE9F35FFF2504462E
:104130002E4604274FF6FF7A4FF0000B67E0206809
:1041400002F0F6FA070066D16269107878B1D17A88
:10415000E52801F03F0108D02E2806D0082908D014
:104160000023DDF804C0634505D0FF2540E00427A7
:1041700051E00123F5E70F2901D0B5BB3FE041062F
:1041800005D5567B20F04000E18805462184A842F1
:104190002CD1507BB04229D11078DFF8849000F008
:1041A0003F00401E00EB800101EBC0010020E769E9
:1041B0000123D44619F800809044B8F8008033B148
:1041C000FF2913D227F811804346491C01E0E0453E
:1041D0000CD1401C0D28EDD31078400603D5FF29E3
:1041E00004D227F811B06D1E01E00DE0FF25EDB2FD
:1041F00000212046FFF724FF070008D00BE01046FF
:1042000003F088F9B04208D0A4F820A005E02169A5
:10421000002994D10FB1C4F810B03846BDE8FC9F16
:10422000DC9B00082DE9FF5F04460C22D4E90676EA
:104230003946684601F046FF9DF80B00C00718D0CC
:104240000020F8720125E0612B4632466946384667
:1042500001F0B2FD2046FFF75DFE10B96D1C642D24
:10426000F2D3642D0BD004280AD19DF80B00F8720C
:10427000E6619DF80B0080070FD5002004E00720C1
:1042800004B0BDE8F09F401C36F810100029FAD1A8
:104290000D211930B0FBF1F500E00125294620463B
:1042A000FFF716FE06006BD16D1E50D0E088411B53
:1042B000204600F09AF8060062D1A06903F02AF9BE
:1042C0004FF6FF7A03902169206802F031FA060068
:1042D00056D16169D4F81C90039848730F20C872B6
:1042E000002008738876EEB2C876701E00EB80025C
:1042F00002EBC0030022DFF88CB001F1010801E0FD
:10430000504502D039F813005B1C1BF802C001F8BD
:104310000C001BF802704FEA102C07F808C000B917
:104320005046521C0D2AEBD3504502D039F81300E9
:1043300008B946F040060E7021680120087100217E
:104340002046FFF77DFE06001AD16D1EBBD1216904
:10435000206802F0EDF9060012D1202200216069E8
:1043600001F0B8FED4E905010B2201F0ABFEA06913
:104370006169C07A00F01800087321680120087193
:1043800030467DE7DC9B00082DE9F041018C0446B6
:10439000C688A1F57F40FF3800D13146204600F0A5
:1043A00024F805001ED1E5274FF001082169206897
:1043B00002F0BEF9050012D120220021606901F04F
:1043C00089FE60690770216881F80480E088B04246
:1043D00008D200212046FFF733FE0500E6D0042D69
:1043E00000D102252846BDE8F08170B5C180836800
:1043F0000D460446012B34D020684169994230D9DA
:1044000023B90178032904D1436A13B180780601E6
:1044100010E00189A94224D9406A11E001F012FD9F
:104420000346401C1BD0022B1BD3206840699842D6
:1044300017D9AD1B2068B5421946EFD2FFF786FBAE
:10444000E36070B100EB1510206105F00F01302220
:10445000206802EB411108446061002070BD01201A
:1044600070BD022070BD000010B510B1012803D14D
:1044700004E0FDF75BFD38B1012010BDFFF7C2F984
:1044800002494FF4C0400880002010BD14030020F2
:1044900010B514464FF4007318B101281CD0012048
:1044A00010BD39B1154A01290CD0022904D00329C5
:1044B00010D103E0002010BD2360FBE7B2F85000EC
:1044C0002080F7E7D2E912011A460023FBF761FFCB
:1044D0002060EFE7042010BD0029EBD0012908D0AF
:1044E000022904D00329F5D108201080E2E71380C7
:1044F000E0E7034800881060DCE700009803002034
:10450000140300202DE9F0411C0015460E4605D08D
:1045100030B101280DD00120BDE8F0810420FBE777
:10452000E2B229463046FEF76BF878B1FDF7FEFCA3
:10453000F6E74FF4007769023A463046FFF7A4F9F0
:10454000641E05F1010506F50076F4D10020E3E7CD
:10455000002070472DE9F0411C0015460E4605D09D
:1045600030B101280DD00120BDE8F0810420FBE727
:10457000E2B229463046FEF747FB78B1FDF7D6FC9C
:10458000F6E74FF4007769023A463046FFF7DEF966
:10459000641E05F1010506F50076F4D10020E3E77D
:1045A00070B5164D00244FF40C763146002002F011
:1045B0008BF945F8240018B1641CE4B2032CF4D341
:1045C0004FF40A763146002002F07EF90C4D314658
:1045D0002860002002F078F968604FF40071002034
:1045E00002F072F9A860032C06D1296821B169682C
:1045F00011B108B1002070BD012070BD0C6901200F
:104600000003002010B5044601F0AEF8002806D1E2
:10461000204604F05FFC002801D10021216010BD7C
:1046200010B5044604F056FC002801D10021216099
:1046300010BD2DE9F74F14468A46002269462046F0
:1046400001F03EFA25685FEA00084FD1D5E904077A
:10465000B91E884202D8CAF8000047E095F80090D9
:104660000024B9F1010F01D02E6A16E0022631466E
:10467000284601F0E7FB411C03D0012803D028B1F4
:1046800005E0012000E00220804628E0641C686903
:10469000761C8642EBD322E059B93146761C284677
:1046A00002F046F85FEA000819D105F130004FF436
:1046B0000071B9F1020F07D00278D0F8013042EA58
:1046C0000322120106D006E0028802B9641C801C95
:1046D000891E02E0641C001D091F7F1EDCD12C61B5
:1046E000687940F001006871CAF800404046BDE8B2
:1046F000FE8FF7B58AB017460D4600220AA9684614
:1047000001F0DEF9040036D1FDB1002631466846DD
:104710000296FFF76AFE04002DD101216846FFF7DB
:1047200003FD04000BD10B222846059901F0CAFCB9
:104730000B202E5418B1401E295C2029F9D0042CDE
:1047400001D014B117E02E700024A7B10098C16900
:1047500001F0EEFF04000ED10098007803280DD080
:10476000272000F13001009A31301044515C00687C
:1047700041EA002038600DB02046F0BD4320F0E74C
:104780002DE9FC4100259046074604464E1E0FE0E9
:1047900001AB01226946404600F0BFFD01980128A7
:1047A00008D19DF800006D1C04F8010B0A2801D007
:1047B000B542EDDB0020207015B13846BDE8FC8124
:1047C0000020FBE72DE9F84F0D46044604F082FB7C
:1047D0005FEA000A7ED1E07900287BD1666A4FF05B
:1047E000010904F12808002E64D0681C2AD0E06872
:1047F000A84200D20546A560002D48D02046691E7B
:10480000FFF792F96061226801461046FFF79EF9B2
:1048100000286ED021686D1E8A78521E02EA552249
:1048200015182089C005E8D0A269AA42E5D0A07970
:10483000400634D5487801234146FFF78BFE002817
:1048400071D128E056F804BB21690227C9B10025BF
:10485000BF1C009188466D1C206801F0F3FA0146E8
:10486000012846D9481C5ED008F101008142F1D0F0
:104870005F4502D820C6009801C62068406988427A
:10488000E5D8606A5F45076002D80020306097E095
:104890004FF0110A94E0A07920F04000A071206848
:1048A00001232A4640784146FFF72CFE002879D1A3
:1048B000A56185E0E068A84203D2A179890700D408
:1048C00005460027A068A76015B3226891784E02BC
:1048D00080B100E058E0691E401EB1FBF6F1B0FB6C
:1048E000F6F3994206D3711E8843A0602D1A6169C0
:1048F0000DE047E0216949B900211046FFF73BF977
:10490000014601283ED0481C4CD021616161D9B9D3
:1049100027E0A0798007206806D5FFF72CF9010071
:1049200005D1354612E03DE001F08CFA0146481C05
:1049300038D0012926D920684069884222D961618E
:10494000A068AD1B3044A060B542E2D8A0682844FE
:10495000A060E80505D02068FFF7F8F890B100EBFB
:1049600055272089C00522D0A269BA421FD0A0795C
:1049700040060FD52068012341464078FFF7EAFD45
:1049800080B903E00220E071BDE8F88FA07920F043
:104990004000A071206801233A4640784146FFF765
:1049A000B1FD18B184F807900120EDE7A761D4E9C3
:1049B0000201884204D9E060A07940F02000A07193
:1049C0005046E1E72DE9F14F90B001F096FA064626
:1049D000012210A9684601F073F8040078D14FF461
:1049E000007001F053F85FEA00090BD00CA8CDE984
:1049F00006096846109901F081F9040006D0042CDC
:104A000006D09AE0112011B0BDE8F08F082494E0A0
:104A100000210098FFF7AFF85FEA00084FF00004AC
:104A200003D0B8F1010F02D002E0072400E0022415
:104A3000B8F1FF3F01D014B165E0012463E00098B4
:104A400002F0CDFD04005ED141460098FFF77EF8EC
:104A5000009D074630354FF400720021284601F0D2
:104A600039FB0B222021284601F034FB2E242C7028
:104A70001020E872F0B20B90A875C6F307200A90D8
:104A8000E875C6F30740099028764FEA166B85F85B
:104A900019B04146284602F0D8FC05F1200020223A
:104AA0002946064601F00EFB85F821400098029940
:104AB0000078032804D10098406A884200D1002180
:104AC000304602F0C2FC00984FF0010A867813E0ED
:104AD00036E00098C76200997F1C81F804A0009816
:104AE00002F07DFD04000ED14FF400720021284633
:104AF00001F0F0FA761EF6B2002EEAD16846FFF712
:104B000091FB040004D04146009802F06DFC14E0D3
:104B100005981021C1720B9981750A99C17509997F
:104B2000017680F819B0414602F08FFC009981F8B7
:104B300004A0009802F0FBFC0446484600F0AAFFDF
:104B4000204660E72DE9F74F86B0154606A801F02C
:104B500037FA002803DA0B2009B0BDE8F08F079977
:104B6000012902D8691E0D4201D01320F4E7FB4948
:104B700051F820404CB100212170C0B20390FFF7E2
:104B800073FCC10703D00320E6E70C20E4E74007ED
:104B900001D50A20E0E704AA01210398FFF778FC79
:104BA00000287DD1049980297AD3079808B1002084
:104BB00000E03F208046A1EB080104917DB94FF44D
:104BC000FA60B1FBF0F20020E54B00E0401C33F846
:104BD00010509542FAD8E24A163232F81050680A5C
:104BE0005FEA000912D0B9F1800F01D98020814617
:104BF000B1FBF9F0012640F6F672904200D302268E
:104C00004FF6F672904203D3032620E00120EEE730
:104C1000032E1CD0012E22D04000001D00F2FF10F8
:104C2000470A01252020834608EB050A0AEB070006
:104C3000584400EB09020090A2EB0800884243D8D8
:104C400001AA03210398FFF723FC98B90DE040F275
:104C5000072202EB8000470A20250020E3E700EB53
:104C60004000401C4008C01CD8E7019810B1B0F5C6
:104C7000004F01D90120019000990144401E491EB6
:104C800081430098081A0190032E11D0074404981C
:104C9000411BCA1BA2EB0B02B2FBF9F1009100E031
:104CA000D7E0022E07D0032E0AD0012E10D014E038
:104CB00005448244EBE740F6F672914204D30CE0DF
:104CC0004FF6F670814201D20E2045E70C200AE033
:104CD000B0F5803F06D2012005E0B0F5803F01D25B
:104CE000042000E006200590079808B1F0203BE082
:104CF00004F130004FF400720021029001F0EAF953
:104D000004F5F7700121417081700022C27005998D
:104D10000171FE214171049B08EB030143F6C1635D
:104D2000B1FBF3F13F2343EA910C019180F806C0F7
:104D3000C171037242728272C272049901730A0ACB
:104D400042730A0C8273090EC173552084F82E0237
:104D5000AA2084F82F02DDE9021001230022FFF7C8
:104D6000F9FB002875D1F820303402904FF400721E
:104D70000021204601F0AEF90B227AA1204601F075
:104D8000A1F90021E1720220207384F80D90A5732F
:104D9000280AE07301202074032E0BD040026074B7
:104DA000000AA0740498B0F5803F05D2E074000AB0
:104DB00020750CE00020F2E784F82000020A84F855
:104DC0002120020C84F82220000E84F8230002988F
:104DD00060753F20207600206076FF21A176E07686
:104DE00084F81C804FEA182060774FEA1840A077BB
:104DF0004FEA1860E07701F080F8802129220190C5
:104E0000032E27D084F82700030A84F82830030CE7
:104E100084F82930000E84F82A00A775380AE07556
:104E200084F8241084F82620132251A104F12B00C9
:104E300001F048F9552084F8FE01AA2084F8FF010A
:104E40000123424621460398FFF784FB002889D1BD
:104E500033E082E084F84300030A84F84430030C12
:104E600084F84530000E84F8460084F82470380A2F
:104E700084F82500380C84F82600380E84F82700C2
:104E8000022084F82C00002084F82D0084F82E00E5
:104E900084F82F00012384F8303084F83100062391
:104EA00084F8323084F8330084F8401084F84220CB
:104EB000132234A104F14700BAE7032E06D10123DF
:104EC00008F1060221460398FFF744FB55464FF0D0
:104ED000000A4FF400720021204601F0FBF802980E
:104EE0000190032E12D0012E0ED06FF0FF0101436E
:104EF000019121700198000A60700198000CA07067
:104F00000198000EE07018E02349F0E760F0FF0020
:104F1000019020700198000A60700198000CA07048
:104F20000198000EE070FF2020716071A071E071A7
:104F300020726072A0720F20E0722A466D1C01235D
:104F400021460398FFF706FB38B94FF400720021A1
:104F5000204601F0BFF801202AE065E05C690120ED
:104F6000EA9B0008EBFE904D53444F53352E300022
:104F70004E4F204E414D45202020204641542020B8
:104F8000202020004E4F204E414D4520202020461D
:104F9000415433322020200000FFFF002A466D1CC0
:104FA000012321460398FFF7D5FAE8BB0198401C7E
:104FB0000190B842F2D30AF101005FEA000A88D0FA
:104FC000032E09D05F462A466D1C01232146039813
:104FD000FFF7C0FA40BB01E04F46F4E77F1EF2D175
:104FE000032E3CD15220207060706121A1704122BB
:104FF000E270722084F8E40184F8E50184F8E62187
:1050000084F8E7110098401E84F8E801010A84F84A
:10501000E911010C84F8EA11000E84F8EB0102207A
:1050200084F8EC01002000E021E084F8ED0184F830
:10503000EE0184F8EF01552084F8FE01AA2084F8DF
:10504000FF01012308F1010221460398FFF782FACC
:10505000012308F1070221460398FFF77BFA00229B
:1050600011460398FFF714FA00283FF47FAD0120A2
:1050700072E5000017B581B01446029800906846AA
:1050800000F09EFF002802DA0B2004B010BD0B4B8D
:10509000002253F8201001B10A700199002900D0B4
:1050A0000A7043F8201001D0012C01D00020ECE759
:1050B000002202A901A800F003FDE6E75C690120D7
:1050C0002DE9F74F8CB006000ED04FF0000902F02A
:1050D0001F0727F001020DA96846C6F8009000F0EE
:1050E000EFFC040004D095E009200FB0BDE8F08F7C
:1050F0004FF4007000F0CAFC5FEA00080AD009A86B
:10510000CDE9060868460D9900F0F8FD059D0400FC
:1051100002D003E01120E8E705B9062417F01C0FC0
:105120004CD054B1042C03D16846FFF77BF80446F9
:10513000059D47F0080754B152E0E87A10F0110FCE
:1051400001D007244CE0780701D5082448E038074F
:1051500042D500F0D2FEA873010AE973010C29744C
:10516000000E687485F80B9085F81C9085F81D90EA
:1051700085F81E9085F81F902946009800F03EFFA4
:1051800082460021284602F060F900990120BAF118
:10519000000F08711ED000985146D0F82CB002F0D4
:1051A00023F904001CD10099AAF10100C8605946F6
:1051B000009801F0BDFA04000AD011E084B9E87A41
:1051C000C10601D504240BE0B90701D5C007B8D149
:1051D000380701D547F020070098C06AC6E90705DF
:1051E000404600F057FCACB9B77186F807904F46BF
:1051F0002946009800F002FF3061287FD5F81D1085
:1052000040EA0120C6E90270B76177620098306019
:10521000C088B080204668E773B584B0040007D02A
:10522000002205A9684600F04BFC050003D02DE0E4
:10523000092006B070BD009820604FF4007000F0A7
:1052400025FC06000CD001A8C4E9060620460599F5
:1052500000F054FD0546304600F01CFC15B112E08C
:105260001120E6E7616931B1C87AC00612D500980D
:1052700000F0C4FEA06000980021C088A0802046F5
:10528000FFF7B3F80546042D04D00DB100202060CF
:105290002846CEE70525F9E700B595B00291002133
:1052A00003910491014602A801F0D2FF039800285F
:1052B0000DDB024601AB05A9029800F000FB30B9F6
:1052C00001990398884202D1049815B000BD4FF0AF
:1052D000FF30FAE710B596B004460020CDE9021081
:1052E000049003E002A8641C01F0B2FF21780029B9
:1052F000F8D1039800280DDB024601AB05A90298FE
:1053000000F0DDFA30B901990398884202D104987F
:1053100016B010BD4FF0FF30FAE72DE9F84F89467F
:1053200000219A4616460446196003F0D3FD002872
:1053300012D1E07900280FD1A079C0070BD0D4E9B1
:105340000210401A04F128014FF0010B009186422F
:1053500000D9064680E00720BDE8F88FA168C8059F
:1053600062D120688278521E02EA512212F0FF05B3
:1053700010D129B1626A2AB12046FEF7D5FB04E0BC
:10538000206902E0616900F05DFD022819D3411C2B
:1053900044D0606161692068FEF7D8FB88B100EBFA
:1053A0000508770A21D02068EA1981788A4200D955
:1053B0004F1B40783B4642464946FFF7A3F868BB7F
:1053C00002E00220E071C7E7A07940060BD5A16991
:1053D000A1EB0800B84206D209EB40204FF400725E
:1053E000009900F06FFE7D022CE0A269424519D0C1
:1053F000A07940060AD52068012300994078FFF77C
:10540000A9F858B9A07920F04000A07120680123C4
:10541000424640780099FFF775F818B184F807B054
:10542000012099E7C4F818802089C0F30800C0F56E
:105430000075B54200D9354601192A46484628313B
:1054400000F040FEA068A9442844A060DAF80000FB
:105450004119761BCAF80010002E7FF47FAF0020A0
:105460007AE72DE9FE438846054603F033FD040044
:105470002FD1B8F1000F12D04FF4007000F006FBEE
:10548000060012D06846C5E9060600212846FEF748
:105490004BFE0027044604280AD054B116E0002130
:1054A0002846FEF7A2FF044613E01120BDE8FE8364
:1054B0002F614146284600F022FD00212846FEF7D4
:1054C000BFFD0446042801D100242F61304600F0BE
:1054D000E1FA2046EAE773B59CB001221CA904A8B2
:1054E00000F0EEFA040074D104980D904FF40070AF
:1054F00000F0CCFA050009D06846CDE90A0504A8F9
:105500001C9900F0FBFB040003D071E011201EB0D9
:1055100070BD0998C0B100F10B01152216A800F06A
:10552000D1FD242204A90DA800F0CCFD1DA800F097
:1055300047FD00280ADB0DA81D9900F0DFFB0400E1
:1055400006D0042C06D053E0042451E00B244FE095
:1055500008244DE00DA8FEF765FE040048D1129C1A
:1055600013220DF15A0104F10D0000F0ABFD9DF87E
:105570005800012640F02000E072049806710F994F
:10558000069888422BD0E07AC00628D52146049898
:1055900000F034FD01460498FEF7D8FA010008D067
:1055A000049801F0C5F80400049800F1500002D0FE
:1055B0001EE002241CE041782E2910D104990978BC
:1055C000032907D1049A0F99526A914202D100210E
:1055D00001E010E00F9901F038FF0498067104A86B
:1055E000FEF7D2FE040003D1049801F0A0FF0446A8
:1055F000284600F04FFA204689E700002DE9F143E4
:105600008CB001220CA9684600F05AFA002845D156
:1056100081468DF824904D460C9800E06D1C415D4C
:105620000029FBD100E06D1E9DB3411911F8011C4A
:105630002029F8D0002426460DF124080C99885D15
:10564000761CA0F181027D2A10D80A2C0DD2AE4220
:105650000BD2895DA1F140023E2A02D9403A7E2A4E
:1056600003D841EA0020761C00E00020012100F070
:10567000E7F900F013FA002100F0E2F907000CD07E
:10568000014635A0FEF748FA38B9FF2F02D90A20A3
:1056900001E018E00B20A04203D806200DB0BDE8C1
:1056A000F083FF2F03D9390A08F80410641C404620
:1056B00008F80470641CAE42C0D320210B2C02D227
:1056C0000155641CFAE700216846CDF80890FEF702
:1056D0008CFE0028E2D101216846FEF725FD012459
:1056E00038B30428DAD19DF8241000200029D5D041
:1056F00001216846FEF7ECFB0028CFD120220021D3
:10570000059800F0E7FC0B2209A9059800F0DAFCE7
:1057100005990820C87200F0F0FB05998875059A74
:10572000010AD175059A010C000E1176059948768B
:105730000BE09DF8240028B10B2209A9059800F080
:10574000C1FCE8E70599E52008700098047100980D
:1057500001F0EDFEA2E70000222A2B2C2E3A3B3C62
:105760003D3E3F5B5D7C7F0070B5044603F0B2FBBD
:1057700000280ED1A1798A060BD548060ED52068DF
:10578000012304F128014078A269FEF7E3FE08B185
:10579000012070BDA07920F04000A071E16920686F
:1057A00000F0C6FF0028F4D1256AE87A40F0200016
:1057B000E872207B2877A089000A6877E068000CEF
:1057C000A877E068000EE8772846216901F03DFEE1
:1057D00000F093FBA875010AE975010C2976000E0B
:1057E00068760020A874E874A07920F02000A071E9
:1057F0002168012008712068BDE8704001F097BE63
:10580000F1B596B0012216A9684600F059F90400D6
:1058100053D14FF4007000F039F9070009D012A8F5
:10582000CDE906076846169900F068FA040003D02F
:1058300040E0112017B0F0BD059E56B1F07AC007C8
:1058400000D007243146009800F0D8FB054614B17B
:1058500030E00624F6E7F07AC0061BD5022D01D20F
:10586000022427E02422694609A800F02BFC02212B
:1058700009A80B95FEF7B9FD04001BD1002109A86A
:10588000FEF752FC040003D0042C03D014B111E045
:1058900007240FE06846FEF777FD04000AD12DB11A
:1058A0002946009801F0A0FD040003D1009801F002
:1058B0003EFE0446384600F0EDF82046BAE72DE9F2
:1058C000F84F894600219A4616460446196003F0AF
:1058D00001FB002806D1E079002803D1A0798007D8
:1058E00002D40720BDE8F88FA06804F128018219CE
:1058F0004FF0010B0091824273D392E0A168C8057A
:1059000073D122689078401E00EA512010F0FF0504
:1059100018D129B1606A38B12046FEF705F907E0D1
:10592000206938B9002100E061691046FEF723F9CB
:10593000002879D001282BD0411C4ED0606121690C
:1059400001B92061A07940060BD520680123A26926
:1059500040780099FEF7FEFD78BBA07920F040006A
:10596000A07161692068FEF7F1F888B100EB0508C5
:10597000770A23D02068EA1981788A4200D94F1B20
:1059800040783B4642464946FEF7E4FDA8B902E0AE
:105990000220E071A6E7A169A1EB0800B8420AD293
:1059A00009EB40214FF40072009800F08BFBA079C6
:1059B00020F04000A0717D0229E00EE0A169414580
:1059C00011D0D4E9020188420DD220680123424659
:1059D00040780099FEF796FD28B184F807B00120C1
:1059E00080E721E001E0C4F818802089C0F30800B6
:1059F000C0F50075B54200D9354620442A464946CF
:105A0000283000F05FFBA07940F04000A071A06852
:105A1000A9442844A060DAF800004119761BCAF8AE
:105A20000010002E7FF46AAFD4E90201884200D949
:105A3000E060A07940F02000A071002052E7000053
:105A400070B580281BD345F2205409B10D4D00E0FC
:105A50000D4D00231022E11A01EBD17103EB61011E
:105A600035F82160864206D001D20B4600E00C4694
:105A7000521EF0D104E01AB105EB8100408870BDE0
:105A8000002070BD9AF00108169C00080146002015
:105A900000F01ABF0146002000F00ABF0021064BAB
:105AA00000E0491C33F81120002A04D08242F8D1CA
:105AB000024830F8110070471E450308FE460308EF
:105AC0002DE9FF474FF000090746C0F80090164641
:105AD000084600F075FA050003D50B2004B0BDE8B8
