:020000040800F2
:108000004876012051830008DF9700080796000892
:1080100055970008498B0008F9C8000800000000C7
:10802000000000000000000000000000998200082D
:108030004D90000800000000ED82000825C40008F3
:108040006B8300086B8300086B83000829AB000872
:108050006B8300086B8300086B8300086B83000848
:108060006B8300086B8300086B8300086B83000838
:108070006B8300086B8300086B8300086B83000828
:108080006B8300086B8300086B8300086B83000818
:108090006B8300086B8300086B8300086B83000808
:1080A0006B8300086B8300086B8300086B830008F8
:1080B0006B83000895C4000825C500086B83000881
:1080C0006B8300086B8300086B8300086B830008D8
:1080D0006B8300089DC600086B8300086B83000853
:1080E0006B8300086B8300086B8300086B830008B8
:1080F0006B8300086B8300086B8300086B830008A8
:108100006B83000851AD00086B8300086B83000887
:108110006B8300086B8300086B8300086B83000887
:108120006B8300086B8300086B8300086B83000877
:108130006B8300086B8300086B8300086B83000867
:108140006B8300086B8300086B8300086B83000857
:10815000718D00086B830008B58D00086B830008E3
:108160006B8300086B8300086B8300086B83000837
:108170006B8300086B8300086B8300086B83000827
:108180006B8300086B83000800F002F800F06DF8C4
:108190000AA090E8000C82448344AAF10107DA4562
:1081A00001D100F062F8AFF2090EBAE80F0013F047
:1081B000010F18BFFB1A43F001031847CCA00300BE
:1081C000ECA003000A444FF0000C10F8013B13F040
:1081D000070408BF10F8014B1D1108BF10F8015B20
:1081E000641E05D010F8016B641E01F8016BF9D113
:1081F00013F0080F1EBF10F8014BAD1C0C1B09D16A
:108200006D1E58BF01F801CBFAD505E014F8016BDB
:1082100001F8016B6D1EF9D59142D6D3704700006D
:108220000023002400250026103A28BF78C1FBD87F
:10823000520728BF30C148BF0B607047642900F067
:108240002981752900F02681782900F05D81632954
:1082500000F02884732900F02D84002070471FB59A
:108260000BF028FB1FBD10B510BD00F03DFC114602
:10827000FFF7F5FF07F07EFA00F05BFC03B4FFF7B1
:10828000F2FF03BC04F0D7FC30BF72B6704762B691
:10829000704780F3088870472A4B19680868B0E86F
:1082A000F04F80F30988BFF36F8F4FF0000080F329
:1082B000118870470000000006480068006880F3DD
:1082C000088862B661B6BFF34F8FBFF36F8F00DFD0
:1082D00000BF00BF08ED00E0DFF80C00016841F4CA
:1082E00070010160704700BF88ED00E0EFF3098086
:1082F000BFF36F8F134B1A681EF0100F08BF20EDED
:10830000108A20E9F04F106008B44FF0500080F35D
:108310001188BFF34F8FBFF36F8F0AF075F94FF0DD
:10832000000080F3118808BC19680868B0E8F04FB5
:108330001EF0100F08BFB0EC108A80F30988BFF35D
:108340006F8F70477C020020EFF3058070470000BC
:108350000948804709480047FEE7FEE7FEE7FEE7D9
:10836000FEE7FEE7FEE7FEE7FEE7FEE70448054915
:10837000054A064B7047000039C40008898100088F
:10838000487001204876012048720120487201207F
:10839000704710B54C1084EA530404D54042C1F133
:1083A000000138BF491E1B4204D55242C3F10003ED
:1083B00038BF5B1E00F083FA14F0804F04D04042B7
:1083C000C1F1000138BF491E14F0004F04D05242E1
:1083D000C3F1000338BF5B1E10BD00000FB4044999
:1083E00010B503AA029800F069FB10BC5DF814FBFD
:1083F0005C00002070B5044685690068C10601D59F
:10840000302600E02026C00707D070BDD4E9012146
:1084100030469047206A401C20626D1EF6D570BD24
:1084200070B5044685690078C00707D170BDD4E9EE
:10843000012120209047206A401C20626D1EF6D545
:1084400070BD70B50C460546012A05D02878800617
:1084500000D5EA69002302E0012305E05B1C93429A
:1084600002D2E05C0028F9D1A869E618C01AA86118
:10847000286A184428622846FFF7BCFF04E0D5E9C3
:10848000012114F8010B9047B442F8D32846FFF7B6
:10849000C7FF70BD2DE9F04106460024106875291C
:1084A000314615A510D0AFF30080002802DA404213
:1084B00012A507E031688A0701D511A502E0490736
:1084C00004D510A5012401E0AFF3008000210A23A8
:1084D00006F1240707E0B0FBF3F203FB1200303093
:1084E00078541046491C0028F5D123462A463046C8
:1084F000BDE8F04100F05ABA000000002D00000075
:108500002B0000002000000070B504460D462146F7
:108510001068AFF300802188090502D50F4A7A441C
:1085200002E00E4A7A440E32002104F1240305E0F1
:1085300000F00F060009965D5E54491C0028F7D133
:1085400020780023000704D5702D02D009B1022342
:1085500011322046BDE8704000F028BA2A9A030084
:108560002DE9F05F894604464FF0000ADFF874B148
:10857000FB44C0F820A02046E1688847002874D05A
:10858000252806D0D4E901219047206A401C2062AA
:10859000F1E700265F462046E16888472028054627
:1085A00007DB312D05D2781910F8200C08B10643ED
:1085B000F1E7B00701D526F00406C4F81CA0002797
:1085C000C4F818A02A2D09D0284604F02DFB38B392
:1085D00004EB8708303DC8F8185019E059F8041B1F
:1085E000204604EB87029161E1688847012F054628
:1085F00018D1E069002820DA26F020061DE0D8F81E
:10860000180000EB800005EB40003038C8F8180077
:108610002046E1688847054604F006FB0028EED1B5
:10862000012F0AD02E2D08D12046E16888477F1CF3
:108630000546022F46F02006C4DBA069002803DAB5
:10864000404246F00106A061F00701D026F0100676
:108650006C2D0BD0682D09D04C2D39D06A2D35D01A
:10866000742D35D07A2D33D016E038E0E1682F46EE
:1086700020468847B842054609D16C2F26D04FF4D2
:108680008060E168064320468847054604E06C2F79
:108690001AD04FF4807006430DB3A5F1410019289C
:1086A00002D8203546F400664A4629462046266010
:1086B0004E46FFF7C3FD80B101280BD0F61D26F012
:1086C000070000F1080956E74020E4E78020D8E7DA
:1086D0000020D6E706F104094DE7284652E7206A54
:1086E000BDE8F09F009A030010B5431C02E010F8AB
:1086F000011B71B18107FAD14FF0013202C88C1A07
:108700008C4314EAC211F9D0C01A0A0603D0C01E65
:1087100010BDC01A10BD0A0401D0801E10BD090290
:10872000FCD0401E10BD032A40F2308010F0030C34
:1087300000F0158011F8013BBCF1020F624498BFB4
:1087400011F801CB00F8013B38BF11F8013BA2F151
:10875000040298BF00F801CB38BF00F8013B11F0CC
:10876000030300F02580083AC0F0088051F8043B6C
:10877000083A51F804CBA0E80810F5E7121D5CBFD9
:1087800051F8043B40F8043BAFF30080D20724BF0C
:1087900011F8013B11F801CB48BF11F8012B24BFA0
:1087A00000F8013B00F801CB48BF00F8012B7047EF
:1087B00010B5203AC0F00B80B1E81850203AA0E87C
:1087C0001850B1E81850A0E81850BFF4F5AF5FEAB0
:1087D000027C24BFB1E81850A0E8185044BF18C963
:1087E00018C0BDE810405FEA827C24BF51F8043B0A
:1087F00040F8043B08BF7047D20728BF31F8023B5E
:1088000048BF11F8012B28BF20F8023B48BF00F8F1
:10881000012B704702F0FF0343EA032242EA0242BF
:1088200000F002B84FF000020429C0F0128010F0EE
:10883000030C00F01B80CCF1040CBCF1020F18BF3C
:1088400000F8012BA8BF20F8022BA1EB0C0100F0CF
:108850000DB85FEAC17C24BF00F8012B00F8012BA2
:1088600048BF00F8012B70474FF0000200B51346D7
:1088700094469646203922BFA0E80C50A0E80C5040
:10888000B1F12001BFF4F7AF090728BFA0E80C50F1
:1088900048BF0CC05DF804EB890028BF40F8042BEA
:1088A00008BF704748BF20F8022B11F0804F18BF57
:1088B00000F8012B7047704770477047704753EAC4
:1088C000020C00F069802DE9F04B4FF00006002B00
:1088D0001FBFB3FA83F503FA05F424FA05F65E40E8
:1088E00012BF1643B2FA82F502FA05F4C5F120056B
:1088F0001EBF22FA05FC44EA0C04203556EA044C5B
:108900004FEA144418BF641C4FF000084FF00009F0
:10891000904271EB030C39D3002919BFB1FA81F7EA
:1089200001FA07F6B0FA80F700FA07F6C7F1200758
:108930001EBF20FA07FC46EA0C062037B6FBF4FC03
:10894000A7EB0507103F07F01F0BCBF120060CFA31
:108950000BFB2CFA06F644BFB3460026202FA4BF1B
:108960005E464FF0000B5BEA060C08BF4FF0010BB0
:1089700019EB0B09ABFB027C48EB0608C01B06FB9E
:1089800002CC0BFB03CC71EB0C01C1E70B4602469A
:1089900041464846BDE8F08B13B54FF000004FF05C
:1089A0000001AFF30080BDE81C4070472DE9F0479F
:1089B0000D4699469246044600F12408016888064F
:1089C00004D5E06921F01001216000E00120A842F7
:1089D00001DD471B00E00027A1697A1902EB0900BD
:1089E000081AA0612078C00602D42046FFF702FDD5
:1089F000002608E0D4E901211AF806009047206A11
:108A0000401C761C20624E45F4DB2078C0060AD557
:108A10002046FFF7EFFC06E0D4E901213020904723
:108A2000206A401C2062381EA7F10107F4DC07E031
:108A3000D4E9012118F805009047206A401C206203
:108A4000281EA5F10105F3DC2046FFF7E9FC20789C
:108A5000000602D50220BDE8F0870120FBE70000F8
:108A600001694A1C02610878704700B58FB0CDE9F2
:108A700001310021059105497944CDE903101146E2
:108A80006846FFF76DFD0FB000BD0000E5FFFFFF7A
:108A900010B5436913B1AFF3008001E0FFF7D1FCDB
:108AA000012010BD127800F124010A7000224A70E2
:108AB0000122EDE711684FF0FF32E9E7074B70B58F
:108AC0000D467B44FFF7D1FF0446284600F008F826
:108AD00010B14FF0FF3070BD204670BD77680000C8
:108AE000007B00F080007047754600F029F8AE4624
:108AF00005006946534620F00700854618B020B5AA
:108B0000FFF734FCBDE820404FF000064FF00007AF
:108B10004FF000084FF0000B21F00701AC46ACE825
:108B2000C009ACE8C009ACE8C009ACE8C0098D4692
:108B300070470446AFF300802046FFF79FFB00001C
:108B400000487047E86F0120FEE770B500254FF43C
:108B5000803405E0802002F0E9F808B144B101E07A
:108B6000641EF7D240F2FF5002F0B8F8284670BDFC
:108B7000032070BD10B504461348016811F0450F7D
:108B8000FBD0042002F0D2F820B1042002F0A6F8B5
:108B9000032010BD012002F0C9F820B1012002F02D
:108BA0009DF8012010BD084824380068A04201D07B
:108BB000102010BD40F2FF5002F090F8024820381B
:108BC000006800F0080010BD342C014010B50024EE
:108BD0004FF480310E4809E0026812F0450F05D0CD
:108BE00009B1500705D5032404200CE0491EF3D237
:108BF000F7E7012002F09AF818B10124204602F0AC
:108C00006DF840F2FF5002F069F8204610BD0000F8
:108C1000342C014010B50A49086810F0450FFBD00C
:108C2000042002F083F820B1042002F057F803205A
:108C300010BD40F2FF5002F051F8002010BD0000BE
:108C4000342C014070B506461C480D4600240268CD
:108C500012F0450FFBD0042002F068F820B1042088
:108C600002F03CF8032070BD012002F05FF820B153
:108C7000012002F033F8012070BD1048243800684C
:108C8000B04212D140F2FF5002F028F80B482038D1
:108C9000026812F4604F03D0900404D5132070BD15
:108CA000100C288007E0500401D5102070BD10047E
:108CB00001D50F2070BD204670BD0000342C01404E
:108CC00010B500244FF480320B4809E0016811F020
:108CD000450F05D00AB1480705D50324042006E056
:108CE000521EF3D2F7E7480603D50024402001F0D6
:108CF000F5FF204610BD0000342C0140034800223F
:108D0000026042605321312003F0DEBB28000020C6
:108D100010B5094C0221204600F071FC10212046BC
:108D200000F06DFC2021204600F06BFC0121204664
:108D300000F067FC002010BD0008024070B50B4C2D
:108D400005460221204603F0DFFA0028F9D0294623
:108D5000204603F0E2FA0121204603F0D5FA00286C
:108D6000F9D0204603F0D7FAC0B270BD00380040F9
:108D700070B50D4D0D4C2946204600F0FBF801283A
:108D800003D12946204600F02FF8094D20462946F8
:108D900000F0F0F8012805D129462046BDE87040D2
:108DA00000F022B870BD00000088002088640240F6
:108DB0000044002070B5094C094D2146284600F0BA
:108DC000D9F8012808D107490020487021462846D3
:108DD000BDE8704000F008B870BD000000800028B9
:108DE000B864024052000020074A904201D207486E
:108DF00001E005481038064A8B0001EA020101D55E
:108E0000C16070478160704710640240006002409A
:108E10007D0F7D0F0029016802D041F0010101E0C2
:108E200021F00101016070472DE9F043016821F054
:108E3000010101600021016041608160C160016148
:108E4000212141613C493C4A3D251039904202D1E3
:108E50008D60BDE8F083384A4FF474661832904252
:108E600001D18E60F5E7344A4FF4741730329042E6
:108E700001D18F60EDE7304A4FF0746C4832904278
:108E800002D1C1F808C0E4E72B4B2C4A603398426A
:108E900001D1CA60DDE7284C294B7834A04201D1CA
:108EA000CB60D6E7DFF89080264C08F1900840456B
:108EB00001D1CC60CDE7DFF880804FF03D5908F15B
:108EC000A808404502D1C1F80C90C2E71E49DFF85E
:108ED00078800839404501D10D60BAE71A4D183540
:108EE000A84201D10E60B4E7174D3035A84201D138
:108EF0000F60AEE7144D4835A84202D1C1F800C05A
:108F0000A7E7114D10496035091FA84201D10A6039
:108F10009FE70D4A7832904201D10B6099E70A4AE7
:108F20009032904201D10C6093E7074AA8329042F8
:108F30008FD1C1F800908CE7106002403D00002006
:108F4000400F002000003D2010640240002901680D
:108F500002D041F0200101E021F0200101607047C2
:108F6000014600200968C90700D001207047406809
:108F700080B2704730B5104A0024904201D20F4AA7
:108F800001E00D4A103A0E4B194205D01E2303EAA8
:108F9000D12503682B4002E0406900F0800388007F
:108FA00001D5506800E01068064A1040084201D020
:108FB00003B10124204630BD10640240006002402D
:108FC0003C0F3C0F7D0F7D0F0B0607D5436912B197
:108FD00043F0800301E023F080034361802908D03F
:108FE000002A026801F01E0101D00A4300E08A4312
:108FF0000260704730B50368124ACC6813400A68B3
:109000002243D1E905452C432243CC6922430C6A13
:1090100022434C6A22438C6A22434C6B22438C6B62
:1090200022431A430260426922F00703D1E90B246C
:1090300022431A4342610A6942604A688260896831
:10904000C16030BD3F801CF04160704770472DE922
:10905000F047064632254FF49679242000F006F9B1
:109060000027002407FB05F806E0311918F8010075
:1090700000F012F9641CA4B2AC42F6D37F1CBFB25C
:109080004F45EED3262000F0F1F800270EE0002433
:1090900007FB05F806E0311918F8010000F0FCF8AC
:1090A000641CA4B2AC42F6D37F1CBFB24F45EED3D2
:1090B000BDE8F04700F03DB910B500F0BBF800F096
:1090C000A9F8122000F0D2F800F0A4F8FF2000F078
:1090D000CDF8212000F0CAF8402000F0DDF8002093
:1090E00000F0DAF83C2000F0C1F8052000F0D4F8D8
:1090F000112000F0BBF8032000F0CEF8002140F270
:109100002B1340F28F12084600F0F1F800210846B8
:1091100000F0D8F8BDE8104000F07CB82DE9F04729
:109120001546814601F0070203F0070C02EB0C061E
:10913000CC08D808089F082E01D1624506D82EB168
:10914000591A490702D0590700D0401C011B7A1B4D
:109150004A43A0F1010896B291207F1E00F086F8E4
:10916000002000F099F8002000F096F83C2000F074
:109170007DF8802000F090F8112000F077F80320AF
:1091800000F08AF8442000F071F8E0B200F084F8B2
:1091900008F0FF0000F080F8452000F067F8E8B222
:1091A00000F07AF8C5F30020804600F075F8F8B2B8
:1091B00000F072F8C7F3002000F06EF84E2000F0C7
:1091C00055F8E0B200F068F84F2000F04FF8E8B230
:1091D00000F062F8404600F05FF800F01BF8242031
:1091E00000F044F8002405E019F8040000F054F8F9
:1091F000641CA4B2B442F7D3222000F037F8FF2059
:1092000000F04AF8202000F031F8BDE8F04700F007
:1092100001B8000010B5064C02E00A2003F080FF00
:109220000421204600F0E4F90128F6D010BD00002A
:109230000008024010B50C4C0121204600F0E1F975
:10924000642003F06DFF0121204600F0D8F90220D0
:1092500003F066FF0121204600F0D3F9BDE810407D
:10926000642003F05DBF00000008024070B5094CA7
:1092700005460221204600F0C2F91021204600F0E8
:10928000BEF92846FFF75AFD2046BDE87040102180
:1092900000F0B7B90008024070B5094C054602213C
:1092A000204600F0AEF91021204600F0A8F928462B
:1092B000FFF744FD2046BDE87040102100F0A1B941
:1092C0000008024070B505460C464E20FFF7CEFF61
:1092D000C5F3C700FFF7E0FF4F20FFF7C7FFE0B27D
:1092E000FFF7DAFF200ABDE87040FFF7D5BF2DE990
:1092F000F04106461C4617460D464420FFF7B6FFD0
:10930000C6F3C700FFF7C8FFC7F3C700FFF7C4FFE6
:109310004520FFF7ABFFE8B2FFF7BEFF280AFFF7D3
:10932000BBFFE0B2FFF7B8FF200ABDE8F041FFF74E
:10933000B3BF10B52220FFF799FFF720FFF7ACFF6E
:109340002020FFF793FFBDE81040FFF763BF000048
:109350007CB50121042001F027F933200090012081
:109360008DF8040000248DF8064003208DF80500D8
:10937000084D8DF807406946284600F0EDF80420B6
:1093800000908DF804408DF807406946284600F0AB
:10939000E3F87CBD00080240014908607047000006
:1093A000143C014030B51A4A8379016853B31368FD
:1093B0008B431360111D0B680468A3430B60017994
:1093C00011440B68046823430B60114B0833196880
:1093D0000468A14319601C1D21680568A943216028
:1093E0004179102905D011440A68006802430A60D7
:1093F00030BD196802681143196021680068014393
:10940000216030BD0079104402688A43026030BD9B
:10941000003C01402DE9FC5F00244C4F00944FF4C8
:10942000806801944025C7F81080C7E902540E46B1
:109430004FF0080B1021C7E900B1A146384601F0F2
:10944000BBFC1020FFF796FB002853D14048AA46EA
:109450004D460089000438603720C7E9010AC7E992
:109460000398384601F0A8FC3720FFF783FB00285B
:1094700040D1411E07F11400C0E9001B302181607A
:109480000221C0E903150121416101F037FC3320BD
:10949000C7F808A0C7E90050C7E90358384601F0EB
:1094A0008BFC3320FFF766FB050023D1DFF8A49087
:1094B000DFF8A0804FF4001B6F46A9F14C0940F281
:1094C0002A6AD9F8000010EA0A0F0BD1584601F0B9
:1094D0002DFC0028F5D0D8F8000047F82400641CC3
:1094E000022CEED3082001F021FC28B1082001F065
:1094F000F5FB0420BDE8FC9F022001F017FC20B121
:10950000022001F0EBFB0220F4E7202001F00EFC2A
:1095100020B1202001F0E2FB0620EBE74FF40074BD
:10952000204601F003FC20B1204601F0D7FB0720C4
:10953000E0E740F2FF5001F0D1FB009800BA706004
:10954000019800BA30602846D4E70000600300208C
:109550003C000020802C0140F0B5002201274FF094
:10956000030C0B6807FA02F52B40AB422CD10668BE
:1095700053000CFA03F4A64306600E79D0F800E01D
:109580009E4046EA0E0606600E79012E01D0022E9C
:1095900012D18668A64386604E79D0F808E09E40D6
:1095A00046EA0E0686604668AE43466045688E7998
:1095B0009640B6B235434560C568A543C560CC79D1
:1095C0009C40C3681C43C460521C102AC9D3F0BD20
:1095D0004B07DB0E9A40C90810B500EB8100016A09
:1095E0000F249C40A1430162016A1143016210BD36
:1095F0000246002012690A4200D0012070474183D0
:10960000704701837047FEE71CB5044600212048DF
:1096100000910191008902041E4802600D224260FF
:109620004022C0E902211101016101F0C5FB1A4984
:1096300008680190024601E00A68019212F0450FA5
:10964000FAD0012001F072FB20B1012001F046FBAD
:1096500001201CBD042001F069FB20B1042001F0B1
:109660003DFB03201CBD0C48243800680D2801D0A8
:1096700010201CBD40F2FF5001F030FB064820389E
:1096800000680090C0F34320207000201CBD000043
:109690003C00002060030020342C01401CB5012157
:1096A000112000F081FF1C20009000208DF80400A4
:1096B00003208DF8050001248DF80740694606480F
:1096C000FFF74AFF02208DF807000094694603481F
:1096D000FFF742FF1CBD00000010024000000240E6
:1096E0000B4C4FF0FF352823DC226E21A02005F023
:1096F00073FF00232A461946206809F0C5F801289F
:10970000F1D12823DC226E21A02005F065FFEAE7D5
:10971000000000207CB50121202000F045FF012041
:109720008DF8040000228DF8062003218DF8051025
:10973000074D4FF4C0648DF8070000946946284631
:10974000FFF70AFF21462846FFF75BFF7CBD0000BC
:1097500000140240FEE73EB5012141F6FF74080700
:1097600000F02EFF012000F077F8002001F0D4F87F
:1097700045F25005A8422ED0012000F0B3FF04E0CE
:10978000641CA4B20A2003F0CBFC412000F090FF3F
:109790000028F5D00CB34FF4807000F0B7FF012023
:1097A00000F0AEFF7F200190FF200290002000908B
:1097B000684601F089F8002338221521132001F0B2
:1097C0006DF9032310220B21182001F059F92946C5
:1097D000002001F033FA00203EBD01203EBD70475D
:1097E00030B50F23C27801780125FAB1144A126806
:1097F00001F1E02102F4E062C2F5E062C2F3072267
:10980000C2F10404D3404278A24084781C4014433F
:10981000220181F80024007800F01F018D404009EA
:10982000800000F1E020C0F8005130BD01F01F00C1
:1098300085404809800000F1E020C0F8805130BD2B
:109840000CED00E00249084302490860704700003F
:109850000000FA050CED00E00149086270470000C5
:1098600000000E4230B5274BD98A02290AD00429BC
:109870001CD0062901D0072917D140EA0010002189
:10988000C4B23AE00021C4B20CE0002005E001FBC4
:1098900002021D68401C80B2AC545A8A8242F6D83B
:1098A000491C89B2988A8842EFD830BD820142EAC9
:1098B0000012002142EA80020243D4B20CE00020F0
:1098C00005E001FB02021D68401C80B2AC545A8ABC
:1098D0008242F6D8491C89B2988A8842EFD830BDB6
:1098E000002005E001FB02021D68401C80B2AC5460
:1098F0005A8A8242F6D8491C89B2988A8842EFD89F
:1099000030BD00008869012030B40C460146154680
:10991000500700D0012000EBD50010FB05F0C2B2CB
:1099200008784B78812809D3402B07D3FF2B05D02B
:10993000FF2803D07F2B0CD2403B0BE000231846BE
:1099400003E05B1C04F8010BDBB29342F9D330BC9B
:109950007047413B8138D9B2C0B2C0EB401303EB32
:10996000801001EB4000504309490C2D0AD0102D06
:109970000BD0182DEBD1D1F819100144204630BC82
:1099800003F040B8D1F80910F7E7D1F81110F4E767
:10999000A069012070B50D4C049E00252060218136
:1099A0006281A6810220E0824E074FEAD10000D0FA
:1099B000401C6082A282E381258223B1B42B02D0B5
:1099C000A280E18070BDA180E28070BD8869012025
:1099D000014908607047000088690120F0B43C4EDE
:1099E000B388834234D3F3888B4231D33446F3892E
:1099F00025896489CBB15A2B1AD0B42B1CD0B3F56E
:109A0000877F42D10B46201A401E80B2318AD9B1DD
:109A1000012916D0022904D0032936D1E91A491E9A
:109A20008BB2201A401E80B20EE003460846EDE7D6
:109A3000691A491E8BB2E9E7281A401E83B2601AE0
:109A4000E2E7E91A491E8BB29D4201D3844203D258
:109A5000F0BC20A0FEF7C2BC1D49F58A4C8A0968FB
:109A6000022D14D0042D23D0062D01D0072D0CD1AA
:109A7000444304EB5300DB075B0FF025DD400C5C37
:109A80001201AC43DA4022430A54F0BC704744430D
:109A900004EBD3008025002A0C5C03F0070225FAB2
:109AA00002F502D025430D54EFE7AC430C54ECE72C
:109AB0004443950704EB93009A070C5C520FC023B4
:109AC000D3409C432B0ED34023430B54DDE70000CF
:109AD0008869012044656275673A20457863656549
:109AE00064696E6720646973706C617920626F7558
:109AF0006E6461726965730D0A0000002DE9F04F14
:109B000006462DED068B85B017460D461846DDF846
:109B10005890DDF86080149C09F0BAFD9FEDB58B7C
:109B200053EC182B09F0C8FD9FEDB49B53EC192B97
:109B300009F056FC09F022FC0AEE100A204609F052
:109B4000A7FD53EC182B09F0B7FD53EC192B09F0C6
:109B500047FC09F013FC09EE100A9FEDAA8AB0EE4B
:109B60004A0A03F069F8F0EE400A00EE107AB8EE07
:109B7000400A20EE800ABDEEC00A10EE100AB0EED8
:109B80004A0A304480B2049003F092F8F0EE400AA2
:109B900000EE107A7AEE088AB8EE400AF0EE689A83
:109BA00020EE800ABDEEC00A10EE100A284484B2EE
:109BB00032E0B0EE680A03F03FF8F0EE400A00EE43
:109BC000107AB8EE400A20EE800ABDEEC00A10EE10
:109BD000100AB0EE680A30441FFA80FA03F068F801
:109BE000F0EE400A00EE107ACDE90098B8EE400A97
:109BF0005246214620EE800ABDEEC00A10EE100A41
:109C000028441FFA80FB5B46049800F001FA78EEC6
:109C1000888A5C46CDF810A0F4EEC98AF1EE10FAFD
:109C2000C7D91798A0B3F0EE698A2CE0B0EE680AA5
:109C300003F002F8F0EE400A00EE107AB8EE400AA7
:109C400020EE800ABDEEC00A10EE100AB0EE680ADF
:109C5000304484B203F02CF8F0EE400A00EE107AA3
:109C6000CDE90098B8EE400A2246294620EE800A47
:109C7000BDEEC00A10EE100A284483B2304600F050
:109C8000C7F978EE888AF4EEC98AF1EE10FACDD9D8
:109C9000159801287DD90120A1E0781A84B2B0EE90
:109CA0004A0A02F0C9FFF0EE400A00EE104AB8EE90
:109CB000400A20EE800ABDEEC00A10EE100AB0EE97
:109CC0004A0A304480B2049002F0F2FFF0EE400AFB
:109CD00000EE104AF0EE698AB8EE400A20EE800AE3
:109CE000BDEEC00A10EE100A28441FFA80FB34E0D3
:109CF000B0EE680A02F0A0FFF0EE400A00EE104A53
:109D0000B8EE400A20EE800ABDEEC00A10EE100A3E
:109D1000B0EE680A304480B2039002F0C9FFF0EE62
:109D2000400A00EE104ACDF800905946B8EE400ABD
:109D300020EE800ABDEEC00A10EE100A284480B260
:109D4000CDE90180DDE90320029B00F061F978EEA6
:109D5000888A0398DDF808B00490F4EEC98AF1EE21
:109D600010FAC5D91798B8B3F0EE698A2FE0B0EEB3
:109D7000680A02F061FFF0EE400A00EE104AB8EE09
:109D8000400A20EE800ABDEEC00A10EE100A3044F0
:109D900000E02AE01FFA80FBB0EE680A02F088FFBC
:109DA000F0EE400A00EE104ACDE90098B8EE400A05
:109DB0005A46294620EE800ABDEEC00A10EE100A6F
:109DC000284483B2304600F023F978EE888AF4EE16
:109DD000C98AF1EE10FACAD90AF10100C0B282466E
:109DE000014615988245FFF458AF05B0BDEC068BCF
:109DF000BDE8F08F6E861BF0F921094000000000DD
:109E0000008066406F12033B2DE9F05F8846DDE974
:109E10000ABA81460C2B06D0102B06D0182B06D080
:109E2000302B07D105E0354E04E0354E02E0354ECB
:109E300000E0354E354884884C4502D3C188414501
:109E400004D2BDE8F05F32A0FEF7C8BAB088302B6C
:109E50004FEA40710CD001B1012101EBD000203A52
:109E600010FB02F0F188484331680F1800253FE0ED
:109E700001B1012101EBD000303AF1E700242EE0DE
:109E8000387804F007028021D1400840BBF1000F70
:109E90000BD0BAF1010F1CD0A0B108EB050081B2C4
:109EA00009EB040080B200220AE0BAF1010F0DD0E4
:109EB00040B108EB050081B209EB040080B2FF223B
:109EC000FFF78CFDE043400706D006E00028E4D011
:109ED000EFE70028EDD0E0E77F1C641CA4B2B08857
:109EE000A042CDD83079400700D07F1C6D1CADB2A8
:109EF000F088A842C2D8BDE8F09F000010030020FF
:109F00001803002020030020280300208869012076
:109F100044656275673A205061696E745F4472618E
:109F2000774368617220496E707574206578636547
:109F300065647320746865206E6F726D616C206457
:109F40006973706C61792072616E67650D0A00003B
:109F50002DE9F04F93B01F468346DDF874A01346F9
:109F60000D468946780701D0012100E0002101EB70
:109F7000D70010FB07F0C1B212910C2F03D0102FA5
:109F800001D0182F40D13A4669461846FFF7BCFC6D
:109F9000002035E01DF8084000261C9818B1BAF1E1
:109FA000010F0CD010E0BAF1010F04D100222946B4
:109FB0005846FFF713FD20060DD5FF2207E0FF22CC
:109FC00029465846FFF70AFD200604D500222946F7
:109FD0005846FFF703FD60066D1C040EADB2A5EBFD
:109FE0000900B84205D10BF101004D461FFA80FB74
:109FF00003E0761CF6B2082ECFD308F10100C0B200
:10A00000129980468842C5D313B0BDE8F08F000096
:10A010002DE9FC5F924606460C9A99460D46BAEB2E
:10A02000060700D57F424FF0FF31564501D201208F
:10A0300000E008460190B9EB050000D54042C0F1B0
:10A0400000084D4500D201218B4607EB08040AB1F8
:10A05000002000E0FF2000900D9830B10F482A4604
:10A060003146006805F064FB04E029463046009A5A
:10A07000FFF7B4FC564501D14D450DD06000404579
:10A0800003DB0199444431448EB2B842E4DC05EB71
:10A090000B003C4485B2DFE7BDE8FC9F88690120E6
:10A0A0002DE9FC478246DDE90C04DDE90A651F461F
:10A0B00091468846F0B30E4609E0CDE90054334698
:10A0C0004A4619465046FFF7A3FF761CB6B2BE4279
:10A0D000F3D9BDE8FC87CDE9005443464A4619460A
:10A0E0005046FFF795FFCDE900543B464A461946D6
:10A0F0005046FFF78DFFCDE9005452463B4641469E
:10A100001046FFF785FFCDE900544A463B464146DD
:10A110001046FFF77DFF0AF101001FFA80FA08F1EF
:10A1200001001FFA80F8A9F101007F1E1FFA80F9D3
:10A13000BFB200E001E0761EF6B2002ECBD1C8E738
:10A140002DE9FF4F87B0079A0998DDE91714DDE97B
:10A150001565DDF850B0821AB2EB4B0F7EDB089A22
:10A160000A98821AB2EB4B0F78DB079B002903EBAE
:10A170000B080A9BA3EB0B0A099BA3EB0B09089B9B
:10A1800003EB0B076BD04FF00100ECB3CDE90204F9
:10A19000AAF10100059083B2781CCDE9006581B277
:10A1A000099A0798FFF77CFF0120CDE90204CDE969
:10A1B0000065BBB21FFA89F21FFA88F00899FFF711
:10A1C0006FFF0120CDE90204CDE900651FFA89F295
:10A1D0001FFA8AF11FFA88F00A9BFFF761FF01203E
:10A1E000CDE901054FF487760096CDE90304B9B2B5
:10A1F0001FFA88F0B4235A46FFF780FC0120CDE90E
:10A200000105CDE9030400E016E04FF4B4700090BE
:10A21000B9B21FFA89F033465A46FFF76FFC0120A6
:10A22000CDE90105CDE90304B4200090059881B281
:10A23000A8F1010080B251E0CDE90204CDE900654A
:10A240001FFA8AF3B9B2099A0798FFF729FF01208C
:10A25000CDE90204BBB21FFA89F201E051E053E0FC
:10A26000CDE900651FFA88F00899FFF719FF012072
:10A27000CDE90204CDE900651FFA89F21FFA8AF1DF
:10A280001FFA88F00A9BFFF70BFF0120CDE90105BB
:10A290004FF487760096CDE90304B9B21FFA88F02F
:10A2A000B4235A46FFF72AFC0120CDE90105CDE988
:10A2B00003044FF4B4700090B9B21FFA89F033462A
:10A2C0005A46FFF71BFC0120CDE90105CDE9030447
:10A2D000B42000901FFA8AF11FFA88F05A235A46D8
:10A2E000FFF70CFC0120CDE90105CDE903045A205C
:10A2F0001FFA8AF100901FFA89F000235A46FFF7EF
:10A30000FDFB0BB0BDE8F08F0120CDE902049819E8
:10A31000CDE9006583B21FFA89F21FFA88F0089927
:10A32000FFF7BEFE0120CDE90204CDE900650A98E1
:10A330001FFA89F2801B81B21FFA88F00A9BFFF78F
:10A34000AFFE0120CDE902040798CDE90065304455
:10A3500082B21FFA8AF3B9B20798FFF7A1FE012073
:10A36000CDE902040998CDE90065801B82B21FFA8D
:10A370008AF3B9B20998FFF793FE00200295CDE960
:10A3800003044FF48770CDE90006B9B21FFA88F0D4
:10A39000B4235A46FFF7B2FB00200295CDE903042F
:10A3A0004FF4B470CDE90006B9B21FFA89F04FF44A
:10A3B00087735A46FFF7A2FB00200295CDE90304FC
:10A3C000B420CDE900061FFA8AF11FFA88F05A235B
:10A3D0005A46FFF793FB00200295CDE903045A206B
:10A3E000CDE900061FFA8AF185E72DE9FC5F0546F5
:10A3F0001C4617460E461046FEF776F960431FFAD4
:10A4000080FBA846B246002026E0B9F1000F20D01C
:10A4100008EB0B01081B4FF00009A84202DA3019C3
:10A4200086B245460AEB0401081BB0420FDBDDE9AA
:10A430000C01CDE9000123463A4631462846FFF794
:10A4400087FD281985B2BF1C3A78002ADDD1BDE806
:10A45000FC9F802A02D901208146F5E708EB0B0119
:10A46000A1EB5400A84202DA301986B245460AEB45
:10A470000401081BB042EADB0D2A0DD0DDE90C0116
:10A48000CDE90001234631462846FFF7BDFC05EB28
:10A49000540085B27F1CD7E7301986B245467F1C31
:10A4A000F5E700002DE9FF4F83B00024894682467E
:10A4B00015462646FF212046DDF844B005F0EEFDA6
:10A4C0008046FF21002005F0E9FD0746FF214046B8
:10A4D000FEF7A8F9FF213846FEF7A4F9214800232A
:10A4E0004246B0F804C0D44502D3C188494505D2DC
:10A4F00007B01DA0BDE8F04FFDF770BF002D01DAD9
:10A5000001236D420A20294695FBF0F500FB151149
:10A5100030313955641C24B2002DF4D163B12D20A3
:10A520003855641C07E0381910F8011C08F80610AB
:10A53000761C36B2641E24B2002CF4DC1099CDE9EE
:10A54000001B49465046069BFFF74FFF414600203F
:10A5500005F098FD07B03946BDE8F04F002005F042
:10A5600091BD00008869012044656275673A2050FA
:10A5700061696E745F4469734E756D20496E7075C4
:10A5800074206578636565647320746865206E6FF8
:10A59000726D616C20646973706C61792072616E98
:10A5A00067650D0A00000000044A0029116801D007
:10A5B000014300E0814311607047000030380240E1
:10A5C000044A0029116801D0014300E08143116071
:10A5D0007047000040380240044A0029116801D049
:10A5E000014300E0814311607047000020380240C1
:10A5F000044A0029116801D0014300E08143116041
:10A600007047000044380240044A0029116801D014
:10A61000014300E08143116070470000243802408C
:10A6200070B5204B1968204C11F00C0104D0661055
:10A63000042903D0082903D004601BE0066019E058
:10A64000184A121F1168C1F38055116801F03F01CB
:10A6500015B1B6FBF1F101E0B4FBF1F11468126839
:10A66000C4F388146143C2F30142521C5200B1FB8F
:10A67000F2F1016019680F2202EA11110B4A545CD1
:10A680000168E14041601C68072505EA9424145DD7
:10A6900021FA04F484601B6805EA5333D25CD1408C
:10A6A000C16070BD083802400024F4004802002058
:10A6B00002460020510901290BD002290CD008497B
:10A6C000096802F01F02012393400B4200D00120D1
:10A6D000704703497439F3E70149091FF0E70000A7
:10A6E00074380240054900220A700A70012802D01D
:10A6F000042801D10520087070470000703802401E
:10A7000001490860704700003C0E4742C0F3012138
:10A71000032907D1074B1968074A21F4F8110240B1
:10A720000A431A60034968310A68C0F30B00024308
:10A730000A60704708380240FFFCFF0F010901EB77
:10A74000810100F00F0000EB4100C0B27047002112
:10A7500003E0491C0A38C9B2C0B20A28F9D2090775
:10A7600040EA116070470000C0F30F1040F0800015
:10A77000C1430348026802F0800211430160704740
:10A780000C28004008B50D490020009008684006DC
:10A7900012D44FF0FF3008608B130868009A00F065
:10A7A0004000521C00929A4201D00028F5D008685F
:10A7B000400601D4002008BD012008BD0C2800403F
:10A7C0000248016821F08001016070470C280040B8
:10A7D000020010B50F480C4601680F4801EA00015D
:10A7E0004FEA1140E070C1F30423637001F03F03AE
:10A7F000A370C1F3423121700AD1FFF79FFFE070CF
:10A800006078FFF79BFF6070A078FFF797FFA0705C
:10A8100010BD0000042800403FFFFF00044902462D
:10A8200000200968034B1940114200D001207047F5
:10A830000C2800407F3F0100020010B510480C4674
:10A840000168104801EA0001C1F305402070C1F31E
:10A850000623637001F07F03A3704FF0400303EA07
:10A860001141E1700AD1FFF769FF20706078FFF7AE
:10A8700065FF6070A078FFF761FFA07010BD000059
:10A88000002800407F7F7F0030B50E4DCA222A602D
:10A8900053222A600B4C0B4B1C3C1C33002920F02C
:10A8A0000402216800F0040004D0114321601968FB
:10A8B000014303E091432160196881431960FF203F
:10A8C000286030BD2428004070B5124D0446002693
:10A8D000CA20286053202860FFF754FFA8B10D4814
:10A8E0001C38016821F040010160016822681143B1
:10A8F00001600848A168143801600168A28841EA33
:10A9000002410160FFF75CFF0126FF20286030460E
:10A9100070BD00002428004008B5034901EB800009
:10A920000090006808BD00005028004070B50C463B
:10A930000026010060780FD0FFF700FFA078FFF736
:10A94000FDFEA078E17840EA0145607821780002B8
:10A9500040EA4130054315E0C10603D520F0100060
:10A960000A306070E078FFF7F2FE05046078FFF7C8
:10A97000EEFE45EA0025A078FFF7E9FE05432078C2
:10A9800045EA40350D4CCA20206053202060FFF777
:10A99000F9FE78B10A480540084820380560FFF7FD
:10A9A0000FFF06481C380068800602D400F0E0F86B
:10A9B00000B10126FF202060304670BD24280040F1
:10A9C0003FFFFF002DE9F0410C460026234F010018
:10A9D0002078396832464FEA416104D0002930DAE4
:10A9E000FFF7ACFE2EE0002900DBE270FFF7AFFEC0
:10A9F00005046078FFF7ABFE45EA0025A078FFF775
:10AA0000A6FE0543E07845EA0045144CCA201C34F4
:10AA1000206053202060FFF7B5FE68B11048054064
:10AA20000E4808380560FFF7CBFE3868800602D470
:10AA300000F09EF800B10126FF2020603046BDE8FE
:10AA4000F081E270A078217840EA01456078E178F1
:10AA5000000240EA01400543D7E700000828004013
:10AA60007F7F7F000549CA220A6053220A60034A99
:10AA7000103A1060FF200860704700002428004052
:10AA800008B58DF802208DF801108DF800308DF892
:10AA9000030069460020FFF749FF08BD08B58DF89F
:10AAA00000008DF801108DF802208DF80330694602
:10AAB0000020FFF787FF08BD3EB504460D46002085
:10AAC00000F090F8204600F079F82846FFF7CAFF1A
:10AAD0004FF480452846FFF747FE2C022046FEF73C
:10AAE0005BFC01212846FFF7CFFE012000F07AF839
:10AAF00000258DF80450082000948DF805000124ED
:10AB00008DF806406846FEF74DFC03208DF80800DE
:10AB10000A208DF809008DF80A508DF80B4002A824
:10AB2000FEF75EFE3EBD000008B5002000904FF429
:10AB30008060FFF773FE012811D18003FFF714FE38
:10AB400009486946006808F0E9F8009838B10749F3
:10AB50004FF080500860BFF34F8FBFF36F8F4FF4FB
:10AB60008000FEF719FC08BD0000002004ED00E0A5
:10AB700018B50020104B0090CA20186053201860B0
:10AB80000D491839086820F0A00008604FF400341F
:10AB90000868009A00F02000521C0092A24201D0E6
:10ABA0000028F5D00868800601D5012000E00020CB
:10ABB000FF21196018BD000024280040084ACA215E
:10ABC00011605321116006491C390B6823F00703FB
:10ABD0000B600B6803430B60FF20106070470000A0
:10ABE0002428004018B50021134B0091CA21196098
:10ABF0005321196010491C390028086803D040F41B
:10AC00008060086014E020F4806008600A49183908
:10AC10008C130868009A00F00400521C0092A242B3
:10AC200001D00028F5D00868400701D4002000E0DA
:10AC30000120FF21196018BD2428004008B5034AEF
:10AC400002EB80000090016008BD00005028004029
:10AC50002DE9FC41002600963546019600B10225FB
:10AC60001B480068800102D50E20BDE8FC81194C0C
:10AC70006946208980B2FEF7CDFB0028F5D1019806
:10AC8000400322D52089144C00044FF04008206076
:10AC90003720C4E901084FF480672046C4E9036700
:10ACA00000F08AF83720FDF765FF0028DDD1062087
:10ACB000C4F80880C4E90050C4E90367204600F0E6
:10ACC0007BF80620FDF756FFCFE72520CDE70000F3
:10ACD000142C01403C000020600300200149086062
:10ACE00070470000382C0140034A116821F0FF0131
:10ACF0000143116070470000042C014010B50A4A5E
:10AD000001681160121D41681160131D1968D0E9B6
:10AD100002242243D0E90440044321F0F7012243F6
:10AD20000A431A6010BD0000242C0140034A01466A
:10AD3000002012680A4200D001207047342C0140E4
:10AD40000248006800F0030070470000002C01403A
:10AD500000F0A8BB30B5094B1A6847F6FF618A437B
:10AD6000017D8468C568214344682C4321430468FD
:10AD70000069214301431143196030BD042C014097
:10AD80000B4900200860091D0860091D0860091DA5
:10AD90000860074924310860091D0860091D086022
:10ADA000034A044938321160111D086070470000E1
:10ADB000002C0140FF07C00010B5084A016811606F
:10ADC000131D1968D0E901242243D0E9034004434C
:10ADD0006FF30A0122430A431A6010BD082C014098
:10ADE0000149086070470000002C014070B51B4EFF
:10ADF00090B0154604463046FEF7B2F80028FAD166
:10AE00003046FEF711F84FF000600090144801A999
:10AE100081E8310000204FF480610490CDE9050104
:10AE2000890007918900CDE908104FF440300A905D
:10AE300004200B9003200C9048020D9080100E907F
:10AE400069463046FEF7D6F820213046FEF77EF8F8
:10AE500001213046FDF7DEFF10B070BD586402409E
:10AE6000802C014010B510490446002009780329C0
:10AE700017D019B1012901D0022911D1B4F5805F91
:10AE80000FD0E0B2FFF7E4FE002809D107490A68B5
:10AE900022F4C0520A600A6822430A600A680A6003
:10AEA00010BD272010BD00003C000020042C0140F4
:10AEB0002DE9F0478249DFF80CA24FF0000C0B7827
:10AEC00080F856300989A0F85410DAF800104FF0D5
:10AED00001090A0E95090570C2F38305457002F059
:10AEE000030282700A0CC2700A0A02714171DAF818
:10AEF0000420110E0C01C2F3074144EA111401F0C1
:10AF00000F08C480C2F3072180F80880CC0944727E
:10AF1000C1F380148472C1F34014C472C1F30014ED
:10AF20000473544680F80DC0A468260EC4F3074588
:10AF3000C4F3072733B1012B04D0032B02D0022B1B
:10AF400030D03EE08907090DD2B241EA820141EAE0
:10AF50009612C6F3C2010261017506F00701417540
:10AF600069098175C5F38201C175A9074B0F39467F
:10AF700043EAD1150576AD1C09FA05F3DE17521C1C
:10AF8000A2FB03570CFB037302FB063309FA08F21A
:10AF9000A5FB0267026503FB027205FB0C22C0E9F8
:10AFA00012620EE09106890A41EA06222A430261F2
:10AFB000521C530BD204C0E912234FF400723946DD
:10AFC0000265C1F38012427689064A0EE1B242EA76
:10AFD000D11200F81A2F01F07F014170DAF80C202D
:10AFE000110ECB098370C1F34113C370C1F3820307
:10AFF000037189070B0FC2F3074143EA91134371B1
:10B00000C1F34013837180F807C001F001010172A0
:10B01000C2F30721CB094372C1F380138372C1F3DA
:10B020004013C372C1F300130373C1F3810343736D
:10B0300001F003018173C2F34601224AC173103249
:10B0400080F8109011684B460C0E84740C0CC1F300
:10B05000072545EA042484820C0651680D0E44EA53
:10B060000544C1F3074544EA0524C1F307252C43F1
:10B07000C0F8164000F81A1F91680C0E44700C0CB2
:10B08000C1F30725240644EA0544C9B244EA012471
:10B09000D16844EA1164C1F307424460047A44EA87
:10B0A00012140472C1F30724120744EA12524281B7
:10B0B000C1F34601017343736046BDE8F0870000A9
:10B0C0003C0000208C0300202DE9FE4300250121D7
:10B0D0003F48FFF769FA0121CE023046FFF788FAB0
:10B0E00001213046FFF790FA4FF4F850009002200B
:10B0F0008DF804008DF805000024DFF8D8908DF855
:10B10000064001278DF8077069464846FEF724FA85
:10B110000420DFF8C480009069464046FEF71CFA20
:10B120000C2208214846FEF753FA0C220921484612
:10B13000FEF74EFA0C220A214846FEF749FA0C2285
:10B140000B214846FEF744FA0C2211464846FEF70A
:10B150003FFA0C2202214046FEF73AFA002130461F
:10B16000FFF752FAFFF70CFE31208DF808008DF83A
:10B1700009408DF80A408DF80B7002A8FEF730FBED
:10B1800000F0BEF8154C80B900F02CF868B92046E4
:10B19000FFF78EFE48B9B4F85400000400F072FCCA
:10B1A00018B93046FFF75EFE18B10D49097803293A
:10B1B0000BD194F8560008B1012800D10225284689
:10B1C000FFF792FD002000F073FCBDE8FE83000055
:10B1D0000C00400000080240000C0240B0030020B8
:10B1E0003C0000202DE9F84F0120ADF80000FFF7EA
:10B1F000A7FDB0B33F4F3878042878D03E4C0025E7
:10B200000220E4E80250C0204FF4806684E8610028
:10B210003948083CFFF7D0FDFDF7D8FC002822D1C3
:10B22000DFF8D8A0DAF8001033480AF1040B3C30FC
:10B230000160DBF8001041600BF1040109688160D6
:10B240002E490C310968C16038784FF003084FF07F
:10B25000400950B1012808D0062806D0022804D0A1
:10B2600010E0FFE72520BDE8F88F84E82003C4E95B
:10B2700003562148FFF7A0FD69460320FDF7E2FCD5
:10B280000028F0D1387803280DD1BDF80000000463
:10B2900084E80103C4E903561748FFF78DFDFDF765
:10B2A00095FC0028DFD13878042820D0BDF80000B4
:10B2B000B860000401C4092001C4C02084E8610012
:10B2C0000D48FFF779FDFDF781FC0028CBD1DAF8B6
:10B2D000001009482C300160DBF80010416007497C
:10B2E00008310968816005490C310968C160002096
:10B2F000B9E700003C00002060030020142C01404E
:10B300002DE9F05F0027624876213E46017507600F
:10B3100047608760C7603C463D46B946B84607610E
:10B32000FFF718FD0320FFF75BFD5A48016841F461
:10B3300080710160DFF858A14FF4806B0AF1180AA0
:10B340005348CAF80080CAF80480CAF80880CAE9DD
:10B35000038B1830FFF730FDFDF7F7FB28B17F1C9A
:10B36000FFB24A2FECD3BDE8F09F4FF4D570CAF876
:10B37000000008205746CAF804004020C7E9020828
:10B380000001CAF8100042481830FFF715FDFDF71C
:10B3900097FC20B9404901204FF080490870BA4617
:10B3A000384641463722402780E88600C0F80C80A6
:10B3B00037483901C3461830CAF81010FFF7FCFCB3
:10B3C0003720FDF7D7FB4FF6FF78A0B35646DFF8DE
:10B3D000C490BA464FF4806B012709F11009C5B338
:10B3E0004DE055463720C5E900B04FF48068CAF8F3
:10B3F00010802748C5E9027B5E461830FFF7DCFC69
:10B400003720FDF7B7FB0028ADD1244949EA0100F8
:10B4100028602920C5E90107C5E903681C481830E0
:10B42000FFF7CAFCFDF7F6FB00289CD11949103143
:10B430000E68F50F641C1DB94FF6FF718C42D0D316
:10B440004FF6FF718C421CD216F0804F8BD0022237
:10B450001AE012E0124886E881040020C6E9030BD6
:10B460000B481830FFF7A8FCFDF7D4FB0028CBD120
:10B47000D9F80010CD0F641CB1E74445EAD3444528
:10B4800001D31B206FE7032203490A706BE700001A
:10B4900048030020042C01403C00002000001080E4
:10B4A0000080FF802DE9F0414FF48070FFF73EFCF3
:10B4B000354C364D4CF23A3610B3A87800210128AD
:10B4C0000ED0E9703048001F016841F480710160BE
:10B4D0002068B043206001202871E878BDE8F08141
:10B4E0002B480C22C0E900124022C0E902211101C0
:10B4F0000161FFF761FC0C20FDF73CFBE870E1E720
:10B500000220FFF713FC40B10220FFF7E7FB2068A1
:10B51000B04320600220E870E0E70820FFF706FC57
:10B5200040B10820FFF7DAFB2068B0432060042018
:10B53000E870D3E72020FFF7F9FB40B12020FFF7A8
:10B54000CDFB2068B04320600620E870C6E71020DD
:10B55000FFF7ECFB40B11020FFF7C0FB2068B043C1
:10B5600020600520E870B9E74FF400773846FFF710
:10B57000DDFB0028B2D03846FFF7B0FB2068B043AF
:10B5800020600720E870A9E73C2C01403C00002027
:10B59000600300202DE9F84F17460A9E05004FF082
:10B5A000FF3467D0DFF8E0A10020CAF80000DFF820
:10B5B000DC9199F80010022903D10E02570A47EADC
:10B5C000C357014672480122A0468160C0E900418C
:10B5D000C160C0E90412FFF791FB6B48183800689E
:10B5E000800102D50E20BDE8F88F701EB0F5006F07
:10B5F00040D206423ED1304601F012FC0090644831
:10B60000102114384FF4806BC0E900614021816043
:10B610000021C0E9031BFFF7CFFB1020FDF7AAFABA
:10B620000028E0D1009801015948C0F80080C0E925
:10B6300001610121416102214FF00008C0E90318B6
:10B64000FFF75CFB524811211438E0E802714021F9
:10B6500080E802094E481438FFF7AEFB1120FDF7D1
:10B6600089FA0700BFD199F80100494620B10128A5
:10B670005DD082E02620B6E7FCF707FE424EDFF8F9
:10B68000089154364FF4004BDFF8088109F108099E
:10B6900040F22A6A10E05846FFF748FB48B1002004
:10B6A000316845F82010401C0828F9D3444620355D
:10B6B00002E0002C65D0641ED9F8000010EA0A0FE1
:10B6C000E9D00820FFF732FB18B10820FFF706FB8E
:10B6D00057E00220FFF72AFB20B10220FFF7FEFA15
:10B6E000022080E72020FFF721FB20B12020FFF778
:10B6F000F5FA062077E74FF400742046FFF716FBB3
:10B7000038B12046FFF7EAFA07206CE7306801C538
:10B7100001E04FF400142046FFF708FB0028F5D1A4
:10B72000FCF7B5FD40F2FF50FFF7D8FA25E04046A0
:10B73000C846C8708870087113491031086840F213
:10B740002A3210430860DAF8001041F00801CAF804
:10B750000010002231462846FFF748FB0E494046BC
:10B7600000E0641E0A68120103D402790AB9C278A3
:10B770002AB134B1C17801B1C778384633E7002C1B
:10B78000EFD104202FE700002C2C01403C000020CA
:10B7900074030020FFFF7F00006402402DE9FC4796
:10B7A0000027CD0D4E028046810791464FF4007070
:10B7B00018D00024824612E06002821945EBE07343
:10B7C000CDF800A01248FFF7E5FE074652461049A3
:10B7D0004046FCF7A8FF641C08F50078E4B24C452D
:10B7E000EAD30AE0B9F1010F0AD0CDE900093246E7
:10B7F0002B46404600F00EF807463846BDE8FC8769
:10B80000009032462B464046FFF7C4FEF4E70000A6
:10B81000080400202DE9FF5F82B0DFF854B2DDE9B3
:10B8200010680299CBF80C109249002517464FF08A
:10B83000FF340D609BF80000022803D10602570A6E
:10B8400047EAC357DFF830A201215046CAF8085032
:10B85000CAF81410C0E90045CAF80C50A146CAF84D
:10B860001050FFF74BFA834818380068800103D561
:10B870000E2006B0BDE8F09F701EB0F5006F21D21B
:10B8800006421FD1304601F0CBFA00907A481021D1
:10B890001438C0E90061402181600021C1604FF48B
:10B8A00080610161FFF788FA1020FDF763F9050058
:10B8B000DFD14046B8F1010F36D900FB06F8B8F1E8
:10B8C000007F01D32620D4E70098CAF80090010138
:10B8D00050464FF00009C0E901810121CAF8141057
:10B8E0000221CAE903194D466348FFF707FADFF85A
:10B8F00088A11221AAF1140A5046C0E90071402122
:10B90000CAE902150901CAF81010FFF755FA12200A
:10B91000FDF730F90500ACD15E469BF8010040F21E
:10B920002A3B10B1012877D0A0E0FCF7AEFC514FC4
:10B93000D846543713E04FF40040FFF7F7F958B1F9
:10B94000F16800203A6841F82020401C0828F9D30B
:10B9500020314A4CF16002E0002C7DD0641E454845
:10B960000830006810EA080FE5D00820FFF7DEF97C
:10B9700018B10820FFF7B2F96EE00220FFF7D6F900
:10B9800020B10220FFF7AAF9022072E72020FFF77A
:10B99000CDF920B12020FFF7A1F9062069E74FF487
:10B9A00000742046FFF7C2F948B12046FFF796F928
:10B9B00007205EE73968F06802C0F06001E04FF4EC
:10B9C00000142046FFF7B2F90028F3D14FF480703D
:10B9D000FFF7ACF9C0B1307818B1012801D00228C6
:10B9E00012D150460C22C0E900924022CAE9022935
:10B9F000214811011438CAF81010FFF7DDF90C20A6
:10BA0000FDF7B8F80500C0D1FCF741FC40F2FF504B
:10BA1000FFF764F92AE0FFE786F803900121B1708F
:10BA200086F8049013481030016841EA0B01016068
:10BA30001048016841F00801016041460022029867
:10BA4000FFF7D4F90E4800E0641E0168090102D432
:10BA5000002CF9D100E00CB904200AE7307910B9C4
:10BA6000F0780028FAD0F07800B1F578284600E7A1
:10BA70003C0000202C2C014074030020FFFF7F00BD
:10BA800000640240094910B5086007204860402062
:10BA900088600020C8604FF4806008610846FFF7A6
:10BAA0008BF9BDE810400720FDF764B86003002063
:10BAB0000021012803D010B1262108467047014A11
:10BAC0005070FAE73C0000202DE9FC5F4FF00005C4
:10BAD0000C9F90469B4604008DF800502E46B946B8
:10BAE00061D0AC480560AC48691E8560C0E90015AE
:10BAF0000121C560C0E90451FFF700F9A5481838D5
:10BB00000068800102D50E20BDE8FC9FDFF88CA202
:10BB10009AF80000022804D107024FEA582040EAB0
:10BB2000CB58781EB0F5006F3DD207423BD1384666
:10BB300001F076F9DFF860B20190ABF1140B5846D2
:10BB40001021C0E900714021CBE902150901CBF8B1
:10BB50001010FFF731F91020FDF70CF80028D3D1B1
:10BB60008E48DA4600890104CBF800100D215846B2
:10BB7000CBF804104021C0E9021587480901AB4603
:10BB80001438CAF81010FFF717F90D20FCF7F2FF70
:10BB90000028B9D17F4918390868DA464FF0FF35D7
:10BBA000DFF8F8B119E02620AEE7BBF808006D1EFB
:10BBB00001047948143801600D2141604021C0E939
:10BBC000021A09010161FFF7F7F80D20FCF7D2FF17
:10BBD000002899D16F4818380068C00502D4002D9C
:10BBE000E3D12EE06DB36C48182114385546C0E9F6
:10BBF00000814021C0E9021A09010161FFF7DCF868
:10BC00001820FCF7B7FF0028CED18BF8025001981E
:10BC1000DA46020160484FF0FF3B2946C0F800B009
:10BC2000C0E901720122C160C0E90412A8465D4664
:10BC3000FFF764F89AF8010028B15646012864D04D
:10BC400097E0292060E7FCF720FB524FDFF84481A2
:10BC5000543708F1080840F21A6A24E04FF4804093
:10BC6000FFF764F8E8B1A9EB060020280DD28107A0
:10BC70004FEA900100D0491C002003E004CC3A6058
:10BC8000401C361D8842F9D308E0002054F82010EB
:10BC90003960401C0828F9D3203420366FF0404525
:10BCA00001E08DB36D1ED8F8000010EA0A0FD5D060
:10BCB0000820FFF73BF818B10820FFF70FF856E00F
:10BCC0000220FFF733F820B10220FFF707F8022027
:10BCD0001AE71020FFF72AF820B11020FEF7FEFF28
:10BCE000052011E74FF400742046FFF71FF820B13C
:10BCF0002046FEF7F3FF072006E7FCF7C8FA40F2FC
:10BD0000FF50FEF7EBFF34E031E086F8038086F861
:10BD1000028086F804801F481030016840F21A3211
:10BD200011430160402239462046FFF75FF8194869
:10BD3000016841F008010160194800E06D1E0168CA
:10BD4000090102D4002DF9D102E00DB1584603E0FB
:10BD5000FFF7BAF90BE0401E317909B9F17821B14A
:10BD600028B1F07828B1F078CEE60028F3D104208D
:10BD7000CAE640F2FF50FEF7B1FF6846FDF744FC0B
:10BD80000028A5D19DF800100729F6D00629F4D087
:10BD9000BAE600002C2C0140740300203C00002077
:10BDA000006402402DE9FC470746CD0D4E02904647
:10BDB0000020BA074FF4007118D00024894611E022
:10BDC0004A4639461248FCF7AEFC6002821945EB40
:10BDD000E073CDF800900E48FFF776FE641CE4B2E5
:10BDE00007F500774445EBD3BDE8FC87B8F1010FB8
:10BDF00007D0CDE9001832462B46384600F00AF845
:10BE0000F2E732462B4638460091FFF75DFEEBE73E
:10BE1000080400202DE9FC5F4FF00001DDE90C670C
:10BE200091469B4604008DF800100D4607FB06FA6C
:10BE300047D0B4480160B4484A1E8160C0E900217F
:10BE40000122C160C0E90412FEF758FFAD4818385E
:10BE50000068800102D50E20BDE8FC9FAB48007849
:10BE6000022804D106024FEA592040EACB59701E3D
:10BE7000B0F5006F25D2064223D1304600F0D0FF46
:10BE8000DFF884B20190ABF1140B58461021C0E9E1
:10BE900000614021CBF808100021CBF80C104FF4C2
:10BEA0008061CBF81010FEF787FF1020FCF762FED0
:10BEB0000028D1D1012F65D907FB06F8B8F1007F22
:10BEC00001D32620C8E79148007818B1012801D095
:10BED00002282DD18D484026008901045846CBF810
:10BEE00000103721C0E901160021CBF80C1086485C
:10BEF00031011438CBF81010FEF75EFF3720FCF745
:10BF000039FE0028A8D158461721CBF80070C0E9A7
:10BF100001160021CBF80C107B4831011438CBF806
:10BF20001010FEF749FF1720FCF724FE002893D1DC
:10BF3000754819211438C0E9009140214FF00009DB
:10BF4000C0E9021909010161FEF736FF1920FCF76B
:10BF500011FE002880D101984FF0FF3601016A4898
:10BF600001270660C0E90181C0F80C90C0E9049780
:10BF7000FEF7C4FEDFF894B19BF8010018B15D46EE
:10BF800001287DD0AEE0FCF780F95E4F40F21A3810
:10BF9000543725E04FF48040FEF7C8FEE8B1AAEB25
:10BFA000050020280DD281074FEA900100D0491CDE
:10BFB000002003E004CC3A60401C2D1D8842F9D3D8
:10BFC00008E0002054F820103960401C0828F9D3FC
:10BFD000203420356FF0404602E0002E0DD0761E52
:10BFE00048480830006810EA080FD3D00820FEF750
:10BFF0009DFE18B10820FEF771FE71E00220FEF7E9
:10C0000095FE20B10220FEF769FE022024E71020F1
:10C01000FEF78CFE20B11020FEF760FE05201BE726
:10C020004FF400742046FEF781FE20B12046FEF753
:10C0300055FE072010E74FF48070FEF777FEB8B189
:10C040009BF8000018B1012801D0022810D12E4819
:10C050000C221438C0E900924022C0E902291101E3
:10C060000161FEF7A9FE0C20FCF784FD0028CDD16C
:10C07000FCF70DF940F2FF50FEF730FE32E0FFE72B
:10C0800085F80390AF7085F804901E481030016861
:10C0900040F21A3211430160414640222046FEF729
:10C0A000A5FE1848016841F00801016030461849B2
:10C0B00000E0401E0A68120102D40028F9D100E015
:10C0C00018B9FFF701F80BE0761E287908B9E8786F
:10C0D00020B12EB1E87828B1E878BDE6002EF3D182
:10C0E0000420B9E640F2FF50FEF7F8FD6846FDF780
:10C0F0008BFA00288AD19DF800100729F6D006296E
:10C10000F4D0A9E62C2C0140740300203C00002050
:10C11000006402402DE9F043012187B00846FEF794
:10C1200043FA4FF4805901214846FEF761FA02278D
:10C130008DF8187000248DF81A4003208DF819002E
:10C14000DFF88C803826012505968DF81B5005A94F
:10C150004046FDF701FA052203214046FDF738FA73
:10C16000052204214046FDF733FA052211464046D8
:10C17000FDF72EFA01214846FEF746FA002148460F
:10C18000FEF742FAADF800404FF48270ADF80200BD
:10C19000ADF808506802ADF80C60ADF80440ADF899
:10C1A0000A00ADF80E4007200A4CADF81000ADF8BB
:10C1B00006706946204600F0B2F80121204600F0E2
:10C1C00099F8FF2000F008F807B0BDE8F083000000
:10C1D000000402400030014070B50B4C05460221BE
:10C1E000204600F091F80028F9D02946204600F0BA
:10C1F00094F80121204600F087F80028F9D0204665
:10C2000000F089F8C0B270BD003001400146054819
:10C21000028822F03802028002880A43028001214B
:10C2200000F068B8003001402DE9F04701210220FC
:10C23000FEF7BAF901210420FEF7B6F94FF4804A5F
:10C2400001215046FEF7BCF9254C0820022720604A
:10C2500027710025A5710326DFF8889066714FF0DD
:10C26000010884F8078021464846FDF775F97802F1
:10C2700020602771A571667184F8078021461A4CE9
:10C280002046FDF769F9052203214846FDF7A0F98C
:10C2900005220A212046FDF79BF901215046FEF7B1
:10C2A0009BF900215046FEF797F910484FF4827130
:10C2B000058041808580C5806115058141811821F7
:10C2C0008181C5810A210182094C0146204600F086
:10C2D00026F82046BDE8F047012100F00BB8000029
:10C2E0003000002000080240000402403403002017
:10C2F000003800400029018802D041F0400101E0EF
:10C3000021F04001018070470246002012890A4254
:10C3100000D001207047808970478181704730B517
:10C3200002884C8802F441530A88CD8822438C88C5
:10C330002C4322430C8922434C8922438C8922437B
:10C34000CC8922431A430280828B22F400628283CA
:10C35000098A018230BD00000CB5002227490092F5
:10C360000192086840F4803008604FF4A0430868E8
:10C3700000F4003001900098401C0090019810B922
:10C3800000989842F3D10868800334D501200190C9
:10C390001A484030026842F0805202601848026831
:10C3A00042F44042026015480830026802600268A8
:10C3B00042F400420260026842F4A0520260031F8D
:10C3C000104A1A600A6842F080720A600A68920194
:10C3D000FCD50D4940F205720A60016821F00301A5
:10C3E0000160016841F0020101600168C1F381014F
:10C3F0000229FAD10CBD01920CBD000000380240A8
:10C400000070004008544007003C02404FF0E0211B
:10C410000428086903D020F004000861704740F048
:10C420000400FAE710B506F04DFD012803D0BDE881
:10C43000104006F0D7B910BD114810B5016841F49D
:10C44000700101600F48016841F0010101600D4A6F
:10C4500000210832116002680B4B1A400260031D74
:10C460000A4A1A60026822F48022026005480C30F1
:10C470000160FFF771FF024905488039086010BD6F
:10C4800088ED00E000380240FFFFF6FE1030002487
:10C490000080000810B50A4C0121204600F079F810
:10C4A000012807D107490A684868521C40F100007A
:10C4B0000A6048602046BDE81040012100F053B8F2
:10C4C00000040040280000207FB50D4604460121ED
:10C4D0000220FEF775F80194ADF800500024104DCD
:10C4E000ADF80240ADF808406946284600F06AF809
:10C4F00001221146284600F058F80121284600F094
:10C5000035F81D208DF80C0001208DF80D008DF8F8
:10C510000E408DF80F0003A8FDF762F97FBD000003
:10C520000004004010B50C4C0121204600F031F809
:10C5300001280AD10948016988470021204600F0F6
:10C540003EF86421204600F038F82046BDE810404F
:10C55000012100F008B8000000080040540100204C
:10C56000C94301827047C94301827047002901888D
:10C5700002D041F0010101E021F00101018070478A
:10C58000406A704702460020128A0A4200D0012009
:10C59000704702460020138A92890B4202EA010288
:10C5A00002D0002A00D001207047002A828901D0E1
:10C5B0000A4300E08A4382817047C162704741624A
:10C5C0007047000030B50288164C174DA0420DD0C0
:10C5D000A8420BD0B0F1804F08D0144B984205D040
:10C5E000134B984202D0134B984203D122F07003B0
:10C5F0004A881A43104B984206D0104B984203D0F9
:10C6000022F440730A891A4302804A68C2620A8887
:10C610000285A04201D0A84201D1897A0186012178
:10C62000818230BD00000140000401400004004050
:10C6300000080040000C00400010004000140040C2
:10C640007FB50D46044601210420FDF7B9FF002106
:10C650000194ADF80050104CADF80210ADF8081080
:10C6600069462046FFF7AEFF012211462046FFF73C
:10C670009CFF01212046FFF779FF1E208DF80C005A
:10C6800003208DF80D008DF80E0001208DF80F00AD
:10C6900003A8FDF7A5F87FBD000800407CB5234C3A
:10C6A00040F22441204600F099F801283CD120882E
:10C6B000A0881F4C019000212046FCF7ABFB2046D0
:10C6C000FCF755FC1B4AC0F58060D080D68818481E
:10C6D000194B0C30011500254EB1D6888E4206D874
:10C6E0009678D6709678C6F10106967000E0D580EF
:10C6F000927803EB822202602046FCF7A5FC012120
:10C700002046FCF787FB0D4800956946006805F058
:10C71000FFFD0098002807D009494FF080500860BD
:10C72000BFF34F8FBFF36F8F7CBD0000001001403F
:10C730008864024052000020080A00200C000020FB
:10C7400004ED00E01A4DDFF86890DFF854A0154FB3
:10C75000154CDFF85880174E09F10C0905F1040B50
:10C760004FF0FF31012004F017FC397822880AEBE2
:10C7700081210E48FBF7D7FF00212846FCF74AFB32
:10C78000C9F800802188CBF8001001212846FCF769
:10C7900041FB30780028FCD101203070E0E7000038
:10C7A000080A002055000020580000200812002030
:10C7B000B8640240530000200029818902D041F46E
:10C7C000005101E021F4005181817047002A828AE2
:10C7D00001D00A4300E08A438282704770B501F0BD
:10C7E0001F0501260024C1F3421306FA05F2012BAE
:10C7F0000FD0022B0FD0838A4FEA112100881342F9
:10C8000006FA01F600EA060001D000B10124204634
:10C8100070BD8389F0E7038AEEE710B5C1F34213D8
:10C8200001F01F040121A140012B07D0022B07D0EA
:10C830001430002A026805D00A4304E00C30F8E7FF
:10C840001030F6E78A43026010BD00007FB5044651
:10C85000008A0D46C98820F4405001432182A089F6
:10C8600041F20C618843A9882A8911436A890243ED
:10C870001143A181A08A20F44071A8890843A082B5
:10C880006846FDF7CDFE1A48844202D0194884421A
:10C8900001D1039800E00298A189090400EBC001CE
:10C8A00001EB0010296801D5490000E08900B0FBC8
:10C8B000F1F06422B0FBF2F109010B096FF01805E9
:10C8C0006B4300EB8300A3891D044FF0320306D5B0
:10C8D00003EBC000B0FBF2F000F0070005E003EB53
:10C8E0000010B0FBF2F000F00F00084320817FBD84
:10C8F0000010014000140140FEE7000010B500F0F8
:10C9000037F900F0DBF8074C0020C4F8B802C72064
:10C9100004F52E74FFF760FC01202060BDE8104094
:10C9200000F0CCB80080404270B50446014611A02A
:10C93000FBF754FD240300F01BF900F0BFF80F4D86
:10C940000020C5F8B802202005F52E75FFF744FC3D
:10C95000C4F30740FFF740FCC4F30720FFF73CFC9B
:10C96000E0B2FFF739FC01202860BDE8704000F01C
:10C97000A5B8000066653A25780D0A00008040429F
:10C980007CB501210220FDF70FFE01214020FDF7BB
:10C990000BFE4FF48040012400908DF804400020ED
:10C9A0008DF8060003208DF805008DF807406946D4
:10C9B0001048FCF7D1FD80200F4D009069462846B5
:10C9C000FCF7CAFD80212846FCF71BFE0B48C0F887
:10C9D000B842FFF79FFB00F03DF809490880A0F539
:10C9E000A441173903D00020FFF710FC7CBD0820BC
:10C9F000FAE70000000402400018024000804042B4
:10CA0000380000202DE9F041114F06460020154660
:10CA10000C46C7F8B8020320FFF7DEFBC4F307405B
:10CA2000FFF7DAFBC4F30720FFF7D6FBE0B2FFF70E
:10CA3000D3FB002405E0FF20FFF7CEFB3055641C3C
:10CA4000A4B2AC42F7D30120C7F8B802BDE8F08128
:10CA50000080404270B50F4D0024C5F8B8429020C8
:10CA600005F52E75FFF7B8FB0020FFF7B5FB00209A
:10CA7000FFF7B2FB0020FFF7AFFBFF20FFF7ACFB97
:10CA800044EA0024FF20FFF7A7FB2043012129608F
:10CA900070BD00000080404210B5074C0020C4F873
:10CAA000B802052004F52E74FFF796FBFF20FFF770
:10CAB00093FB0121216010BD0080404210B5FFF7BB
:10CAC000EBFFC007FBD110BD2DE9F05F8A46814620
:10CAD00015464FF48051002003F0E0FACAF30B062C
:10CAE000C6F5805407464FEA1A38A54200D82C46AE
:10CAF0004FEA08318B464FF480523846FFF782FFE9
:10CB0000002005E03118795CFF2903D1401C80B278
:10CB1000A042F7D3A04220D24046FFF705FF0020F5
:10CB200005E019F800108219401CB95480B2A042E7
:10CB3000F7D359464FF48052384600F029F8A54201
:10CB40000FD0281BA144A244002685B24FF4805484
:10CB500008F10108A542CBD8C9E72246514648460C
:10CB6000EBE73946BDE8F05F002003F08BBA000028
:10CB700010B5064C0020C4F8B802062004F52E7447
:10CB8000FFF72AFB0120206010BD0000008040421A
:10CB90002DE9F0410746C8B2C0F580740E4615462F
:10CBA000A24200D814464FF48078224631463846D7
:10CBB00000F00EF8A54208D0281B2744264485B271
:10CBC0004446A542F1D82C46EFE7BDE8F0810000CD
:10CBD0002DE9F04115460C460646FFF7C9FF114FF7
:10CBE0000020C7F8B8020220FFF7F6FAC4F30740A6
:10CBF000FFF7F2FAC4F30720FFF7EEFAE0B2FFF70F
:10CC0000EBFA002404E0305DFFF7E6FA641CA4B2FE
:10CC1000AC42F8D30120C7F8B802BDE8F041FFF7F5
:10CC20004DBF00000080404230380A2801D2012068
:10CC300070470020704770479FED1A1AF5EE000A02
:10CC400040EE010ABDEEE00AF5EEC00A10EE100A51
:10CC5000F1EE10FA00D2401E00EE100A1349F7EE72
:10CC6000001AB8EEC00A30EEC00ADFED0F0A20EE5F
:10CC7000200AFCEEC00A10EE900AC0F3080000EE95
:10CC8000900A01EB8000F8EE600A90ED011A70EE58
:10CC9000600A90ED000A71EEE01A21EE800A00EEC3
:10CCA000810A704783F9223E000000442C170408D3
:10CCB000DFED190AB5EEC00A60EE200ABDEEE01AFB
:10CCC00011EE100AF1EE10FA00D2401E00EE100A2A
:10CCD0001349F7EE001AB8EEC00A30EEC00ADFEDD5
:10CCE0000F0A20EE200AFCEEC00A10EE900AC0F3F4
:10CCF000080000EE900A01EB8000F8EE600A90ED6B
:10CD0000011A70EE600A90ED000A71EEE01A21EE51
:10CD1000800A00EE810A704783F9223E0000004439
:10CD20002C170408012901D0022901D1401E0C3121
:10CD3000491C01EB810303EBC101052391FBF3F1D6
:10CD40001144C217014400EB927201EBA20164226C
:10CD500090FBF2F2891A4FF4C87290FBF2F008448B
:10CD6000072190FBF1F201FB1200801D90FBF1F214
:10CD700001FB1200C0B2704710B5044600202071BC
:10CD8000401EE062204603F0BDF808B1032010BD4C
:10CD9000B4F82E02A0F52A41553901D0022010BD69
:10CDA00094F86600B4F8671040EA01210848B0EB37
:10CDB000012F08D094F88210B4F8832041EA0221B0
:10CDC000B0EB012F01D1002010BD012010BD0000EB
:10CDD0000046415400E0401C02780AB18A42FAD170
:10CDE000D0B27047426A0068490A8078B1FBF0F01F
:10CDF000121D02CA19B1884203D3401AF8E7002075
:10CE000070471168084470474269891E921E8A4221
:10CE100001D800207047826A807801FB00207047AB
:10CE2000002102E04008491CC9B20128FAD1084695
:10CE300070472DE9F0410F00064606D002F0F0FAE7
:10CE4000022809D20120BDE8F081F56815B17069AA
:10CE5000A84207D8012505E0411CF4D07169814240
:10CE6000F1D83D462C467069641CA04202D80224C9
:10CE7000022D0AD32146304602F0D2FA38B1411CC5
:10CE8000E1D00128DFD0AC42EDD10020DBE76FF02C
:10CE900070422146304603F049FD30B957B1224671
:10CEA0003946304603F042FD20B101280DD001245F
:10CEB0002046C8E7F4603069411CF9D0401E30615B
:10CEC000707940F001007071F2E74FF0FF34EFE746
:10CED0002DE9F35F88460E6800E0761C30782F2835
:10CEE000FBD05C28F9D0009800242546D0F81CB06F
:10CEF000705D6D1C202825D32F2823D05C2821D0DD
:10CF0000FF2C3FD2A0F181017D290BD8715D6D1CF2
:10CF1000A1F140023F2A02D3403A7F2A32D201EBEC
:10CF2000002080B2012102F057F807002AD0802F9C
:10CF300004D2014667A0FFF74DFF18BB2BF8147011
:10CF4000641CD5E77219C8F80020202801D20425F6
:10CF500016E0002514E00BEB440030F8020C20280A
:10CF60000DD02E280BD06CB100212BF81410009896
:10CF70000B222021806902F097FC002706E0641E46
:10CF8000002CE8D10620BDE8FC9F7F1C3BF8170071
:10CF90002028FAD02E28F8D01FB145F0030500E074
:10CFA000641E2CB10BEB440030F8020C2E28F7D194
:10CFB0004FF00008C1464FF0080A3BF817607F1C8D
:10CFC00006B3202E03D02E2E04D1A74202D045F066
:10CFD0000305F2E7D04501D2A74219D1BAF10B0FF0
:10CFE0000ED0A74201D045F003050BD84FEA896067
:10CFF00027464FF008084FF00B0A4FEA1069DCE7AC
:10D0000045F00305009880690178E5293DD03EE0B0
:10D01000802E08D3304602F00DF8002101F0DCFF2D
:10D02000064645F00205FF2E0FD9AAF10100804502
:10D0300003D345F00305D046BFE70098310A826963
:10D0400002F8081008F1010818E026B1314624A0C2
:10D05000FFF7C0FE18B15F2645F003050EE0A6F10C
:10D060004100192802D849F0020907E0A6F1610041
:10D07000192803D8203E49F00109B6B20098816909
:10D0800001F8086008F1010897E705210170BAF17D
:10D09000080F03D14FEA89604FEA1069C9F3810094
:10D0A000032803D06FEA0901890701D145F0020581
:10D0B000A90709D409F00301012901D145F01005A0
:10D0C000012801D145F0080500988069C57200204B
:10D0D00059E70000222A3A3C3E3F7C7F00000000D6
:10D0E0002B2C3B3D5B5D000010B504460420FFF790
:10D0F0008DF90A484FF47A71047014FB01F1012292
:10D1000042804FF0E020026942F002020261416178
:10D11000016941F00101016110BD00004C000020D7
:10D1200070B5044605F0CEFE01280CD0094D688884
:10D13000844203D3B4FBF0F005F048F86888B4FBF0
:10D14000F0F100FB11444FF47A706043BDE8704089
:10D1500000F002B84C00002070B54FF0E02500212F
:10D160006C69094AAB6912785043AA699A42FCD0AB
:10D1700002D2A3EB020302E0A4EB020633441944FB
:10D1800013468142F1D370BD4C00002070B50E46AD
:10D190000546002100F087FA88B90024296928682B
:10D1A00002F0B0FE58B969690978E5290BD051B190
:10D1B00000240121284600F0A1F80028EED0042820
:10D1C00000D1072070BD641CB442F2D170BD0000D4
:10D1D0002DE9F05F0446002100F065FA00287AD1BD
:10D1E000FF254FF6FF70AB4620842169206802F0CE
:10D1F00089FE07007CD16669307848B1F17AE5286C
:10D2000001F03F0169D00A0704D50F2965D105E077
:10D2100004276DE00F2901D08DB34DE0E16979B3AA
:10D22000420606D596F80DB020F04000E28805468B
:10D230002284A84236D1727B5A4533D130788A464F
:10D2400020F04000401EB14600EB800101EBC0061B
:10D250004FF000080127284810F8081001EB0900DA
:10D26000008877B101F0E6FE0746FF2E1AD23AF8A1
:10D270001600761C01F0DEFEB84213D105E016E080
:10D280002FE0A0F57F41FF390CD108F10108B8F17A
:10D290000D0FE0D399F80000400606D52FB13AF8FB
:10D2A000160010B1FF25EDB21BE06D1EFBE7304606
:10D2B00003F018FD58451BD0A069C17AC9070CD1ED
:10D2C0000B210022491E07D316F8012B10F8013B51
:10D2D000D21AF7D001E00CE052B14FF6FF70FF25F3
:10D2E00020840021204600F009F807003FF47DAFBC
:10D2F0003846BDE8F09F0000EC3801082DE9F04108
:10D30000C78804467F1C38040E46000C2CD02069C8
:10D3100050B339075AD1401C2061E168206829B117
:10D320008278521E12EA171F04D04FE00089B842DB
:10D330001AD94BE002F074F80546012819D9681C87
:10D3400030D020684169A9423AD86EB1E168FFF750
:10D3500070FD05000BD0012D0BD0681C22D0206879
:10D3600003F025FDF0B906E00420BDE8F0810720B8
:10D37000FBE70220F9E720684FF40072002130300B
:10D3800002F092FA29462068FFF73EFD2168002648
:10D390004FF00108C8620CE080F80480206803F0B8
:10D3A00006FD08B10120E0E72068C16A491C761C2F
:10D3B000C16220688178B142EED8C16A891BC1621E
:10D3C000E56029462068FFF71FFD2061E78007F030
:10D3D0000F013022206802EB4111084460610020F7
:10D3E000C3E700002DE9F35FFF2504462E4604271E
:10D3F0004FF6FF7A4FF0000B67E0206802F082FDE5
:10D40000070066D16269107878B1D17AE52801F019
:10D410003F0108D02E2806D0082908D00023DDF8C7
:10D4200004C0634505D0FF2540E0042751E00123F7
:10D43000F5E70F2901D0B5BB3FE0410605D5567B86
:10D4400020F04000E18805462184A8422CD1507B81
:10D45000B04229D11078DFF8849000F03F00401EE0
:10D4600000EB800101EBC0010020E7690123D446F5
:10D4700019F800809044B8F8008033B1FF2913D226
:10D4800027F811804346491C01E0E0450CD1401CBF
:10D490000D28EDD31078400603D5FF2904D227F8D4
:10D4A00011B06D1E01E00DE0FF25EDB20021204618
:10D4B000FFF724FF070008D00BE0104603F012FC32
:10D4C000B04208D0A4F820A005E02169002994D139
:10D4D0000FB1C4F810B03846BDE8FC9FEC38010825
:10D4E0002DE9FF5F04460C22D4E9067639466846EA
:10D4F00002F0D2F99DF80B00C00718D00020F87296
:10D500000125E0612B4632466946384601F020FF8E
:10D510002046FFF75DFE10B96D1C642DF2D3642D1B
:10D520000BD004280AD19DF80B00F872E6619DF833
:10D530000B0080070FD5002004E0072004B0BDE8F1
:10D54000F09F401C36F810100029FAD10D21193037
:10D55000B0FBF1F500E0012529462046FFF716FE55
:10D5600006006BD16D1E50D0E088411B204600F0B4
:10D570009AF8060062D1A06903F0B4FB4FF6FF7A77
:10D5800003902169206802F0BDFC060056D1616954
:10D59000D4F81C90039848730F20C87200200873B9
:10D5A0008876EEB2C876701E00EB800202EBC003F4
:10D5B0000022DFF88CB001F1010801E0504502D0F3
:10D5C00039F813005B1C1BF802C001F80C001BF8B3
:10D5D00002704FEA102C07F808C000B95046521CE0
:10D5E0000D2AEBD3504502D039F8130008B946F0A4
:10D5F00040060E7021680120087100212046FFF7C7
:10D600007DFE06001AD16D1EBBD12169206802F093
:10D6100079FC060012D120220021606902F044F951
:10D62000D4E905010B2202F037F9A0696169C07ADB
:10D6300000F01800087321680120087130467DE76A
:10D64000EC3801082DE9F041018C0446C688A1F5AB
:10D650007F40FF3800D13146204600F024F8050015
:10D660001ED1E5274FF001082169206802F04AFC2D
:10D67000050012D120220021606902F015F96069CD
:10D680000770216881F80480E088B04208D2002148
:10D690002046FFF733FE0500E6D0042D00D1022519
:10D6A0002846BDE8F08170B5C18083680D46044608
:10D6B000012B34D020684169994230D923B90178CF
:10D6C000032904D1436A13B18078060110E001896F
:10D6D000A94224D9406A11E001F0A2FE0346401C91
:10D6E0001BD0022B1BD320684069984217D9AD1B71
:10D6F0002068B5421946EFD2FFF786FBE36070B1B0
:10D7000000EB1510206105F00F013022206802EBBC
:10D71000411108446061002070BD012070BD0220ED
:10D7200070BD000010B510B1012803D104E0FDF771
:10D73000CBFC38B1012010BDFFF722F902494FF4AC
:10D74000C0400880002010BD0C03002010B5144616
:10D750004FF4007318B101281CD0012010BD39B15D
:10D76000154A01290CD0022904D0032910D103E065
:10D77000002010BD2360FBE7B2F850002080F7E7DF
:10D78000D2E912011A460023FAF703FE2060EFE700
:10D79000042010BD0029EBD0012908D0022904D0B3
:10D7A0000329F5D108201080E2E71380E0E7034861
:10D7B00000881060DCE70000B00300200C030020AC
:10D7C0002DE9F0411C0015460E4605D030B1012868
:10D7D0000DD00120BDE8F0810420FBE7E2B229462C
:10D7E0003046FDF7DBFF78B1FDF76EFCF6E74FF44E
:10D7F000007769023A463046FFF704F9641E05F1E6
:10D80000010506F50076F4D10020E3E7002070471B
:10D810002DE9F0411C0015460E4605D030B1012817
:10D820000DD00120BDE8F0810420FBE7E2B22946DB
:10D830003046FEF7B7FA78B1FDF746FCF6E74FF44D
:10D84000007769023A463046FFF73EF9641E05F15B
:10D85000010506F50076F4D10020E3E7F8B50D46A2
:10D86000064641F64C21002002F018FC040002D1CB
:10D870001BA0FAF7B3FDFF2000900023C622E6218B
:10D880002046FCF787F8FF20FBF7ECFF1E4900203D
:10D8900000EB801201EB420292F88520012A15D09C
:10D8A000401CC0B20C28F3D305F1C60080B2009032
:10D8B00006F1E60083B22A4631462046FBF72EFCED
:10D8C0002146BDE8F840002002F0DCBB00EB8010F0
:10D8D00001EB400006221146001D00F0E3F8E3E7EB
:10D8E0004661696C656420746F206170706C79208A
:10D8F000666F72207061727469616C206D656D6F06
:10D9000072792E2E2E0D0A00C46901202DE9FC47E4
:10D91000884681464FF44371002002F0BFFB0700A8
:10D9200002D130A0FAF75AFDFF20009000233422E4
:10D9300078213846FCF72EF8FF20FBF793FF0124EF
:10D94000009430233A22022131200194FCF75CFA42
:10D950002E4E00254FF0300396F81F260A2A0ED2CD
:10D96000002205210120CDE90045FCF79BFDCDE912
:10D9700000453023052196F81F26192003E00521D4
:10D980000120CDE90045FCF78DFD96F820264FF0EB
:10D9900030030A2A0ED2002205214920CDE9004594
:10D9A000FCF780FDCDE900453023052196F82026BF
:10D9B000612003E005214920CDE90045FCF772FD17
:10D9C00008F1340080B2009009F1780083B2424639
:10D9D00049463846FBF7A2FB3946BDE8FC47002024
:10D9E00002F050BB4661696C656420746F20617001
:10D9F000706C7920666F72207061727469616C203E
:10DA00006D656D6F72792E2E2E0D0A00C46901208E
:10DA10002DE9F043164685B012784FF001080D4607
:10DA200004460A2ACDF8008089B2CDF8048002D2DB
:10DA3000A01D80B200E0A0B21823FCF733FDB0783F
:10DA40004FF0060905F1160798B1F078A0B900214A
:10DA5000CDE9028104F11B0082B2A81F049181B2BA
:10DA6000601ECDF80480BBB2CDF8009080B2FCF708
:10DA700067FBF078002812D004F11C0082B22D1F41
:10DA8000CDF80480CDF80880CDF80C80BBB2A9B2E7
:10DA9000A0B2CDF80090CDF81080FCF751FB05B096
:10DAA000BDE8F0832DE9F0478AB091460E468046E6
:10DAB0001C22204902A8FAF77BFE002402AF0125B0
:10DAC0000095019506EB441057F8242080B21823E6
:10DAD0004946FCF78AFC641CE4B2072CF0D309F138
